:020000040800F2
:100000000041002001010008231500080D1400081C
:100010002115000849010008431D000800000000E8
:100020000000000000000000000000007F1A00082F
:100030004B01000800000000DF190008811A0008C9
:100040001B0100081B0100081B0100081B01000820
:100050001B0100081B0100081B0100081B01000810
:100060001B0100081B0100081B0100081B01000800
:100070001B0100081B0100081B0100081B010008F0
:100080001B0100081B0100081B0100081B010008E0
:100090001B0100081B0100081B0100081B010008D0
:1000A0001B0100081B0100081B0100081B010008C0
:1000B0001B0100081B0100081B0100081B010008B0
:1000C0001B0100081B0100081B0100081B010008A0
:1000D0001B0100081B0100081B0100081B01000890
:1000E0001B0100081B0100081B010008DFF80CD0F1
:1000F00000F018F800480047AD1D0008004100203E
:100100000648804706480047FEE7FEE7FEE7FEE7B1
:10011000FEE7FEE7FEE7FEE7FEE7FEE7F91A000866
:10012000ED000008064C074D06E0E06840F00103D2
:1001300094E8070098471034AC42F6D3FFF7DAFF93
:100140004C5A00086C5A0008FEE77047F8B50446A0
:1001500040690E46401E0090236900221146204649
:100160005B1E00F022F900221146204600F049F9FA
:100170002421204600F0A6F8002504E03146204660
:1001800000F0ABF86D1C2069C11700EB517061697C
:10019000C0104843A842F1DCF8BD084600F05BB946
:1001A00010B50446222100F08DF8C421204600F04D
:1001B00094F82021204600F085F8FF21204600F029
:1001C00081F82046BDE8104000F039B970B504460A
:1001D00001202060022060600020A0600320E06019
:1001E000802020614FF494700D46606100F056F954
:1001F00010B14FF0FF3070BD2046A56100F050F8FF
:100200000121204600F05EF82721204600F065F825
:100210000121204600F061F80021204600F05DF841
:100220000C21204600F04EF8D721204600F055F86A
:10023000D621204600F051F89D21204600F04DF8CF
:100240002C21204600F03EF8A821204600F045F879
:100250003A21204600F036F81A21204600F03DF8F9
:100260003B21204600F02EF80821204600F035F80A
:100270001121204600F026F80321204600F02DF839
:1002800025463221204600F01DF80024A869015DB2
:10029000284600F022F8641C1E2CF7DB002070BDFD
:1002A00010B504460068002100F0E8F8C82000F00E
:1002B000D2F80121206800F0E1F8BDE81040C82024
:1002C00000F0C9B810B50C464068002100F0D6F81F
:1002D0002046BDE8104000F0F9B810B50C46406863
:1002E000012100F0CBF82046BDE8104000F0EEB848
:1002F0002DE9FF4F81B01E46DDE90E035FEA010BD9
:1003000050D0002A4EDB00284CDB002E4ADB002BAD
:1003100048DB00F0F807019802F0F80A0AEB070141
:100320000069814202DBA0F1010801E0A1F10108AE
:100330000199F0184C69A04201DB641E00E0441EE4
:100340004346324651460094019800F02EF832465A
:100350005146019800F055F824210198FFF7B2FFAB
:100360000025A01B00F101091AE0F81707EB5070F7
:10037000C0100090A8EB0A000024401CC11700EB3D
:10038000517609E000980BEB040105FB00100178A1
:100390000198FFF7A2FF641CB4EBE60FF2DB6D1CC3
:1003A000A945E2DC05B0BDE8F08F2DE9F0410F462C
:1003B0001E46144680464421069DFFF783FFC7F37F
:1003C000C7014046FFF789FFC6F3C7014046FFF764
:1003D00084FF45214046FFF775FFE1B24046FFF735
:1003E0007CFFC4F307214046FFF777FFE9B24046A0
:1003F000FFF773FFC5F307214046BDE8F041FFF763
:100400006CBF70B50D46144606464E21FFF75AFFE5
:10041000C5F3C7013046FFF760FF4F213046FFF7B5
:1004200051FFE1B23046FFF758FFC4F307213046D1
:10043000FFF753FF3046BDE87040AFF3008010B5C2
:10044000044602E0642000F006F8E06800F006F8D8
:100450000128F7D010BD00F053B80000064A10B5CF
:1004600002EBC00152F83000898889B200F032F9FD
:10047000012800D0002010BDE0000020064B01291B
:1004800003EBC00253F83000526891B202D0002250
:1004900000F025B90122FBE7E00000200A480949E5
:1004A000D0E90023C1E90023D0E90223C1E90223F6
:1004B000D0E90423C1E90423D0E90620C1E90620DC
:1004C00000207047E00000200C00002031B50A4CED
:1004D0000022A08881B2206800F001F94FF47A73FD
:1004E00001226946054800F007FEA088012281B27A
:1004F000206800F0F4F838BDE0000020480000203B
:1005000031B500F0F1F8044600F0EEF80099001B58
:100510008842F9D338BD00002DE9F84FDFF890A1EB
:1005200000220AF1040B144601274FF00F090BF1CA
:10053000040E00BF0B6807FA04F52B40AB4274D1E0
:10054000DFF870C14E68A6EB0C0866452BD00DDCB9
:10055000032E34D005DC36B3012E19D0022E2FD154
:100560001BE0112E16D0122E2AD119E0B8F5881FE3
:1005700019D006DCB8F5803F15D0B8F5801F1FD123
:1005800011E0B8F5001F0ED0B8F5041F18D10AE02D
:10059000CA6815E0CA68121D12E0CA6808320FE086
:1005A000CA680C320CE08A682AB1012A4FF00802AE
:1005B00003D0456104E0042202E0056100E000226E
:1005C000FF2B01D8064601E000F104064FEA84053E
:1005D00001D9A5F12005D6F800C009FA05F82CEAE2
:1005E000080C02FA05F54CEA050CC6F800C04D6887
:1005F000ED0057D5304DAE6946F00106AE61AD69EC
:1006000024F0030605F0010500952C4D06EB050CC2
:10061000DCF80850A6074FEA167809FA08F6B54341
:10062000274EB04202D1002610E03BE0254EB042FA
:1006300001D101260AE0244EB04201D1022605E094
:10064000224EB04201D1032600E0042606FA08F645
:100650002E43CCF808604D68DAF80060ED0355468B
:1006600001D51E4300E09E432E604D68DBF800601C
:10067000AD035D4601D51E4300E09E432E604D68EC
:10068000DEF80060ED02754601D51E4300E09E4392
:100690002E604D68AD020E4D2E6801D51E4300E060
:1006A0009E432E60641C102CFFF444AFBDE8F88F0D
:1006B0000004014000001110001002400000014041
:1006C00000080140000C01400010014000140140EE
:1006D0000C0401408068084000D0012070470AB136
:1006E000016170470904FBE701480068704700009A
:1006F0000000002002480168491C016070470000AA
:1007000000000020074810B5016841F010010160A9
:10071000032000F07BF8002000F006F800F016F847
:10072000002010BD0020024010B5044600F044F93E
:100730004FF47A71B0FBF1F000F08EFD00222146FB
:10074000501E00F043F8002010BD00001D4808B501
:10075000816941F001018161806900F00100009030
:10076000032000F053F8002211466FF00B0000F058
:100770002DF8002211466FF00A0000F027F8002241
:1007800011466FF0090000F021F800221146501FB9
:1007900000F01CF800221146101F00F017F800228C
:1007A0001146901E00F012F800221146501E00F073
:1007B0000DF80548416821F0E06141F000714160A9
:1007C00008BD00000010024000000140F0B40E4BD4
:1007D0001B680C46C3F30223C3F10705042D00D99F
:1007E0000425191D072901D2002300E0DB1E012684
:1007F00006FA05F1491E214099409E40761E16409A
:100800003143F0BC00F08EBE0CED00E0064900F074
:10081000070208684FF6FF03184040EA0220034A27
:1008200010430860704700000CED00E00000FA057E
:100830002DE9F047DFF8708105460E46D8F8000034
:1008400000F00700B0420CD2D8F8001021F00701E8
:100850003143C8F80010D8F8000000F00700B0429B
:1008600077D12878514C800705D56068A96820F0B9
:10087000F000084360602878C00759D069680120FB
:1008800001290DD0022929D05FF0020393FAA3F2C7
:10089000B2FA82F242F02002520904D0226803E048
:1008A0004FF40033F2E7626A93FAA3F3B3FA83F3E7
:1008B00003F01F03984002424BD0606820F0030011
:1008C00008436060FFF710FF6968074641F288300F
:1008D00001290DD00229814617D025E04FF0007381
:1008E000D4E700BFFFF700FFC11B494501D918E05D
:1008F00081466068C0F381000128F3D118E000BF91
:10090000FFF7F2FEC11B49450BD86068C0F38100B8
:100910000228F5D10CE000BFFFF7E6FEC11B4945F8
:1009200002D90320BDE8F087606810F00C0FF3D106
:10093000D8F80010404601F00701B1420BD9016818
:1009400021F0070131430160006800F00700B04268
:1009500001D00120E6E72878400705D56068E968FE
:1009600020F4E060084360602878000706D56068DE
:10097000296920F4605040EAC100606000F052F83C
:100980006168F02292FAA2F201F0F001B2FA82F26A
:10099000D140074A515CC840064908600020FFF773
:1009A000C3FE0020BEE7000000200240001002400D
:1009B000E02000080800002001480068704700009F
:1009C0000800002008480949006849684FF4E062BF
:1009D00092FAA2F201F4E061B2FA82F2D140044A42
:1009E000515CC84070470000080000200010024021
:1009F000F020000808480949006849684FF460522F
:100A000092FAA2F201F46051B2FA82F2D140044AA1
:100A1000515CC840704700000800002000100240F0
:100A2000F020000810B519A385B00FCB8DE80F009A
:100A30001AA01B4B006804905A681A4802F00C0177
:100A400004291DD008291BD14FF4701494FAA4F482
:100A500002F47011B4FA84F4E140D2031DF80110DD
:100A600010D55A684FF4003393FAA3F302F400321E
:100A7000B3FA83F3DA4004AB9A5CB0FBF2F048437C
:100A800005B010BD08484843FAE70000020304051A
:100A9000060708090A0B0C0D0E0F101001020000CA
:100AA0000010024000127A0000093D002DE9F84FC5
:100AB00004460078F74DC0074FF0010625D068685E
:100AC0007704C0F38100012807D06868C0F3810073
:100AD00002281BD16868C00318D597FAA7F0B0FAAE
:100AE00080F040F02000400901D0286800E0686AEA
:100AF00097FAA7F1B1FA81F101F01F0106FA01F1AD
:100B000008425ED0606800287CD05AE06068B0F58A
:100B1000803F0BD010B1B0F5A02F11D0286820F481
:100B200080302860286820F4802002E0286840F4A3
:100B300080302860606828B3FFF7D6FD80460BE060
:100B4000286840F480202860F0E700BFFFF7CCFD64
:100B5000A0EB0800642871D897FAA7F0B0FA80F0EB
:100B600040F02000400901D0286800E0686A97FA48
:100B7000A7F1B1FA81F101F01F0106FA01F1084273
:100B8000E4D01EE0FFF7B0FD804605E0FFF7ACFDC6
:100B9000A0EB08006428DED897FAA7F0B0FA80F03E
:100BA00040F02000400901D0286800E0686A97FA08
:100BB000A7F1B1FA81F101F01F0106FA01F1084233
:100BC000E4D12078DFF8D08280074FF000094FF0A1
:100BD00002075BD568684FF0F80B10F00C0F07D0D8
:100BE0006868C0F3810002281CD16868C00319D46A
:100BF00097FAA7F0B0FA80F040F02000400902D048
:100C0000286801E08BE0686A97FAA7F1B1FA81F1F0
:100C100001F01F0106FA01F108422CD020690128D9
:100C20007DD128E0206990B396FAA6F0B0FA80F062
:100C300048F82060FFF758FD824607E011E100BF49
:100C4000FFF752FDA0EB0A00022884D897FAA7F01C
:100C5000B0FA80F040F02000400901D0286800E0A0
:100C6000686A97FAA7F1B1FA81F101F01F0106FA5B
:100C700001F10842E4D028689BFAABF26169B2FA4C
:100C800082F220F0F80091400843286025E0FFE759
:100C900096FAA6F1B1FA81F148F82190FFF724FD08
:100CA000824605E0FFF720FDA0EB0A000228CCD821
:100CB00097FAA7F0B0FA80F040F02000400901D088
:100CC000286800E0686A97FAA7F1B1FA81F101F0AB
:100CD0001F0106FA01F10842E4D1207800076ED521
:100CE000A069B8B396FAA6F0B0FA80F008EB8000DD
:100CF000C0F88064FFF7F8FC824605E0FFF7F4FCDB
:100D0000A0EB0A000228A0D897FAA7F0B0FA80F06A
:100D100040F06000B6EB501F02D128680CE062E1A1
:100D200097FAA7F0B0FA80F040F06000B7EB501FE0
:100D300001D1286A00E0686A97FAA7F1B1FA81F157
:100D400001F01F0106FA01F21042D7D00120FFF78F
:100D5000D7FB34E0FFE796FAA6F1B1FA81F108EB90
:100D60008101C1F88094FFF7BFFC824606E000BF16
:100D7000FFF7BAFCA0EB0A00022872D897FAA7F096
:100D8000B0FA80F040F06000B6EB501F01D1286847
:100D90000BE097FAA7F0B0FA80F040F06000B7EBF4
:100DA000501F01D1286A00E0686A97FAA7F1B1FAEA
:100DB00081F101F01F0106FA01F21042D8D120782A
:100DC000400765D5E86940F08050E861E869DFF8E0
:100DD000CCB000F080500090DBF8001041F480713E
:100DE000CBF80010FFF780FC824605E0FFF77CFCA3
:100DF000A0EB0A00642834D8DBF80000C005F5D564
:100E0000E06801280AD008B1052813D0286A20F02C
:100E100001002862286A20F0040002E0286A40F0FD
:100E200001002862E06841F2883B90B3FFF75CFC68
:100E300082460BE0286A40F004002862EEE700BF1B
:100E4000FFF752FCA0EB0A0159450AD897FAA7F020
:100E5000B0FA80F040F04000B6EB501F02D1286895
:100E60000CE0A3E097FAA7F0B0FA80F040F0400061
:100E7000B7EB501F01D1286A00E0686A97FAA7F122
:100E8000B1FA81F101F01F0206FA02F10842D7D04F
:100E900031E005E0001002400000424200700040D6
:100EA000FFF722FC824605E0FFF71EFCA0EB0A01DB
:100EB00059457BD897FAA7F0B0FA80F040F040008F
:100EC000B6EB501F01D128680BE097FAA7F0B0FAF3
:100ED00080F040F04000B7EB501F01D1286A00E0DD
:100EE000686A97FAA7F1B1FA81F101F01F0206FAD8
:100EF00002F10842D8D1E06980B36968C1F3810189
:100F0000022970D04FF080714F000228484609D066
:100F100091FAA1F1B1FA81F148F82100FFF7E4FB61
:100F2000044669E08A4691FAA1F1B1FA81F1C1461D
:100F300048F82100FFF7D8FB804605E0FFF7D4FB17
:100F4000A0EB0800022854D897FAA7F0B0FA80F076
:100F500040F02000400902D0286801E061E0686AA2
:100F600097FAA7F1B1FA81F101F01F0106FA01F138
:100F70000842E3D1206AB0F5803F05D16868A168D6
:100F800020F4003008436860D4E908010843696828
:100F900021F47411084368609AFAAAF0B0FA80F05C
:100FA00049F82060FFF7A0FB044606E021E000BFFF
:100FB000FFF79AFB001B02281BD897FAA7F0B0FA9C
:100FC00080F040F02000400901D0286800E0686A05
:100FD00097FAA7F1B1FA81F101F01F0106FA01F1C8
:100FE0000842E5D01DE01EE0FFF77EFB001B022853
:100FF00002D90320BDE8F88F97FAA7F0B0FA80F085
:1010000040F02000400901D0286800E0686A97FAA3
:10101000A7F1B1FA81F101F01F0106FA01F10842CE
:10102000E2D10020E6E70120E4E7000010B504006B
:1010300003D094F8510010B104E0012010BD204607
:1010400000F038F8022084F851002068016821F08F
:1010500040010160D4E901010843D4E903121143BE
:10106000084361690843218B01F400710843E16979
:101070000843216A0843A16A084321680860A069FF
:10108000042101EA1040616A084321684860216830
:10109000E06A08612068C16921F40061C161044906
:1010A000002008706065012084F85100002010BD08
:1010B0000400002000B500680C4985B0884212D1B8
:1010C0000B48816941F4805181618069694600F46F
:1010D00080500490A02000900220019003200390F3
:1010E0000448FFF719FA05B000BD000000300140C8
:1010F00000100240000801402DE9F843044690F832
:1011000051009846012870D139B332B394F8500099
:1011100001286AD0012684F85060122084F851001A
:10112000002565652163A286E286E564A564A56362
:10113000A587E587A06A7703B84209D120680168CE
:1011400021F4005101602068016841F40051016000
:10115000A068B0F5004F03D007E00120BDE8F88398
:101160002068016841F480410160206801684906F7
:1011700003D4016841F040010160E0680028606824
:1011800004D0D8B1E08E012818D021E010B1E08E53
:10119000012808D1206B411C216321680078C860B8
:1011A000E08E401EE0860004000C1FD04346002263
:1011B0000221204600F014FCA8B9EBE7206B21685F
:1011C0000088C860206B801C2063E08E401EE08693
:1011D0000004000C0AD0434600220221204600F001
:1011E000FFFB0028EAD00320B8E726E0A06AB84257
:1011F00004D12068016841F4805101604346002217
:101200000221204600F0ECFB30B943460122802148
:10121000204600F0E5FB20B1606D40F010006065F5
:10122000E1E7A06818B92068C1688068009084F878
:10123000516084F85050002090E702208EE74FF074
:10124000E0210428086903D020F0040008617047F9
:1012500040F00400FAE7704710B5401EB0F1807FFF
:1012600001D3012010BD4FF0E02460610F21601711
:1012700000F058F90020A06107202061002010BD77
:1012800010B5FFF7E8FF10BD70B5040004D094F866
:101290003900002510B106E0012070BD84F83850F7
:1012A000204600F021F8022084F839002068C16847
:1012B00021F40051C160204600F042FC2068016921
:1012C00021F4904101612068416921F02A014161C6
:1012D0002068C16841F40051C160E563012084F8D1
:1012E0003900002070BD000010B50068114986B0BB
:1012F00088421CD11048C16941F40031C161C06904
:101300000E4C00F400300490042000900220019064
:101310000320039069462046FFF7FEF800210820CD
:10132000CDE90001029169462046FFF7F5F806B0C5
:1013300010BD0000004400400010024000080140C1
:101340002DE9F047044690F8390099460D460128EA
:1013500001D0222858D12DB322B394F838000128A7
:1013600052D0012684F838600027E76394F83900EA
:1013700022281AD05FF0120084F83900A284E28497
:101380004FF48058E08C4B46401EE084A0684FF03C
:10139000000240454FF08001204613D100F088FC48
:1013A00008BB04E00120BDE8F0873220E4E728888C
:1013B0002168C0F308004860206908B16D1C08E08E
:1013C000AD1C06E000F074FC68B9216815F8010B4B
:1013D0004860E08C0028D5D14B46002240212046B1
:1013E00000F066FC08B10320DDE794F839003228EC
:1013F00006D084F8396000BF84F838700020D2E746
:10140000222084F83900F7E70220CCE7FEE700004D
:101410002DE9F0432D4885B0816941F020018161BB
:10142000816901F020010491816941F00401816129
:10143000816901F004010491816941F01001816129
:10144000816901F010010491816941F00801816115
:1014500080691F4F00F00800049000228021384668
:10146000FFF73DF9DFF86C807E15002231464046DB
:10147000FFF735F9DFF86090002240214846FFF77A
:101480002EF980200124CDE9000402256946039548
:101490003846FFF741F820020090002001900290AA
:1014A00069464046FFF738F8CDE900646946404692
:1014B0000395FFF731F84020CDE900046946039514
:1014C0004846FFF729F805B0BDE8F0830010024058
:1014D0000010014000080140000C01400F4810B509
:1014E0000D4901604FF4827141604FF40041816009
:1014F0000021C1604FF400720161C0E90512182299
:10150000C0E90721416281620A21C162FFF78EFDB5
:10151000002800D0FEE710BD003001404800002048
:10152000FEE770470907090E002806DA00F00F00F1
:1015300000F1E02080F8141D704700F1E02080F8F1
:1015400000147047F0B50F46064600250CE0002455
:1015500006E03B4622462946304600F009F8641C66
:10156000B068A042F5DC6D1C7068A842EFDCF0BDED
:1015700070B500291EDB45688D421BDD002A19DB92
:101580008468944216DDCC1701EB547424F00704F0
:101590000E1B02FB051100684FEAE17201EB52716C
:1015A00000EBE10080240178F4400BB1214300E01E
:1015B000A143017070BD00002DE9FF4F93460D9DC2
:1015C000A888410700D0012101EBD000203BE98829
:1015D0005843484329680E18002727E000244FF09D
:1015E000800A0BEB0708DFF8509017E0E01704EBD8
:1015F000507020F007003178221A2AFA02F00142D6
:1016000006D00198424601190E9B009800F01AF985
:1016100004EA0900072800D1761C641CA888A042AF
:10162000E4DC2879400700D0761C7F1CE888B842AB
:10163000D4DCBDE8FF8F0000070000802DE9FF4FDC
:101640005D420026022092468B4600EB450400BF17
:101650000AEB0607ABEB050189463A460D9B00985D
:1016600000F0F0F80BEB05013A4688460D9B009818
:1016700000F0E8F8AAEB060741463A460D9B0098B1
:1016800000F0E0F83A4649460D9B009800F0DAF881
:101690002046B44208DC761C00EB4604641CF5428C
:1016A00002D1A84200DC0020A84203DD6D1C04EB3F
:1016B0004504641C002DCBDDBDE8FF8F2DE9FF4FF5
:1016C00081B05D4200270220DDF838B000EB450410
:1016D00003985B46C21902989146411B8A460198BD
:1016E00000F0B0F802984A4646195B463146019828
:1016F00000F0A8F803983146C21B90465B4601985B
:1017000000F0A0F8424651465B46019800F09AF876
:101710000120A0EB45039A464A463146CDF800B079
:10172000019800F045F8534642463146CDF800B0E6
:10173000019800F03DF82046BC4208DC7F1C00EB1D
:101740004704641CFD4202D1A84200DC0020A842EC
:1017500003DD6D1C04EB4504641C002DB8DD05B0F1
:10176000BDE8F08F2DE9F8438146DDE908088B429A
:1017700001DD0C4600E01C4600DD19460D46904296
:1017800001DD164600E0064600DD0246A2EB060734
:101790000AE000BF07F10103324621464846CDF872
:1017A000008000F0E4F8641CAC42F3DDBDE8F8838F
:1017B0002DE9F041164680460C46CF18069D06E0FE
:1017C0002B4632462146404600F03CF8641CA742B6
:1017D000F6DCBDE8F0812DE9FF4F81B00C460E9F8D
:1017E0001E461546181B00D5A01B81464FF0FF3141
:1017F000B44201DA012000E008460090781B00287E
:1018000000DDE81B8246BD4200DA01218B4609EB70
:101810000A0810E02A4621460F9B019800F012F8B2
:10182000BAEB480F02DC0098D0440444B9EB480FEF
:1018300001DBC8445D44B44201D0BD42EAD105B0E9
:10184000BDE8F08F30B4C468ACB1012C1ED0022CBE
:101850002AD0032C35D1002933DB85688D4230DD59
:10186000002A2EDB446894422BDD14466A1A214676
:1018700030BCFFF77DBE002923DB44688C4220DDAD
:10188000002A1EDB846894421BDDF1E7002918DB87
:1018900084688C4215DD002A13DB4568954210DD13
:1018A0000C46A91A2246E3E700290ADB45688D4267
:1018B00007DD002A05DB8468944202DD691AA21A5A
:1018C000D6E730BC70472DE9F8478246DDE90905C7
:1018D0008B4201DD0F4600E01F4601DD1C4600E0A3
:1018E0000C46904201DD164600E0064600DD024649
:1018F0009146A4EB070808F10103324639465046E9
:101900000095FFF755FF08F101034A463946504656
:101910000095FFF74DFFA9EB060808F101033246D9
:1019200039465046009500F022F808F1010332468E
:1019300021465046009500F01AF8BDE8F8872DE9D9
:10194000FC439046DDE9096781461C460D4609E0E7
:10195000424629464846CDE90067FFF72DFEB0888C
:10196000641C05442378002BF2D1BDE8FC832DE9EB
:10197000F0410E4680461446D718069D06E02B46D9
:10198000224631464046FFF75DFF641CA742F6DC65
:10199000BDE8F081806870474068704710B500244A
:1019A000C4600160510707D0D11702EB517121F0DB
:1019B0000701511A521A0832C0E9012310BD816093
:1019C0007047C16070474A0707D0CA1701EB5272CF
:1019D00022F007028A1A891A08314160704770475D
:1019E0002DE9F0471D4690460E460446FEF77CFE64
:1019F00007465FEA08004FF000084FF4005A4FF026
:101A0000010926D034E0681C23D025B1FEF76CFE16
:101A1000C01BA8421DD92068416821F0E001416047
:101A20002068016821F040010160A06A504509D199
:101A30002068016821F4005101602068016841F4C8
:101A40000051016084F8519084F850800320BDE873
:101A5000F0872068806836EA0000D4D10DE0681C69
:101A600006D0002DD7D0FEF73FFEC01BA842D2D82B
:101A70002068806836EA0000F1D00020E7E7704770
:101A800010B5FEF737FEBDE81040FFF7F9BB30B5E3
:101A90008FB001210804CDE9001000240294022532
:101AA0000491CDE907504FF4E01009906846FEF725
:101AB000FDFF00B1FEE70F20CDE90A054FF480607D
:101AC000CDE90C4002210AA80E94FEF7B1FE00B148
:101AD000FEE7FEF771FF4FF47A71B0FBF1F0FFF70C
:101AE000BBFB0420FFF7ABFB00221146501EFEF7A4
:101AF0006DFE0FB030BD00000D48016841F00101DE
:101B0000016041680B4A1140416001680A4A114076
:101B10000160016821F480210160416821F4FE0127
:101B200041604FF41F0181600449C00308607047A1
:101B3000001002400000FFF8FFFFF6FE08ED00E095
:101B40002DE9F041044600680169E26821F4405142
:101B5000114301612169A068084361690843216854
:101B6000CA6841F20C639A430243CA602068416923
:101B7000A26921F44071114341614C4920686425F8
:101B8000322688423CD1FEF735FF00EBC00101EB65
:101B9000001061688900B0FBF1F7FEF72BFF00EB46
:101BA000C00101EB00106168B0468900B0FBF1F0A4
:101BB000B0FBF5F06FF01801484307EB800106EB2E
:101BC0000110B0FBF5F000F0F006FEF713FF00EB9C
:101BD000C00101EB001061688900B0FBF1F0B0FBBF
:101BE000F5F006EB0016FEF705FF00EBC00101EB78
:101BF000001061688900B0FBF1F7FEF7FBFE3BE0E7
:101C0000FEF7E0FE00EBC00101EB00106168890007
:101C1000B0FBF1F7FEF7D6FE00EBC00101EB0010C0
:101C20006168B0468900B0FBF1F0B0FBF5F06FF0F1
:101C30001801484307EB800106EB0110B0FBF5F0FB
:101C400000F0F006FEF7BEFE00EBC00101EB001055
:101C500061688900B0FBF1F0B0FBF5F006EB00160F
:101C6000FEF7B0FE00EBC00101EB001061688900D7
:101C7000B0FBF1F7FEF7A6FE00EBC00101EB001090
:101C800061688900B0FBF1F0B0FBF5F06FF018016E
:101C9000484307EB800108EB0110B0FBF5F0216829
:101CA00000F00F0030448860BDE8F081003801404A
:101CB0002DE9F0471D4690460E460446FEF714FDFA
:101CC00007465FEA08004FF000094FF0010808D00E
:101CD00030E0681C05D095B1FEF706FDC01BA84298
:101CE0000DD82068006836EA0000F2D127E0681CB1
:101CF00020D025B1FEF7F8FCC01BA8421AD92068F5
:101D0000C16821F08001C1602068C16821F0200114
:101D1000C1602068C16821F48071C1602068416998
:101D200021F00101416184F8398084F83890032062
:101D3000BDE8F0872068006836EA0000D7D00020B0
:101D4000F6E7FEE7014A024900F013B8951D0008C6
:101D50003C00002002E008C8121F08C1002AFAD186
:101D600070477047002001E001C1121F002AFBD11B
:101D700070472DE9F04116460F460446002503E062
:101D80003946B047641C6D1C20780028F8D12846DD
:101D9000BDE8F08113B54FF6FF7301226946024892
:101DA000FFF7CEFA00981CBDA00000202DE9F04FEF
:101DB00091B04FF4945000F05DF997A10D90D1E9E6
:101DC0000001CDE90E01FEF79DFCFFF760FEFFF775
:101DD0001FFBFFF783FB93489149002401604FF4F8
:101DE000E131C0E901140C21C460C0E904418461FF
:101DF000C461FFF749FA00B1FEE78B4902A8FEF77C
:101E0000E5F94FF0FF3500287ED1DDE9062309A86A
:101E10000D99FFF7C3FD012109A8FFF793FB2220CD
:101E2000CDE9000480230A22002109A8FFF79AFCCB
:101E300001207E4ECDE900607DA30E22002109A87D
:101E4000FFF77DFDCDE900647DA32222002109A8D2
:101E5000FFF775FD6E26CDE9006438233C22102182
:101E600009A8FFF730FDCDE9006438233C2210219A
:101E700009A8FFF7B0FCCDE9006410233C2238210B
:101E800009A8FFF7A8FC1E235A22782109A800946C
:101E9000FFF7D4FBB420CDE90004382382221021BF
:101EA00009A8FFF75FFC1E23A022782109A800944F
:101EB000FFF704FC09A8FFF76DFD064609A8FFF728
:101EC0006BFDCDE9000600231A4602A80D99FEF726
:101ED0000FFA02A8FEF764F94FF4FA6102A8FEF7C0
:101EE0005CF9FF2102A8FEF731F902A8FEF758F9C4
:101EF000FF2102A8FEF72AF902A8FEF751F954497A
:101F000002A8FEF763F900E000E030B151A0FFF74E
:101F100019FF11B02846BDE8F08FDDE90601CDE9D3
:101F2000000100231A46514902A8FEF7E1F902A870
:101F3000FEF736F9DDE90601CDE9000100231A4676
:101F40004A4902A8FEF7D4F902A8FEF729F9FEF7DC
:101F5000CBFBDFF81CB105460A264FF03C084FF4D6
:101F60007A794FF4167A00BFFEF7BEFB411BB1FB36
:101F7000F9F1B1FBFAF030308DF838004046B1FB92
:101F8000F0F2B2FBF6F306FB132230328DF8392063
:101F9000B1FBF0F208FB1212B2FBF6F230328DF810
:101FA0003B20B1FBF8F208FB1210B0FBF6F106FB88
:101FB000110030308DF83C00202109A8FFF703FD07
:101FC000602109A8FFF7FBFC012109A8FFF7F9FC34
:101FD000012109A8FFF7B6FACDE900B40EAB04223F
:101FE000002109A8FFF7ABFC09A8FFF7D3FC0746BF
:101FF00009A8FFF7D1FCCDE900074823502202A829
:102000000D99FEF775F902A8FEF7CAF84FF4FA71B8
:1020100002A8FEF7C2F8A7E730303A3030000000DF
:1020200000440040A0000020F82000082C00002000
:1020300048656C6C6F20776F726C64210000000043
:10204000652D50617065722044656D6F0000000061
:1020500016210008652D506170657220696E6974E3
:10206000206661696C65640A000000003421000884
:1020700034000020F0B50B30154D20F0070100248E
:10208000144A0FE003688B420BD38B4205D95E1ACA
:1020900043184768C3E9006700E04368136002C063
:1020A00004E0021D10680028ECD12046002802D16F
:1020B000286808B10020F0BD064A07481060074AAA
:1020C000121A22F00702C0E9002401202860D7E795
:1020D00044000020400000200401002000310020C6
:1020E00000000000000000000102030406070809C8
:1020F0000000000001020304020201111212222258
:10210000666969595899998800000000F8B413511C
:10211000355151190100101818081818080000004E
:102120000000000000000000000013144412000032
:1021300000000000FFFFFFFFFFFFFFFFFFFFFFFFAB
:10214000FFFFFFFFFFFFFFFFFFFFFFFFFFFFFFFF9F
:10215000FFFFFFFFFFFFFFFFFFFFFFFFFFFFFFFF8F
:10216000FFFFFFFFFFFFFFFFFFFFFFFFFFFFFFFF7F
:10217000FFFFFFFFFFFFFFFFFFFFFFFFFFFFFFFF6F
:10218000FFFFFFFFFFFFFFFFFFFFFFFFFFFFFFFF5F
:10219000FFFFFFFFFFFFFFFFFFFFFFFFFFFFFFFF4F
:1021A000FFFFFFFFFFFFFFFFFFFFFFFFFFFFFFFF3F
:1021B000FFFFFFFFFFFFFFFFFFFFFFFFFFFFFFFF2F
:1021C000FFFFFFFFFFFFFFFFFFFFFFFFFFFFFFFF1F
:1021D000FFFFFFFFFFFFFFFFFFFFFFFFFFFFFFFF0F
:1021E000FFFFFFFFFFFFFFFFFFFFFFFFFFFFFFFFFF
:1021F000FFFFFFFFFFFFFFFFFFFFFFFFFFFFFFFFEF
:10220000FFFFFFFFFFFFFFFFFFFFFFFFFFFFFFFFDE
:10221000FFFFFFFFFFFFFFFFFFFFFFFFFFFFFFFFCE
:10222000FFFFFFFFFFFFFFFFFFFFFFFFFFFFFFFFBE
:10223000FFFFFFFFFFFFFFFFFFFFFFFFFFFFFFFFAE
:10224000FFFFFFFFFFFFFFFFFFFFFFFFFFFFFFFF9E
:10225000FFFFFFFFFFFFFFFFFFFFFFFFFFFFFFFF8E
:10226000FFFFFFFFFFFFFFFFFFFFFFFFFFFFF80084
:102270001FFFFFFFFFFFFFFFFFFFFFFFFFFFF80054
:102280001FFFFFFFFFFFFFFFFFFFFFFFFFFFF80044
:102290001FFFFFFFFFFFFFFFFFFFFFFFFFFFF80034
:1022A0001FFFFFFFFFFFFFFFFFFFFFFFFFFFF80024
:1022B0001FFFFFFFFFFFFFFFFFFFFFFFFFFFF80014
:1022C0001FFFFFFFFFFFFFFFFF8000000000000077
:1022D0001FFFFFFFFFFFFFFFFF800000000003F074
:1022E0001FFFFFFFFFFFFFFFFF800000000003F064
:1022F0001FFFFFFFFFFFFFFFFF800000003803F01C
:102300001FFFFFFFFFFFFFFFFF80000001F803F04A
:102310001FFFFFFFFFFFFFFFFF8000000FF803F02C
:102320001FFFFFFFFFFFFFFFFF8000007FF803F0AC
:102330001FFFFFFFFFFFFFFFFF800003FFF8000FFD
:10234000FFFFFFFFFFFFFFFFFF80001FFFF8000FF1
:10235000FFFFFFFFFFFFFFFFFF80007FFFF0000F89
:10236000FFFFFFFFFFFFFFFFFF80007FFF80000FE9
:10237000FFFFFFFFFFFFFFFFFF80007FFC00000F5C
:10238000FFFFFFFFFFFFFFFFFF80007FF800000F50
:10239000FFFFFFFFFFFFFFFFFF80003FFE00000F7A
:1023A000FFFFFFFFFFFFFFFFFF800007FFC0000FE1
:1023B000FFFFFFFFFFFFFFFFFF800000FFF8000FA0
:1023C000FFFFFFFFFFFFFFFFFF8000001FF8000F70
:1023D000FFFFFFFFFFFFFFFFFF8000001FF8000F60
:1023E000FFFFFFFFFFFFFFFFFF8000007FF8000FF0
:1023F000FFFFFFFFFFFFFFFFFF800003FFF8000F5D
:10240000FFFFFFFFFFFFFFFFFF80001FFFE0000F48
:10241000FFFFFFFFFFFFFFFFFF80007FFF00000FB8
:10242000FFFFFFFFFFFFFFFFFF80007FFC00000FAB
:10243000FFFFFFFFFFFFFFFFFF80007FF000000FA7
:10244000FFFFFFFFFFFFFFFFFF80007FFC00000F8B
:10245000FFFFFFFFFFFFFFFFFF80001FFF00000FD8
:10246000FFFFFFFFFFFFFFFFFF800003FFE0000F04
:10247000FFFFFFFFFFFFFFFFFF800000FFF8000FDF
:10248000FFFFFFFFFFFFFFFFFF8000003FFF800F08
:10249000FFFFFFFFFFFFFFFFFF80000007FFC00FF0
:1024A000FFFFFFFFFFFFFFFFFF80000001FFE00FC6
:1024B000FFFFFFFFFFFFFFFFFF80007C007FF00FAB
:1024C000FFFFFFFFFFFFFFFFFF80007F000FF80F00
:1024D000FFFFFFFFFFFFFFFFFF80007FC007FC0F34
:1024E000FFFFFFFFFFFFFFFFFF80007FE000000F07
:1024F000FFFFFFFFFFFFFFFFFF80007FF800000FDF
:10250000FFFFFFFFFFFFFFFFFF80003FFE00000F08
:10251000FFFFFFFFFFFFFFFFFF800007FFC0000F6F
:10252000FFFFFFFFFFFFFFFFFF800001FFF0000F35
:10253000FFFFFFFFFFFFFFFFFF83FF007FF8000F9C
:10254000FFFFFFFFFFFFFFFFFF81FE001FF8000FEF
:10255000FFFFFFFFFFFFFFFFFF80FF001FF8000FDF
:10256000FFFFFFFFFFFFFFFFFF807FC07FF8000F2F
:10257000FFFFFFFFFFFFFFFFFF803FF9FFF0000FAE
:10258000FFFFFFFFFFFFFFF000001FFFFF80000FB6
:10259000FFFFFFFFFFFFFFF0003F0BFFFE00000FFC
:1025A000FFFFFFFFFFFFFFF0003F00FFF800000FFD
:1025B000FFFFFFFFFFFFFFF0003F003FE000000FC5
:1025C000FFFFFFFFFFFFFFF0003F000F8000000F45
:1025D000FFFFFFFFFFFFFFF0003F00020000000FC2
:1025E000FFFFFFFFFFFFFFF0003F00000000000FB4
:1025F000FFFFFFFFFFFFFFF00000FFFFFFFFFFFFF8
:10260000FFFFFFFFFFFFFFF00000FFFFFFFFFFFFE7
:10261000FFFFFFFFFFFFFFF00000FFFFFFFFFFFFD7
:10262000FFFFFFFFFFFFFFF00000FFFFFFFFFFFFC7
:10263000FFFFFFFFFFFFFFF00000FFFFFFFFFFFFB7
:10264000FFFFFFFFFFFFFFF00018FFFFFE7FF9FF16
:10265000FFFFFFFFFFFFFFF001F8FFFFF81FF0FF94
:10266000FFFFFFFFFFFFFFF03FF8FFFFE00FC0FF9E
:10267000FFFFFFFFFFFFFFF0FFE0FFFFE007807FAE
:10268000FFFFFFFFFFFFFFF0FC00FFFFF003C01F95
:10269000FFFFFFFFFFFFFFF0FF00FFFFF800E00F6D
:1026A000FFFFFFFFFFFFFFF03FF0C00000007007DB
:1026B000FFFFFFFFFFFFFFF003F8C000000018015D
:1026C000FFFFFFFFFFFFFFF007F8C000000004015D
:1026D000FFFFFFFFFFFFFFF07FE0C00000000601EB
:1026E000FFFFFFFFFFFFFFF0FF00C000000007013A
:1026F000FFFFFFFFFFFFFFF0FC00FFFFFFFC07C332
:10270000FFFFFFFFFFFFFFF0FFE0F8FFFFFE0FE31B
:10271000FFFFFFFFFFFFFFF01FF8F83FFF0600136A
:10272000FFFFFFFFFFFFFFF001F8E003FF06001FC0
:10273000FFFFFFFFFFFFFFF00018E0000106001F92
:10274000FFFFFFFFFFFFFFF00000E0000106001F9A
:10275000FFFFFFFFFFFFFFF07000F8000106001F02
:10276000FFFFFFFFFFFFFFF0F980FE0001060FFFF4
:10277000FFFFFFFFFFFFFFF0F9C0FFC001060001F0
:10278000FFFFFFFFFFFFFFF0CCC0FFFFC10600010E
:10279000FFFFFFFFFFFFFFF0CCC0FFFFC1060001FE
:1027A000FFFFFFFFFFFFFFF0FFC0FF8FC10600012B
:1027B000FFFFFFFFFFFFFFF0FF80FC0001060001AD
:1027C000FFFFFFFFFFFFFFF0FF00FE0001060FFF0E
:1027D000FFFFFFFFFFFFFFF00000FE000106001FEC
:1027E000FFFFFFFFFFFFFFF00040FD000106001F9D
:1027F000FFFFFFFFFFFFFFF003C0F8800106001F8F
:10280000FFFFFFFFFFFFFFF01FC0E040FF02001FC0
:10281000FFFFFFFFFFFFFFF0FF80C040FF00001F32
:10282000FFFFFFFFFFFFFFF0FC00C0207E000FFF57
:10283000FFFFFFFFFFFFFFF0FC00E0007E0000FF56
:10284000FFFFFFFFFFFFFFF0FF80F007F000000336
:10285000FFFFFFFFFFFFFFF01FC0F80300000001B4
:10286000FFFFFFFFFFFFFFF003C0FC0000000001BF
:10287000FFFFFFFFFFFFFFF00040FE00000100012F
:10288000FFFFFFFFFFFFFFF01E00FF00007F800142
:10289000FFFFFFFFFFFFFFF07F80FF00007F83014E
:1028A000FFFFFFFFFFFFFFF07F80FC00000003FF42
:1028B000FFFFFFFFFFFFFFF0EDC0F800000003FF88
:1028C000FFFFFFFFFFFFFFF0CCC0F003000003FF9E
:1028D000FFFFFFFFFFFFFFF0CCC0E007E00003FFBA
:1028E000FFFFFFFFFFFFFFF0CFC0E01FFC0003FF73
:1028F000FFFFFFFFFFFFFFF0CF80E03FFFE003FFA0
:10290000FFFFFFFFFFFFFFF00E00F87FFFFF83FFD9
:10291000FFFFFFFFFFFFFFF00000FCFFFFFF83FF53
:10292000FFFFFFFFFFFFFFF04300FEFFFFFFFFFF82
:10293000FFFFFFFFFFFFFFF0C780FFFFFFFFFFFF6D
:10294000FFFFFFFFFFFFFFF0CFC0FFFFFFFFFFFF15
:10295000FFFFFFFFFFFFFFF0CCC0FFFFFFFFFFFF08
:10296000FFFFFFFFFFFFFFF0FCC0FFFFFFE000FFE6
:10297000FFFFFFFFFFFFFFF078C0FFFFFFE000FF5A
:10298000FFFFFFFFFFFFFFF03040FFFFFFE000838E
:10299000FFFFFFFFFFFFFFF00000F07FFFE000837D
:1029A000FFFFFFFFFFFFFFF0FFFCF07F83E00083EE
:1029B000FFFFFFFFFFFFFFF0FFFCF06083FFE083FE
:1029C000FFFFFFFFFFFFFFF0FFFCF0608384208329
:1029D000FFFFFFFFFFFFFFF001C0F0608384208353
:1029E000FFFFFFFFFFFFFFF000C0F0608384208344
:1029F000FFFFFFFFFFFFFFF000C0F0608384208334
:102A0000FFFFFFFFFFFFFFF0FFC0F0608384208324
:102A1000FFFFFFFFFFFFFFF0FF80F0608384208354
:102A2000FFFFFFFFFFFFFFF0FF00F06083842083C4
:102A3000FFFFFFFFFFFFFFF00000F06083842083B3
:102A4000FFFFFFFFFFFFFFF00000F06083842083A3
:102A5000FFFFFFFFFFFFFFF07000F0608384208323
:102A6000FFFFFFFFFFFFFFF0F980F06083FFE083CF
:102A7000FFFFFFFFFFFFFFF0F9C0F06083FFE0837F
:102A8000FFFFFFFFFFFFFFF0CCC0F06083000003FB
:102A9000FFFFFFFFFFFFFFF0CCC0F06083000003EB
:102AA000FFFFFFFFFFFFFFF0FFC0F06083000003A8
:102AB000FFFFFFFFFFFFFFF0FF80F06083000003D8
:102AC000FFFFFFFFFFFFFFF0FF00F0608300000348
:102AD000FFFFFFFFFFFFFFF00000F0608300000337
:102AE000FFFFFFFFFFFFFFF00000F06083FFE083C8
:102AF000FFFFFFFFFFFFFFF0FFC0F0608384208334
:102B0000FFFFFFFFFFFFFFF0FFC0F0608384208323
:102B1000FFFFFFFFFFFFFFF0FFC0F0608384208313
:102B2000FFFFFFFFFFFFFFF001C0F0608384208301
:102B3000FFFFFFFFFFFFFFF000C0F06083842083F2
:102B4000FFFFFFFFFFFFFFF000C0F06083842083E2
:102B5000FFFFFFFFFFFFFFF00000F0608384208392
:102B6000FFFFFFFFFFFFFFF01E00C0000384208374
:102B7000FFFFFFFFFFFFFFF07F80C0000384208383
:102B8000FFFFFFFFFFFFFFF07F80C0000384208373
:102B9000FFFFFFFFFFFFFFF0EDC0C00003FFE0837A
:102BA000FFFFFFFFFFFFFFF0CCC0C00003E000838A
:102BB000FFFFFFFFFFFFFFF0CCC0C00003E000837A
:102BC000FFFFFFFFFFFFFFF0CFC0FFFFFFE000832D
:102BD000FFFFFFFFFFFFFFF0CF80FFFFFFE000FFE1
:102BE000FFFFFFFFFFFFFFF00E00FFFFFFE000FF12
:102BF000FFFFFFFFFFFFFFF00000FFFFFFE000FF10
:102C0000FFFFFFFFFFFFFFF00000FFFFFFFFFFFFE1
:102C1000FFFFFFFFFFFFFFF00000FFFFFFFFFFFFD1
:102C2000FFFFFFFFFFFFFFF00000FFFFFFFFFFFFC1
:102C3000FFFFFFFFFFFFFFF00000FFFFFFFFFFFFB1
:102C4000FFFFFFFFFFFFFFF0FFF8FFFFFFFFFFFFAA
:102C5000FFFFFFFFFFFFFFF0FFF8FFFFFFFFFFFF9A
:102C6000FFFFFFFFFFFFFFF0FFF8FFFFFFFFFFFF8A
:102C7000FFFFFFFFFFFFFFF0C318FFFFFFFFFFFF96
:102C8000FFFFFFFFFFFFFFF0C318FFF0000000FF92
:102C9000FFFFFFFFFFFFFFF0C318FFF0000000FF82
:102CA000FFFFFFFFFFFFFFF0C318FFF0000000FF72
:102CB000FFFFFFFFFFFFFFF0C018FFF0000000FF65
:102CC000FFFFFFFFFFFFFFF00000FFF0000000FF2D
:102CD000FFFFFFFFFFFFFFF00000FFF0000000FF1D
:102CE000FFFFFFFFFFFFFFF0FFFCFFFE0783C0FFBA
:102CF000FFFFFFFFFFFFFFF0FFFCFFFE0783C0FFAA
:102D0000FFFFFFFFFFFFFFF0FFFCFFFE0783C0FF99
:102D1000FFFFFFFFFFFFFFF00000FFFE0783C0FF84
:102D2000FFFFFFFFFFFFFFF00000FFFE0783C0FF74
:102D3000FFFFFFFFFFFFFFF01E00FFFE0783C0FF46
:102D4000FFFFFFFFFFFFFFF07F80FFFE0783C0FF55
:102D5000FFFFFFFFFFFFFFF07F80FFFE0783C0FF45
:102D6000FFFFFFFFFFFFFFF0EDC0FFFE0703C07F87
:102D7000FFFFFFFFFFFFFFF0CCC0FC0000000001E1
:102D8000FFFFFFFFFFFFFFF0CCC0F80000000001D5
:102D9000FFFFFFFFFFFFFFF0CFC0F00000000001CA
:102DA000FFFFFFFFFFFFFFF0CF80E000000000010A
:102DB000FFFFFFFFFFFFFFF00E00E000000000013B
:102DC000FFFFFFFFFFFFFFF00000E0000000000139
:102DD000FFFFFFFFFFFFFFF01E00E03E0783C0FF85
:102DE000FFFFFFFFFFFFFFF07F80E07E0783C0FF54
:102DF000FFFFFFFFFFFFFFF07F80E07E0783C0FF44
:102E0000FFFFFFFFFFFFFFF0E1C0E07E0783C0FF91
:102E1000FFFFFFFFFFFFFFF0C0C0E07E0783C0FFA2
:102E2000FFFFFFFFFFFFFFF0C0C0E07E0783C0FF92
:102E3000FFFFFFFFFFFFFFF0C0C0E07E0783C0FF82
:102E4000FFFFFFFFFFFFFFF040C0E07E0783C0FFF2
:102E5000FFFFFFFFFFFFFFF00000E07E0783C0FFE2
:102E6000FFFFFFFFFFFFFFF000C0E07E000000FF5C
:102E7000FFFFFFFFFFFFFFF07FF0E07E000000FF9D
:102E8000FFFFFFFFFFFFFFF0FFF0E07E000000FF0D
:102E9000FFFFFFFFFFFFFFF0FFF0E03E000000FF3D
:102EA000FFFFFFFFFFFFFFF0C0C0E002000000FFD8
:102EB000FFFFFFFFFFFFFFF0C0C0E000000000FFCA
:102EC000FFFFFFFFFFFFFFF00000E001FFFFFFFF3C
:102ED000FFFFFFFFFFFFFFF0FFC0F001FFFFFFFF5D
:102EE000FFFFFFFFFFFFFFF0FFC0F801FFFFFFFF45
:102EF000FFFFFFFFFFFFFFF0FFC0FE03FFFFFFFF2D
:102F0000FFFFFFFFFFFFFFF001C0FFC3FFFFFFFF59
:102F1000FFFFFFFFFFFFFFF000C0FFFFFFFFFFFF0E
:102F2000FFFFFFFFFFFFFFF000C0FFFFFFFFFFFFFE
:102F3000FFFFFFFFFFFFFFF00000FFFFFFFFFFFFAE
:102F4000FFFFFFFFFFFFFFF01E00FFFFF81FFFFF67
:102F5000FFFFFFFFFFFFFFF07F80FFFFF81FFFFF76
:102F6000FFFFFFFFFFFFFFF0FF80FFFFF81FFFFFE6
:102F7000FFFFFFFFFFFFFFF0E1C0FFFFF81FFFFFB4
:102F8000FFFFFFFFFFFFFFF0C0C0FFFFF81FFFFFC5
:102F9000FFFFFFFFFFFFFFF0E1C0FFFFF81FFC078F
:102FA000FFFFFFFFFFFFFFF07FC0FFFFF81FFC07E1
:102FB000FFFFFFFFFFFFFFF07F80FFFFF81FFC0711
:102FC000FFFFFFFFFFFFFFF01E00FFFFF81FFC07E2
:102FD000FFFFFFFFFFFFFFF00000FF7FF81FFC0770
:102FE000FFFFFFFFFFFFFFF0FFC0FC7FF81FFC07A4
:102FF000FFFFFFFFFFFFFFF0FFC0E07FF81FFC07B0
:10300000FFFFFFFFFFFFFFF0FFC0C07FF81FFC07BF
:10301000FFFFFFFFFFFFFFF00180C07FF81FFC07ED
:10302000FFFFFFFFFFFFFFF000C0C07FF81FFC079E
:10303000FFFFFFFFFFFFFFF000C0C07FF81FFC078E
:10304000FFFFFFFFFFFFFFF0FFC0C07FF81FFC077F
:10305000FFFFFFFFFFFFFFF0FF80E07FF81FFC078F
:10306000FFFFFFFFFFFFFFF0FF00E07FF81FFC07FF
:10307000FFFFFFFFFFFFFFF00000E00000003C0744
:10308000FFFFFFFFFFFFFFF00000E00000003C0734
:10309000FFFFFFFFFFFFFFF0FFD8E00000001C076D
:1030A000FFFFFFFFFFFFFFF0FFD8F00000001C074D
:1030B000FFFFFFFFFFFFFFF0FFD8F00000000C074D
:1030C000FFFFFFFFFFFFFFF00000F8000000040714
:1030D000FFFFFFFFFFFFFFF00000FFFFF81C0407EA
:1030E000FFFFFFFFFFFFFFF01E00FFFFF81E0007BE
:1030F000FFFFFFFFFFFFFFF07F80FFFFF81E0007CD
:10310000FFFFFFFFFFFFFFF07F80FFFFF81F0007BB
:10311000FFFFFFFFFFFFFFF0E1C0FFFFF81F000709
:10312000FFFFFFFFFFFFFFF0C0C0FFFFF81F80079A
:10313000FFFFFFFFFFFFFFF0C0C0FFFFF81FC0074A
:10314000FFFFFFFFFFFFFFF0C0C0FFFFF81FC0073A
:10315000FFFFFFFFFFFFFFF040C0FFFFF81FE0078A
:10316000FFFFFFFFFFFFFFF00000FFFFF81FF0076A
:10317000FFFFFFFFFFFFFFF04300FFFFF81FF8070F
:10318000FFFFFFFFFFFFFFF0C780FFFFF81FF807FB
:10319000FFFFFFFFFFFFFFF0CFC0FFFFF81FFC0F97
:1031A000FFFFFFFFFFFFFFF0CCC0FFFFF81FFE1F78
:1031B000FFFFFFFFFFFFFFF0FCC0FFFFF81FFF3F17
:1031C000FFFFFFFFFFFFFFF078C0FFFFF81FFFFFCB
:1031D000FFFFFFFFFFFFFFF03040FFFFF81FFFFF83
:1031E000FFFFFFFFFFFFFFF00000FFFFF81FFFFFE3
:1031F000FFFFFFFFFFFFFFF00000FFFFF81FFFFFD3
:10320000FFFFFFFFFFFFFFF00000FFFFFFFFFFFFDB
:10321000FFFFFFFFFFFFFFF00000FFFFFFFFFFFFCB
:10322000FFFFFFFFFFFFFFF00000FFFFFFFFFFFFBB
:10323000FFFFFFFFFFFFFFF00000FFFFFFFFFFFFAB
:10324000FFFFFFFFFFFFFFF00000FFFFFFFFFFFF9B
:10325000FFFFFFFFFFFFFFF00000FFFFFFFFFFFF8B
:10326000FFFFFFFFFFFFFFFFFFFFFFFFFFFFFFFF6E
:10327000FFFFFFFFFFFFFFFFFFFFFFFFFFFFFFFF5E
:10328000FFFFFFFFFFFFFFFFFFFFFFFFFFFFFFFF4E
:10329000FFFFFFFFFFFFFFFFFFFFFFFFFFFFFFFF3E
:1032A000FFFFFFFFFFFFFFFFFFFFFFFFFFFFFFFF2E
:1032B000FFFFFFFFFFFFFFFFFFFFFFFFFFFFFFFF1E
:1032C000FFFFFFFFFFFFFFFFFFFFFFFFFFFFFFFF0E
:1032D000FFFFFFFFFFFFFFFFFFFFFFFFFFFFFFFFFE
:1032E000FFFFFFFFFFFFFFFFFFFFFFFFFFFFFFFFEE
:1032F000FFFFFFFFFFFFFFFFFFFFFFFFFFFFFFFFDE
:10330000FFFFFFFFFFFFFFFFFFFFFFFFFFFFFFFFCD
:10331000FFFFFFFFFFFFFFFFFFFFFFFFFFFFFFFFBD
:10332000FFFFFFFFFFFFFFFFFFFFFFFFFFFFFFFFAD
:10333000FFFFFFFFFFFFFFFFFFFFFFFFFFFFFFFF9D
:10334000FFFFFFFFFFFFFFFFFFFFFFFFFFFFFFFF8D
:10335000FFFFFFFFFFFFFFFFFFFFFFFFFFFFFFFF7D
:10336000FFFFFFFFFFFFFFFFFFFFFFFFFFFFFFFF6D
:10337000FFFFFFFFFFFFFFFFFFFFFFFFFFFFFFFF5D
:10338000FFFFFFFFFFFFFFFFFFFFFFFFFFFFFFFF4D
:10339000FFFFFFFFFFFFFFFFFFFFFFFFFFFFFFFF3D
:1033A000FFFFFFFFFFFFFFFFFFFFFFFFFFFFFFFF2D
:1033B000FFFFFFFF00000000000000000000000011
:1033C00000000000000000000000000000000000FD
:1033D0000000000000000C000C000C000C000C00B1
:1033E0000C000C000C0000000C00000000000000AD
:1033F00000000000000000001DC01DC00880088003
:103400000880000000000000000000000000000034
:103410000000000000000D800D800D800D803FC079
:103420001B003FC01B001B001B001B000000000016
:103430000000000004001F803180318038001E0031
:103440000F000380318031803F0004000400000041
:1034500000000000000018002400240018C00780AD
:103460001E00318002400240018000000000000088
:1034700000000000000000000F00180018001800F5
:103480000C001D80370033001D800000000000008C
:10349000000000000000000007000700020002001A
:1034A000020000000000000000000000000000001A
:1034B0000000000000000300030006000E000C00E6
:1034C0000C000C000C000E000600030003000000BE
:1034D000000000000000180018000C0006000600A4
:1034E00006000600060006000C001C001800000084
:1034F000000000000000060006003FC03FC00F00B3
:103500001F80198000000000000000000000000083
:10351000000000000000000000000400040004009F
:103520003F800400040004000000000000000000D0
:10353000000000000000000000000000000000008B
:10354000000000000000060004000C000800080055
:10355000000000000000000000000000000000006B
:103560003F8000000000000000000000000000009C
:10357000000000000000000000000000000000004B
:103580000000000000000C000C0000000000000023
:103590000000000000C000C00180018003000300A3
:1035A00006000C000C00180018003000300000006D
:1035B0000000000000000E001B00318031803180CF
:1035C0003180318031801B000E00000000000000BF
:1035D00000000000000006003E0006000600060095
:1035E00006000600060006003FC0000000000000C4
:1035F0000000000000000F001980318031800300BE
:1036000006000C00180030003F80000000000000A1
:103610000000000000003F006180018003001F00E7
:1036200003800180018061803F00000000000000F5
:10363000000000000000070007000F000B001B0047
:10364000130033003F8003000F80000000000000E3
:103650000000000000001F801800180018001F0064
:1036600011800180018021801F0000000000000007
:1036700000000000000007801C0018003000370028
:1036800039803180318019800F0000000000000077
:103690000000000000007F00430003000600060059
:1036A000060006000C000C000C00000000000000EA
:1036B0000000000000001F003180318031801F00B9
:1036C00031803180318031801F0000000000000017
:1036D0000000000000001E00330031803180338084
:1036E0001D800180030007003C0000000000000076
:1036F0000000000000000000000000000C000C00B2
:103700000000000000000C000C00000000000000A1
:1037100000000000000000000000000003000300A3
:10372000000000000000060004000800080000007F
:10373000000000000000000000C0030004001800AA
:10374000600018000400030000C00000000000003A
:1037500000000000000000000000000000007FC02A
:1037600000007FC00000000000000000000000001A
:1037700000000000000000006000180004000300CA
:1037800000C00300040018006000000000000000FA
:1037900000000000000000001F0031803180018027
:1037A00007000C000C0000000C00000000000000EE
:1037B0000000000000000E00110021002100270081
:1037C000290029002700200011000E000000000041
:1037D00000000000000000003F000F0009001980F9
:1037E00019801F8030C030C079E000000000000068
:1037F00000000000000000007F0031803180318037
:103800003F003180318031807F00000000000000E7
:1038100000000000000000001F4030C06040600059
:1038200060006000604030801F0000000000000069
:1038300000000000000000007F00318030C030C078
:1038400030C030C030C031807F0000000000000078
:1038500000000000000000007F80308030803200D7
:103860003E003200308030807F8000000000000089
:1038700000000000000000007FC0304030403200F7
:103880003E003200300030007C00000000000000EC
:1038900000000000000000001E8031806080600099
:1038A000600067C0618031801F00000000000000E0
:1038B00000000000000000007BC0318031803180BA
:1038C0003F803180318031807BC0000000000000EB
:1038D00000000000000000003FC0060006000600D7
:1038E00006000600060006003FC0000000000000C1
:1038F00000000000000000001FC0030003000300E0
:1039000003006300630063003E000000000000004D
:1039100000000000000000007BC031803300360052
:103920003C003E003300318079C000000000000000
:1039300000000000000000007E00180018001800C1
:1039400018001840184018407FC000000000000018
:103950000000000000000000E0E060C071C07BC01B
:103960006AC06EC064C060C0FBE0000000000000E0
:10397000000000000000000073C0318039803D80ED
:10398000358037803380318079800000000000006E
:1039900000000000000000001F00318060C060C017
:1039A00060C060C060C031801F00000000000000E7
:1039B00000000000000000007F0031803180318075
:1039C00031803F00300030007E0000000000000029
:1039D00000000000000000001F00318060C060C0D7
:1039E00060C060C060C031801F000CC01F8000003C
:1039F00000000000000000007F0031803180318035
:103A00003E003300318031807CE000000000000087
:103A100000000000000000001F803180318038006D
:103A20001F000380318031803F0000000000000053
:103A300000000000000000007F804C804C804C8023
:103A40000C000C000C000C003F0000000000000007
:103A500000000000000000007BC031803180318018
:103A600031803180318031801F0000000000000073
:103A700000000000000000007BC0318031801B008E
:103A80001B001B000A000E000E00000000000000DA
:103A90000000000000000000FBE060C064C06EC0D9
:103AA0006EC02A803B803B80318000000000000017
:103AB00000000000000000007BC031801B000E00F1
:103AC0000E000E001B0031807BC0000000000000D3
:103AD000000000000000000079E030C019800F00F5
:103AE00006000600060006001F800000000000001F
:103AF00000000000000000003F802180230006003D
:103B000004000C00188030803F800000000000009E
:103B10000000000000000780060006000600060006
:103B200006000600060006000600060007800000EA
:103B30000000000030003000180018000C000C00DD
:103B40000600030003000180018000C000C00000E7
:103B50000000000000001E0006000600060006002F
:103B60000600060006000600060006001E00000013
:103B70000000000004000A000A00110020802080DC
:103B80000000000000000000000000000000000035
:103B90000000000000000000000000000000000025
:103BA0000000000000000000000000000000000015
:103BB0000000FFE008000400020000000000000018
:103BC00000000000000000000000000000000000F5
:103BD0000000000000000000000000001F00018045
:103BE00001801F80318033801DC000000000000074
:103BF0000000000000007000300030003700398005
:103C000030C030C030C039807700000000000000B4
:103C10000000000000000000000000001E80318055
:103C200060806000608031801F00000000000000A4
:103C30000000000000000380018001801D803380AF
:103C400061806180618033801DC000000000000041
:103C50000000000000000000000000001F00318094
:103C600060C07FC0600030C01F8000000000000006
:103C700000000000000007E00C000C003F800C007A
:103C80000C000C000C000C003F8000000000000045
:103C90000000000000000000000000001DC0338094
:103CA00061806180618033801D80018001801F0000
:103CB0000000000000007000300030003700398044
:103CC00031803180318031807BC0000000000000F5
:103CD0000000000000000600060000001E000600B4
:103CE00006000600060006003FC0000000000000BD
:103CF0000000000000000600060000003F00030076
:103D000003000300030003000300030003003E0060
:103D100000000000000070003000300037803600E6
:103D20003C003C003600330077C00000000000007B
:103D30000000000000001E0006000600060006004D
:103D400006000600060006003FC00000000000005C
:103D50000000000000000000000000007F8036C06E
:103D600036C036C036C036C076E000000000000025
:103D70000000000000000000000000007700398013
:103D800031803180318031807BC000000000000034
:103D90000000000000000000000000001F00318053
:103DA00060C060C060C031801F00000000000000E3
:103DB00000000000000000000000000077003980D3
:103DC00030C030C030C039803700300030007C0057
:103DD0000000000000000000000000001DC0338053
:103DE00061806180618033801D800180018007C017
:103DF0000000000000000000000000007B801CC0EC
:103E000018001800180018007F00000000000000D3
:103E10000000000000000000000000001F80318052
:103E20003C001F00038031803F00000000000000C4
:103E30000000000000001800180018007F001800A3
:103E400018001800180018800F0000000000000083
:103E500000000000000000000000000073803180BE
:103E600031803180318033801DC0000000000000AF
:103E70000000000000000000000000007BC0318056
:103E800031801B001B000E000E000000000000002F
:103E9000000000000000000000000000F1E060C031
:103EA00064C06EC03B803B80318000000000000099
:103EB0000000000000000000000000007BC01B00AC
:103EC0000E000E000E001B007BC000000000000072
:103ED00000000000000000000000000079E030C099
:103EE000198019800B000F00060006000C003E0030
:103EF0000000000000000000000000003F80218062
:103F000003000E00180030803F8000000000000019
:103F100000000000000006000C000C000C000C006B
:103F20000C0018000C000C000C000C000600000037
:103F30000000000000000600060006000600060063
:103F40000600060006000600060006000600000047
:103F50000000000000000C0006000600060006003D
:103F60000600030006000600060006000C00000024
:103F70000000000000000000000000000000180029
:103F8000248003000000000000000000000000008A
:103F90000000000000000000000000000000000021
:103FA0000000000000000000000000000000000011
:103FB0000000000000000000000000000000000001
:103FC00000000000000000000000000000000000F1
:103FD00000000000000000000000000000000000E1
:103FE0000000038000038000038000038000038042
:103FF00000038000038000038000038000010000B4
:1040000001000000000000000003800003800000A9
:1040100000000000000000000000000000000000A0
:10402000000000000000000000000000000E700012
:104030000E70000E70000420000420000420000414
:104040002000000000000000000000000000000050
:104050000000000000000000000000000000000060
:104060000000000000000000000000000000000050
:104070000000066000066000066000066000066042
:10408000003FF8003FF8000660000CC0003FF80059
:104090003FF8000CC0000CC0000CC0000CC0000CAD
:1040A000C000000000000000000000000000000050
:1040B0000000000000000001800001800007B00047
:1040C0000FF0001870001870001C00000F8000072F
:1040D000E00000F0001830001C30001C70001FE0F1
:1040E000001BC000018000018000018000018000F1
:1040F00000000000000000000000000000000000C0
:1041000000000780000FC0001CE00018600018606D
:10411000001CE0000FF80007E0001FF00007380067
:1041200006180006180007380003F00001E0000040
:10413000000000000000000000000000000000007F
:10414000000000000000000000000000000000006F
:1041500003F00007F0000C60000C00000C000006EB
:1041600000000700000F9C001DFC0018F0001870F4
:10417000000FFC0007DC0000000000000000000051
:10418000000000000000000000000000000000002F
:104190000000000000038000038000038000010095
:1041A000000100000100000100000000000000000C
:1041B00000000000000000000000000000000000FF
:1041C00000000000000000000000000000000000EF
:1041D000000000000000000000000018000038008F
:1041E00000700000F00000E00000E00001C00001ED
:1041F000C00001C00001C00001C00001C00000E01B
:104200000000E0000070000070000038000018009E
:10421000000000000000000000000000000000009E
:1042200000001800001C00000E00000E0000070037
:10423000000700000380000380000380000380006B
:104240000380000380000700000700000F00000E3D
:1042500000001C000018000000000000000000002A
:10426000000000000000000000000180000180004C
:104270000180001DB8001FF80007E00003C0000324
:10428000C0000660000660000000000000000000A2
:10429000000000000000000000000000000000001E
:1042A000000000000000000000000000000000000E
:1042B000000000000000000001800001800001807B
:1042C000000180000180003FFC003FFC00018000F5
:1042D00001800001800001800001800000000000DA
:1042E00000000000000000000000000000000000CE
:1042F00000000000000000000000000000000000BE
:1043000000000000000000000000000000000000AD
:10431000000000000000000000000000000000E0BD
:104320000000C00001C00001800001800003000007
:10433000030000000000000000000000000000007A
:10434000000000000000000000000000000000006D
:10435000000000000000001FF8001FF8000000002F
:10436000000000000000000000000000000000004D
:10437000000000000000000000000000000000003D
:10438000000000000000000000000000000000002D
:10439000000000000000000000000000000000001D
:1043A000000000000000000000000000000003C04A
:1043B0000003C00003C00000000000000000000077
:1043C00000000000000000000000000000180000D5
:1043D000180000380000300000700000600000602D
:1043E0000000C00000C00001800001800003000048
:1043F0000300000600000600000E00000C00001C78
:10440000000018000018000000000000000000007C
:104410000000000000000000000003C00007E000F2
:104420000C30000C3000181800181800181800186C
:1044300018001818001818001818000C30000C305C
:104440000007E00003C000000000000000000000C2
:10445000000000000000000000000000000000005C
:1044600000000080000780001F80001D8000018088
:1044700000018000018000018000018000018000B7
:104480000180000180000180001FF8001FF800007B
:10449000000000000000000000000000000000001C
:1044A0000000000000000000000007C0001FF00036
:1044B00038300030180030180000180000300000BC
:1044C000600001C0000380000600000C000018001E
:1044D000003FF8003FF8000000000000000000006E
:1044E00000000000000000000000000000000000CC
:1044F000000003C0000FE0000C700000300000302E
:104500000000600003C00003E0000070000018001D
:104510000018000018001838001FF0000FC000003D
:10452000000000000000000000000000000000008B
:104530000000000000000000000000E00001E000BA
:1045400001E0000360000660000660000C60000CE3
:1045500060001860003060003FF8003FF800006025
:104560000003F80003F80000000000000000000055
:10457000000000000000000000000000000000003B
:1045800000001FF0001FF0001800001800001800C5
:10459000001BC0001FF0001C3000001800001800B5
:1045A0000018000018003030003FF0000FC000007D
:1045B00000000000000000000000000000000000FB
:1045C0000000000000000000000000F80003F800F8
:1045D0000700000E00000C00001800001BC0001FA8
:1045E000F0001C30001818001818001818000C38BB
:1045F000000FF00003E000000000000000000000D9
:1046000000000000000000000000000000000000AA
:1046100000001FF8001FF8001818001838000030BC
:104620000000300000700000600000600000E0004A
:1046300000C00000C00001C0000180000180000037
:10464000000000000000000000000000000000006A
:104650000000000000000000000007E0000FF00074
:104660001C38001818001818000C300007E000076C
:10467000E0000C30001818001818001818001C383A
:10468000000FF00007E00000000000000000000044
:10469000000000000000000000000000000000001A
:1046A000000007C0000FF0001C3000181800181898
:1046B000001818000C38000FF80003D8000018008C
:1046C00000300000700000E0001FC0001F0000006C
:1046D00000000000000000000000000000000000DA
:1046E00000000000000000000000000000000000CA
:1046F00000000000000003C00003C00003C0000071
:10470000000000000000000000000000000003C0E6
:104710000003C00003C00000000000000000000013
:104720000000000000000000000000000000000089
:10473000000000000000000000000000000000F089
:104740000000F00000F00000000000000000000089
:1047500000000000E00001C00001800001800003B3
:104760000000020000000000000000000000000047
:104770000000000000000000000000000000000039
:10478000001C00003C0000F00003C0000F00003CD3
:104790000000F000003C00000F000003C00000F02B
:1047A00000003C00001C00000000000000000000B1
:1047B00000000000000000000000000000000000F9
:1047C00000000000000000000000000000000000E9
:1047D000007FFC007FFC000000000000007FFC0068
:1047E0007FFC00000000000000000000000000004E
:1047F00000000000000000000000000000000000B9
:1048000000000000000000000000000000000000A8
:104810007000007800001E000007800001E000002A
:104820007800001E0000780001E0000780001E00F4
:104830000078000070000000000000000000000090
:104840000000000000000000000000000000000068
:10485000000000000007C0000FE0001870001830D2
:104860000018300000700000E00003C0000380006A
:104870000300000000000000000700000700000027
:104880000000000000000000000000000000000028
:104890000000000000000000000003E00007F0003E
:1048A0000E38000C180018780018F80019D80019F4
:1048B000980019980019980018F800187800180046
:1048C000000C00000E180007F80003E000000000D4
:1048D00000000000000000000000000000000000D8
:1048E00000000000001F80001FC00001C000036026
:1048F000000360000630000630000C30000FF800A6
:104900001FF800180C00300C00FC7F00FC7F00003A
:104910000000000000000000000000000000000097
:10492000000000000000000000000000007FE00028
:104930007FF0001838001818001818001838001FE9
:10494000F0001FF800181C00180C00180C00180CC0
:10495000007FF8007FF00000000000000000000071
:104960000000000000000000000000000000000047
:10497000000000000003EC000FFC001C1C00180CE1
:1049800000300C003000003000003000003000002B
:10499000300000180C001C1C000FF80003F0000091
:1049A0000000000000000000000000000000000007
:1049B000000000000000000000000000007FC000B8
:1049C0007FF000183800181800180C00180C001898
:1049D0000C00180C00180C00180C001818001838DF
:1049E000007FF0007FE000000000000000000000F9
:1049F00000000000000000000000000000000000B7
:104A000000000000007FF8007FF800181800181858
:104A1000001998001980001F80001F800019800075
:104A20001998001818001818007FF8007FF8000087
:104A30000000000000000000000000000000000076
:104A4000000000000000000000000000003FFC002B
:104A50003FFC000C0C000C0C000CCC000CC0000F38
:104A6000C0000FC0000CC0000CC0000C00000C0007
:104A7000003FC0003FC00000000000000000000038
:104A80000000000000000000000000000000000026
:104A9000000000000003EC000FFC001C1C00180CC0
:104AA00000300C0030000030000030FE0030FE000E
:104AB000300C00380C001C1C000FFC0003F0000040
:104AC00000000000000000000000000000000000E6
:104AD000000000000000000000000000007E7E00DA
:104AE0007E7E001818001818001818001818001FEB
:104AF000F8001FF8001818001818001818001818E7
:104B0000007E7E007E7E00000000000000000000AD
:104B10000000000000000000000000000000000095
:104B200000000000001FF8001FF800018000018055
:104B300000018000018000018000018000018000F0
:104B40000180000180000180001FF8001FF80000B4
:104B50000000000000000000000000000000000055
:104B60000000000000000000000000000007FE0040
:104B700007FE000030000030000030000030000070
:104B800030003030003030003030003030003060E5
:104B9000003FE0000F800000000000000000000067
:104BA0000000000000000000000000000000000005
:104BB00000000000007F3E007F3E001830001860BB
:104BC0000018C0001980001B80001FC0001CE000FE
:104BD0001870001830001838007F1F007F1F000079
:104BE00000000000000000000000000000000000C5
:104BF000000000000000000000000000007F8000B6
:104C00007F80000C00000C00000C00000C00000C69
:104C100000000C00000C0C000C0C000C0C000C0C28
:104C2000007FFC007FFC000000000000000000008E
:104C30000000000000000000000000000000000074
:104C40000000000000F00F00F81F00381C003C3C82
:104C5000003C3C00366C00366C0033CC0033CC009A
:104C6000318C00300C00300C00FE7F00FE7F000015
:104C70000000000000000000000000000000000034
:104C80000000000000000000000000000078FE00AE
:104C900078FE001C18001E18001F18001B18001BAF
:104CA000980019D80018D80018F80018780018389B
:104CB000007F18007F1800000000000000000000C6
:104CC00000000000000000000000000000000000E4
:104CD000000000000003C0000FF0001C380018188E
:104CE00000381C00300C00300C00300C00300C0080
:104CF000381C001818001C38000FF00003C000001A
:104D000000000000000000000000000000000000A3
:104D1000000000000000000000000000003FF00064
:104D20003FF8000C1C000C0C000C0C000C0C000CD0
:104D300018000FF8000FE0000C00000C00000C0041
:104D4000003FC0003FC00000000000000000000065
:104D50000000000000000000000000000000000053
:104D6000000000000003C0000FF0001C38001818FD
:104D700000381C00300C00300C00300C00300C00EF
:104D8000381C001818001C38000FF00007C000077E
:104D9000CC000FFC000C38000000000000000000F8
:104DA000000000000000000000000000007FE000A4
:104DB0007FF0001838001818001818001838001F65
:104DC000F0001FC00018E0001870001830001838FC
:104DD000007F1E007F0E00000000000000000000A9
:104DE00000000000000000000000000000000000C3
:104DF000000000000007D8000FF8001C3800181849
:104E0000001818001E00000FC00003F0000078001A
:104E10001818001818001C38001FF0001BE00000D4
:104E20000000000000000000000000000000000082
:104E3000000000000000000000000000003FFC0037
:104E40003FFC00318C00318C00318C00318C000132
:104E5000800001800001800001800001800001804D
:104E6000000FF0000FF00000000000000000000044
:104E70000000000000000000000000000000000032
:104E800000000000007E7E007E7E001818001818CA
:104E90000018180018180018180018180018180022
:104EA0001818001818000C30000FF00003C00000A4
:104EB00000000000000000000000000000000000F2
:104EC000000000000000000000000000007F7F00E4
:104ED0007F7F00180C000C18000C18000C1800063E
:104EE000300006300003600003600003600001C072
:104EF0000001C00000800000000000000000000071
:104F000000000000000000000000000000000000A1
:104F10000000000000FE3F80FE3F803006003006AB
:104F20000030860019CC0019CC001B6C001B6C00F3
:104F30001E7C000E38000E38000C18000C18000003
:104F40000000000000000000000000000000000061
:104F5000000000000000000000000000007E7E0055
:104F60007E7E001818000C300006600003C00001AF
:104F7000800001800003C0000660000C300018189B
:104F8000007E7E007E7E0000000000000000000029
:104F90000000000000000000000000000000000011
:104FA00000000000007C7E007C7E001818000C30A1
:104FB0000006600006600003C00001800001800060
:104FC0000180000180000180000FF0000FF0000060
:104FD00000000000000000000000000000000000D1
:104FE000000000000000000000000000001FF800AA
:104FF0001FF80018180018300018600018C00001D1
:1050000080000300000618000C1800181800301863
:10501000003FF8003FF80000000000000000000022
:105020000000000000000000000000000000000080
:10503000000001F00001F00001800001800001800B
:1050400000018000018000018000018000018000DB
:1050500001800001800001800001800001800001CA
:10506000800001F00001F0000000000000000000DE
:10507000000000001800001800001C00000C0000D8
:105080000E000006000006000003000003000001FF
:10509000800001800000C00000C0000060000060CF
:1050A00000007000003000003800001800001800F8
:1050B00000000000000000000000000000000000F0
:1050C00000000F80000F800001800001800001803F
:1050D000000180000180000180000180000180004B
:1050E000018000018000018000018000018000013A
:1050F00080000F80000F8000000000000000000012
:105100000000000000000000800001C00003E0007B
:105110000770000630000C1800180C001004000086
:10512000000000000000000000000000000000007F
:10513000000000000000000000000000000000006F
:10514000000000000000000000000000000000005F
:10515000000000000000000000000000000000004F
:10516000000000000000000000000000000000003F
:10517000000000000000000000000000000000002F
:105180000000000000000000000000000000FFFF21
:1051900000FFFF0000000003000003800000E000AB
:1051A000006000000000000000000000000000009F
:1051B00000000000000000000000000000000000EF
:1051C00000000000000000000000000000000000DF
:1051D00000000000000000000000000000000000CF
:1051E00000000000000000000000000000000FC0F0
:1051F000001FE00000300000300007F0001FF0004A
:105200003830003030003070001FFC000FBC000050
:10521000000000000000000000000000000000008E
:10522000000000000000000000007800007800008E
:105230001800001800001BE0001FF8001C180018E0
:105240000C00180C00180C00180C00180C001C188E
:10525000007FF8007BE0000000000000000000007C
:10526000000000000000000000000000000000003E
:10527000000000000000000000000000000003EC3F
:10528000000FFC001C1C00380C00300C003000002B
:10529000300000380C001C1C000FF80003F0000068
:1052A00000000000000000000000000000000000FE
:1052B00000000000000000000000007800007800FE
:1052C00000180000180007D8001FF8001838003038
:1052D0001800301800301800301800301800183846
:1052E000001FFE0007DE00000000000000000000BC
:1052F00000000000000000000000000000000000AE
:10530000000000000000000000000000000007E0B6
:10531000001FF800181800300C003FFC003FFC0094
:10532000300000300000180C001FFC0007F00000E7
:10533000000000000000000000000000000000006D
:105340000000000000000000000001FC0003FC0061
:105350000600000600003FF8003FF80006000006C7
:10536000000006000006000006000006000006001F
:10537000003FF0003FF000000000000000000000CF
:10538000000000000000000000000000000000001D
:10539000000000000000000000000000000007DE28
:1053A000001FFE00183800301800301800301800B8
:1053B0003018003018001838001FF80007D8000017
:1053C00018000018000038000FF0000FC0000000A7
:1053D00000000000000000000000780000780000DD
:1053E0001800001800001BE0001FF0001C38001817
:1053F00018001818001818001818001818001818A5
:10540000007E7E007E7E00000000000000000000A4
:10541000000000000000000000000000000000008C
:1054200000000180000180000000000000001F80DB
:10543000001F8000018000018000018000018000C9
:105440000180000180000180003FFC003FFC000063
:10545000000000000000000000000000000000004C
:105460000000000000000000000000C00000C000BC
:105470000000000000001FF0001FF00000300000DE
:1054800030000030000030000030000030000030FC
:1054900000003000003000003000003000007000DC
:1054A0001FE0001F8000000000000000000000005E
:1054B00000003C00003C00000C00000C00000CF858
:1054C000000CF8000CC0000D80000F80000F0000E1
:1054D0000F80000DC0000CE0003C7C003C7C000014
:1054E00000000000000000000000000000000000BC
:1054F000000000000000000000001F80001F80006E
:105500000180000180000180000180000180000115
:105510008000018000018000018000018000018086
:10552000003FFC003FFC0000000000000000000005
:10553000000000000000000000000000000000006B
:105540000000000000000000000000000000F778EC
:1055500000FFFC0039CC00318C00318C00318C0014
:10556000318C00318C00318C00FDEF00FDEF00002C
:10557000000000000000000000000000000000002B
:10558000000000000000000000000000000000001B
:105590000000000000007BE0007FF0001C380018D5
:1055A00018001818001818001818001818001818F3
:1055B000007E7E007E7E00000000000000000000F3
:1055C00000000000000000000000000000000000DB
:1055D000000000000000000000000000000003C008
:1055E000000FF0001C3800381C00300C00300C009C
:1055F000300C00381C001C38000FF00003C0000005
:10560000000000000000000000000000000000009A
:10561000000000000000000000000000000000008A
:105620000000000000007BE0007FF8001C1800185C
:105630000C00180C00180C00180C00180C001C189A
:10564000001FF8001BE00018000018000018000000
:105650007F00007F0000000000000000000000004C
:10566000000000000000000000000000000007DE55
:10567000001FFE00183800301800301800301800E5
:105680003018003018001838001FF80007D8000044
:10569000180000180000180000FE0000FE000000C6
:1056A00000000000000000000000000000000000FA
:1056B0000000000000003E78003EFC0007CC000720
:1056C00000000600000600000600000600000600BC
:1056D000003FF0003FF0000000000000000000006C
:1056E00000000000000000000000000000000000BA
:1056F000000000000000000000000000000007F8AB
:10570000000FF8001818001818001F80000FF00094
:1057100000F8001818001838001FF0001FE0000003
:105720000000000000000000000000000000000079
:10573000000000000000000000000C00000C000051
:105740000C00000C00003FF0003FF0000C00000CCB
:1057500000000C00000C00000C00000C00000C1CF1
:105760000007FC0003F00000000000000000000043
:105770000000000000000000000000000000000029
:105780000000000000000000000000000000787829
:105790000078780018180018180018180018180059
:1057A0001818001818001838000FFE0007DE000057
:1057B00000000000000000000000000000000000E9
:1057C00000000000000000000000000000000000D9
:1057D0000000000000007C3E007C3E00181800180D
:1057E00018000C30000C300006600006600007E076
:1057F0000003C00003C00000000000000000000023
:105800000000000000000000000000000000000098
:105810000000000000000000000000000000783CD4
:1058200000783C003118003398003398001AB0001B
:105830001EF0001EF0001C60000C60000C600000F8
:105840000000000000000000000000000000000058
:105850000000000000000000000000000000000048
:105860000000000000003E7C003E7C000C30000682
:10587000600003C00001800003C0000660000C301F
:10588000003E7C003E7C00000000000000000000A4
:105890000000000000000000000000000000000008
:1058A00000000000000000000000000000007E1F5B
:1058B000007E1F00180C000C18000C1800063000A9
:1058C00006300003600003E00001C00000C00001DA
:1058D00080000180000300003FC0003FC0000000C6
:1058E00000000000000000000000000000000000B8
:1058F0000000000000001FF8001FF800183000181A
:10590000600000C0000180000300000618000C18B1
:10591000001FF8001FF80000000000000000000059
:105920000000000000000000000000000000000077
:10593000000000E00001E000018000018000018023
:10594000000180000180000180000380000700004A
:1059500003800001800001800001800001800001BF
:10596000800001E00000E0000000000000000000F6
:105970000000000000000000000001800001800025
:105980000180000180000180000180000180000191
:105990008000018000018000018000018000018002
:1059A0000001800001800001800001800001800072
:1059B00000000000000000000000000000000000E7
:1059C00000000700000780000180000180000180C6
:1059D0000001800001800001800001C00000E000A3
:1059E00001C00001800001800001800001800001F1
:1059F0008000078000070000000000000000000099
:105A00000000000000000000000000000000000096
:105A10000000000000000000000000000E00001F59
:105A200018003BB80031F00000E00000000000006A
:105A30000000000000000000000000000000000066
:105A40000000000000000000000000006C5A000888
:105A50000000002048000000541D0008B45A00084F
:105A600048000020B8400000641D0008000000004D
:105A70000000000000A24A04000C014040000000A9
:105A800000080140000200000010014080000000FA
:105A90000008014000010000B43300080B001000B2
:105AA000943F0008110018000000000000000000F2
:045AB00000000000F2
:04000005080000ED02
:00000001FF
