:020000040800F2
:100000000041002045010008BF14000875140008D5
:10001000BD1400088D010008AB1C000800000000A2
:10002000000000000000000000000000E9190008C6
:100030008F0100080000000049190008EB190008B2
:100040005F0100085F0100085F0100085F01000810
:100050005F0100085F0100085F0100085F01000800
:100060005F0100085F0100085F0100085F010008F0
:100070005F0100085F0100085F0100085F010008E0
:100080005F0100085F0100085F0100085F010008D0
:100090005F0100085F0100085F0100085F010008C0
:1000A0005F0100085F0100085F0100085F010008B0
:1000B0005F0100085F0100085F0100085F010008A0
:1000C0005F0100085F0100085F0100085F01000890
:1000D0005F0100085F0100085F0100085F01000880
:1000E0005F0100085F0100085F0100085F01000870
:1000F0005F0100085F0100085F0100085F01000860
:100100005F0100085F0100085F0100085F0100084F
:100110005F0100085F0100085F0100085F0100083F
:100120005F0100085F0100085F0100085F0100082F
:10013000DFF80CD000F018F800480047151D000843
:10014000004100200648804706480047FEE7FEE7DA
:10015000FEE7FEE7FEE7FEE7FEE7FEE7FEE7FEE777
:10016000611A000831010008064C074D06E0E068FE
:1001700040F0010394E8070098471034AC42F6D3EE
:10018000FFF7DAFF84510008A4510008FEE770472A
:1001900070B50E0004463BD0102100F00FF902208C
:1001A00000F078F9002504E0FF21204600F011F965
:1001B0006D1C2069C11700EB51706169C010484384
:1001C000A842F1DC022000F065F91321204600F07E
:1001D000F5F8022000F05EF9002504E0715D20468C
:1001E00000F0F7F86D1C2069C11700EB51706169D0
:1001F000C0104843A842F1DC022000F04BF9122164
:10020000204600F0DBF82046BDE8704000F036B92B
:1002100070BD10B5044601202060022060600020FF
:10022000A0600320E060B02020614FF48470606122
:1002300000F052F910B14FF0FF3010BD204600F031
:10024000ABF80121204600F0B9F80321204600F068
:10025000C0F80021204600F0BCF82B21204600F019
:10026000B8F82B21204600F0B4F80921204600F010
:10027000B0F80621204600F0A1F80721204600F042
:10028000A8F80721204600F0A4F81721204600F026
:10029000A0F8F821204600F091F86021204600F0F7
:1002A00098F8A521204600F094F8F821204600F0A7
:1002B00085F88921204600F08CF8A521204600F021
:1002C00088F8F821204600F079F89021204600F0C7
:1002D00080F80021204600F07CF8F821204600F04C
:1002E0006DF89321204600F074F82A21204600F092
:1002F00070F8F821204600F061F8A021204600F0B7
:1003000068F8A521204600F064F8F821204600F0A6
:1003100055F8A121204600F05CF80021204600F0AD
:1003200058F8F821204600F049F87321204600F0E3
:1003300050F84121204600F04CF81621204600F0EC
:100340003DF80021204600F044F80421204600F04A
:1003500035F8204600F092F80021204600F02EF8F3
:10036000AF21204600F035F83021204600F026F875
:100370003A21204600F02DF88221204600F01EF898
:100380001221204600F025F8022000F083F82046D4
:1003900000F02AF8002010BD10B5044600680021C6
:1003A00000F08AF8C82000F075F80121206800F0FC
:1003B00083F8BDE81040C82000F06CB810B50C46BA
:1003C0004068002100F078F82046BDE8104000F0B9
:1003D0009BB810B50C464068012100F06DF820462E
:1003E000BDE8104000F090B870B505462021FFF739
:1003F000E5FF214E00242846315DFFF7EAFF641C2B
:100400002C2CF8D321212846FFF7D8FF1A4E0024C0
:100410002C362846315DFFF7DCFF641C2A2CF8D30C
:1004200022212846FFF7CAFF134E002456362846DD
:10043000315DFFF7CEFF641C2A2CF8D32321284618
:10044000FFF7BCFF0C4E002480362846315DFFF7D5
:10045000C0FF641C2A2CF8D324212846FFF7AEFFE6
:10046000054E0024AA362846315DFFF7B2FF641C12
:100470002A2CF8D370BD0000481F000810B50446B0
:1004800002E0642000F006F8E06800F005F80028BB
:10049000F7D010BD00F052B8064A10B502EBC0010B
:1004A00052F83000898889B200F048F9012800D05C
:1004B000002010BDE0000020064B012903EBC00224
:1004C00053F83000526891B202D0002200F03BB9DC
:1004D0000122FBE7E00000200A480949D0E9002397
:1004E000C1E90023D0E90223C1E90223D0E90423B2
:1004F000C1E90423D0E90620C1E9062000207047A5
:10050000E00000200C00002031B50A4C0022A08839
:1005100081B2206800F017F94FF47A73012269461E
:10052000054800F01DFEA088012281B2206800F07D
:100530000AF938BDE00000204800002031B500F085
:1005400007F9044600F004F90099001B8842F9D32A
:1005500038BD00002DE9F84FDFF8B8A100220AF1FC
:10056000040B144601274FF00F090BF1040E00BFD6
:100570000B6807FA04F52B40AB4274D1DFF898C141
:100580004E68A6EB0C0866452BD00DDC032E34D04C
:1005900005DC36B3012E19D0022E2FD11BE0112E0F
:1005A00016D0122E2AD119E0B8F5881F19D006DC12
:1005B000B8F5803F15D0B8F5801F1FD111E0B8F510
:1005C000001F0ED0B8F5041F18D10AE0CA6815E064
:1005D000CA68121D12E0CA6808320FE0CA680C32FD
:1005E0000CE08A682AB1012A4FF0080203D0456165
:1005F00004E0042202E0056100E00022FF2B01D8A4
:10060000064601E000F104064FEA840501D9A5F190
:100610002005D6F800C009FA05F82CEA080C02FA01
:1006200005F54CEA050CC6F800C04D68ED006AD52A
:100630003A4DAE6946F00106AE61AD6924F003069D
:1006400005F001050095364D06EB050CDCF8085069
:10065000A6074FEA167809FA08F6B543314EB042BC
:1006600002D100261AE04EE02F4EB04201D1012601
:1006700014E02E4EB04201D102260FE02C4EB042C3
:1006800001D103260AE02B4EB04201D1042605E039
:10069000294EB04201D1052600E0062606FA08F6EA
:1006A0002E43CCF808604D68DAF80060ED0355463B
:1006B00001D51E4300E09E432E604D68AD0305D575
:1006C000DBF800601E43CBF8006004E0DBF800506C
:1006D0009D43CBF800504D68DEF80060ED02754692
:1006E00001D51E4300E09E432E604D68AD0205D546
:1006F000084D0C352E681E432E6004E0054E0C3666
:1007000035689D433560641C102CFFF431AFBDE8A3
:10071000F88F00000004014000001110001002409A
:100720000000014000080140000C014000100140A1
:100730000014014000180140001C0140806808407E
:1007400000D0012070470AB1016170470904FBE73E
:10075000014800687047000004000020024801685A
:10076000491C01607047000004000020074810B5D4
:10077000016841F010010160032000F07BF80020C7
:1007800000F006F800F016F8002010BD002002402E
:1007900010B5044600F044F94FF47A71B0FBF1F063
:1007A00000F08EFD00222146501E00F043F800208C
:1007B00010BD00001D4808B5816941F0010181614B
:1007C000806900F001000090032000F053F800223F
:1007D00011466FF00B0000F02DF8002211466FF06B
:1007E0000A0000F027F8002211466FF0090000F01F
:1007F00021F800221146501F00F01CF8002211467B
:10080000101F00F017F800221146901E00F012F899
:1008100000221146501E00F00DF80548416821F0F5
:10082000E06141F08061416008BD000000100240BD
:1008300000000140F0B40E4B1B680C46C3F30223CA
:10084000C3F10705042D00D90425191D072901D27C
:10085000002300E0DB1E012606FA05F1491E2140B7
:1008600099409E40761E16403143F0BC00F028BEF1
:100870000CED00E0064900F0070208684FF6FF03A0
:10088000184040EA0220034A104308607047000005
:100890000CED00E00000FA052DE9F047DFF870816B
:1008A00005460E46D8F8000000F00700B0420CD212
:1008B000D8F8001021F007013143C8F80010D8F82B
:1008C000000000F00700B04277D12878514C800733
:1008D00005D56068A96820F0F000084360602878BA
:1008E000C00759D06968012001290DD0022929D0FB
:1008F0005FF0020393FAA3F2B2FA82F242F020020E
:10090000520904D0226803E04FF40033F2E7626A30
:1009100093FAA3F3B3FA83F303F01F039840024260
:100920004BD0606820F0030008436060FFF710FFC1
:100930006968074641F2883001290DD002298146B5
:1009400017D025E04FF00073D4E700BFFFF700FF9A
:10095000C11B494501D918E081466068C0F3810098
:100960000128F3D118E000BFFFF7F2FEC11B494593
:100970000BD86068C0F381000228F5D10CE000BFFD
:10098000FFF7E6FEC11B494502D90320BDE8F08709
:10099000606810F00C0FF3D1D8F80010404601F059
:1009A0000701B1420BD9016821F007013143016011
:1009B000006800F00700B04201D00120E6E7287887
:1009C000400705D56068E96820F4E060084360608E
:1009D0002878000706D56068296920F4605040EA4D
:1009E000C100606000F052F86168F02292FAA2F251
:1009F00001F0F001B2FA82F2D140074A515CC840DE
:100A0000064908600020FFF7C3FE0020BEE7000093
:100A10000020024000100240301F000800000020AB
:100A2000014800687047000000000020084809499C
:100A3000006849684FF4E06292FAA2F201F4E061C2
:100A4000B2FA82F2D140044A515CC84070470000BB
:100A50000000002000100240401F0008084809491B
:100A6000006849684FF4605292FAA2F201F46051B2
:100A7000B2FA82F2D140044A515CC840704700008B
:100A80000000002000100240401F000810B519A30C
:100A900085B00FCB8DE80F001AA01B4B00680490A7
:100AA0005A681A4802F00C0104291DD008291BD1EC
:100AB0004FF4701494FAA4F402F47011B4FA84F4AC
:100AC000E140D2031DF8011010D55A684FF40033ED
:100AD00093FAA3F302F40032B3FA83F3DA4004ABDF
:100AE0009A5CB0FBF2F0484305B010BD084848439B
:100AF000FAE7000002030405060708090A0B0C0DBB
:100B00000E0F1010010200000010024000127A00C7
:100B100000093D002DE9F84F04460078F74DC00765
:100B20004FF0010625D068687704C0F381000128E2
:100B300007D06868C0F3810002281BD16868C00331
:100B400018D597FAA7F0B0FA80F040F020004009DD
:100B500001D0286800E0686A97FAA7F1B1FA81F13C
:100B600001F01F0106FA01F108425ED0606800281A
:100B70007CD05AE06068B0F5803F0BD010B1B0F582
:100B8000A02F11D0286820F480302860286820F435
:100B9000802002E0286840F480302860606828B334
:100BA000FFF7D6FD80460BE0286840F480202860DF
:100BB000F0E700BFFFF7CCFDA0EB0800642871D878
:100BC00097FAA7F0B0FA80F040F02000400901D079
:100BD000286800E0686A97FAA7F1B1FA81F101F09C
:100BE0001F0106FA01F10842E4D01EE0FFF7B0FD54
:100BF000804605E0FFF7ACFDA0EB08006428DED8D6
:100C000097FAA7F0B0FA80F040F02000400901D038
:100C1000286800E0686A97FAA7F1B1FA81F101F05B
:100C20001F0106FA01F10842E4D12078DFF8D082F2
:100C300080074FF000094FF002075BD568684FF05E
:100C4000F80B10F00C0F07D06868C0F38100022881
:100C50001CD16868C00319D497FAA7F0B0FA80F0E5
:100C600040F02000400902D0286801E08BE0686A6B
:100C700097FAA7F1B1FA81F101F01F0106FA01F12B
:100C800008422CD0206901287DD128E0206990B34A
:100C900096FAA6F0B0FA80F048F82060FFF758FD09
:100CA000824607E011E100BFFFF752FDA0EB0A000A
:100CB000022884D897FAA7F0B0FA80F040F020001C
:100CC000400901D0286800E0686A97FAA7F1B1FAF4
:100CD00081F101F01F0106FA01F10842E4D0286811
:100CE0009BFAABF26169B2FA82F220F0F80091400F
:100CF0000843286025E0FFE796FAA6F1B1FA81F1F2
:100D000048F82190FFF724FD824605E0FFF720FD1B
:100D1000A0EB0A000228CCD897FAA7F0B0FA80F02E
:100D200040F02000400901D0286800E0686A97FA86
:100D3000A7F1B1FA81F101F01F0106FA01F10842B1
:100D4000E4D1207800076ED5A069B8B396FAA6F072
:100D5000B0FA80F008EB8000C0F88064FFF7F8FC80
:100D6000824605E0FFF7F4FCA0EB0A000228A0D8B9
:100D700097FAA7F0B0FA80F040F06000B6EB501F91
:100D800002D128680CE062E197FAA7F0B0FA80F08F
:100D900040F06000B7EB501F01D1286A00E0686A9C
:100DA00097FAA7F1B1FA81F101F01F0106FA01F2F9
:100DB0001042D7D00120FFF7C1FB34E0FFE796FADD
:100DC000A6F1B1FA81F108EB8101C1F88094FFF737
:100DD000BFFC824606E000BFFFF7BAFCA0EB0A00AA
:100DE000022872D897FAA7F0B0FA80F040F06000BD
:100DF000B6EB501F01D128680BE097FAA7F0B0FAC4
:100E000080F040F06000B7EB501F01D1286A00E08D
:100E1000686A97FAA7F1B1FA81F101F01F0106FAA9
:100E200001F21042D8D12078400765D5E86940F03A
:100E30008050E861E869DFF8CCB000F080500090A5
:100E4000DBF8001041F48071CBF80010FFF780FC54
:100E5000824605E0FFF77CFCA0EB0A00642834D84A
:100E6000DBF80000C005F5D5E06801280AD008B11C
:100E7000052813D0286A20F001002862286A20F093
:100E8000040002E0286A40F001002862E06841F2B4
:100E9000883B90B3FFF75CFC82460BE0286A40F089
:100EA00004002862EEE700BFFFF752FCA0EB0A0146
:100EB00059450AD897FAA7F0B0FA80F040F0400000
:100EC000B6EB501F02D128680CE0A3E097FAA7F018
:100ED000B0FA80F040F04000B7EB501F01D1286A13
:100EE00000E0686A97FAA7F1B1FA81F101F01F02F8
:100EF00006FA02F10842D7D031E005E000100240C6
:100F00000000424200700040FFF722FC824605E0EC
:100F1000FFF71EFCA0EB0A0159457BD897FAA7F012
:100F2000B0FA80F040F04000B6EB501F01D12868C5
:100F30000BE097FAA7F0B0FA80F040F04000B7EB72
:100F4000501F01D1286A00E0686A97FAA7F1B1FA48
:100F500081F101F01F0206FA02F10842D8D1E069DE
:100F600080B36968C1F38101022970D04FF08071AC
:100F70004F000228484609D091FAA1F1B1FA81F157
:100F800048F82100FFF7E4FB044669E08A4691FA3D
:100F9000A1F1B1FA81F1C14648F82100FFF7D8FB71
:100FA000804605E0FFF7D4FBA0EB0800022854D8E8
:100FB00097FAA7F0B0FA80F040F02000400902D084
:100FC000286801E061E0686A97FAA7F1B1FA81F157
:100FD00001F01F0106FA01F10842E3D1206AB0F5E1
:100FE000803F05D16868A16820F40030084368603C
:100FF000D4E908010843696821F474110843686062
:101000009AFAAAF0B0FA80F049F82060FFF7A0FB46
:10101000044606E021E000BFFFF79AFB001B022810
:101020001BD897FAA7F0B0FA80F040F020004009F2
:1010300001D0286800E0686A97FAA7F1B1FA81F157
:1010400001F01F0106FA01F10842E5D01DE01EE0A3
:10105000FFF77EFB001B022802D90320BDE8F88FB2
:1010600097FAA7F0B0FA80F040F02000400901D0D4
:10107000286800E0686A97FAA7F1B1FA81F101F0F7
:101080001F0106FA01F10842E2D10020E6E7012043
:10109000E4E7000010B5040003D094F8510010B14B
:1010A00004E0012010BD204600F038F8022084F84A
:1010B00051002068016821F040010160D4E901017C
:1010C0000843D4E903121143084361690843218BA3
:1010D00001F400710843E1690843216A0843A16AE9
:1010E000084321680860A069042101EA1040616A90
:1010F0000843216848602168E06A08612068C16986
:1011000021F40061C161044900200870606501207C
:1011100084F85100002010BD0800002000B50068D0
:101120000C4985B0884212D10B48816941F4805145
:1011300081618069694600F480500490A02000908D
:1011400002200190032003900448FFF703FA05B042
:1011500000BD0000003001400010024000080140C6
:101160002DE9F843044690F851009846012870D1C3
:1011700039B332B394F8500001286AD0012684F8BC
:101180005060122084F85100002565652163A28615
:10119000E286E564A564A563A587E587A06A770371
:1011A000B84209D12068016821F40051016020682B
:1011B000016841F400510160A068B0F5004F03D010
:1011C00007E00120BDE8F8832068016841F4804110
:1011D000016020680168490603D4016841F04001BC
:1011E0000160E0680028606804D0D8B1E08E012872
:1011F00018D021E010B1E08E012808D1206B411CED
:10120000216321680078C860E08E401EE0860004FB
:10121000000C1FD0434600220221204600F095FB1F
:10122000A8B9EBE7206B21680088C860206B801CA0
:101230002063E08E401EE0860004000C0AD0434686
:1012400000220221204600F080FB0028EAD0032083
:10125000B8E726E0A06AB84204D12068016841F4EA
:1012600080510160434600220221204600F06DFBC0
:1012700030B9434601228021204600F066FB20B1B0
:10128000606D40F010006065E1E7A06818B9206863
:10129000C1688068009084F8516084F85050002044
:1012A00090E702208EE74FF0E0210428086903D080
:1012B00020F004000861704740F00400FAE770472E
:1012C00010B5401EB0F1807F01D3012010BD4FF05A
:1012D000E02460610F21601700F0F2F80020A061A7
:1012E00007202061002010BD10B5FFF7E8FF10BDFA
:1012F00070B5040004D094F83900002510B106E060
:10130000012070BD84F83850204600F021F80220FA
:1013100084F839002068C16821F40051C16020467A
:1013200000F0C2FB2068016921F49041016120684E
:10133000416921F02A0141612068C16841F40051EE
:10134000C160E563012084F83900002070BD000011
:1013500010B50068114986B088421DD110488169D6
:1013600041F48041816180690E4C00F4804004901A
:101370004FF4007000900220019003200390694612
:101380002046FFF7E7F800212015CDE90001029182
:1013900069462046FFF7DEF806B010BD0038014070
:1013A00000100240000801402DE9F047044690F883
:1013B000390099460D46012801D0222858D12DB375
:1013C00022B394F83800012852D0012684F83860FE
:1013D0000027E76394F8390022281AD05FF0120042
:1013E00084F83900A284E2844FF48058E08C4B46A4
:1013F000401EE084A0684FF0000240454FF080019D
:10140000204613D100F008FC08BB04E00120BDE831
:10141000F0873220E4E728882168C0F3080048609C
:10142000206908B16D1C08E0AD1C06E000F0F4FB7B
:1014300068B9216815F8010B4860E08C0028D5D107
:101440004B4600224021204600F0E6FB08B1032075
:10145000DDE794F83900322806D084F8396000BFFF
:1014600084F838700020D2E7222084F83900F7E7AA
:101470000220CCE7FEE700000F4810B50D490160DF
:101480004FF4827141604FF4004181600021C160DE
:101490004FF400720161C0E905123022C0E9072152
:1014A000416281620A21C162FFF7F4FD002800D089
:1014B000FEE710BD0030014048000020FEE7704705
:1014C0000907090E002806DA00F00F0000F1E020FD
:1014D00080F8141D704700F1E02080F80014704778
:1014E000F0B50F46064600250CE0002406E03B461A
:1014F00022462946304600F081F9641CB068A042BB
:10150000F5DC6D1C7068A842EFDCF0BD70B50029F9
:101510001EDB45688D421BDD002A19DB846894427E
:1015200016DDCC1701EB547424F007040E1B02FBEC
:10153000051100684FEAE17201EB527100EBE10026
:1015400080240178F4400BB1214300E0A1430170F5
:1015500070BD00002DE9FF4F93460D9DA8884107FF
:1015600000D0012101EBD000203BE98858434843DB
:1015700029680E18002727E000244FF0800A0BEBA3
:101580000708DFF8509017E0E01704EB507020F0E8
:1015900007003178221A2AFA02F0014206D0019897
:1015A000424601190E9B009800F028F904EA090050
:1015B000072800D1761C641CA888A042E4DC2879A6
:1015C000400700D0761C7F1CE888B842D4DCBDE818
:1015D000FF8F0000070000802DE9FF4F5D420220D1
:1015E00000EB4504009888460026416817464145AF
:1015F00035DD00988068B84231DDBA19A8EB0501E5
:1016000091468B460D9B009800F0F8F808EB050119
:101610004A468A460D9B009800F0F0F8BA1B9146A6
:1016200051460D9B009800F0E9F84A4659460D9B3B
:10163000009800F0E3F82046B44208DC761C00EB8A
:101640004604641CF54202D1A84200DC0020A842F6
:1016500003DD6D1C04EB4504641C002DCDDDBDE8ED
:10166000FF8F2DE9FF4F82B05D42022000EB450461
:1016700002988B4600274168924659454ADD0298F8
:101680008168514546DDABEB05010AEB070200918D
:1016900091460F9B029800F0B1F80BEB05064A4605
:1016A00031460F9B029800F0A9F8AAEB070290467A
:1016B00031460F9B029800F0A1F842460F9B00991B
:1016C000029800F09BF80F9800900120A0EB4503D2
:1016D0004A4631460193029800F046F80F98009070
:1016E000DDE901304246314600F03EF82046BC427A
:1016F00008DC7F1C00EB4704641CFD4202D1A842B9
:1017000000DC0020A84203DD6D1C04EB4504641CD2
:10171000002DB8DD06B0BDE8F08F00002DE9F843DC
:101720008146DDE908088B4201DD0C4600E01C46DD
:1017300000DD19460D46904201DD164600E00646E2
:1017400000DD0246A2EB06070AE000BF07F1010335
:10175000324621464846CDF8008000F0CFF8641CA0
:10176000AC42F3DDBDE8F8832DE9F0411646804632
:101770000C46CF18069D06E02B46324621464046D1
:1017800000F03CF8641CA742F6DCBDE8F0812DE9CE
:10179000FF4F81B00C460E9F1E461546181B00D504
:1017A000A01B81464FF0FF31B44201DA012000E076
:1017B00008460090781B002800DDE81B8246BD42E9
:1017C00000DA01218B4609EB0A0810E02A4621467F
:1017D0000F9B019800F012F8BAEB480F02DC00985A
:1017E000D0440444B9EB480F01DBC8445D44B44223
:1017F00001D0BD42EAD105B0BDE8F08F70B4002938
:101800001CDB46688E4219DD002A17DB856895428D
:1018100014DDC46844B1012C09D0022C0BD0032C78
:101820000CD114466A1A214670BCFFF76FBE0C46F5
:10183000B11A2246F8E7711AAA1AF5E770BC704788
:101840002DE9F8478246DDE909058B4201DD0F46A7
:1018500000E01F4601DD1C4600E00C46904201DD21
:10186000164600E0064600DD02469146A4EB070856
:1018700008F101033246394650460095FFF774FFE0
:1018800008F101034A46394650460095FFF76CFFC0
:10189000A9EB060808F10103324639465046009587
:1018A00000F02CF808F1010332462146504600951D
:1018B00000F024F8BDE8F8872DE9FC479246DDE901
:1018C0000A7980461C4600260D460AE0CDE90079DB
:1018D000524629464046FFF73DFEB888641C054441
:1018E000761C2378002B07D0B888D8F8041006FBA4
:1018F000101189B28142E9D2BDE8FC872DE9F0419F
:101900000E4680461446D718069D06E02B46224612
:1019100031464046FFF772FF641CA742F6DCBDE883
:10192000F08110B50024C4600160510707D0D117C1
:1019300002EB517121F00701511A521A0832C0E925
:10194000012310BDC160704770472DE9F0471D4667
:1019500090460E460446FEF7FBFE07465FEA080087
:101960004FF000084FF4005A4FF0010926D034E040
:10197000681C23D025B1FEF7EBFEC01BA8421DD981
:101980002068416821F0E00141602068016821F091
:1019900040010160A06A504509D12068016821F426
:1019A000005101602068016841F40051016084F831
:1019B000519084F850800320BDE8F087206880684B
:1019C00036EA0000D4D10DE0681C06D0002DD7D037
:1019D000FEF7BEFEC01BA842D2D82068806836EA57
:1019E0000000F1D00020E7E7704710B5FEF7B6FE23
:1019F000BDE81040FFF778BC30B58FB00121080476
:101A0000CDE900100024029402250491CDE907508D
:101A10004FF4E01009906846FFF77CF800B1FEE74C
:101A20000F20CDE90A054FF48060CDE90C4002217A
:101A30000AA80E94FEF730FF00B1FEE7FEF7F0FFB4
:101A40004FF47A71B0FBF1F0FFF73AFC0420FFF796
:101A50002AFC00221146501EFEF7ECFE0FB030BDEE
:101A60000D48016841F00101016041680B4A1140D5
:101A7000416001680A4A11400160016821F4802137
:101A80000160416821F4FE0141604FF41F01816053
:101A90000449C00308607047001002400000FFF8CE
:101AA000FFFFF6FE08ED00E02DE9F0410446006876
:101AB0000169E26821F44051114301612169A06884
:101AC0000843616908432168CA6841F20C639A437C
:101AD0000243CA6020684169A26921F44071114340
:101AE00041614C4920686425322688423CD1FEF78A
:101AF000B5FF00EBC00101EB001061688900B0FB8D
:101B0000F1F7FEF7ABFF00EBC00101EB00106168DD
:101B1000B0468900B0FBF1F0B0FBF5F06FF01801B2
:101B2000484307EB800106EB0110B0FBF5F000F035
:101B3000F006FEF793FF00EBC00101EB00106168B7
:101B40008900B0FBF1F0B0FBF5F006EB0016FEF7F4
:101B500085FF00EBC00101EB001061688900B0FB5C
:101B6000F1F7FEF77BFF3BE0FEF760FF00EBC00103
:101B700001EB001061688900B0FBF1F7FEF756FF3A
:101B800000EBC00101EB00106168B0468900B0FBBA
:101B9000F1F0B0FBF5F06FF01801484307EB80015E
:101BA00006EB0110B0FBF5F000F0F006FEF73EFF8B
:101BB00000EBC00101EB001061688900B0FBF1F09F
:101BC000B0FBF5F006EB0016FEF730FF00EBC001AE
:101BD00001EB001061688900B0FBF1F7FEF726FF0A
:101BE00000EBC00101EB001061688900B0FBF1F06F
:101BF000B0FBF5F06FF01801484307EB800108EBEC
:101C00000110B0FBF5F0216800F00F00304488604F
:101C1000BDE8F081003801402DE9F0471D469046AF
:101C20000E460446FEF794FD07465FEA08004FF0B3
:101C300000094FF0010808D030E0681C05D095B1CC
:101C4000FEF786FDC01BA8420DD82068006836EA62
:101C50000000F2D127E0681C20D025B1FEF778FD06
:101C6000C01BA8421AD92068C16821F08001C16058
:101C70002068C16821F02001C1602068C16821F49A
:101C80008071C1602068416921F00101416184F8DF
:101C9000398084F838900320BDE8F0872068006818
:101CA00036EA0000D7D00020F6E7FEE7014A0249F5
:101CB00000F013B8FD1C00083C00002002E008C83A
:101CC000121F08C1002AFAD170477047002001E0B6
:101CD00001C1121F002AFBD170472DE9F0411646C1
:101CE0000F460446002503E03946B047641C6D1CCE
:101CF00020780028F8D12846BDE8F08113B54FF6CA
:101D0000FF73012269460248FFF74EFB00981CBD95
:101D1000A0000020F0B591B041F2B06000F0D2F820
:101D20000746FEF723FDFFF767FE5148816941F042
:101D30000401816180694F4E00F004000090002290
:101D400016213046FEF7FFFC16200125CDE90C05D3
:101D500002200F900CA93046FEF7FCFB002408205F
:101D6000CDE90C040CA930460E94FEF7F3FB434872
:101D7000414901604FF4E131C0E901140C21C46014
:101D8000C0E904418461C461FFF7B2FA00B1FEE723
:101D9000FFF772FB02A8FEF73CFA30B138A0FFF75C
:101DA00085FF11B04FF0FF30F0BDDDE90623394665
:101DB00008A8FFF7B6FD012108A8FFF791FB002155
:101DC00008A8FFF7BFFD3448CDE9000433A3322251
:101DD000042108A8FFF770FDB426CDE90064322382
:101DE00082220A2108A8FFF72BFDCDE900643223E7
:101DF00082220A2108A8FFF7CAFCCDE900640A2361
:101E00008222322108A8FFF7C2FC1E2396227821E5
:101E100008A80094FFF7E0FBFA20CDE90004322384
:101E2000C8220A2108A8FFF779FC6020CDE9000448
:101E3000B0234C22002108A8FFF770FC1E23DC22EF
:101E4000782108A80094FFF70CFC1848CDE900059C
:101E500017A35022122108A8FFF72EFD394602A829
:101E6000FEF796F9164902A8FEF792F9FEE7000080
:101E7000001002400008014000380140A00000208E
:101E8000652D506170657220696E697420666169A4
:101E90006C65640A0000000034000020652D50616C
:101EA0007065722044656D6F000000002C000020FA
:101EB00048656C6C6F20776F726C642100000000C5
:101EC0001C200008F0B50B30154D20F00701002450
:101ED000144A0FE003688B420BD38B4205D95E1A7C
:101EE00043184768C3E9006700E04368136002C015
:101EF00004E0021D10680028ECD12046002802D121
:101F0000286808B10020F0BD064A07481060074A5B
:101F1000121A22F00702C0E9002401202860D7E746
:101F20004400002040000020040100200031002077
:101F30000000000000000000010203040607080979
:101F400000000000010203040000000F0F00000564
:101F5000003232000002000F0F00000500000000F8
:101F60000000000000000000000000000000000071
:101F700000000000500F0F00000560323200000228
:101F8000A00F0F000005000000000000000000008E
:101F90000000000000000000000000000000500FE2
:101FA0000F000005603232000002A00F0F00000594
:101FB0000000000000000000000000000000000021
:101FC0000000000000000000A00F0F0000056032BC
:101FD00032000002500F0F0000050000000000005A
:101FE00000000000000000000000000000000000F1
:101FF0000000A00F0F000005603232000002500FF9
:102000000F000005000000000000000000000000BC
:10201000000000000000000000000000FFFFFFFFC4
:10202000FFFFFFFFFE1FFFFFFFFFFFFFE1FFFFFFBF
:10203000FFFFFFFFFFFFFFFFFFFFFE1FFFFFFFFF91
:10204000FFFFE1FFFFFFFFFFFFFFFFFFFFFFFFFFBE
:10205000FE1FFFFFFFFFFFFFE1FFFFFFFFFFFFFF8F
:10206000FFFFFFFFFFFFFE1FFFFFFFFFFFFFE1FF7F
:10207000FFFFFFFFFFFFFFFFFFFFFFFFFE1FFFFF51
:10208000FFFFFFFFE1FFFFFFFFFFFFFFFFFFFFFF7E
:10209000FFFFFE1FFFFFFFFFFFFFE1FFFFFFFFFF4F
:1020A000FFFFFFFFFFFFFFFFFE1FFFFFFFFFFFFF21
:1020B000E1FFFFFFFFFFFFFFFFFFFFFFFFFFFE1F2F
:1020C000FFFFFFFFFFFFE1FFFFFFFFFFFFFFFFFF3E
:1020D000FFFFFFFFFE1FFFFFFFFFFFFFE1FFFFFF0F
:1020E000FFFFFFFFFFFFFFFFFFFFFE1FFFFFFFFFE1
:1020F000FFFFE1FFFFFFFFFFFFFFFFFFFFFFFFFF0E
:10210000FE1F800000000003E1FFFFFFFFFFFFFF55
:10211000FFFFFFFFFFFFFE1F800000000003E1FF45
:10212000FFFFFFFFFFFFFFFFFFFFFFFFFE1F80001E
:1021300000000003E1FFFFFFFFFFFFFFFFFFFFFFC6
:10214000FFFFFE1F800000000003E1FFFFFFFFFF15
:10215000FFFFFFFFFFE0FFFFFE1F80000000000306
:10216000E1FFFFFFFFFFFFFFFFFFFF801FFFFE1FDD
:1021700083FFFFFFFF83E1FFFFFFFFFFFFFFFFFF85
:10218000FE000FFFFE1F83FFFFFFFF83E1FFFFFF46
:10219000FFFFFFFFFFFFFC0E07FFFE1F83FFFFFF98
:1021A000FF83E1FFFFFFFFFFFFFFFFFFF83F83FF1C
:1021B000FE1F83FFFFFFFF83E1FFFFFFFFFFFFFF26
:1021C000FFFFF07FE1FFFE1F83FFFFFFFF83E1FFC3
:1021D000FFFFFFFFFFFFFFFFC0FFF1FFFE1F83FFB9
:1021E000C0000183E1FFFFFFFFFFFFFFFFFF01FFD3
:1021F000F1FFFE1F830000000183E1FFFFFFFFFFEF
:10220000FFFFFFFC01FFF0FFFE1F830000000183C2
:10221000E1FFFFFFFFFFFFFFFFF003FFF0FFFE1FE7
:10222000830000000183E1FFFFFFFFFFFFFFFFF0DE
:102230007FFFF0FFFE1F830000000183E1FFFFFF2F
:10224000FFFFFFFFFFE0FFFFF0FFFE1F8301FFFF27
:10225000FF83E1FFFFFFFFFFFFFFFFC3FFFFF0FF73
:10226000FE1F83003FFFFF83E1FFFFFFFFFFFFFF34
:10227000FFC7FFFFF0FFFE1F830007FFFF83E1FFA3
:10228000FFFFFFFFFFFFFF87FFFFF0FFFE1F83E061
:10229000007FFF83E1FFFFFFFFFFFFFFFF8FFFFFD7
:1022A000F0FFFE1F83FE000FFF83E1FFFFFFFFFF34
:1022B000FFFFFF8FFFFFF0FFFE1F83FFE003FF83A1
:1022C000E1FFFFFFFFFFFFFFFF8FFFFFF0FFFE1F9C
:1022D00083FFFE03FF83E1FFFFFFFFFFFFFFFF8F91
:1022E000FFFFF0FFFE1F83FFE003FF83E1FFFFFF1F
:1022F000FFFFFFFFFF8FFFFFF0FFFE1F83FE0003C6
:10230000FF83E1FFFFFFFFFFFFFFFF8FFFFFF0FFF6
:10231000FE1F83E0001FFF83E1FFFFFFFFFFFFFFC2
:10232000FF87FFFFF0FFFE1F830001FFFF83E1FF38
:10233000FFFFFFFFFFFFFF87FFFFF0FFFE1F830090
:102340001FFFFF83E1FFFFFFFFFFFFFFFFC3FFFF53
:10235000F0FFFE1F8300FFFFFF83E1FFFFFFFFFF92
:10236000FFFFF9C1FFFFF0FFFE1F830000001F8386
:10237000E1FFFFFFFFFFFFFFFCE0FFFFF0FFFE1F9D
:10238000830000000183E1FFFFFFFFFFFFFFFC7000
:102390001FFFF0FFFE1F830000000183E1FFFFFF2E
:1023A000FFFFFFFFFE381FFFF0FFFE1F830000004E
:1023B0000183E1FFFFFFFFFFFFFFFF3E1FFFF0FF75
:1023C000FE1F83FFC0000183E1FFFFFFFFFFFFFF50
:1023D000FFBE1FFFF0FFFE1F83FFFFFFFF83E1FF34
:1023E000FFFFFFFFFFFF3FBE1FFFF0FFFE1F83FF4A
:1023F000FFFFFF83E1FFFFFFFFFFFFFF0F1E1FFF38
:10240000F0FFFE1F83FFFFFFE183E1FFFFFFFFFF00
:10241000FFFF820E1FFFF0FFFE1F83FFFFFF018300
:10242000E1FFFFFFFFFFFFFFE01E1FFFF0FFFE1FAA
:1024300083FFFFF00183E1FFFFFFFFFFFFFFFC3F92
:102440000FFFF0FFFE1F83FFFF800183E1FFFFFF0F
:10245000FFFFFFFFFC3F07FFF0FFFE1F83FFF800B9
:102460000183E1FFFFFFFFFFFFFFFC7F81FFF0FF24
:10247000FE1F83FFC0000183E1FFFFFFFFFFFFFF9F
:10248000F87FC00FF0FFFE1F83FC00000783E1FF11
:10249000FFFFFFFFFFFC007FE01FF0FFFE1F83E058
:1024A00000007F83E1FFFFFFFFFFFFFC007FFC1FB9
:1024B000F0FFFE1F830000007F83E1FFFFFE3FFF70
:1024C000FFFFFC7FFE1FF0FFFE1F830000707F8375
:1024D000E1FFFFFC1FFFFFFFFC3FFE1FF0FFFE1FA1
:1024E000830007F07F83E1FFFFFC1FFFFFFFFC1F5E
:1024F000FF1FF1FFFE1F83007FF07F83E1FFFFFEE0
:102500003FFFFFFFF80FFF0FE1FFFE1F8307FFF004
:102510007F83E1FFFFFFFFFFFFFFF0010F83C1FF9C
:10252000FE1F83007FF07F83E1FFFFFFFFFFFFFFC0
:10253000C380078003FFFE1F83000FF07F83E1FF4E
:10254000FFFFFFFFFFFF8FC003C007FFFE1F8300D9
:1025500000F07F83E1FFFFFFFFFFFFFF9FC019F047
:102560001FFFFE1F838000107F83E1FFFFFFFFFF3F
:10257000FFFFFF9E7CFC7FFFFE1F83F000007F8338
:10258000E1FFFFFFFFFFFFFFFF9F7C7FFFFFFE1FBD
:1025900083FE00003F83E1FFFFFFFFFFFFFFFF3FE0
:1025A0007E7FFFFFFE1F83FFE0000383E1FFFFFF4D
:1025B000FFFFFFFFFF3F7F3FFFFFFE1F83FFFC008A
:1025C0000183E1FF00001FFFFFFFFE7F3FBFFFFF12
:1025D000FE1F83FFFFC00183E1FF00001FFFFFFF1D
:1025E000FFFF3FFFFFFFFE1F83FFFFF80183E1FFB7
:1025F000F8FC7FFFFFFFFFFF3FFFFFFFFE1F83FF92
:10260000FFFF0183E1FFF9FE3FFFFFFFFFFFFFFF39
:10261000FFFFFE1F83FFFFFFF183E1FFF9FF3FFF95
:10262000FFFFFFFFFFFFFFFFFE1F83FFFFFFFF8393
:10263000E1FFF9FF9FFFFFFFFFFFFFFFFFFFFE1F0F
:1026400083FFFFFFFF83E1FFF9FF9FFFFFFFFFFF16
:10265000FFFFFFFFFE1F83FFFFFFFF83E1FFFCFF84
:102660009FFFFFFFFFFFFFFFFFFFFE1F83FFFFFF37
:10267000FF83E1FFFC7F1FFFFFFFFFFFFFFFFFFF67
:10268000FE1F800000000003E1FFFE003FFFFFFF90
:10269000FFFFFFFFFFFFFE1F800000000003E1FFC0
:1026A000FF007FFFFFFFFFFFFFFFFFFFFE1F800018
:1026B00000000003E1FFFFFFFFFFFFFFFFFFFFFF41
:1026C000FFFFFE1F800000000003E1FFFFFFFFFF90
:1026D000FFFFFFFFFFFFFFFFFE1F80000000000362
:1026E000E1FFFFFFFFFFFFFFFFFFFFFFFFFFFE1FF9
:1026F000FFFFFFFFFFFFE1FFFFFFFFFF0000000004
:1027000000000000001FFFFFFFFFFFFFE1FFFF07CA
:10271000FFFF0000000000000000001FFFFFFFFFA0
:10272000FFFFE1FFFE07BFFF000000000000000008
:10273000001FFFFFFFFFFFFFE1FFFC679FFF00009F
:10274000000000000000001FFFFFFFFFFFFFE1FF90
:10275000F8E79FFFFFFFFFFFFFFFFFFFFE1FFFFFE9
:10276000FFFFFFFFE1FFF9E79FFFFFFFFFFFFFFF15
:10277000FFFFFE1FFFFFFFFFFFFFE1FFF9E79FFFE6
:10278000FFFFFFFFFFFFFFFFFE1FFFFFFFFFFFFF3A
:10279000E1FFF9E79FFFFFFFFFFFFFFFFFFFFE1FC6
:1027A000FFFFFFFFFFFFE1FFF9E71FFFFFFFFFFF55
:1027B000FFFFFFFFFE1FFFFFFFFFFFFFE1FFFCE743
:1027C0003FFFFFF803FFFFFFFFFFFE1FFFFFFFFFBD
:1027D000FFFFE1FFFC003FFFFFF001FFFFFFFFFFF6
:1027E000FE1FFFFFFFFFFFFFE1FFFE007FFFFFC1B6
:1027F000E03FFFFFFFFFFE1FFFFFFFFFFFFFE1FFC7
:10280000FF81FFFFFF0FFE1FFFFFFFFFFE1FFFFF08
:10281000FFFFFFFFE1FFFFFFFFFFFE3FFF07FFFF9F
:10282000FFFFFE1FFFFFFFFFFFFFE1FFFFFFFFFFB7
:10283000FC386383FFFFFFFFFE1FFFFFFFFFFFFF6B
:10284000E1FF801FFFFFF87031C1FFFFFFFFFE1F98
:10285000FFFFFFFFFFFFE1FF80001FFFF06030C1BF
:10286000FFFFFFFFFE1FFFFC0003FFFFE1FFFFFC78
:102870001FFFE0603040FFFFFFFFFE1FFFC00000B2
:102880007FFFE1FFFFFE1FFFE060306000000001FE
:10289000FE1FFF0000001FFFE1FFFFF07FFFC07081
:1028A000306000000001FE1FFE00000007FFE1FF96
:1028B000FF83FFFFC030706000000001FE1FFC00BE
:1028C000000003FFE1FFFE1FFFFF803FE06000000C
:1028D0000001FE1FF8003FFC01FFE1FFFE0FFFFFBC
:1028E000801FC00000000001FE1FF0181FFF80FFC6
:1028F000E1FFFFC1FFFF8003000000000001FE1F99
:10290000E07C0FFFE0FFE1FFFFF83FFF80000000E9
:102910001FFFF001FE1FE0FE07FFF07FE1FFFFFF5A
:102920001FFF800000001FFFE001FE1FE1FF07FF07
:10293000F87FE1FFE0001FFF800000001FFFC001E3
:10294000FE1FC1FF03FFF87FE1FF80001FFF80072C
:10295000FC001FFF8001FE1FC3FF81FFFC3FE1FF62
:1029600083FFFFFF801FFF001FFF0001FE1FC3FF4B
:10297000C0FFFC3FE1FFFFFFFFFF803C67801FFEC1
:102980000081FE1FC3FFE0FFFC3FE1FFFFFFFFFFF1
:10299000803021C01FFC0181FE1FC3FFE07FFC3F90
:1029A000E1FFFFFFFFFFC06030C03FF80381FE1F63
:1029B000C3FFF03FFC3FE1FFFFFFFFFFC06030C0FF
:1029C0007FF00F81FE1FE1FFF83FF83FE1FFFFFFBF
:1029D000FFFFC06030607FE01F81FE1FE1FFFC1F32
:1029E000F87FE1FFFFFFFFFFE0603060FFC03F8145
:1029F000FE1FE0FFFC0FF07FE1FFFFFFFFFFE03075
:102A00007060FF807F81FE1FF07FFE07C07FE1FFC7
:102A1000FFFFFFFFF038E061FE00FF81FE1FF01FA7
:102A2000FF0780FFE1FFFFFFFFFFF81FE061FC01F0
:102A3000FF81FE1FF803FF0001FFE1FFFFFFFFFF23
:102A4000FC0F8000F803FF81FE1FFC00000001FF67
:102A5000E1FFFFFFFFFFFE0000007007FF81FE1F88
:102A6000FE00000007FFE1FFFFFFFFFFFF00000087
:102A7000200FFF81FE1FFF8000000FFFE1FFFFFF1F
:102A8000FFFFFF800060001FFF81FE1FFFE00000CE
:102A90003FFFE1FFFFFFFFFFFF8001F0003FFF81ED
:102AA000FE1FFFFC0003FFFFE1FFFFFFFFFFFF81B1
:102AB000FFF800FFFF81FE1FFFFFFFFFFFFFE1FFA9
:102AC000FFFFFFFFFF81FFFC01FFFF81FE1FFFFFF4
:102AD000FFFFFFFFE1FFFFFFFFFFFF81FFFE01FFA1
:102AE000FF81FE1FFFFFFFFFFFFFE1FFFFFFFFFF73
:102AF000FF81FFFE01FFFF81FE1FFFFFFFFFFFFFC2
:102B0000E1FFFFC0FFFFFF81FFFF00FFFF81FE1F0E
:102B1000FFFFFFFFFFFFE1FF9F803FFFFF81FFFF00
:102B2000807FFF81FE1FFFFFFFFFFFFFE1FF9F9EF2
:102B30003FFFFF81FFFFC03FFF81FE1FFFFC00033F
:102B4000FFFFE1FF9F3F1FFFFF81FFFFE01FFF81AE
:102B5000FE1FFFC000007FFFE1FF9F3F9FFFFF813F
:102B6000FFFFF00FFF81FE1FFF0000001FFFE1FFCE
:102B70009F3F9FFFFF81FFFFF80FFF81FE1FFE00B9
:102B8000000007FFE1FFCF3F9FFFFF81FFFFFC0732
:102B9000FF81FE1FFC00000003FFE1FFCF3F9FFF0E
:102BA000FF81FFFFFE03FF81FE1FF8003FFC01FFD6
:102BB000E1FFE39F3FFFFF81FFFFFE03FF81FE1F59
:102BC000F0181FFF80FFE1FFF0003FFFFF81FFFFD4
:102BD000FC03FF81FE1FE07C0FFFE0FFE1FFF80038
:102BE0007FFFFF81FFFFF807FF81FE1FE0FE07FF69
:102BF000F07FE1FFFF03FFFFFF81FFFFF00FFF8189
:102C0000FE1FE1FF07FFF87FE1FFFFFFFFFFFF81EE
:102C1000FFFFE01FFF81FE1FC1FF03FFF87FE1FF01
:102C2000FFFFFFFFFF81FFFFC03FFF81FE1FC3FFCC
:102C300081FFFC3FE1FFFFFFFFFFFF81FFFFC07F40
:102C4000FF81FE1FC3FFC0FFFC3FE1FFFFFF9FFFAF
:102C5000FF81FFFF80FFFF81FE1FC3FFE0FFFC3FFE
:102C6000E1FFFFFF9FFFFF81FFFF01FFFF81FE1FCD
:102C7000C3FFE07FFC3FE1FFFFFF9FFFFF81FFFEFF
:102C800001FFFF81FE1FC3FFF03FFC3FE1FFFFFF9D
:102C90009FFFFF81FFFC01FFFF81FE1FE1FFF83F67
:102CA000F83FE1FF80001FFFFF81FFF800FFFF8179
:102CB000FE1FE1FFFC1FF87FE1FF80001FFFFF8187
:102CC000FFF0007FFF81FE1FE0FFFC0FF07FE1FFC0
:102CD00080001FFFFF81FFE0003FFF81FE1FF07FAC
:102CE000FE07C07FE1FFDFFF9FFFFF81FFE0001FC6
:102CF000FF81FE1FF01FFF0780FFE1FFCFFF9FFF57
:102D0000FF81FFC0700FFF81FE1FF803FF0001FF6E
:102D1000E1FFE7FF9FFFFF81FF80F807FF81FE1FB4
:102D2000FC00000001FFE1FFE7FF9FFFFF81FF01C3
:102D3000FC01FF81FE1FFE00000007FFE1FFF7FF1F
:102D40009FFFFF81FE01FE00FF81FE1FFF8000004C
:102D50000FFFE1FFFFFFFFFFFF81FC03FF007F810B
:102D6000FE1FFFE000003FFFE1FFFFFFFFFFFF81CD
:102D7000F807FF803F81FE1FFFFC0003FFFFE1FF1C
:102D8000FFFFFFFFFF81F00FFFC01F81FE1FFFFF4E
:102D9000FFFFFFFFE1FFFFFFFFFFFF81E01FFFE0FD
:102DA0000F81FE1FFFFFFFFFFFFFE1FFFFFFFFFFA0
:102DB000FF81E03FFFF00781FE1FFFFFFFFFFFFFE6
:102DC000E1FFFFFFFFFFFF81C07FFFFC0381FE1FCC
:102DD000FFFFFFFFFFFFE1FFFFFFFFFFFF8180FF1E
:102DE000FFFE0181FE1FFFFFFFFFFFFFE1FFFFFF6F
:102DF000FFFFFF8100FFFFFF0081FE1FFFFFFFFFBE
:102E0000FFFFE1FFFFFFFFFFFF8001FFFFFF8001EA
:102E1000FE1FFFFFFFFFFFFFE1FFFFFFFFFFFF8040
:102E200003FFFFFFC001FE1FFFFFFFFFFFFFE1FFEA
:102E3000FFFFFFFFFF8007FFFFFFE001FE1FFFFF17
:102E4000FFFFFFFFE1FFFFFFFFFFFF800FFFFFFF1F
:102E5000F001FE1FFFFFFFFFFFFFE1FFFFFFFFFF8E
:102E6000FF800FFFFFFFF001FE1FFFFFFFFFFFFFCF
:102E7000E1FFFFFFFFFFFF80000000000001FE1FD9
:102E8000FFFFFFFFFFFFE1FFFFFFFFFFFF800000ED
:102E900000000001FE1FFFFFFFFFFFFFE1FFFFFF3C
:102EA000FFFFFF80000000000001FE1FFFFFFFFF8B
:102EB000FFFFE1FFFFFFFFFFFF80000000000001B8
:102EC000FE1FFFFFFFFFFFFFE1FFFFFFFFFFFF8090
:102ED000000000000001FE1FFFFC7FFFF1FFE1FF8B
:102EE000F9FFE7FFFFFFFFFFFFFFFFFFFE1FFFF000
:102EF0001FFFC07FE1FFF9FFC3FFFFFFFFFFFFFFE1
:102F0000FFFFFE1FFFF01FFFC07FE1FFF80F81FFF3
:102F1000FFFFFFFFFFFFFFFFFE1FFFE00FFF803FF0
:102F2000E1FFF80799FFFFFFFFFFFFFFFFFFFE1F15
:102F3000FFE00FFF803FE1FFF8E79CFFFFFFFFFF8F
:102F4000FFFFFFFFFE1FFFE00FFF803FE1FFF9F3F0
:102F50009CFFFFFFFFFFFFFFFFFFFE1FFFF01FFFB4
:102F6000C07FE1FFF9F39CFFFFFFFFFFFFFFFFFFC3
:102F7000FE1FFFF01FFFC07FE1FFF9F39CFFFFFF83
:102F8000FFFFFFFFFFFFFE1FFFFC7FFFF1FFE1FFE1
:102F9000F9F39CFFFFFFFFFFFFFFFFFFFE1FFFFF97
:102FA000FFFFFFFFE1FFFCE79CFFFFFFFFFFFFFFCD
:102FB000FFFFFE1FFFFFFFFFFFFFE1FFFC0009FF18
:102FC000FFFFFFFFFFFFFFFFFE1FFFFFFFFFFFFFF2
:102FD000E1FFFE0801FFFFFFFFFFFFFFFFFFFE1FF6
:102FE000FFFFFFFFFFFFE1FFFFFC61FFFFFFFFFFB0
:102FF000FFFFFFFFFE1FFFFFFFFFFFFFE1FFFFFFE0
:10300000FFFFFFFFFFFFFFFFFFFFFE1FFFFFFFFFB1
:10301000FFFFE1FFFFFFFFFF0000000000000000D6
:10302000001FFFFFFFFFFFFFE1FFFFFFFFFF0000AB
:10303000000000000000001FFFFFFFFFFFFFE1FF97
:10304000FFFFFFFF0000000000000000001FFFFF67
:10305000FFFFFFFFE1FFF8001FFF0000000000007E
:103060000000001FFFFFFFFFFFFFE1FFF8001FFF51
:10307000FFFFFFFFFFFFFFFFFE1FFFFFFFFFFFFF41
:10308000E1FFFFFE7FFFFFFFFFFFFFFFFFFFFE1FD0
:10309000FFFFFFFFFFFFE1FFFFFF3FFFFFFFFFFF1E
:1030A000FFFFFFFFFE1FFFFFFFFFFFFFE1FFFFFF2F
:1030B0009FFFFFFFFFFFFFFFFFFFFE1FFFFFFFFF61
:1030C000FFFFE1FFFFFF9FFFFFFFFFFFFFFFFFFF8E
:1030D000FE1FFFFFFFFFFFFFE1FFFFFF9FFFFFFF5F
:1030E000FFFFFFFFFFFFFE1FFFFC0003FFFFE1FFED
:1030F000FFFF9FFFFFFFFFFFFFFFFFFFFE1FFFC060
:1031000000007FFFE1FFFFFC1FFFFFFFFFFFFFFF4E
:10311000FFFFFE1FFF0000001FFFE1FFF8003FFF61
:10312000FFFFFFFFFFFFFFFFFE1FFE00000007FF86
:10313000E1FFF800FFFFFFFFFFFFFFFFFFFFFE1FA4
:10314000FC00000003FFE1FFFFFFFFFFFFFFFFF0B8
:1031500000000001FE1FF8003FFC01FFE1FFFFFF40
:10316000FFFFFFFFFF8000000001FE1FF0181FFFA0
:1031700080FFE1FFFFFFDFFFFFFFFE000000000117
:10318000FE1FE07C0FFFE0FFE1FFFFFE1FFFFFFFE0
:10319000F80000000001FE1FE0FE07FFF07FE1FFE6
:1031A000FFF01FFFFFFFF00000000001FE1FE1FF26
:1031B00007FFF87FE1FFFF807FFFFFFFC000008077
:1031C0000001FE1FC1FF03FFF87FE1FFFC01FFFFCD
:1031D000FFFF800003E00001FE1FC3FF81FFFC3FF3
:1031E000E1FFE039FFFFFFFF00000FF80001FE1FC5
:1031F000C3FFC0FFFC3FE1FF81F9FFFFFFFE0000BE
:103200003FFE0001FE1FC3FFE0FFFC3FE1FF8FF91F
:10321000FFFFFFFC0000FFFFE001FE1FC3FFE07F98
:10322000FC3FE1FF87F9FFFFFFF80003FC0FF0010F
:10323000FE1FC3FFF03FFC3FE1FF80F9FFFFFFF0FF
:10324000000FF003F001FE1FE1FFF83FF83FE1FF40
:10325000F019FFFFFFF0001FF000F801FE1FE1FF73
:10326000FC1FF87FE1FFFE01FFFFFFE0001FF00001
:10327000FC01FE1FE0FFFC0FF07FE1FFFFC03FFFFE
:10328000FFE0000FF8000001FE1FF07FFE07C07F87
:10329000E1FFFFF81FFFFFC00003FE000001FE1F5B
:1032A000F01FFF0780FFE1FFFFFF9FFFFFC000004F
:1032B000FF800001FE1FF803FF0001FFE1FFFFFF99
:1032C000FFFFFF8000003FE00001FE1FFC00000048
:1032D00001FFE1FFFFFFFFFFFF80000007FC00018F
:1032E000FE1FFE00000007FFE1FFFFFFFFFFFF8062
:1032F000000003FC0001FE1FFF8000000FFFE1FF44
:10330000FFFFFFFFFF001FC003FC0001FE1FFFE0E7
:1033100000003FFFE1FFFFFFFFFFFF000FC003FCC6
:103320000001FE1FFFFC0003FFFFE1FFFFFFFFFFA7
:10333000FF0007F81FF00001FE1FFFFFFFFFFFFF68
:10334000E1FFFFFFFFFFFF0003FE3F000001FE1F44
:10335000FFFFFFFFFFFFE1FFFFFFFFFFFF0001FF98
:10336000FE000001FE1FFFFFFFFFFFFFE1FFFFFF69
:10337000FFFFFF00001FFE000001FE1FFFFFFFFF19
:10338000FFFFE1FFFFFFFFFFFF000003FE00000162
:10339000FE1FFFFFFFFFFFFFE1FFFFFFFFFFFF003B
:1033A0000000FF800001FE1FFFFFFFFFFFFFE1FFA6
:1033B000FFFFFFFFFF0000003FE00001FE1FFFFFD7
:1033C000FFFFF07FE1FFFFFFFFFFFF0000001FFC9A
:1033D0000001FE1FFFFFFFFFF07FE1FFFFFFFFFF88
:1033E000FF0000001FFC0001FE1FFFFFFFFFF07F3A
:1033F000E1FFFFFFFFFFFF0000001FFC0001FE1FB9
:10340000FFFFFFFFF07FE1FFFFFFFFFFFF00000076
:10341000FFE00001FE1FFFFFFFFFF07FE1FFFFFF66
:10342000FFFFFF000007FF000001FE1FFFFFFFFF7F
:10343000F07FE1FFFFFFFFFFFF00001FFC00000126
:10344000FE1FFFFFFFFFF07FE1FFFFFFFFFFFF0019
:10345000001FF0000003FE1FFFFFFFFFF07FE1FFF2
:10346000FFFFFFFFFF00001FF0000003FE1FE00052
:103470000000007FE1FFFFFFFFFFFF00000FF000F3
:103480000003FE1FE0000000007FE1FFFFFFFFFFE1
:10349000FF000001FE000007FE1FE0000000007FAB
:1034A000E1FFFFFFFFFFFF0000003FC00007FE1F1E
:1034B000E0000000007FE1FFFFFFFFFFFF000000D2
:1034C0003FF8000FFE1FE0000000007FE1FFFFFF5C
:1034D000FFFFFF0000003FFC000FFE1FE0000000A8
:1034E000007FE1FFFFFFFFFFFF0000007FFC001FE8
:1034F000FE1FF0FFFFFFF07FE1FFFFFFFFFFFF0078
:103500000003FFF8003FFE1FF87FFFFFF07FE1FFA1
:10351000FFFFFFFFFF00000FFFC0003FFE1FF83F4F
:10352000FFFFF07FE1FFFFFFFFFFFF00001FFE0036
:10353000007FFE1FFC3FFFFFF07FE1FFFFFFFFFF6B
:10354000FF00001FF00000FFFE1FFC1FFFFFF07FC9
:10355000E1FFFFFFFFFFFF00001F800001FFFE1FD4
:10356000FE0FFFFFF07FE1FFFFFFFFFFFF00001CEA
:10357000000003FFFE1FFE0FFFFFF07FE1FFFFFFD4
:10358000FFFFFF000000000007FFFE1FFF07FFFF17
:10359000F07FE1FFFFFFFFFFFF00000000001FFFC3
:1035A000FE1FFF83FFFFF07FE1FFFFFFFFFFFF0034
:1035B000000000003FFFFE1FFF87FFFFF07FE1FFDD
:1035C000FFFFFFFFFF0000000000FFFFFE1FFFDF07
:1035D000FFFFFFFFE1FFFFFFFFFFFF000000000311
:1035E000FFFFFE1FFFFFFFFFFFFFE1FFFFFFFFFFEA
:1035F000FF000000001FFFFFFE1FFFFFFFFFFFFF98
:10360000E1FFFFFFFFFFFFFFFFFFFFFFFFFFFE1FC9
:10361000FFFFFFFFFFFFE1FFFFFFFFFFFFFFFFFFD8
:10362000FFFFFFFFFE1FFFFFFFFFFFFFE1FFFFFFA9
:10363000FFFFFFFFFFFFFFFFFFFFFE1FFFFFFFFF7B
:10364000FFFFE1FFFFFFFFFFFFFFFFFFFFFFFFFFA8
:10365000FE1FFFFFFFFFFFFFE1FFFFFFFFFFFFFF79
:10366000FFFFFFFFFFFFFE1FFFFFFFFFFFFFE1FF69
:10367000FFFFFFFFFFFFFFFFFFFFFFFFFE1FFFFF3B
:10368000FFFFFFFFE1FFFFFFFFFFFFFFFFFFFFFF68
:10369000FFFFFE1FFFFFFFFFFFFFE1FFFFFFFFFF39
:1036A000FFFFFFFFFFFFFFFFFE1FFFFFFFFFFFFF0B
:1036B000E1FFFFFFFFFFFFFFFFFFFFFFFFFFFE1F19
:1036C000FFFFFFFFFFFFE1FFFFFFFFFF0000000024
:1036D00000000000000000000000000000000000EA
:1036E00000000000000000000000000000000C00CE
:1036F0000C000C000C000C000C000C000C00000076
:103700000C000000000000000000000000000000AD
:103710001DC01DC008800880088000000000000057
:1037200000000000000000000000000000000D800C
:103730000D800D800D803FC01B003FC01B001B0093
:103740001B001B00000000000000000004001F80A0
:103750003180318038001E000F00038031803180BD
:103760003F000400040000000000000000001800FA
:103770002400240018C007801E003180024002404F
:1037800001800000000000000000000000000000B8
:103790000F001800180018000C001D8037003300BF
:1037A0001D8000000000000000000000000000007C
:1037B00007000700020002000200000000000000F5
:1037C00000000000000000000000000000000300F6
:1037D000030006000E000C000C000C000C000E0094
:1037E00006000300030000000000000000001800B5
:1037F00018000C0006000600060006000600060081
:103800000C001C0018000000000000000000060072
:1038100006003FC03FC00F001F801980000000005D
:103820000000000000000000000000000000000098
:1038300000000400040004003F80040004000400B1
:103840000000000000000000000000000000000078
:103850000000000000000000000000000000060062
:1038600004000C0008000800000000000000000038
:1038700000000000000000003F8000000000000089
:103880000000000000000000000000000000000038
:1038900000000000000000000000000000000C001C
:1038A0000C000000000000000000000000C000C08C
:1038B000018001800300030006000C000C001800CA
:1038C00018003000300000000000000000000E0072
:1038D0001B003180318031803180318031801B008C
:1038E0000E000000000000000000000000000600C4
:1038F0003E00060006000600060006000600060060
:103900003FC00000000000000000000000000F00A9
:10391000198031803180030006000C00180030004F
:103920003F800000000000000000000000003F0099
:103930006180018003001F0003800180018061809D
:103940003F00000000000000000000000000070031
:1039500007000F000B001B00130033003F80030023
:103960000F800000000000000000000000001F8029
:103970001800180018001F001180018001802180AC
:103980001F00000000000000000000000000078091
:103990001C001800300037003980318031801980D8
:1039A0000F000000000000000000000000007F0089
:1039B0004300030006000600060006000C000C0091
:1039C0000C000000000000000000000000001F00CC
:1039D0003180318031801F003180318031803180F1
:1039E0001F000000000000000000000000001E009A
:1039F00033003180318033801D8001800300070057
:103A00003C0000000000000000000000000000007A
:103A1000000000000C000C000000000000000C0082
:103A20000C0000000000000000000000000000008A
:103A3000000000000300030000000000000006007A
:103A40000400080008000000000000000000000062
:103A500000C0030004001800600018000400030008
:103A600000C0000000000000000000000000000096
:103A70000000000000007FC000007FC000000000C8
:103A80000000000000000000000000000000000036
:103A9000600018000400030000C0030004001800C8
:103AA00060000000000000000000000000000000B6
:103AB0001F0031803180018007000C000C000000E5
:103AC0000C000000000000000000000000000E00DC
:103AD00011002100210027002900290027002000D3
:103AE00011000E00000000000000000000000000B7
:103AF0003F000F000900198019801F8030C030C0BE
:103B000079E000000000000000000000000000005C
:103B10007F003180318031803F00318031803180C1
:103B20007F00000000000000000000000000000016
:103B30001F4030C060406000600060006040308026
:103B40001F00000000000000000000000000000056
:103B50007F00318030C030C030C030C030C03180D4
:103B60007F000000000000000000000000000000D6
:103B70007F803080308032003E00320030803080E4
:103B80007F80000000000000000000000000000036
:103B90007FC03040304032003E0032003000300004
:103BA0007C00000000000000000000000000000099
:103BB0001E80318060806000600067C0618031805D
:103BC0001F000000000000000000000000000000D6
:103BD0007BC03180318031803F80318031803180C5
:103BE0007BC000000000000000000000000000009A
:103BF0003FC006000600060006000600060006009C
:103C00003FC00000000000000000000000000000B5
:103C10001FC0030003000300030063006300630090
:103C20003E00000000000000000000000000000056
:103C30007BC03180330036003C003E0033003180D1
:103C400079C000000000000000000000000000003B
:103C50007E0018001800180018001840184018407E
:103C60007FC0000000000000000000000000000015
:103C7000E0E060C071C07BC06AC06EC064C060C05C
:103C8000FBE0000000000000000000000000000059
:103C900073C0318039803D803580378033803180FA
:103CA000798000000000000000000000000000001B
:103CB0001F00318060C060C060C060C060C03180E3
:103CC0001F000000000000000000000000000000D5
:103CD0007F0031803180318031803F003000300002
:103CE0007E00000000000000000000000000000056
:103CF0001F00318060C060C060C060C060C03180A3
:103D00001F000CC01F800000000000000000000029
:103D10007F003180318031803E003300318031803E
:103D20007CE0000000000000000000000000000037
:103D30001F803180318038001F0003803180318046
:103D40003F00000000000000000000000000000034
:103D50007F804C804C804C800C000C000C000C00D0
:103D60003F00000000000000000000000000000014
:103D70007BC0318031803180318031803180318031
:103D80001F00000000000000000000000000000014
:103D90007BC0318031801B001B001B000A000E001D
:103DA0000E00000000000000000000000000000005
:103DB000FBE060C064C06EC06EC02A803B803B8068
:103DC0003180000000000000000000000000000042
:103DD0007BC031801B000E000E000E001B003180E6
:103DE0007BC0000000000000000000000000000098
:103DF00079E030C019800F000600060006000600BA
:103E00001F80000000000000000000000000000013
:103E10003F8021802300060004000C0018803080C1
:103E20003F8000000000000000000000000007804C
:103E30000600060006000600060006000600060052
:103E4000060006000780000000000000300030007F
:103E5000180018000C000C0006000300030001808D
:103E6000018000C000C000000000000000001E0033
:103E70000600060006000600060006000600060012
:103E8000060006001E0000000000000004000A00FA
:103E90000A001100208020800000000000000000C7
:103EA0000000000000000000000000000000000012
:103EB0000000000000000000000000000000000002
:103EC00000000000000000000000FFE00800040007
:103ED00002000000000000000000000000000000E0
:103EE00000000000000000000000000000000000D2
:103EF000000000001F00018001801F80318033809E
:103F00001DC0000000000000000000000000700064
:103F1000300030003700398030C030C030C03980C8
:103F2000770000000000000000000000000000001A
:103F3000000000001E803180608060006080318061
:103F40001F000000000000000000000000000380CF
:103F5000018001801D8033806180618061803380B9
:103F60001DC0000000000000000000000000000074
:103F7000000000001F00318060C07FC0600030C0C2
:103F80001F8000000000000000000000000007E0AB
:103F90000C000C003F800C000C000C000C000C000E
:103FA0003F80000000000000000000000000000052
:103FB000000000001DC0338061806180618033801B
:103FC0001D80018001801F000000000000007000C3
:103FD00030003000370039803180318031803180CD
:103FE0007BC0000000000000000000000000060090
:103FF000060000001E00060006000600060006007F
:104000003FC00000000000000000000000000600AB
:10401000060000003F00030003000300030003004C
:104020000300030003003E000000000000007000D9
:1040300030003000378036003C003C003600330052
:1040400077C00000000000000000000000001E001B
:104050000600060006000600060006000600060030
:104060003FC0000000000000000000000000000051
:10407000000000007F8036C036C036C036C036C073
:1040800076E00000000000000000000000000000DA
:10409000000000007700398031803180318031802C
:1040A0007BC00000000000000000000000000000D5
:1040B000000000001F00318060C060C060C031801F
:1040C0001F000000000000000000000000000000D1
:1040D000000000007700398030C030C030C0398027
:1040E0003700300030007C000000000000000000BD
:1040F000000000001DC033806180618061803380DA
:104100001D800180018007C0000000000000000049
:10411000000000007B801CC0180018001800180068
:104120007F00000000000000000000000000000010
:10413000000000001F8031803C001F0003803180A0
:104140003F00000000000000000000000000180018
:10415000180018007F0018001800180018001880B8
:104160000F00000000000000000000000000000040
:1041700000000000738031803180318031803380D5
:104180001DC0000000000000000000000000000052
:10419000000000007BC0318031801B001B000E003E
:1041A0000E00000000000000000000000000000001
:1041B00000000000F1E060C064C06EC03B803B8046
:1041C000318000000000000000000000000000003E
:1041D000000000007BC01B000E000E000E001B0044
:1041E0007BC0000000000000000000000000000094
:1041F0000000000079E030C0198019800B000F002A
:10420000060006000C003E00000000000000000058
:10421000000000003F80218003000E001800308065
:104220003F800000000000000000000000000600C9
:104230000C000C000C000C000C0018000C000C0012
:104240000C000C000600000000000000000006004A
:10425000060006000600060006000600060006002E
:1042600006000600060000000000000000000C0030
:104270000600060006000600060003000600060011
:10428000060006000C000000000000000000000016
:10429000000000000000180024800300000000005F
:1042A000000000000000000000000000000000000E
:1042B00000000000000000000000000000000000FE
:1042C00000000000000000000000000000000000EE
:1042D00000000000000007000700070007000700BB
:1042E00007000700020002000000000007000700AE
:1042F00000000000000000000000000000000000BE
:104300001CE01CE01CE008400840084000000000E1
:10431000000000000000000000000000000000009D
:10432000000000000CC00CC00CC00CC00CC03FF062
:104330003FF00CC00CC03FF03FF00CC00CC00CC0F4
:104340000CC00CC0000000000000000003000300CF
:1043500007E00FE0186018001F000FC000E01860B1
:1043600018601FC01F80030003000300000000004E
:104370000000000000001C002200220022001C603F
:1043800001E00F803C0031C002200220022001C069
:10439000000000000000000000000000000000001D
:1043A000000003E00FE00C000C0006000F301FF0CF
:1043B00019E018C01FF007B0000000000000000066
:1043C0000000000000000000038003800380010063
:1043D00001000100000000000000000000000000DB
:1043E000000000000000000000000000000000C00D
:1043F00000C001800180018003000300030003006E
:104400000300030001800180018000C000C00000A3
:104410000000000000000C000C0006000600060072
:10442000030003000300030003000300060006006E
:1044300006000C000C00000000000000000003005B
:10444000030003001B601FE0078007800FC00CC043
:10445000000000000000000000000000000000005C
:104460000000000000000000000003000300030043
:1044700003003FF03FF003000300030003000000CF
:10448000000000000000000000000000000000002C
:10449000000000000000000000000000000000001C
:1044A0000000038003000300060006000400000073
:1044B00000000000000000000000000000000000FC
:1044C00000003FE03FE000000000000000000000AE
:1044D00000000000000000000000000000000000DC
:1044E00000000000000000000000000000000000CC
:1044F0000000038003800380000000000000000033
:10450000000000000060006000C000C000C001802A
:10451000018003000300060006000C000C000C00E4
:1045200018001800000000000000000000000F80CC
:104530001FC018C030603060306030603060306064
:10454000306018C01FC00F80000000000000000095
:1045500000000000000003001F001F000300030014
:104560000300030003000300030003001FE01FE03B
:1045700000000000000000000000000000000F80AC
:104580001FC038E03060006000C0018003000600FA
:104590000C0018003FE03FE00000000000000000B9
:1045A0000000000000000F803FC030E0006000E02D
:1045B00007C007C000E00060006060E07FC03F808F
:1045C000000000000000000000000000000001C02A
:1045D00003C003C006C00CC00CC018C030C03FE010
:1045E0003FE000C003E003E0000000000000000026
:1045F0000000000000001FC01FC0180018001F802E
:104600001FC018E000600060006030E03FC01F8005
:10461000000000000000000000000000000003E0B7
:104620000FE01E001800380037803FC038E03060CF
:10463000306018E01FC0078000000000000000008C
:104640000000000000003FE03FE03060006000C07C
:1046500000C000C00180018001800300030003004E
:1046600000000000000000000000000000000F80BB
:104670001FC038E0306038E01FC01FC038E0306035
:10468000306038E01FC00F80000000000000000014
:104690000000000000000F001FC038C03060306014
:1046A00038E01FE00F6000E000C003C03F803E0024
:1046B00000000000000000000000000000000000FA
:1046C0000000000000000380038003800000000061
:1046D0000000038003800380000000000000000051
:1046E000000000000000000000000000000001C009
:1046F00001C001C0000000000000038003000600AC
:10470000060004000000000000000000000000009F
:104710000000003000F003C007001C0078001C00FF
:10472000070003C000F0003000000000000000009F
:1047300000000000000000000000000000007FF00A
:104740007FF0000000007FF07FF00000000000001C
:104750000000000000000000000000000000000059
:10476000000030003C000F00038000E0007800E013
:1047700003800F003C00300000000000000000003B
:1047800000000000000000000F801FC018601860CB
:10479000006001C003800300000000000700070064
:1047A0000000000000000000000000000000038086
:1047B0000C8008401040104011C0124012401240BE
:1047C00011C0100008000840078000000000000031
:1047D00000000000000000001F801F80038006C052
:1047E00006C00CC00C601FE01FE03030787878788D
:1047F00000000000000000000000000000000000B9
:104800003F803FC01860186018E01FC01FE018709C
:10481000183018303FF03FE00000000000000000BA
:10482000000000000000000007B00FF01C703830DE
:10483000300030003000300038301C700FE007C00E
:104840000000000000000000000000000000000068
:104850007F807FC030E030703030303030303030EA
:10486000307030E07FC07F8000000000000000005A
:1048700000000000000000003FF03FF0183018304A
:1048800019801F801F801980183018303FF03FF0CA
:104890000000000000000000000000000000000018
:1048A0003FF03FF01830183019801F801F801980AA
:1048B000180018003F003F0000000000000000004A
:1048C000000000000000000007B01FF0187030303A
:1048D0003000300031F831F8303018301FF007C0A8
:1048E00000000000000000000000000000000000C8
:1048F0003CF03CF01860186018601FE01FE0186082
:10490000186018603CF03CF000000000000000005F
:1049100000000000000000001FE01FE00300030093
:104920000300030003000300030003001FE01FE077
:104930000000000000000000000000000000000077
:1049400003F803F8006000600060006030603060D1
:10495000306030E03FC00F80000000000000000029
:1049600000000000000000003EF83EF818E019804A
:104970001B001F001D8018C018C018603E783E380C
:104980000000000000000000000000000000000027
:104990003F003F000C000C000C000C000C000C3021
:1049A0000C300C303FF03FF0000000000000000031
:1049B00000000000000000007878787838703CF043
:1049C00034B037B037B03330333030307CF87CF827
:1049D00000000000000000000000000000000000D7
:1049E00039F03DF01C601E601E601B601B6019E00A
:1049F00019E018E03EE03E6000000000000000000A
:104A0000000000000000000007800FC01CE03870AC
:104A1000303030303030303038701CE00FC007801C
:104A20000000000000000000000000000000000086
:104A30003FC03FE018701830183018701FE01FC0DA
:104A4000180018003F003F000000000000000000B8
:104A5000000000000000000007800FC01CE038705C
:104A6000303030303030303038701CE00FC00780CC
:104A700007B00FF00CE00000000000000000000094
:104A80003FC03FE01870183018701FE01FC018E0DA
:104A9000186018703E383E1800000000000000004A
:104AA00000000000000000000FB01FF03870303030
:104AB00038001F8007E00070303038703FE037C0AA
:104AC00000000000000000000000000000000000E6
:104AD0003FF03FF033303330333003000300030046
:104AE000030003000FC00FC0000000000000000022
:104AF00000000000000000003CF03CF0186018606E
:104B0000186018601860186018601CE00FC00780FB
:104B10000000000000000000000000000000000095
:104B200078F078F03060306018C018C00D800D80CB
:104B30000D800700070007000000000000000000D3
:104B400000000000000000007C7C7C7C3018339862
:104B50003398339836D816D01C701C701C701830DF
:104B60000000000000000000000000000000000045
:104B700078F078F0306018C00D80070007000D80D5
:104B800018C0306078F078F00000000000000000ED
:104B900000000000000000003CF03CF018600CC079
:104BA0000780078003000300030003000FC00FC04D
:104BB00000000000000000000000000000000000F5
:104BC0001FE01FE0186018C001800300030006000A
:104BD0000C6018601FE01FE00000000000000000F3
:104BE00000000000000003C003C003000300030036
:104BF000030003000300030003000300030003009D
:104C0000030003C003C000000000000018001800EB
:104C10000C000C000C0006000600030003000180DD
:104C2000018000C000C000C0006000600000000003
:104C30000000000000000F000F000300030003004D
:104C4000030003000300030003000300030003004C
:104C500003000F000F000000000000000000020031
:104C600007000D8018C03060202000000000000008
:104C70000000000000000000000000000000000034
:104C80000000000000000000000000000000000024
:104C90000000000000000000000000000000000014
:104CA0000000000000000000FFFCFFFC000004000A
:104CB0000300008000000000000000000000000071
:104CC00000000000000000000000000000000000E4
:104CD00000000000000000000000000000000FC005
:104CE0001FE000600FE01FE0386030E03FF01F7011
:104CF0000000000000000000000000000000700044
:104D000070003000300037803FE0386030303030A5
:104D1000303038607FE07780000000000000000045
:104D2000000000000000000000000000000007B0CC
:104D30001FF0183030303000300038301FF00FC016
:104D400000000000000000000000000000000070F3
:104D500000700030003007B01FF018703030303075
:104D6000303038701FF807B8000000000000000065
:104D700000000000000000000000000000000780AC
:104D80001FE018603FF03FF0300018301FF007C000
:104D9000000000000000000000000000000003F020
:104DA00007F0060006001FE01FE0060006000600F0
:104DB000060006001FE01FE00000000000000000E9
:104DC000000000000000000000000000000007B824
:104DD0001FF8187030303030303018701FF007B0C6
:104DE000003000700FE00FC000000000000038002D
:104DF0003800180018001BC01FE01C601860186005
:104E0000186018603CF03CF000000000000000005A
:104E100000000000000003000300000000001F006D
:104E20001F00030003000300030003001FE01FE056
:104E3000000000000000000000000000000003006F
:104E40000300000000001FC01FC000C000C000C061
:104E500000C000C000C000C000C001C03F803F00D3
:104E600000000000000038003800180018001BE0A7
:104E70001BE01B001E001E001B00198039F039F0DA
:104E800000000000000000000000000000001F0003
:104E90001F000300030003000300030003000300DE
:104EA000030003001FE01FE00000000000000000FE
:104EB00000000000000000000000000000007EE094
:104EC0007FF0333033303330333033307BB87BB81E
:104ED00000000000000000000000000000000000D2
:104EE0000000000000003BC03FE01C60186018603C
:104EF000186018603CF03CF000000000000000006A
:104F0000000000000000000000000000000007801A
:104F10001FE0186030303030303018601FE00780FC
:104F20000000000000000000000000000000000081
:104F300000000000000077807FE0386030303030C3
:104F4000303038603FE03780300030007C007C003B
:104F5000000000000000000000000000000007B892
:104F60001FF8187030303030303018701FF007B034
:104F70000030003000F800F80000000000000000E1
:104F80000000000000003CE03DF00F300E000C007F
:104F90000C000C003FC03FC00000000000000000FB
:104FA000000000000000000000000000000007E01A
:104FB0001FE018601E000FC001E018601FE01F8096
:104FC00000000000000000000000000000000000E1
:104FD0000C000C000C003FE03FE00C000C000C004B
:104FE0000C000C300FF007C00000000000000000B3
:104FF000000000000000000000000000000038E099
:1050000038E0186018601860186018E01FF00F7022
:105010000000000000000000000000000000000090
:1050200000000000000078F078F0306018C018C070
:105030000D800D8007000700000000000000000048
:10504000000000000000000000000000000078F0F8
:1050500078F03260326037E01DC01DC018C018C043
:105060000000000000000000000000000000000040
:105070000000000000003CF03CF00CC00780030082
:1050800007800CC03CF03CF0000000000000000075
:10509000000000000000000000000000000078F0A8
:1050A00078F0306018C018C00D800F80070006002F
:1050B00006000C007F007F000000000000000000E0
:1050C0000000000000001FE01FE018C00180030086
:1050D00006000C601FE01FE0000000000000000060
:1050E00000000000000001C003C003000300030033
:1050F0000300030007000E00070003000300030085
:10510000030003C001C00000000000000000030015
:105110000300030003000300030003000300030077
:10512000030003000300030003000300030000006A
:105130000000000000001C001E0006000600060023
:1051400006000600070003800700060006000600B0
:1051500006001E001C00000000000000000000000F
:1051600000000000000000000E003F3033F001E0BE
:10517000000000000000000000000000000000002F
:1051800000000000A45100080000002048000000BA
:10519000BC1C0008EC51000848000020B84000008A
:1051A000CC1C000800A24A0400000000000000001F
:1051B000000801401000000000080140020000004B
:1051C0000008014004000000000801400800000041
:1051D000CC3600080B001000AC4200080E00140092
:0C51E000000000000000000000000000C3
:0400000508000131BD
:00000001FF
