:020000040800F2
:10000000F890002045010008A313000859130008C8
:10001000A11300088D0100088F1B000800000000DC
:10002000000000000000000000000000CD180008E3
:100030008F010008000000002D180008CF180008EC
:100040005F0100085F0100085F0100085F01000810
:100050005F0100085F0100085F0100085F01000800
:100060005F0100085F0100085F0100085F010008F0
:100070005F0100085F0100085F0100085F010008E0
:100080005F0100085F0100085F0100085F010008D0
:100090005F0100085F0100085F0100085F010008C0
:1000A0005F0100085F0100085F0100085F010008B0
:1000B0005F0100085F0100085F0100085F010008A0
:1000C0005F0100085F0100085F0100085F01000890
:1000D0005F0100085F0100085F0100085F01000880
:1000E0005F0100085F0100085F0100085F01000870
:1000F0005F0100085F0100085F0100085F01000860
:100100005F0100085F0100085F0100085F0100084F
:100110005F0100085F0100085F0100085F0100083F
:100120005F0100085F0100085F0100085F0100082F
:10013000DFF80CD000F018F800480047F91B000861
:10014000F89000200648804706480047FEE7FEE793
:10015000FEE7FEE7FEE7FEE7FEE7FEE7FEE7FEE777
:100160004519000831010008064C074D06E0E0681B
:1001700040F0010394E8070098471034AC42F6D3EE
:10018000FFF7DAFFE4B0000804B10008FEE77047AB
:100190002DE9F0410F468046102100F0CAF80024F6
:1001A00000203D5D290601D5002100E003216A06FB
:1001B000401C0901120EC6B2100601D441F0030121
:1001C0005006050E404600F0BFF8761CF0B2082835
:1001D000E8D3641CB4F5F04FE2DB1221404600F096
:1001E000A8F8642000F0C7F84046BDE8F04100F0F0
:1001F000B6B810B5044601202060022060600020DF
:10020000A0600320E0604FF4207020614FF4C070C4
:10021000606100F0D3F810B14FF0FF3010BD204600
:1002200000F075F80121204600F083F837212046C0
:1002300000F08AF80021204600F086F800212046D0
:1002400000F077F8CF21204600F07EF80821204604
:1002500000F07AF80621204600F06BF8C72120460E
:1002600000F072F8CC21204600F06EF828212046DC
:1002700000F06AF80421204600F05BF8204600F008
:100280006EF83021204600F054F83C21204600F062
:100290005BF84121204600F04CF80021204600F098
:1002A00053F85021204600F044F87721204600F012
:1002B0004BF86021204600F03CF82221204600F057
:1002C00043F86121204600F034F80221204600F076
:1002D0003BF88021204600F037F80121204600F04D
:1002E00033F88021204600F02FF88221204600F0CC
:1002F00020F81E21204600F027F8E521204600F0D6
:1003000018F80321204600F01FF8002010BD10B59A
:1003100004460068002100F041F8C82000F02BF8E6
:100320000121206800F03AF8BDE81040C82000F034
:1003300022B810B50C464068002100F02FF8204686
:10034000BDE8104000F052B810B50C4640680121DD
:1003500000F024F82046BDE8104000F047B810B582
:10036000044602E0642000F006F8E06800F006F8B9
:100370000028F7D010BD00F053B80000064A10B5B1
:1003800002EBC00152F83000898889B200F048F9C8
:10039000012800D0002010BD40000020064B01299C
:1003A00003EBC00253F83000526891B202D0002231
:1003B00000F03BB90122FBE7400000200A48094950
:1003C000D0E90023C1E90023D0E90223C1E90223D7
:1003D000D0E90423C1E90423D0E90620C1E90620BD
:1003E00000207047400000200800002031B50A4C72
:1003F0000022A08881B2206800F017F94FF47A73C8
:1004000001226946054800F01DFEA088012281B244
:10041000206800F00AF938BD40000020600000208C
:1004200031B500F007F9044600F004F90099001B0B
:100430008842F9D338BD00002DE9F84FDFF8B8A1A4
:1004400000220AF1040B144601274FF00F090BF1AB
:10045000040E00BF0B6807FA04F52B40AB4274D1C1
:10046000DFF898C14E68A6EB0C0866452BD00DDC72
:10047000032E34D005DC36B3012E19D0022E2FD135
:100480001BE0112E16D0122E2AD119E0B8F5881FC4
:1004900019D006DCB8F5803F15D0B8F5801F1FD104
:1004A00011E0B8F5001F0ED0B8F5041F18D10AE00E
:1004B000CA6815E0CA68121D12E0CA6808320FE067
:1004C000CA680C320CE08A682AB1012A4FF008028F
:1004D00003D0456104E0042202E0056100E000224F
:1004E000FF2B01D8064601E000F104064FEA84051F
:1004F00001D9A5F12005D6F800C009FA05F82CEAC3
:10050000080C02FA05F54CEA050CC6F800C04D6867
:10051000ED006AD53A4DAE6946F00106AE61AD69AF
:1005200024F0030605F001050095364D06EB050C99
:10053000DCF80850A6074FEA167809FA08F6B54322
:10054000314EB04202D100261AE04EE02F4EB042AA
:1005500001D1012614E02E4EB04201D102260FE057
:100560002C4EB04201D103260AE02B4EB04201D1FD
:10057000042605E0294EB04201D1052600E00626FA
:1005800006FA08F62E43CCF808604D68DAF80060E9
:10059000ED03554601D51E4300E09E432E604D6895
:1005A000AD0305D5DBF800601E43CBF8006004E026
:1005B000DBF800509D43CBF800504D68DEF800603A
:1005C000ED02754601D51E4300E09E432E604D6846
:1005D000AD0205D5084D0C352E681E432E6004E093
:1005E000054E0C3635689D433560641C102CFFF4B5
:1005F00031AFBDE8F88F0000000401400000111089
:10060000001002400000014000080140000C0140C1
:10061000001001400014014000180140001C01407E
:100620008068084000D0012070470AB1016170471E
:100630000904FBE70148006870470000040000203F
:1006400002480168491C0160704700000400002056
:10065000074810B5016841F010010160032000F067
:100660007BF8002000F006F800F016F8002010BD1E
:100670000020024010B5044600F044F94FF47A71AE
:10068000B0FBF1F000F08EFD00222146501E00F07C
:1006900043F8002010BD00001D4808B5816941F0F5
:1006A00001018161806900F001000090032000F0E9
:1006B00053F8002211466FF00B0000F02DF80022D5
:1006C00011466FF00A0000F027F8002211466FF083
:1006D000090000F021F800221146501F00F01CF81C
:1006E00000221146101F00F017F800221146901E3C
:1006F00000F012F800221146501E00F00DF80548D7
:10070000416821F0E06141F08061416008BD000076
:100710000010024000000140F0B40E4B1B680C4674
:10072000C3F30223C3F10705042D00D90425191DC5
:10073000072901D2002300E0DB1E012606FA05F19D
:10074000491E214099409E40761E16403143F0BC20
:1007500000F028BE0CED00E0064900F00702086832
:100760004FF6FF03184040EA0220034A1043086096
:10077000704700000CED00E00000FA052DE9F0479D
:10078000DFF8708105460E46D8F8000000F007003B
:10079000B0420CD2D8F8001021F007013143C8F85C
:1007A0000010D8F8000000F00700B04277D1287898
:1007B000514C800705D56068A96820F0F000084317
:1007C00060602878C00759D06968012001290DD0E0
:1007D000022929D05FF0020393FAA3F2B2FA82F25F
:1007E00042F02002520904D0226803E04FF40033A3
:1007F000F2E7626A93FAA3F3B3FA83F303F01F03F9
:10080000984002424BD0606820F0030008436060CB
:10081000FFF710FF6968074641F2883001290DD0C3
:100820000229814617D025E04FF00073D4E700BFBE
:10083000FFF700FFC11B494501D918E081466068F8
:10084000C0F381000128F3D118E000BFFFF7F2FEEA
:10085000C11B49450BD86068C0F381000228F5D15F
:100860000CE000BFFFF7E6FEC11B494502D903209B
:10087000BDE8F087606810F00C0FF3D1D8F80010D5
:10088000404601F00701B1420BD9016821F0070190
:1008900031430160006800F00700B04201D0012040
:1008A000E6E72878400705D56068E96820F4E0604D
:1008B000084360602878000706D56068296920F43D
:1008C000605040EAC100606000F052F86168F022B8
:1008D00092FAA2F201F0F001B2FA82F2D140074A94
:1008E000515CC840064908600020FFF7C3FE0020A5
:1008F000BEE700000020024000100240CCB000081B
:1009000030000020014800687047000030000020DF
:1009100008480949006849684FF4E06292FAA2F277
:1009200001F4E061B2FA82F2D140044A515CC8405D
:10093000704700003000002000100240DCB00008CA
:1009400008480949006849684FF4605292FAA2F2D7
:1009500001F46051B2FA82F2D140044A515CC840BD
:10096000704700003000002000100240DCB000089A
:1009700010B519A385B00FCB8DE80F001AA01B4B43
:10098000006804905A681A4802F00C0104291DD02E
:1009900008291BD14FF4701494FAA4F402F47011D6
:1009A000B4FA84F4E140D2031DF8011010D55A685E
:1009B0004FF4003393FAA3F302F40032B3FA83F353
:1009C000DA4004AB9A5CB0FBF2F0484305B010BDCE
:1009D00008484843FAE7000002030405060708092F
:1009E0000A0B0C0D0E0F1010010200000010024047
:1009F00000127A0000093D002DE9F84F0446007806
:100A0000F74DC0074FF0010625D068687704C0F3A2
:100A10008100012807D06868C0F3810002281BD13B
:100A20006868C00318D597FAA7F0B0FA80F040F0D4
:100A30002000400901D0286800E0686A97FAA7F111
:100A4000B1FA81F101F01F0106FA01F108425ED00E
:100A5000606800287CD05AE06068B0F5803F0BD019
:100A600010B1B0F5A02F11D0286820F48030286094
:100A7000286820F4802002E0286840F48030286054
:100A8000606828B3FFF7D6FD80460BE0286840F485
:100A900080202860F0E700BFFFF7CCFDA0EB080046
:100AA000642871D897FAA7F0B0FA80F040F02000DF
:100AB000400901D0286800E0686A97FAA7F1B1FA06
:100AC00081F101F01F0106FA01F10842E4D01EE0B5
:100AD000FFF7B0FD804605E0FFF7ACFDA0EB080096
:100AE0006428DED897FAA7F0B0FA80F040F0200032
:100AF000400901D0286800E0686A97FAA7F1B1FAC6
:100B000081F101F01F0106FA01F10842E4D12078D9
:100B1000DFF8D08280074FF000094FF002075BD565
:100B200068684FF0F80B10F00C0F07D06868C0F33E
:100B3000810002281CD16868C00319D497FAA7F075
:100B4000B0FA80F040F02000400902D0286801E0AF
:100B50008BE0686A97FAA7F1B1FA81F101F01F0101
:100B600006FA01F108422CD0206901287DD128E045
:100B7000206990B396FAA6F0B0FA80F048F82060A9
:100B8000FFF758FD824607E011E100BFFFF752FD75
:100B9000A0EB0A00022884D897FAA7F0B0FA80F0F8
:100BA00040F02000400901D0286800E0686A97FA08
:100BB000A7F1B1FA81F101F01F0106FA01F1084233
:100BC000E4D028689BFAABF26169B2FA82F220F0B5
:100BD000F80091400843286025E0FFE796FAA6F167
:100BE000B1FA81F148F82190FFF724FD824605E033
:100BF000FFF720FDA0EB0A000228CCD897FAA7F057
:100C0000B0FA80F040F02000400901D0286800E0F0
:100C1000686A97FAA7F1B1FA81F101F01F0106FAAB
:100C200001F10842E4D1207800076ED5A069B8B37D
:100C300096FAA6F0B0FA80F008EB8000C0F8806465
:100C4000FFF7F8FC824605E0FFF7F4FCA0EB0A0092
:100C50000228A0D897FAA7F0B0FA80F040F0600020
:100C6000B6EB501F02D128680CE062E197FAA7F0BA
:100C7000B0FA80F040F06000B7EB501F01D1286A55
:100C800000E0686A97FAA7F1B1FA81F101F01F015B
:100C900006FA01F21042D7D00120FFF7C1FB34E081
:100CA000FFE796FAA6F1B1FA81F108EB8101C1F8EC
:100CB0008094FFF7BFFC824606E000BFFFF7BAFC56
:100CC000A0EB0A00022872D897FAA7F0B0FA80F0D9
:100CD00040F06000B6EB501F01D128680BE097FA96
:100CE000A7F0B0FA80F040F06000B7EB501F01D1E0
:100CF000286A00E0686A97FAA7F1B1FA81F101F079
:100D00001F0106FA01F21042D8D12078400765D5BC
:100D1000E86940F08050E861E869DFF8CCB000F0A5
:100D200080500090DBF8001041F48071CBF8001087
:100D3000FFF780FC824605E0FFF77CFCA0EB0A0091
:100D4000642834D8DBF80000C005F5D5E068012838
:100D50000AD008B1052813D0286A20F001002862C3
:100D6000286A20F0040002E0286A40F001002862AE
:100D7000E06841F2883B90B3FFF75CFC82460BE0F1
:100D8000286A40F004002862EEE700BFFFF752FC3B
:100D9000A0EB0A0159450AD897FAA7F0B0FA80F0FB
:100DA00040F04000B6EB501F02D128680CE0A3E0F1
:100DB00097FAA7F0B0FA80F040F04000B7EB501F70
:100DC00001D1286A00E0686A97FAA7F1B1FA81F1C7
:100DD00001F01F0206FA02F10842D7D031E005E027
:100DE000001002400000424200700040FFF722FC69
:100DF000824605E0FFF71EFCA0EB0A0159457BD8AF
:100E000097FAA7F0B0FA80F040F04000B6EB501F20
:100E100001D128680BE097FAA7F0B0FA80F040F013
:100E20004000B7EB501F01D1286A00E0686A97FACA
:100E3000A7F1B1FA81F101F01F0206FA02F10842AE
:100E4000D8D1E06980B36968C1F38101022970D00B
:100E50004FF080714F000228484609D091FAA1F165
:100E6000B1FA81F148F82100FFF7E4FB044669E09C
:100E70008A4691FAA1F1B1FA81F1C14648F8210000
:100E8000FFF7D8FB804605E0FFF7D4FBA0EB080096
:100E9000022854D897FAA7F0B0FA80F040F020006A
:100EA000400902D0286801E061E0686A97FAA7F17A
:100EB000B1FA81F101F01F0106FA01F10842E3D114
:100EC000206AB0F5803F05D16868A16820F4003041
:100ED00008436860D4E908010843696821F4741183
:100EE000084368609AFAAAF0B0FA80F049F82060E6
:100EF000FFF7A0FB044606E021E000BFFFF79AFBE6
:100F0000001B02281BD897FAA7F0B0FA80F040F037
:100F10002000400901D0286800E0686A97FAA7F12C
:100F2000B1FA81F101F01F0106FA01F10842E5D0A2
:100F30001DE01EE0FFF77EFB001B022802D9032004
:100F4000BDE8F88F97FAA7F0B0FA80F040F02000E3
:100F5000400901D0286800E0686A97FAA7F1B1FA61
:100F600081F101F01F0106FA01F10842E2D10020EF
:100F7000E6E70120E4E7000010B5040003D094F890
:100F8000510010B104E0012010BD204600F038F8F7
:100F9000022084F851002068016821F040010160BE
:100FA000D4E901010843D4E90312114308436169FC
:100FB0000843218B01F400710843E1690843216A69
:100FC0000843A16A084321680860A069042101EA76
:100FD0001040616A0843216848602168E06A08613E
:100FE0002068C16921F40061C161044900200870D2
:100FF0006065012084F85100002010BD0000002031
:1010000000B500680C4985B0884212D10B4881694F
:1010100041F4805181618069694600F480500490F8
:10102000A020009002200190032003900448FFF7C5
:1010300003FA05B000BD000000300140001002407E
:10104000000801402DE9F843044690F85100984605
:10105000012870D139B332B394F8500001286AD016
:10106000012684F85060122084F85100002565653F
:101070002163A286E286E564A564A563A587E5876A
:10108000A06A7703B84209D12068016821F40051B1
:1010900001602068016841F400510160A068B0F56A
:1010A000004F03D007E00120BDE8F8832068016805
:1010B00041F48041016020680168490603D4016859
:1010C00041F040010160E0680028606804D0D8B1B8
:1010D000E08E012818D021E010B1E08E012808D15F
:1010E000206B411C216321680078C860E08E401E9F
:1010F000E0860004000C1FD0434600220221204657
:1011000000F095FBA8B9EBE7206B21680088C86068
:10111000206B801C2063E08E401EE0860004000CE3
:101120000AD0434600220221204600F080FB00281E
:10113000EAD00320B8E726E0A06AB84204D12068CC
:10114000016841F48051016043460022022120469B
:1011500000F06DFB30B9434601228021204600F0AB
:1011600066FB20B1606D40F010006065E1E7A068AB
:1011700018B92068C1688068009084F8516084F8CC
:101180005050002090E702208EE74FF0E021042825
:10119000086903D020F004000861704740F00400A3
:1011A000FAE7704710B5401EB0F1807F01D30120EF
:1011B00010BD4FF0E02460610F21601700F0F2F8DD
:1011C0000020A06107202061002010BD10B5FFF7AE
:1011D000E8FF10BD70B5040004D094F83900002574
:1011E00010B106E0012070BD84F83850204600F0B0
:1011F00021F8022084F839002068C16821F40051E8
:10120000C160204600F0C2FB2068016921F49041D2
:1012100001612068416921F02A0141612068C168AB
:1012200041F40051C160E563012084F839000020D9
:1012300070BD000010B50068114986B088421DD10C
:101240001048816941F48041816180690E4C00F44D
:10125000804004904FF40070009002200190032021
:10126000039069462046FFF7E7F800212015CDE9F5
:101270000001029169462046FFF7DEF806B010BD76
:101280000038014000100240000801402DE9F047FD
:10129000044690F8390099460D46012801D02228CD
:1012A00058D12DB322B394F83800012852D001262A
:1012B00084F838600027E76394F8390022281AD0B0
:1012C0005FF0120084F83900A284E2844FF4805861
:1012D000E08C4B46401EE084A0684FF00002404581
:1012E0004FF08001204613D100F008FC08BB04E059
:1012F0000120BDE8F0873220E4E728882168C0F3A8
:1013000008004860206908B16D1C08E0AD1C06E0CB
:1013100000F0F4FB68B9216815F8010B4860E08C17
:101320000028D5D14B4600224021204600F0E6FBA4
:1013300008B10320DDE794F83900322806D084F89C
:10134000396000BF84F838700020D2E7222084F88A
:101350003900F7E70220CCE7FEE700000F4810B5A0
:101360000D4901604FF4827141604FF4004181608A
:101370000021C1604FF400720161C0E90512302202
:10138000C0E90721416281620A21C162FFF7F4FDD1
:10139000002800D0FEE710BD0030014060000020B2
:1013A000FEE770470907090E002806DA00F00F0073
:1013B00000F1E02080F8141D704700F1E02080F873
:1013C00000147047F0B50F46064600250CE00024D7
:1013D00006E03B4622462946304600F081F9641C6F
:1013E000B068A042F5DC6D1C7068A842EFDCF0BD6F
:1013F00070B500291EDB45688D421BDD002A19DB14
:101400008468944216DDCC1701EB547424F0070471
:101410000E1B02FB051100684FEAE17201EB5271ED
:1014200000EBE10080240178F4400BB1214300E09F
:10143000A143017070BD00002DE9FF4F93460D9D43
:10144000A888410700D0012101EBD000203BE988AA
:101450005843484329680E18002727E000244FF01E
:10146000800A0BEB0708DFF8509017E0E01704EB59
:10147000507020F007003178221A2AFA02F0014257
:1014800006D00198424601190E9B009800F028F9F9
:1014900004EA0900072800D1761C641CA888A04231
:1014A000E4DC2879400700D0761C7F1CE888B8422D
:1014B000D4DCBDE8FF8F0000070000802DE9FF4F5E
:1014C0005D42022000EB45040098884600264168F2
:1014D0001746414535DD00988068B84231DDBA19BC
:1014E000A8EB050191468B460D9B009800F0F8F89B
:1014F00008EB05014A468A460D9B009800F0F0F87B
:10150000BA1B914651460D9B009800F0E9F84A46F7
:1015100059460D9B009800F0E3F82046B44208DCE1
:10152000761C00EB4604641CF54202D1A84200DCA4
:101530000020A84203DD6D1C04EB4504641C002D53
:10154000CDDDBDE8FF8F2DE9FF4F82B05D42022067
:1015500000EB450402988B460027416892465945A6
:101560004ADD02988168514546DDABEB05010AEB87
:101570000702009191460F9B029800F0B1F80BEB27
:1015800005064A4631460F9B029800F0A9F8AAEBDF
:101590000702904631460F9B029800F0A1F84246A0
:1015A0000F9B0099029800F09BF80F980090012083
:1015B000A0EB45034A4631460193029800F046F8F5
:1015C0000F980090DDE901304246314600F03EF8C8
:1015D0002046BC4208DC7F1C00EB4704641CFD4233
:1015E00002D1A84200DC0020A84203DD6D1C04EB00
:1015F0004504641C002DB8DD06B0BDE8F08F000086
:101600002DE9F8438146DDE908088B4201DD0C46EF
:1016100000E01C4600DD19460D46904201DD1646ED
:1016200000E0064600DD0246A2EB06070AE000BF26
:1016300007F10103324621464846CDF8008000F00C
:10164000CFF8641CAC42F3DDBDE8F8832DE9F0412E
:10165000164680460C46CF18069D06E02B463246BD
:101660002146404600F03CF8641CA742F6DCBDE889
:10167000F0812DE9FF4F81B00C460E9F1E461546A6
:10168000181B00D5A01B81464FF0FF31B44201DA90
:10169000012000E008460090781B002800DDE81BD0
:1016A0008246BD4200DA01218B4609EB0A0810E0B0
:1016B0002A4621460F9B019800F012F8BAEB480F1A
:1016C00002DC0098D0440444B9EB480F01DBC84465
:1016D0005D44B44201D0BD42EAD105B0BDE8F08F0F
:1016E00070B400291CDB46688E4219DD002A17DB26
:1016F0008568954214DDC46844B1012C09D0022CE0
:101700000BD0032C0CD114466A1A214670BCFFF78B
:101710006FBE0C46B11A2246F8E7711AAA1AF5E70D
:1017200070BC70472DE9F8478246DDE909058B4218
:1017300001DD0F4600E01F4601DD1C4600E00C46BF
:10174000904201DD164600E0064600DD0246914665
:10175000A4EB070808F101033246394650460095CC
:10176000FFF774FF08F101034A46394650460095D9
:10177000FFF76CFFA9EB060808F101033246394672
:101780005046009500F02CF808F10103324621463E
:101790005046009500F024F8BDE8F8872DE9FC4795
:1017A0009246DDE90A7980461C4600260D460AE08D
:1017B000CDE90079524629464046FFF73DFEB888FC
:1017C000641C0544761C2378002B07D0B888D8F811
:1017D000041006FB101189B28142E9D2BDE8FC87F2
:1017E0002DE9F0410E4680461446D718069D06E0C6
:1017F0002B46224631464046FFF772FF641CA74243
:10180000F6DCBDE8F08110B50024C460016051072A
:1018100007D0D11702EB517121F00701511A521A6A
:101820000832C0E9012310BDC160704770472DE93F
:10183000F0471D4690460E460446FEF7FBFE07465F
:101840005FEA08004FF000084FF4005A4FF001091A
:1018500026D034E0681C23D025B1FEF7EBFEC01B78
:10186000A8421DD92068416821F0E001416020684C
:10187000016821F040010160A06A504509D120684B
:10188000016821F4005101602068016841F40051B1
:10189000016084F8519084F850800320BDE8F087FF
:1018A0002068806836EA0000D4D10DE0681C06D0BC
:1018B000002DD7D0FEF7BEFEC01BA842D2D82068AC
:1018C000806836EA0000F1D00020E7E7704710B5E5
:1018D000FEF7B6FEBDE81040FFF778BC30B58FB01C
:1018E00001210804CDE9001000240294022504918E
:1018F000CDE907504FF4E01009906846FFF77CF8F7
:1019000000B1FEE70F20CDE90A054FF48060CDE974
:101910000C4002210AA80E94FEF730FF00B1FEE74A
:10192000FEF7F0FF4FF47A71B0FBF1F0FFF73AFCED
:101930000420FFF72AFC00221146501EFEF7ECFEA1
:101940000FB030BD0D48016841F0010101604168F0
:101950000B4A1140416001680A4A11400160016868
:1019600021F480210160416821F4FE0141604FF4BF
:101970001F0181600449C0030860704700100240E5
:101980000000FFF8FFFFF6FE08ED00E02DE9F04152
:10199000044600680169E26821F440511143016185
:1019A0002169A0680843616908432168CA6841F257
:1019B0000C639A430243CA6020684169A26921F41A
:1019C0004071114341614C492068642532268842A8
:1019D0003CD1FEF7B5FF00EBC00101EB00106168E0
:1019E0008900B0FBF1F7FEF7ABFF00EBC00101EBA4
:1019F00000106168B0468900B0FBF1F0B0FBF5F073
:101A00006FF01801484307EB800106EB0110B0FBB3
:101A1000F5F000F0F006FEF793FF00EBC00101EBDC
:101A2000001061688900B0FBF1F0B0FBF5F006EB47
:101A30000016FEF785FF00EBC00101EB00106168A6
:101A40008900B0FBF1F7FEF77BFF3BE0FEF760FF9C
:101A500000EBC00101EB001061688900B0FBF1F7F9
:101A6000FEF756FF00EBC00101EB00106168B046C5
:101A70008900B0FBF1F0B0FBF5F06FF018014843BE
:101A800007EB800106EB0110B0FBF5F000F0F0066B
:101A9000FEF73EFF00EBC00101EB0010616889001A
:101AA000B0FBF1F0B0FBF5F006EB0016FEF730FFEF
:101AB00000EBC00101EB001061688900B0FBF1F799
:101AC000FEF726FF00EBC00101EB00106168890002
:101AD000B0FBF1F0B0FBF5F06FF01801484307EBF5
:101AE000800108EB0110B0FBF5F0216800F00F0059
:101AF00030448860BDE8F081003801402DE9F047AE
:101B00001D4690460E460446FEF794FD07465FEAE2
:101B100008004FF000094FF0010808D030E0681CC1
:101B200005D095B1FEF786FDC01BA8420DD82068F0
:101B3000006836EA0000F2D127E0681C20D025B109
:101B4000FEF778FDC01BA8421AD92068C16821F0B1
:101B50008001C1602068C16821F02001C160206857
:101B6000C16821F48071C1602068416921F00101E0
:101B7000416184F8398084F838900320BDE8F0870B
:101B80002068006836EA0000D7D00020F6E7FEE7BC
:101B9000014A024900F013B8E11B0008340000209C
:101BA00002E008C8121F08C1002AFAD17047704726
:101BB000002001E001C1121F002AFBD170472DE96E
:101BC000F04116460F460446002503E03946B0476B
:101BD000641C6D1C20780028F8D12846BDE8F081EF
:101BE00013B54FF6FF73012269460248FFF74EFB1B
:101BF00000981CBDB8000020F0B591B04FF4F04043
:101C000000F0D2F80746FEF723FDFFF767FE5248C3
:101C1000816941F0040181618069504E00F0040047
:101C20000090002216213046FEF7FFFC1620012509
:101C3000CDE90C0502200F900CA93046FEF7FCFB05
:101C400000240820CDE90C040CA930460E94FEF7C0
:101C5000F3FB4448424901604FF4E131C0E901140B
:101C60000C21C460C0E904418461C461FFF7B2FA89
:101C700000B1FEE7FFF772FB02A8FEF7BAFA30B137
:101C800039A0FFF785FF11B04FF0FF30F0BDDDE95F
:101C90000623394608A8FFF7B6FD002108A8FFF77C
:101CA00091FB012108A8FFF7BFFD4FF48C76CDE929
:101CB0000065B4235022142108A8FFF733FDCDE9B5
:101CC0000065B4235022142108A8FFF7D2FCCDE907
:101CD000006514235022B42108A8FFF7CAFCCDE9FF
:101CE00000654FF4B4735022C82108A8FFF788FCA0
:101CF0003C23A0224FF4967108A80094FFF7DEFB66
:101D00001E23D2225A2108A80095FFF71CFC1E2092
:101D1000CDE900054FF4C0730622002108A8FFF7A3
:101D20006FFC174ECDE9006416A30A22642108A8AF
:101D3000FFF734FDCDE9006516A32822642108A829
:101D4000FFF72CFD394602A8FEF722FA154902A832
:101D5000FEF71EFAFEE700000010024000080140F6
:101D600000380140B8000020652D50617065722078
:101D7000696E6974206661696C65640A0000000020
:101D80002800002048656C6C6F20776F726C6421AE
:101D900000000000652D50617065722044656D6F14
:101DA00000000000141E0008F0B50B30154D20F0A7
:101DB00007010024144A0FE003688B420BD38B42C7
:101DC00005D95E1A43184768C3E9006700E0436815
:101DD000136002C004E0021D10680028ECD1204608
:101DE000002802D1286808B10020F0BD064A074843
:101DF0001060074A121A22F00702C0E900240120ED
:101E00002860D7E73C00002038000020FC000020BC
:101E1000F88000200000000000000000000000002A
:101E200000000000000000000000000000000003AF
:101E3000C0000000000000000000000000000000E2
:101E40000000000000000000000000000000000191
:101E5000C0000000000000000000000000000000C2
:101E60000000000000000000000000000000000072
:101E7000000000000000000000000000000000035F
:101E8000C000000000000000000000000000000092
:101E9000000000000000000000000000000000033F
:101EA000C000000000000000000000000000000072
:101EB0000000000000000000000000000000000022
:101EC000000000000000000000000000000000030F
:101ED000C000000000000000000000000000000042
:101EE00000000000000000000000000000000003EF
:101EF000C000000000000000000000000000000022
:101F000000000000000000000000000000000000D1
:101F100000000000000000000000000000000003BE
:101F2000C0000000000000000000000000000000F1
:101F3000000000000000000000000000000000039E
:101F4000C0000000000000000000000000000000D1
:101F50000000000000000000000000000000000081
:101F6000000000000000000000000000000000036E
:101F7000C0000000000000000000000000000000A1
:101F8000000000000000000000000000000000034E
:101F9000C000000000000000000000000000000081
:101FA0000000000000000000000000000000000031
:101FB000000000000000000000000000000000031E
:101FC000C000000000000000000000000000000051
:101FD00000000000000000000000000000000003FE
:101FE000C000000000000000000000000000000031
:101FF00000000000000000000000000000000000E1
:1020000000000000000000000000000000000003CD
:10201000C000000000000000000000000000000000
:1020200000000000000000000000000000000003AD
:10203000C0000000000000000000000000000000E0
:102040000000000000000000000000000000000090
:10205000000000000000000000000000000000037D
:10206000C0000000000000000000000000000000B0
:10207000000000000000000000000000000000035D
:10208000C000000000000000000000000000000090
:102090000000000000000000000000000000000040
:1020A000000000000000000000000000000000032D
:1020B000C000000000000000000000000000000060
:1020C000000000000000000000000000000000030D
:1020D000C000000000000000000000000000000040
:1020E00000000000000000000000000000000000F0
:1020F00000000000000000000000000000000003DD
:10210000C00000000000000000000000000000000F
:1021100000000000000000000000000000000003BC
:10212000C0000000000000000000000000000000EF
:10213000000000000000000000000000000000009F
:10214000000000000000000000000000000000038C
:10215000C0000000000000000000000000000000BF
:10216000000000000000000000000000000000036C
:10217000C00000000000000000000000000000009F
:10218000000000000000000000000000000000004F
:10219000000000000000000000000000000000033C
:1021A000C00000000000000000000000000000006F
:1021B000000000000000000000000000000000031C
:1021C000C00000000000000000000000000000004F
:1021D00000000000000000000000000000000000FF
:1021E00000000000000000000000000000000003EC
:1021F000C00000000000000000000000000000001F
:1022000000000000000000000000000000000003CB
:10221000C0000000000000000000000000000000FE
:1022200000000000000000000600000000000000A8
:10223000000000000000000000000000000000039B
:10224000C0000000000000000000000000000000CE
:10225000000000000000000000000000000000037B
:10226000C0000000000000000000000000000000AE
:102270000000000000000000070000000000000057
:10228000000000000000000000000000000000034B
:10229000C00000000000000000000000000000007E
:1022A000000000000000000000000000000000032B
:1022B000C00000000000000000000000000000005E
:1022C0000000000000000000070000000000000007
:1022D00000000000000000000000000000000003FB
:1022E000C00000000000000000000000000000002E
:1022F00000000000000000000000000000000003DB
:10230000C00000000000000000000000000000000D
:10231000000000000000000007003800000000007E
:1023200000000000000000000000000000000003AA
:10233000C0000000000000000000000000000000DD
:10234000000000000000000000000000000000038A
:10235000C0000000000000000000000000000000BD
:1023600000000000000000400700380000000000EE
:10237000000000000000000000000000000000035A
:10238000C00000000000000000000000000000008D
:10239000000000000000000000000000000000033A
:1023A000C00000000000000000000000000000006D
:1023B00000000000000000E00700780000000000BE
:1023C000000000000000000000000000000000030A
:1023D000C00000000000000000000000000000003D
:1023E00000000000000000000000000000000003EA
:1023F000C00000000000000000000000000000001D
:1024000000000000000000E0070070000000000075
:1024100000000000000000000000000000000003B9
:10242000C0000000000000000000000000000000EC
:102430000000000000000000000000000000000399
:10244000C0000000000000000000000000000000CC
:1024500000000000000000F00700F0000000000095
:102460000000000000000000000000000000000369
:10247000C00000000000000000000000000000009C
:102480000000000000000000000000000000000349
:10249000C00000000000000000000000000000007C
:1024A00000000000000000780700F00000000000BD
:1024B0000000000000000000000000000000000319
:1024C000C00000000000000000000000000000004C
:1024D00000000000000000000000000000000003F9
:1024E000C00000000000000000000000000000002C
:1024F00000000000000000380701E00000000000BC
:1025000000000000000000000000000000000003C8
:10251000C0000000000000000000000000000000FB
:1025200000000000000000000000000000000003A8
:10253000C0000000000000000000000000000000DB
:10254000000000000000003C0701E0000000000067
:102550000000000000000000000000000000000378
:10256000C0000000000000000000000000000000AB
:102570000000000000000000000000000000000358
:10258000C00000000000000000000000000000008B
:10259000000000000000001E0701C0000000000055
:1025A0000000000000000000000000000000000328
:1025B000C00000000000000000000000000000005B
:1025C0000000000000000000000000000000000308
:1025D000C00000000000000000000000000000003B
:1025E000000000000000001E0FC380060000000075
:1025F00000000000000000000000000000000003D8
:10260000C00000000000000000000000000000000A
:1026100000000000000000000000000000000003B7
:10262000C0000000000000000000000000000000EA
:10263000000000000000000F3FFF800F00000000BE
:102640000000000000000000000000000000000387
:10265000C0000000000000000000000000000000BA
:102660000000000000000000000000000000000367
:10267000C00000000000000000000000000003FF98
:102680000000000000000007FFFF803E0000000087
:102690000000000000000000000000000000000337
:1026A000C00000000000000000000FFFC00000009C
:1026B0000000000000000000000000000000000317
:1026C000C0000000000000000000000000000FFF3C
:1026D000C000000000018007FFFF807C00000000B8
:1026E00000000000000000000000000000000003E7
:1026F000C00000000000000000000FFFC00000004C
:1027000000000000000000000000000000000003C6
:10271000C0000000000000000000000000003E01BA
:10272000F00000000001E007FFFFC0F8000000001B
:102730000000000000000000000000000000000396
:10274000C00000000000000000000FFFC0000000FB
:102750000000000000000000000000000000000376
:10276000C000000000000000000000000000E000C9
:102770001C0000000001F80FFFFFE3F00000000064
:10278000000000000FF00003FFFF800000000003C6
:10279000C00000000000000000000FFFC0000000AB
:1027A0000000000000000003F00000000000000333
:1027B000C000007FFFFFFFFFFFFC00000001800062
:1027C000060000000000FE1FFC7FFFC03FFE00006F
:1027D000000000003FFC0003FFFF8000000000033A
:1027E000C0001FFFFC00000000000FFFC000000041
:1027F000000000000000001FFE0000001FE00003BA
:10280000C000007FFFFFFFFFFFFC0000000700008B
:102810000380000000003F1FE007FF80FFFF8000F3
:1028200000000000FFFE0003FFFF80000000000327
:10283000C0001FFFFC00000000000007C0000000F7
:10284000000000000000007FFF0000001FE0000308
:10285000C000007C00000000007C0000000C0000B4
:1028600000C0000000000FFF8003F203FFFFE00044
:1028700000000001FFFF0003FFFF800000000003D5
:10288000C0001FFFFC00000000000007C0000000A7
:1028900000000000000000FFFF8000003FE0000398
:1028A000C000007E00000000007C00000018000056
:1028B00000600000000003FF0001C007FFFFF00000
:1028C00000000003FFFF8003FFFF80000000000303
:1028D000C0001FFFFC00000000000007C000000057
:1028E00000000000000001FFFFC000007FE00003C7
:1028F000C000007F0000000001FC0000003000006C
:1029000000300000000000FE0000800FFFFFF80014
:1029100000000003F01F8003C0000000000000035F
:10292000C00000007C00000000000007C0000000A4
:1029300000000000000003F00FE000007FE0000353
:10294000C00000778000000003DC00000060000091
:1029500000180000000000FE0000001FF807FE0045
:1029600000000003C00FC003C0000000000000030F
:10297000C00000007C00000000000007C000000054
:1029800000000000000001E007E00000FBE00003A1
:10299000C0000073C0000000079C00000040000061
:1029A00000080000000000FC0000003FC001FE0025
:1029B000000000018007C003C00000000000000309
:1029C000C00000007C00000000000007C000000004
:1029D00000000000000001C003F00001F3E000036C
:1029E000C0000071E00000000F1C000000C00000EB
:1029F000000C0000000000FC0000007F80007F0051
:102A0000000000000007C003C00000000000000339
:102A1000C00000007C00000000000007C0000000B3
:102A2000000000000000008001F00001F3E000035E
:102A3000C0000070700000001E1C000000800FE04D
:102A400000040000000000FC0000007E00003F8049
:102A5000000000000007C003C000000000000003E9
:102A6000C00000007C00000000000007C000000063
:102A7000000000000000000001F00003E3E000039C
:102A8000C000007038000000381C000001803FF8D2
:102A900000060000000000FC000000FE00001FC057
:102AA000000000000003E003C0000000000000037D
:102AB000C00000007C003E000F800007C0007E00C8
:102AC00000F800000000000001F00003E3E0000354
:102AD000C00000701C000000701C00000100FFFC22
:102AE00000020000000001F80000FFFC00001FC011
:102AF000000000000003E003C0000000000000032D
:102B0000C00000007C003E000F800007C0003E00B7
:102B100000F800000000000001F00007C3E000031F
:102B2000C00000700E000000E01C00000301FFFE6A
:102B3000000300000007FFFC0003FFF800000FC0C7
:102B4000000000000003E003C00000F001FE0003ED
:102B5000C00000007C003E000F800007C0003E0067
:102B600000F800000000000001F0000F83E0000307
:102B7000C000007007000001C01C00000201E7DF78
:102B800000010000000FFFFC000FFFF0000007E055
:102B9000000000000003E003C00003F803FF80030F
:102BA000C00000007C003E000F800007C0003F0016
:102BB00001F000000000000001F0000F83E00003BE
:102BC000C000007003800003801C00000203E78F38
:102BD00000010000000FFFFC001FFFF0000007E0F5
:102BE000000000000003C003C00007FC07FFC00393
:102BF000C00000007C003E000F800007C0001F00E6
:102C000001F000000000000001F0001F03E00003DD
:102C1000C000007001C00007001C00000603EFDFC9
:102C200000018000000700FC003FFFF0000003E00F
:102C3000000000000007C003C000079E0F83E003F0
:102C4000C00000007C003E000F800007C0001F8015
:102C500001F000000000000001F0001F03E000038D
:102C6000C000007000E0000E001C00000603FFFF23
:102C7000C0018000000000FC007FFFE0000003F0C6
:102C8000000000000007C003C0000F0E1E00E0039C
:102C9000C00000007C003E000F800007C0000F80D5
:102CA00003E000000000000001F0003E03E000032C
:102CB000C00000700078003C001C00000603FFFF0D
:102CC000F8008000000000FE00FF0060000003F03C
:102CD000000000000007C003FFE00E071C007003A7
:102CE000C00000007C003E000F800007C0000F8085
:102CF00003E000000000000003E0007C03E00003AC
:102D0000C0000070003C0078001C00000403FFDFDE
:102D1000FC0080000000007E01FE0000000003F0C7
:102D200000000000000F8003FFF80E071C00700376
:102D3000C00000007C003E000F800007C0000FC0F4
:102D400007E000000000000007E0007C03E0000353
:102D5000C0000070003E00F8001C00000403FFBF2C
:102D6000FE0080000000007C01F80000000003F875
:102D700000000000000F8003FFFE0E0F180070031C
:102D8000C00000007C003E000F800007C00007C0AC
:102D900007C000000000000007C000F803E00003C7
:102DA000C0000070007F01FC001C00000403FF7BDA
:102DB000EF0080000000007803F80000000001FE32
:102DC00000000000001F0003FFFF071E1800300373
:102DD000C00000007C003E000F800007C00007C05C
:102DE00007C00000000000000FC000F003E0000377
:102DF000C000007000E3838E001C00000401FF7916
:102E0000CF008000000000E003F00000000003FF9E
:102E100000000000003F000001FF87FE18000003D3
:102E2000C00000007C003E000F800007C00007E0EB
:102E30000F800000000000001F8001F003E000038D
:102E4000C000007001C1EF07001C00000400FFFF7C
:102E5000FF008000000003E007E00000000003FF27
:102E600080000000003E0000003F83FC18000003CB
:102E7000C00000007C003E000F800007C00003E09F
:102E80000F800000000000003F0003E003E00003AB
:102E9000C00000700380FE03801C000006007FFF5E
:102EA000FF808000000007C007E00000000001FF75
:102EB000C0000000007C0000000FC0F018000003FC
:102EC000C00000007C003E000F800007C00003E04F
:102ED0000F800000000000003E0003E003E000035C
:102EE000C000007007007C01C01C000006007FFFCE
:102EF000FF01800000001F8007C000000000003FAD
:102F0000E000000000FC00000007C0001800000303
:102F1000C00000007C003E000F800007C00001F0F0
:102F20001F000000000000007E0007C003E0000357
:102F3000C00000700E000000E01C00000200677F6F
:102F4000FF01800000003F00FFC000000000000FF4
:102F5000E000000001F800000007E0001800000396
:102F6000C00000007C003E000F800007C00001F0A0
:102F70001F00000000000000FC000F8003E00003C1
:102F8000C00000701C000000701C00000200407FA8
:102F9000FF01000000007C03FFC0000000000007EC
:102FA000F000000003F000000003E0001800000340
:102FB000C00000007C003E000F800007C00001F848
:102FC0001F00000000000001F8000F8003E0000374
:102FD000C000007038000000381C00000300003FF3
:102FE000FE0100000000F807FFC000000000000321
:102FF000F000000007E000000003E00018000003FC
:10300000C00000007C003E000F800007C00000F8F8
:103010003E00000000000003F0001FFFFFFF8003E0
:10302000C0000070700000001E1C00000300001FA4
:10303000FC0300000000E01FFFC0000000000001D2
:10304000F800000007C000000003E00018000003C3
:10305000C00000007C003E000F800007C00000F8A8
:103060003E00000000000007E0001FFFFFFF80039C
:10307000C0000071E00000000F1C00000100000F04
:10308000F80200000000403FFFC000000000000107
:10309000F80000000F8000000003E00018000003AB
:1030A000C00000007C003E000F800007C00000FC54
:1030B0003E0000000000000FC0001FFFFFFF800364
:1030C000C0000073C0000000079C000001800001E8
:1030D000CC0600000000003FEFC000000000000030
:1030E000FC0000001F8000000003E0001800000347
:1030F000C00000007C003E000F800007C000007C84
:103100007C0000000000001F80001FFFFFFF800305
:10311000C00000778000000003DC00000080000099
:10312000000400000000007F00C00000000000005C
:10313000FC0000003F0000000003E0001800000356
:10314000C00000007C003E000F800007C000007C33
:103150007C0000000000003F00001FFFFFFF800315
:10316000C000007F0000000001FC000000C0000063
:10317000000C0000000000FE000000000000000045
:10318000FC0000007E0000000007C00018002003C3
:10319000C00000007C003E001F800007C000003E11
:1031A000780000000000007E0000000003E0000343
:1031B000C000007C00000000007C000000600000F7
:1031C00000180000000000FC0000000000000000EB
:1031D0007C000000FC0000000007C0001800700325
:1031E000C0000000FC003E003F800007C000003E21
:1031F000F8000000000000FC0000000003E00003F5
:10320000C000007C00000000007C000000300000D6
:1032100000100000000000FC0000000000000000A2
:103220007C000001F8000000000F80001C0070030B
:10323000C0002000F8003F007F800007C000003E73
:10324000F8000000000001F80000000003E00003A7
:10325000C000007FFFFFFFFFFFFC00000010000028
:1032600000300000000001F8000000000000000035
:103270007C000001F0000000001F80001C007003B3
:10328000C0003801F8001F00FF800007C000001FC9
:10329000F0000000000003F00000000003E0000365
:1032A000C000007FFFFFFFFFFFFC000000180000D0
:1032B00000600000000001F80000000000000000B5
:1032C0007C000003F0000000003F00001C00F00341
:1032D000C0003F07F0001F81F7800007C000001FFB
:1032E000F0000000000007FFFFFC000003E0000307
:1032F000C00000000000000000000000000E000000
:1033000001C00000000003F8000000000000000001
:10331000FC000007FFFFF80600FE00000F01E003BD
:10332000C0003FFFE0001FFFE7801FFFFFC0001F3E
:10333000F0000000000007FFFFFC000003E00003B6
:10334000C0000000000000000000000000030000BA
:1033500003000000000003F800000000000000006F
:10336000FC000007FFFFF807FFFC00000FFFC00391
:10337000C0003FFFE0000FFFC7801FFFFFC0000F2E
:10338000E0000000000007FFFFFC000003E0000376
:10339000C000000000000000000000000001C000AC
:1033A0000E000000000003F8000000000000000014
:1033B000F8000007FFFFF807FFF8000007FF800391
:1033C000C0001FFF800007FF87801FFFFFC0000FA6
:1033D000E0000000000007FFFFFC000003E0000326
:1033E000C0000000000000000000000000007000AD
:1033F00038000000000001F800000000000000019B
:10340000F8000007FFFFF807FFF0000001FF0003CE
:10341000C00007FE000001FE07801FFFFFC000077D
:10342000C0000000000007FFFFFC000003E00003F5
:10343000C0000000000000000000000000001F03AA
:10344000E0000000000000F80000000000000001A3
:10345000F8000007FFFFF807FF80000000000003EE
:10346000C000000000000000000000000000000795
:10347000C000000000000000000000000000000389
:10348000C00000000000000000000000000003FF7A
:1034900000000000000000FC00000000000000032D
:1034A000F000000000000000000000000000000329
:1034B000C000000000000000000000000000000F3D
:1034C000C000000000000000000000000000000339
:1034D000C00000000000000000000000000000002C
:1034E00000000000000000FE0000000000000007D7
:1034F000F0000000000000000000000000000003D9
:10350000C000000000000000000000000000000FEC
:103510008000000000000000000000000000000328
:10352000C0000000000000000000000000000000DB
:10353000000000000000007F000000000000000FFD
:10354000E000000000000000000000000000000398
:10355000C000000000000000000000000000001F8C
:1035600080000000000000000000000000000003D8
:10357000C00000000000000000000000000000008B
:10358000000000000000007F800000000000007FBD
:10359000C000000000000000000000000000000368
:1035A000C000000000000000000000000000003F1C
:1035B0000000000000000000000000000000000308
:1035C000C00000000000000000000000000000003B
:1035D000000000000000003FFFFFFFFFFFFFFFFFB4
:1035E000C000000000000000000000000000000318
:1035F000C000000000000000000000000000003FCC
:1036000000000000000000000000000000000003B7
:10361000C0000000000000000000000000000000EA
:10362000000000000000001FFFFFFFFFFFFFFFFF83
:103630008000000000000000000000000000000307
:10364000C000000000000000000000000000007E3C
:103650000000000000000000000000000000000367
:10366000C00000000000000000000000000000009A
:10367000000000000000000FFFFFFFFFFFFFFFFE44
:103680000000000000000000000000000000000337
:10369000C00000000000000000000000000001FC6D
:1036A0000000000000000000000000000000000317
:1036B000C00000000000000000000000000000004A
:1036C0000000000000000007FFFFFFFFFFFFFFFCFE
:1036D00000000000000000000000000000000003E7
:1036E000C0000000000000000000000000007FF8A3
:1036F00000000000000000000000000000000003C7
:10370000C0000000000000000000000000000000F9
:103710000000000000000001FFFFFFFFFFFFFFF0BF
:103720000000000000000000000000000000000396
:10373000C0000000000000000000000000007FF05A
:103740000000000000000000000000000000000376
:10375000C0000000000000000000000000000000A9
:1037600000000000000000003FFFFFFFFFFFFF80A0
:103770000000000000000000000000000000000346
:10378000C0000000000000000000000000007FE01A
:103790000000000000000000000000000000000326
:1037A000C000000000000000000000000000000059
:1037B0000000000000000000000000000000000009
:1037C00000000000000000000000000000000003F6
:1037D000C0000000000000000000000000007F802A
:1037E00000000000000000000000000000000003D6
:1037F000C000000000000000000000000000000009
:1038000000000000000000000000000000000000B8
:1038100000000000000000000000000000000003A5
:10382000C0000000000000000000000000007E005A
:103830000000000000000000000000000000000385
:10384000C0000000000000000000000000000000B8
:103850000000000000000000000000000000000068
:103860000000000000000000000000000000000355
:10387000C000000000000000000000000000000088
:103880000000000000000000000000000000000335
:10389000C000000000000000000000000000000068
:1038A0000000000000000000000000000000000018
:1038B0000000000000000000000000000000000305
:1038C000C000000000000000000000000000000038
:1038D00000000000000000000000000000000003E5
:1038E000C000000000000000000000000000000018
:1038F00000000000000000000000000000000000C8
:1039000000000000000000000000000000000003B4
:10391000C0000000000000000000000000000000E7
:103920000000000000000000000000000000000394
:10393000C0000000000000000000000000000000C7
:103940000000000000000000000000000000000077
:103950000000000000000000000000000000000364
:10396000C000000000000000000000000000000097
:103970000000000000000000000000000000000344
:10398000C000000000000000000000000000000077
:103990000000000000000000000000000000000027
:1039A0000000000000000000000000000000000314
:1039B000C000000000000000000000000000000047
:1039C00000000000000000000000000000000003F4
:1039D000C000000000000000000000000000000027
:1039E00000000000000000000000000000000000D7
:1039F00000000000000000000000000000000003C4
:103A0000C0000000000000000000000000000000F6
:103A100000000000000000000000000000000003A3
:103A2000C0000000000000000000000000000000D6
:103A30000000000000000000000000000000000086
:103A40000000000000000000000000000000000373
:103A5000C0000000000000000000000000000000A6
:103A60000000000000000000000000000000000353
:103A7000C000000000000000000000000000000086
:103A80000000000000000000000000000000000036
:103A90000000000000000000000000000000000323
:103AA000C000000000000000000000000000000056
:103AB0000000000000000000000000000000000303
:103AC000C000000000000000000000000000000036
:103AD00000000000000000000000000000000000E6
:103AE00000000000000000000000000000000003D3
:103AF000C000000000000000000000000000000006
:103B000000000000000000000000000000000003B2
:103B1000C0000000000000000000000000000000E5
:103B20000000000000000000000000000000000095
:103B30000000000000000000000000000000000382
:103B4000C0000000000000000000000000000000B5
:103B50000000000000000000000000000000000362
:103B6000C000000000000000000000000000000095
:103B70000000000000000000000000000000000045
:103B80000000000000000000000000000000000332
:103B9000C000000000000000000000000000000065
:103BA0000000000000000000000000000000000312
:103BB000C000000000000000000000000000000045
:103BC00000000000000000000000000000000000F5
:103BD00000000000000000000000000000000003E2
:103BE000C000000000000000000000000000000015
:103BF00000000000000000000000000000000003C2
:103C0000C0000000000000000000000000000000F4
:103C100000000000FFFFFFFFFFFFFFFFFFFFFFFFB0
:103C2000FFFFFFFFFFFFFFFFFFFFFFFFFFFFFFFFA4
:103C3000FFFFFFFFFFFFFFFFFFFFFFFFFFFFFFFF94
:103C4000FFFFFFFFFFFFFFFFFFFFFFFFFFFFFFFF84
:103C5000FFFFFFFFFFFFFFFFFFFFFFFFFFFFFFFF74
:103C6000FFFFFFFFFFFFFFFFFFFFFFFFFFFFFFFF64
:103C7000FFFFFFFFFFFFFFFFFFFFFFFFFFFFFFFF54
:103C8000FFFFFFFFFFFFFFFFFFFFFFFFFFFFFFFF44
:103C9000FFFFFFFFFFFFFFFFFFFFFFFFFFFFFFFF34
:103CA000FFFFFFFFFFFFFFFFFFFFFFFFFFFFFFFF24
:103CB000FFFFFFFFFFFFFFFFFFFFFFFFFFFFFFFF14
:103CC000FFFFFFFFFFFFFFFFFFFFFFFFFFFFFFFF04
:103CD000FFFFFFFFFFFFFFFFFFFFFFFFFFFFFFFFF4
:103CE000FFFFFFFFFFFFFFFFFFFFFFFFFFFFFFFFE4
:103CF000FFFFFFFFFFFFFFFFFFFFFFFFFFFFFFFFD4
:103D0000FFFFFFFFFFFFFFFFFFFFFFFFFFFFFFFFC3
:103D1000FFFFFFFFFFFFFFFFFFFFFFFFFFFFFFFFB3
:103D2000FFFFFFFFFFFFFFFFFFFFFFFFFFFFFFFFA3
:103D3000FFFFFFFFFFFFFFFFFFFFFFFFFFFFFFFF93
:103D4000FFFFFFFFFFFFFFFFFFFFFFFFFFFFFFFF83
:103D5000FFFFFFFF7FFFFFFFFFFFFFFFFFFFFFFFF3
:103D6000FFFFFFFFFFFFFFFFFFFFFFFFFFFFFFFF63
:103D7000FFFFFFFFFFFFFFFFFFFFFFFFFFFFFFFF53
:103D8000FFFFFFFFFFFFFFFFFFFFFFFFFFFFFFFF43
:103D9000FFFFFFFFFFFFFFFFFFFFFFFFFFFFFFFF33
:103DA000FFFFFFFF00000000000000000000000017
:103DB0000000000000000000000000000000000003
:103DC00000000000000000000000000000000000F3
:103DD00000000000000000000000000000000000E3
:103DE00000000000000000000000000000000000D3
:104AD000000000003FFE0000000000000000000099
:104AE000000000000000FFFE0000000000000007C2
:104AF000FFC00000000000000000000000000000F7
:104B000000000000000000000000000000000000A5
:104B1000000000000000000000000001FFC00000D5
:104B200000000003FFFFC0000000000000000000C4
:104B300000000000003FFFFFF00000000000007FC9
:104B4000FFF8000000000000000000000000000F5F
:104B5000FFFFFFF0000000003FFF00000003FFF038
:104B6000000000000000000000000007FFC000007F
:104B70000000001FFFFFF800000000000000000020
:104B80000000000003FFFFFFFC000000000003FF27
:104B9000FFFF000000000000000000000000000F08
:104BA000FFFFFFFF800000003FFF00000007FFF055
:104BB00000000000000000000000001FFFC0000017
:104BC0000000007FFFFFFE0000000000000000006A
:104BD000000000000FFFFFFFFF80000000000FFF3C
:104BE000FFFFC00000000000000000000000000FF8
:104BF000FFFFFFFFF80000003FFF80000007FFF00D
:104C000000000000000000000000007FFFC0000066
:104C1000000000FFFFFFFF00000000000000000098
:104C2000000000000FFFFFFFFFC0000000001FFF9B
:104C3000FFFFE00000000000000000000000000F87
:104C4000FFFFFFFFFE0000003FFF80000007FFF0B6
:104C50000000000000000000000001FFFFC0000095
:104C6000000003FFFFFFFFC0000000000000000085
:104C7000000000000FFFFFFFFFF0000000007FFFBB
:104C8000FFFFF80000000000000000000000000F1F
:104C9000FFFFFFFFFF8000003FFF8000000FFFF0DD
:104CA0000000000000000000000007FFFFC000003F
:104CB00000000FFFFFFFFFE0000000000000000009
:104CC000000000000FFFFFFFFFF800000001FFFFE2
:104CD000FFFFFC0000000000000000000000000FCB
:104CE000FFFFFFFFFFE000003FFFC000000FFFF0ED
:104CF000000000000000000000001FFFFFC00000D7
:104D000000001FFFFFFFFFF0000000000000000098
:104D1000000000000FFFFFFFFFFC00000003FFFF8B
:104D2000FFFFFE0000000000000000000000000F78
:104D3000FFFFFFFFFFF000003FFFC000000FFFF08C
:104D4000000000000000000000007FFFFFC0000026
:104D500000003FFFFFFFFFF8000000000000000020
:104D6000000000000FFFFFFFFFFE00000007FFFF35
:104D7000FFFFFF0000000000000000000000000F27
:104D8000FFFFFFFFFFF800003FFFC000001FFFF024
:104D900000000000000000000001FFFFFFC0000055
:104DA00000007FFFFFFFFFFC00000000000000008C
:104DB000000000000FFFFFFFFFFF0000000FFFFFDC
:104DC000FFFFFF8000000000000000000000000F57
:104DD000FFFFFFFFFFFC00003FFFE000001FFFF8A8
:104DE00000000000000000000007FFFFFFC00000FF
:104DF0000000FFFFC01FFFFC0000000000000000DB
:104E0000000000000FFE000FFFFF0000001FFFF872
:104E100003FFFF8000000000000000000000000F02
:104E2000FFFFFFFFFFFE00003FFFE000001FFFF855
:104E30000000000000000000001FFFFFFFC0000096
:104E40000001FFFE0003FFFE000000000000000064
:104E5000000000000FC00000FFFF8000003FFFC007
:104E6000007FFFC000000000000000000000000FF5
:104E7000FF00003FFFFF00003FFFE000003FFFF8A2
:104E80000000000000000000007FFFFFFFC00000E6
:104E90000000FFF80001FFFE00000000000000001D
:104EA000000000000C0000003FFF8000001FFF001A
:104EB000003FFFC000000000000000000000000FE5
:104EC000FF000003FFFF80007FFFF000003FFFF8BE
:104ED000000000000000000001FFFFFFFFC0000015
:104EE00000007FE000007FFF0000000000000000E5
:104EF00000000000000000001FFFC000000FFC00C9
:104F0000000FFFE000000000000000000000000FA4
:104F1000FF000000FFFFC0007FDFF000003FDFF870
:104F2000000000000000000007FFFFF7FFC00000C6
:104F300000007FC000003FFF0000000000000000F4
:104F400000000000000000000FFFC000000FF8008C
:104F50000007FFE000000000000000000000000F5C
:104F6000FF0000003FFFC0007FDFF800007FDFF898
:104F700000000000000000000FFFFFC7FFC000009E
:104F800000003F8000003FFF8000000000000000A4
:104F9000000000000000000007FFC0000007F00054
:104FA0000007FFF000000000000000000000000FFC
:104FB000FF0000001FFFE0007FDFF800007FDFF848
:104FC000000000000000000007FFFF07FFC0000016
:104FD00000001F0000001FFF800000000000000014
:104FE000000000000000000003FFE0000003E000FC
:104FF0000003FFF000000000000000000000000FB0
:10500000FF0000000FFFE0007FCFF80000FF9FF8D7
:10501000000000000000000007FFFC07FFC00000C8
:1050200000000E0000001FFF8000000000000000D4
:10503000000000000000000003FFE0000001C000CD
:105040000003FFF000000000000000000000000F5F
:10505000FF00000007FFF0007FCFFC0000FF9FF87B
:10506000000000000000000007FFF807FFC000007C
:105070000000040000000FFF80000000000000009E
:10508000000000000000000003FFE00000008000BE
:105090000001FFF000000000000000000000000F11
:1050A000FF00000003FFF0007FCFFC0000FF9FF82F
:1050B000000000000000000003FFE007FFC0000048
:1050C0000000000000000FFFC00000000000000012
:1050D000000000000000000001FFE00000000000F0
:1050E0000001FFF800000000000000000000000FB9
:1050F000FF00000003FFF0007FC7FC0001FF1FF866
:10510000000000000000000003FF8007FFC0000057
:105110000000000000000FFFC00000000000FC00C5
:10512000000000000000000001FFE000000000009F
:105130000001FFF800000000000000000000000F68
:10514000FF00000001FFF0007FC7FE0001FF1FF815
:10515000000000000000000001FE0007FFC000008A
:1051600000000000000007FFC00000000003FF0077
:10517000000000000000000001FFE000000000004F
:105180000000FFF800000000000000000000000F19
:10519000FF00000001FFF8007FC7FE0001FF1FF8BD
:1051A000000000000000000001F80007FFC0000040
:1051B00000000000000007FFC0000000000FFF809B
:1051C000000000000000000001FFE00000000000FF
:1051D0000000FFF800000000000000000000000FC9
:1051E000FF00000001FFF8007FC3FE0003FE1FF870
:1051F000000000000000000000E00007FFC0000009
:1052000000000000000007FFC0000000001FFFC0FA
:10521000000000000000000001FFE00000000000AE
:105220000000FFF800000000000000000000000F78
:10523000FF00000000FFF8007FC3FF0003FE1FF81F
:10524000000000000000000000800007FFC0000018
:1052500000000000000007FFC0000000001FFFE08A
:10526000000000000000000001FFE000000000005E
:105270000000FFF800000000000000000000000F28
:10528000FF00000000FFF8007FC3FF0003FC1FF8D1
:10529000000000000000000000000007FFC0000048
:1052A00000000000000007FFC0000000003FFFF00A
:1052B000000000000000000001FFE000000000000E
:1052C0000000FFF800000000000000000000000FD8
:1052D000FF00000000FFF8007FC1FF0007FC1FF87F
:1052E000000000000000000000000007FFC00000F8
:1052F00000000000000007FFC0000000003FFFF0BA
:10530000000000000000000001FFC00000000000DD
:105310000000FFF800000000000000000000000F87
:10532000FF00000000FFF8007FC1FF8007FC1FF8AE
:10533000000000000000000000000007FFC00000A7
:1053400000000000000007FFC0000000007FFFF821
:10535000000000000000000003FFC000000000008B
:105360000000FFF800000000000000000000000F37
:10537000FF00000000FFF8007FC1FF8007F81FF862
:10538000000000000000000000000007FFC0000057
:1053900000000000000007FFC0000000007FFFF8D1
:1053A000000000000000000003FFC000000000003B
:1053B0000000FFF800000000000000000000000FE7
:1053C000FF00000000FFF8007FC0FFC00FF81FF8CB
:1053D000000000000000000000000007FFC0000007
:1053E00000000000000007FFC0000000007FFFF881
:1053F000000000000000000003FF8000000000002B
:105400000000FFF800000000000000000000000F96
:10541000FF00000000FFF8007FC0FFC00FF81FFC76
:10542000000000000000000000000007FFC00000B6
:1054300000000000000007FF80000000007FFFF870
:10544000000000000000000007FF800000000000D6
:105450000000FFF000000000000000000000000F4E
:10546000FF00000000FFF8007FC0FFC01FF01FFC1E
:10547000000000000000000000000007FFC0000066
:105480000000000000000FFF80000000007FFFF818
:10549000000000000000000007FF80000000000086
:1054A0000001FFF000000000000000000000000FFD
:1054B000FF00000000FFF8007FC07FE01FF01FFC2E
:1054C000000000000000000000000007FFC0000016
:1054D0000000000000000FFF80000000007FFFF8C8
:1054E00000000000000000000FFF000000000000AE
:1054F0000001FFF000000000000000000000000FAD
:10550000FF00000001FFF0007FC07FE01FF01FFCE4
:10551000000000000000000000000007FFC00000C5
:105520000000000000000FFF80000000003FFFF0BF
:1055300000000000000000001FFE0000000000004E
:105540000001FFF000000000000000000000000F5C
:10555000FF00000001FFF0007FC03FE03FE01FFCC4
:10556000000000000000000000000007FFC0000075
:105570000000000000001FFF00000000003FFFF0DF
:1055800000000000000000003FFC000000000000E0
:105590000003FFE000000000000000000000000F1A
:1055A000FF00000001FFF000FFC03FF03FE01FFCE4
:1055B000000000000000000000000007FFC0000025
:1055C0000000000000001FFF00000000001FFFE0BF
:1055D0000000000000000000FFF8000000000000D4
:1055E0000003FFE000000000000000000000000FCA
:1055F000FF00000003FFF000FFC03FF03FE01FFC92
:10560000000000000000000000000007FFC00000D4
:105610000000000000001FFF00000000001FFFE06E
:105620000000000000000003FFF000000000000088
:105630000003FFE000000000000000000000000F79
:10564000FF00000003FFE000FFC01FF07FC01FFC51
:10565000000000000000000000000007FFC0000084
:105660000000000000003FFE00000000000FFFC02F
:10567000000000000000001FFFE00000000000002C
:105680000007FFC000000000000000000000000F45
:10569000FF00000007FFE000FFC01FF87FC01FFCF5
:1056A000000000000000000000000007FFC0000034
:1056B0000000000000007FFE000000000003FF006B
:1056C00000000000000FFFFFFFC00000000000000E
:1056D000000FFFC000000000000000000000000FED
:1056E000FF00000007FFC000FFC01FF87FC01FFCC5
:1056F000000000000000000000000007FFC00000E4
:105700000000000000007FFC000000000000FC0022
:1057100000000000000FFFFFFF000000000000007D
:10572000000FFF8000000000000000000000000FDC
:10573000FF0000000FFFC000FFC00FF8FF801FFC3C
:10574000000000000000000000000007FFC0000093
:10575000000000000000FFFC00000000000000004E
:1057600000000000000FFFFFFE000000000000002E
:10577000001FFF8000000000000000000000000F7C
:10578000FF0000001FFF8000FFC00FFCFF800FFC28
:10579000000000000000000000000007FFC0000043
:1057A000000000000001FFF8000000000000000001
:1057B00000000000000FFFFFFC00000000000000E0
:1057C000003FFF0000000000000000000000000F8C
:1057D000FF0000007FFF8000FFC00FFCFF000FFCF8
:1057E000000000000000000000000007FFC00000F3
:1057F000000000000001FFF00000000000000000B9
:1058000000000000000FFFFFFF800000000000000C
:10581000003FFE0000000000000000000000000F3C
:10582000FF000000FFFF0000FFC007FCFF000FFCAF
:10583000000000000000000000000007FFC00000A2
:10584000000000000003FFF0000000000000000066
:1058500000000000000FFFFFFFF00000000000004C
:10586000007FFE0000000000000000000000000FAC
:10587000FF000007FFFE0000FFC007FFFF000FFC56
:10588000000000000000000000000007FFC0000052
:10589000000000000007FFE0000000000000000022
:1058A00000000000000FFFFFFFFC000000000000F0
:1058B00000FFFC0000000000000000000000000FDE
:1058C000FF00007FFFFC0000FFC003FFFE000FFC95
:1058D000000000000000000000000007FFC0000002
:1058E00000000000000FFFC00000000000000000EA
:1058F00000000000000FFFFFFFFE0000000000009E
:1059000001FFF80000000000000000000000000F90
:10591000FFFFFFFFFFF80000FFC003FFFE000FFCCA
:10592000000000000000000000000007FFC00000B1
:1059300000000000001FFFC0000000000000000089
:1059400000000000000FFFFFFFFF0000000000004C
:1059500003FFF80000000000000000000000000F3E
:10596000FFFFFFFFFFF00000FFC003FFFE000FFC82
:10597000000000000000000000000007FFC0000061
:1059800000000000001FFF80000000000000000079
:10599000000000000000000FFFFF8000000000007A
:1059A00003FFF00000000000000000000000000FF6
:1059B000FFFFFFFFFFE00000FFC001FFFC000FFC46
:1059C000000000000000000000000007FFC0000011
:1059D00000000000003FFF00000000000000000089
:1059E00000000000000000007FFFC0000000000079
:1059F00007FFE00000000000000000000000000FB2
:105A0000FFFFFFFFFFC00000FFC001FFFC000FFC15
:105A1000000000000000000000000007FFC00000C0
:105A200000000000007FFE000000000000000000F9
:105A300000000000000000001FFFE0000000000068
:105A40000FFFC00000000000000000000000000F79
:105A5000FFFFFFFFFF000000FFC001FFFC000FFC85
:105A6000000000000000000000000007FFC0000070
:105A70000000000000FFFC0000000000000000002B
:105A8000000000000000000007FFF0000000000020
:105A90001FFF800000000000000000000000000F59
:105AA000FFFFFFFFFE000000FFC000FFF8000FFE39
:105AB000000000000000000000000007FFC0000020
:105AC0000000000001FFF8000000000000000000DE
:105AD000000000000000000003FFF80000000000CC
:105AE0003FFF000000000000000000000000000F69
:105AF000FFFFFFFFF8000000FFC000FFF8000FFEEF
:105B0000000000000000000000000007FFC00000CF
:105B10000000000003FFF000000000000000000093
:105B2000000000000000000000FFF800000000007E
:105B30007FFE000000000000000000000000000FD9
:105B4000FFFFFFFFC0000000FFC0007FF8000FFE56
:105B5000000000000000000000000007FFC000007F
:105B60000000000007FFF00000000000000000003F
:105B70000000000000000000007FFC0000000000AA
:105B8000FFFE000000000000000000000000000F09
:105B9000FFFFFFFE00000000FFC0007FF0000FFECF
:105BA000000000000000000000000007FFC000002F
:105BB000000000000FFFE0000000000000000000F7
:105BC0000000000000000000007FFC000000000159
:105BD000FFFC000000000000000000000000000FBB
:105BE000FFFFFFC000000000FFC0007FF0000FFEBD
:105BF000000000000000000000000007FFC00000DF
:105C0000000000001FFFC0000000000000000000B6
:105C10000000000000000000003FFC000000000346
:105C2000FFF8000000000000000000000000000F6E
:105C3000FF00000000000001FFC0003FE0000FFE79
:105C4000000000000000000000000007FFC000008E
:105C5000000000003FFF8000000000000000000086
:105C60000000000000000000003FFE0000000007F0
:105C7000FFF0000000000000000000000000000F26
:105C8000FF00000000000001FFC0003FE0000FFE29
:105C9000000000000000000000000007FFC000003E
:105CA000000000007FFF0000000000000000000076
:105CB0000000000000000000001FFE000000000FB8
:105CC000FFE0000000000000000000000000000FE6
:105CD000FF00000000000001FFC0003FE0000FFED9
:105CE000000000000000000000000007FFC00000EE
:105CF00000000000FFFE00000000000000000000A7
:105D00000000000000000000001FFE000000001F57
:105D1000FFC0000000000000000000000000000FB5
:105D2000FF00000000000001FFC0000000000FFEA7
:105D3000000000000000000000000007FFC000009D
:105D400000000001FFFC0000000000000000000057
:105D50000000000000000000001FFE000000003FE7
:105D6000FF80000000000000000000000000000FA5
:105D7000FF00000000000001FFC0000000000FFE57
:105D8000000000000000000000000007FFC000004D
:105D900000000003FFF80000000000000000000009
:105DA0000000000000000000001FFE000000007F57
:105DB000FF00000000000000000000000000000FD5
:105DC000FF00000000000001FFC0000000000FFE07
:105DD000000000000000000000000007FFC00000FD
:105DE00000000007FFF000000000000000000000BD
:105DF0000000000000000000001FFE00000000FF87
:105E0000FE00000000000000000000000000000F85
:105E1000FF00000000000001FFC0000000000FFEB6
:105E2000000000000000000000000007FFC00000AC
:105E30000000000FFFE00000000000000000000074
:105E40000000000000000000001FFE00000001FF35
:105E5000FC00000000000000000000000000000F37
:105E6000FF00000000000001FFC0000000000FFE66
:105E7000000000000000000000000007FFC000005C
:105E80000000001FFFC00000000000000000000034
:105E90000000000000000000001FFE00000003FFE3
:105EA000F800000000000000000000000000000FEB
:105EB000FF00000000000001FFC0000000000FFE16
:105EC000000000000000000000000007FFC000000C
:105ED0000000003FFF800000000000000000000004
:105EE0000000000000000000001FFE00000007FF8F
:105EF000F000000000000000000000000000000FA3
:105F0000FF00000000000001FFC0000000000FFEC5
:105F1000000000000000000000000007FFC00000BB
:105F20000000007FFF0000000000000000000000F3
:105F30000000000000000000003FFC0000000FFF18
:105F4000E000000000000000000000000000000F62
:105F5000FF00000000000001FF80000000000FFEB5
:105F6000000000000000000000000007FFC000006B
:105F7000000000FFFE000000000000000000000024
:105F80000000000000000000003FFC0000001FFFB8
:105F9000C000000000000000000000000000000F32
:105FA000FF00000000000001FF80000000000FFE65
:105FB000000000000000000000000007FFC000001B
:105FC000000001FFFC000000000000000000FC00D9
:105FD0000000000000000000003FFC0000003FFF48
:105FE0008000000000000000000000000000000F22
:105FF000FF00000000000001FF80000000000FFE15
:10600000000000000000000000000007FFC00000CA
:10601000000003FFF8000000000000000003FF0084
:106020000000000000000000007FFC0000007FFF77
:106030000000000000000000000000000000000F51
:10604000FF00000000000001FF80000000000FFEC4
:10605000000000000000000000000007FFC000007A
:10606000000007FFF000000000000000000FFF80AC
:106070000000000000000000007FF8000000FFFEAC
:106080000000000000000000000000000000000F01
:10609000FF00000000000001FF80000000000FFE74
:1060A000000000000000000000000007FFC000002A
:1060B00000000FFFE000000000000000001FFFC014
:1060C000000000000000000000FFF8000001FFFCDD
:1060D0000000000000000000000000000000000FB1
:1060E000FF00000000000001FF80000000000FFF23
:1060F000000000000000000000000007FFC00000DA
:1061000000001FFFC000000000000000001FFFE0B3
:10611000000000000000000001FFF0000003FFF895
:106120000000000000000000000000000000000F60
:10613000FF00000000000001FF800000000007FFDA
:10614000000000000000000000000007FFC0000089
:1061500000003FFF8000000000000000003FFFF053
:10616000000000000000000003FFF0000007FFF047
:106170000000000000000000000000000000000F10
:10618000FF00000000000001FF800000000007FF8A
:10619000000000000000000000000007FFC0000039
:1061A00000007FFF0000000000000000003FFFF043
:1061B00000000000000000000FFFE000000FFFE003
:1061C0000000000000000000000000000000000FC0
:1061D000FF00000000000001FF800000000007FF3A
:1061E000000000000000000000000007FFC00000E9
:1061F0000000FFFE0000000000000000007FFFF82C
:1062000000000000000000003FFFC000001FFFC0B2
:106210000000000000000000000000000000000F6F
:10622000FF00000000000001FF800000000007FFE9
:10623000000000000000000001FFFFFFFFFFFFF86B
:106240000001FFFFFFFFFFFFFE000000007FFFF8DF
:106250000000000030000000FFFFC000003FFFFF13
:10626000FFFFFFFFC0000000000000000000000F63
:10627000FF00000000000001FF800000000007FF99
:10628000000000000000000001FFFFFFFFFFFFF81B
:106290000001FFFFFFFFFFFFFE000000007FFFF88F
:1062A000000000003FE0001FFFFF8000003FFFFFF5
:1062B000FFFFFFFFC0000000000000000000000F13
:1062C000FF00000000000001FF800000000007FF49
:1062D000000000000000000001FFFFFFFFFFFFF8CB
:1062E0000001FFFFFFFFFFFFFE000000007FFFF83F
:1062F000000000003FFFFFFFFFFF0000003FFFFF27
:10630000FFFFFFFFC0000000000000000000000FC2
:10631000FF00000000000003FF800000000007FFF6
:10632000000000000000000001FFFFFFFFFFFFF87A
:106330000001FFFFFFFFFFFFFE000000007FFFF8EE
:10634000000000003FFFFFFFFFFE0000003FFFFFD7
:10635000FFFFFFFFC0000000000000000000000F72
:10636000FF00000000000003FF800000000007FFA6
:10637000000000000000000001FFFFFFFFFFFFF82A
:106380000001FFFFFFFFFFFFFE000000007FFFF89E
:10639000000000003FFFFFFFFFFC0000003FFFFF89
:1063A000FFFFFFFFC0000000000000000000000F22
:1063B000FF00000000000003FF800000000007FF56
:1063C000000000000000000001FFFFFFFFFFFFF8DA
:1063D0000001FFFFFFFFFFFFFE000000003FFFF096
:1063E000000000003FFFFFFFFFF00000003FFFFF45
:1063F000FFFFFFFFC0000000000000000000000FD2
:10640000FF00000000000003FF800000000007FF05
:10641000000000000000000001FFFFFFFFFFFFF889
:106420000001FFFFFFFFFFFFFE000000003FFFF045
:10643000000000003FFFFFFFFFE00000003FFFFF04
:10644000FFFFFFFFC0000000000000000000000F81
:10645000FF00000000000003FF800000000007FFB5
:10646000000000000000000001FFFFFFFFFFFFF839
:106470000001FFFFFFFFFFFFFE000000001FFFE025
:10648000000000003FFFFFFFFF800000003FFFFF14
:10649000FFFFFFFFC0000000000000000000000F31
:1064A000FF00000000000003FF800000000007FF65
:1064B000000000000000000001FFFFFFFFFFFFF8E9
:1064C0000001FFFFFFFFFFFFFE000000001FFFE0D5
:1064D000000000003FFFFFFFFC000000003FFFFF47
:1064E000FFFFFFFFC0000000000000000000000FE1
:1064F000FF00000000000003FF800000000007FF15
:10650000000000000000000001FFFFFFFFFFFFF898
:106510000001FFFFFFFFFFFFFE000000000FFFC0B4
:10652000000000003FFFFFFFF0000000003FFFFF02
:10653000FFFFFFFFC0000000000000000000000F90
:10654000FF00000000000003FF800000000007FFC4
:10655000000000000000000001FFFFFFFFFFFFF848
:106560000001FFFFFFFFFFFFFE0000000003FF0030
:10657000000000000FFFFFFF00000000003FFFFFD2
:10658000FFFFFFFFC0000000000000000000000F40
:10659000FF00000000000003FF800000000007FF74
:1065A00000000000000000000000000000000000EB
:1065B0000000000000000000000000000000FC00DF
:1065C00000000000003FFFE00000000000000000AD
:1065D00000000000000000000000000000000000BB
:1065E00000000000000000000000000000000000AB
:1065F000000000000000000000000000000000009B
:10660000000000000000000000000000000000008A
:1070900000000000FFFFFFFFFFFFFFFFFFFFFFFFFC
:1070A000FFFFFFFFFFFFFFFFFFFFFFFFFFFFFFFFF0
:1070B000FFFFFFFFFFFFFFFFFFFFFFFFFFFFFFFFE0
:1070C000FFFFFFFFFFFFFFFFFFFFFFFFFFFFFFFFD0
:1070D000FFFFFFFFFFFFFFFFFFFFFFFFFFFFFFFFC0
:1070E000FFFFFFFFFFFFFFFFFFFFFFFFFFFFFFFFB0
:1070F000FFFFFFFFFFFFFFFFFFFFFFFFFFFFFFFFA0
:10710000FFFFFFFFFFFFFFFFFFFFFFFFFFFFFFFF8F
:10711000FFFFFFFFFFFFFFFFFFFFFFFFFFFFFFFF7F
:10712000FFFFFFFFFFFFFFFFFFFFFFFFFFFFFFFF6F
:10713000FFFFFFFFFFFFFFFFFFFFFFFFFFFFFFFF5F
:10714000FFFFFFFFFFFFFFFFFFFFFFFFFFFFFFFF4F
:10715000FFFFFFFFFFFFFFFFFFFFFFFFFFFFFFFF3F
:10716000FFFFFFFFFFFFFFFFFFFFFFFFFFFFFFFF2F
:10717000FFFFFFFFFFFFFFFFFFFFFFFFFFFFFFFF1F
:10718000FFFFFFFFFFFFFFFFFFFFFFFFFFFFFFFF0F
:10719000FFFFFFFFFFFFFFFFFFFFFFFFFFFFFFFFFF
:1071A000FFFFFFFFFFFFFFFFFFFFFFFFFFFFFFFFEF
:1071B000FFFFFFFFFFFFFFFFFFFFFFFFFFFFFFFFDF
:1071C000FFFFFFFFFFFFFFFFFFFFFFFFFFFFFFFFCF
:1071D000FFFFFFFFFFFFFFFFFFFFFFFFFFFFFFFFBF
:1071E000FFFFFFFFFFFFFFFFFFFFFFFFFFFFFFFFAF
:1071F000FFFFFFFFFFFFFFFFFFFFFFFFFFFFFFFF9F
:10720000FFFFFFFFFFFFFFFFFFFFFFFFFFFFFFFF8E
:10721000FFFFFFFFFFFFFFFFFFFFFFFFFFFFFFFF7E
:10722000FFFFFFFFFFFFFFFFFFFFFFFFFFFFFFFF6E
:10723000FFFFFFFFFFFFFFFFFFFFFFFFFFFFFFFF5E
