:020000040800F2
:10000000F04000204501000893140008491400083E
:10001000911400088D010008171800080000000066
:10002000000000000000000000000000551500085E
:100030008F01000800000000B514000857150008E3
:100040005F0100085F0100085F0100085F01000810
:100050005F0100085F0100085F0100085F01000800
:100060005F0100085F0100085F0100085F010008F0
:100070005F0100085F0100085F0100085F010008E0
:100080005F0100085F0100085F0100085F010008D0
:100090005F0100085F0100085F0100085F010008C0
:1000A0005F0100085F0100085F0100085F010008B0
:1000B0005F0100085F0100085F0100085F010008A0
:1000C0005F0100085F0100085F0100085F01000890
:1000D0005F0100085F0100085F0100085F01000880
:1000E0005F0100085F0100085F0100085F01000870
:1000F0005F0100085F0100085F0100085F01000860
:100100005F0100085F0100085F0100085F0100084F
:100110005F0100085F0100085F0100085F0100083F
:100120005F0100085F0100085F0100085F0100082F
:10013000DFF80CD000F018F80048004781180008DC
:10014000F04000200648804706480047FEE7FEE7EB
:10015000FEE7FEE7FEE7FEE7FEE7FEE7FEE7FEE777
:10016000CD15000831010008064C074D06E0E06897
:1001700040F0010394E8070098471034AC42F6D3EE
:10018000FFF7DAFFE430000804310008FEE77047AB
:100190002DE9F04116460F00044618D0102100F05A
:1001A000C9F8022000F060F9002504E0795D2046DE
:1001B00000F0CBF86D1CD4E904014843C11700EBF3
:1001C0005170B5EBE00FF1DB022000F04DF9CEB13C
:1001D0001321204600F0AEF8022000F045F900257A
:1001E00004E0715D204600F0B0F86D1CD4E9040114
:1001F0004843C11700EB5170B5EBE00FF1DB022073
:1002000000F032F91221204600F094F82046BDE8B3
:10021000F04100F01DB910B5044601202060022015
:1002200060600020A0600320E06098202061606191
:1002300000F03CF910B14FF0FF3010BD204600F047
:1002400067F80121204600F075F80721204600F0EC
:100250007CF80021204600F078F80821204600F0C4
:1002600074F80021204600F070F80621204600F0C6
:1002700061F81721204600F068F81721204600F0A9
:1002800064F81721204600F060F80421204600F0B1
:1002900051F8204600F0DCF80021204600F04AF832
:1002A0000F21204600F051F80D21204600F04DF8B6
:1002B0005021204600F03EF8F721204600F045F896
:1002C0003021204600F036F83921204600F03DF874
:1002D0006121204600F02EF89821204600F035F8E4
:1002E0000021204600F031F89821204600F02DF83A
:1002F0008221204600F01EF80E21204600F025F84D
:10030000204600F02DF8204600F074F8002010BDC3
:1003100010B504460068002100F0B8F8C82000F0CD
:10032000A3F80121206800F0B1F8BDE81040C82012
:1003300000F09AB810B50C464068002100F0A6F80D
:100340002046BDE8104000F0C9B810B50C46406822
:10035000012100F09BF82046BDE8104000F0BEB837
:1003600070B505462021FFF7E5FF214E0024284601
:10037000315DFFF7EAFF641C0F2CF8D321212846DA
:10038000FFF7D8FF1A4E00240F362846315DFFF7DD
:10039000DCFF641C0F2CF8D322212846FFF7CAFF8C
:1003A000134E00241E362846315DFFF7CEFF641C35
:1003B0000F2CF8D323212846FFF7BCFF0C4E002456
:1003C0002D362846315DFFF7C0FF641C0F2CF8D393
:1003D00024212846FFF7AEFF054E00243C36284670
:1003E000315DFFF7B2FF641C0F2CF8D370BD000025
:1003F0006C30000870B505462521FFF79BFF134EB2
:1004000000242846315DFFF7A0FF641C0F2CF8D3B1
:1004100026212846FFF78EFF0C4E00240F36284673
:10042000315DFFF792FF641C0F2CF8D3272128467B
:10043000FFF780FF054E00241E362846315DFFF78A
:1004400084FF641C0F2CF8D370BD0000B730000887
:1004500010B5044602E0642000F006F8E06800F001
:1004600005F80028F7D010BD00F052B8064A10B5C4
:1004700002EBC00152F83000898889B200F048F9D7
:10048000012800D0002010BDD0000020064B01291B
:1004900003EBC00253F83000526891B202D0002240
:1004A00000F03BB90122FBE7D00000200A480949CF
:1004B000D0E90023C1E90023D0E90223C1E90223E6
:1004C000D0E90423C1E90423D0E90620C1E90620CC
:1004D00000207047D00000200C00002031B50A4CED
:1004E0000022A08881B2206800F017F94FF47A73D7
:1004F00001226946054800F01DFEA088012281B254
:10050000206800F00AF938BDD00000203800002033
:1005100031B500F007F9044600F004F90099001B1A
:100520008842F9D338BD00002DE9F84FDFF8B8A1B3
:1005300000220AF1040B144601274FF00F090BF1BA
:10054000040E00BF0B6807FA04F52B40AB4274D1D0
:10055000DFF898C14E68A6EB0C0866452BD00DDC81
:10056000032E34D005DC36B3012E19D0022E2FD144
:100570001BE0112E16D0122E2AD119E0B8F5881FD3
:1005800019D006DCB8F5803F15D0B8F5801F1FD113
:1005900011E0B8F5001F0ED0B8F5041F18D10AE01D
:1005A000CA6815E0CA68121D12E0CA6808320FE076
:1005B000CA680C320CE08A682AB1012A4FF008029E
:1005C00003D0456104E0042202E0056100E000225E
:1005D000FF2B01D8064601E000F104064FEA84052E
:1005E00001D9A5F12005D6F800C009FA05F82CEAD2
:1005F000080C02FA05F54CEA050CC6F800C04D6877
:10060000ED006AD53A4DAE6946F00106AE61AD69BE
:1006100024F0030605F001050095364D06EB050CA8
:10062000DCF80850A6074FEA167809FA08F6B54331
:10063000314EB04202D100261AE04EE02F4EB042B9
:1006400001D1012614E02E4EB04201D102260FE066
:100650002C4EB04201D103260AE02B4EB04201D10C
:10066000042605E0294EB04201D1052600E0062609
:1006700006FA08F62E43CCF808604D68DAF80060F8
:10068000ED03554601D51E4300E09E432E604D68A4
:10069000AD0305D5DBF800601E43CBF8006004E035
:1006A000DBF800509D43CBF800504D68DEF8006049
:1006B000ED02754601D51E4300E09E432E604D6855
:1006C000AD0205D5084D0C352E681E432E6004E0A2
:1006D000054E0C3635689D433560641C102CFFF4C4
:1006E00031AFBDE8F88F0000000401400000111098
:1006F000001002400000014000080140000C0140D1
:10070000001001400014014000180140001C01408D
:100710008068084000D0012070470AB1016170472D
:100720000904FBE70148006870470000040000204E
:1007300002480168491C0160704700000400002065
:10074000074810B5016841F010010160032000F076
:100750007BF8002000F006F800F016F8002010BD2D
:100760000020024010B5044600F044F94FF47A71BD
:10077000B0FBF1F000F08EFD00222146501E00F08B
:1007800043F8002010BD00001D4808B5816941F004
:1007900001018161806900F001000090032000F0F8
:1007A00053F8002211466FF00B0000F02DF80022E4
:1007B00011466FF00A0000F027F8002211466FF092
:1007C000090000F021F800221146501F00F01CF82B
:1007D00000221146101F00F017F800221146901E4B
:1007E00000F012F800221146501E00F00DF80548E6
:1007F000416821F0E06141F08061416008BD000086
:100800000010024000000140F0B40E4B1B680C4683
:10081000C3F30223C3F10705042D00D90425191DD4
:10082000072901D2002300E0DB1E012606FA05F1AC
:10083000491E214099409E40761E16403143F0BC2F
:1008400000F028BE0CED00E0064900F00702086841
:100850004FF6FF03184040EA0220034A10430860A5
:10086000704700000CED00E00000FA052DE9F047AC
:10087000DFF8708105460E46D8F8000000F007004A
:10088000B0420CD2D8F8001021F007013143C8F86B
:100890000010D8F8000000F00700B04277D12878A7
:1008A000514C800705D56068A96820F0F000084326
:1008B00060602878C00759D06968012001290DD0EF
:1008C000022929D05FF0020393FAA3F2B2FA82F26E
:1008D00042F02002520904D0226803E04FF40033B2
:1008E000F2E7626A93FAA3F3B3FA83F303F01F0308
:1008F000984002424BD0606820F0030008436060DB
:10090000FFF710FF6968074641F2883001290DD0D2
:100910000229814617D025E04FF00073D4E700BFCD
:10092000FFF700FFC11B494501D918E08146606807
:10093000C0F381000128F3D118E000BFFFF7F2FEF9
:10094000C11B49450BD86068C0F381000228F5D16E
:100950000CE000BFFFF7E6FEC11B494502D90320AA
:10096000BDE8F087606810F00C0FF3D1D8F80010E4
:10097000404601F00701B1420BD9016821F007019F
:1009800031430160006800F00700B04201D001204F
:10099000E6E72878400705D56068E96820F4E0605C
:1009A000084360602878000706D56068296920F44C
:1009B000605040EAC100606000F052F86168F022C7
:1009C00092FAA2F201F0F001B2FA82F2D140074AA3
:1009D000515CC840064908600020FFF7C3FE0020B4
:1009E000BEE700000020024000100240C4190008C9
:1009F000080000200148006870470000080000203F
:100A000008480949006849684FF4E06292FAA2F286
:100A100001F4E061B2FA82F2D140044A515CC8406C
:100A2000704700000800002000100240D4190008A0
:100A300008480949006849684FF4605292FAA2F2E6
:100A400001F46051B2FA82F2D140044A515CC840CC
:100A5000704700000800002000100240D419000870
:100A600010B519A385B00FCB8DE80F001AA01B4B52
:100A7000006804905A681A4802F00C0104291DD03D
:100A800008291BD14FF4701494FAA4F402F47011E5
:100A9000B4FA84F4E140D2031DF8011010D55A686D
:100AA0004FF4003393FAA3F302F40032B3FA83F362
:100AB000DA4004AB9A5CB0FBF2F0484305B010BDDD
:100AC00008484843FAE7000002030405060708093E
:100AD0000A0B0C0D0E0F1010010200000010024056
:100AE00000127A0000093D002DE9F84F0446007815
:100AF000F74DC0074FF0010625D068687704C0F3B2
:100B00008100012807D06868C0F3810002281BD14A
:100B10006868C00318D597FAA7F0B0FA80F040F0E3
:100B20002000400901D0286800E0686A97FAA7F120
:100B3000B1FA81F101F01F0106FA01F108425ED01D
:100B4000606800287CD05AE06068B0F5803F0BD028
:100B500010B1B0F5A02F11D0286820F480302860A3
:100B6000286820F4802002E0286840F48030286063
:100B7000606828B3FFF7D6FD80460BE0286840F494
:100B800080202860F0E700BFFFF7CCFDA0EB080055
:100B9000642871D897FAA7F0B0FA80F040F02000EE
:100BA000400901D0286800E0686A97FAA7F1B1FA15
:100BB00081F101F01F0106FA01F10842E4D01EE0C4
:100BC000FFF7B0FD804605E0FFF7ACFDA0EB0800A5
:100BD0006428DED897FAA7F0B0FA80F040F0200041
:100BE000400901D0286800E0686A97FAA7F1B1FAD5
:100BF00081F101F01F0106FA01F10842E4D12078E9
:100C0000DFF8D08280074FF000094FF002075BD574
:100C100068684FF0F80B10F00C0F07D06868C0F34D
:100C2000810002281CD16868C00319D497FAA7F084
:100C3000B0FA80F040F02000400902D0286801E0BE
:100C40008BE0686A97FAA7F1B1FA81F101F01F0110
:100C500006FA01F108422CD0206901287DD128E054
:100C6000206990B396FAA6F0B0FA80F048F82060B8
:100C7000FFF758FD824607E011E100BFFFF752FD84
:100C8000A0EB0A00022884D897FAA7F0B0FA80F007
:100C900040F02000400901D0286800E0686A97FA17
:100CA000A7F1B1FA81F101F01F0106FA01F1084242
:100CB000E4D028689BFAABF26169B2FA82F220F0C4
:100CC000F80091400843286025E0FFE796FAA6F176
:100CD000B1FA81F148F82190FFF724FD824605E042
:100CE000FFF720FDA0EB0A000228CCD897FAA7F066
:100CF000B0FA80F040F02000400901D0286800E000
:100D0000686A97FAA7F1B1FA81F101F01F0106FABA
:100D100001F10842E4D1207800076ED5A069B8B38C
:100D200096FAA6F0B0FA80F008EB8000C0F8806474
:100D3000FFF7F8FC824605E0FFF7F4FCA0EB0A00A1
:100D40000228A0D897FAA7F0B0FA80F040F060002F
:100D5000B6EB501F02D128680CE062E197FAA7F0C9
:100D6000B0FA80F040F06000B7EB501F01D1286A64
:100D700000E0686A97FAA7F1B1FA81F101F01F016A
:100D800006FA01F21042D7D00120FFF7C1FB34E090
:100D9000FFE796FAA6F1B1FA81F108EB8101C1F8FB
:100DA0008094FFF7BFFC824606E000BFFFF7BAFC65
:100DB000A0EB0A00022872D897FAA7F0B0FA80F0E8
:100DC00040F06000B6EB501F01D128680BE097FAA5
:100DD000A7F0B0FA80F040F06000B7EB501F01D1EF
:100DE000286A00E0686A97FAA7F1B1FA81F101F088
:100DF0001F0106FA01F21042D8D12078400765D5CC
:100E0000E86940F08050E861E869DFF8CCB000F0B4
:100E100080500090DBF8001041F48071CBF8001096
:100E2000FFF780FC824605E0FFF77CFCA0EB0A00A0
:100E3000642834D8DBF80000C005F5D5E068012847
:100E40000AD008B1052813D0286A20F001002862D2
:100E5000286A20F0040002E0286A40F001002862BD
:100E6000E06841F2883B90B3FFF75CFC82460BE000
:100E7000286A40F004002862EEE700BFFFF752FC4A
:100E8000A0EB0A0159450AD897FAA7F0B0FA80F00A
:100E900040F04000B6EB501F02D128680CE0A3E000
:100EA00097FAA7F0B0FA80F040F04000B7EB501F7F
:100EB00001D1286A00E0686A97FAA7F1B1FA81F1D6
:100EC00001F01F0206FA02F10842D7D031E005E036
:100ED000001002400000424200700040FFF722FC78
:100EE000824605E0FFF71EFCA0EB0A0159457BD8BE
:100EF00097FAA7F0B0FA80F040F04000B6EB501F30
:100F000001D128680BE097FAA7F0B0FA80F040F022
:100F10004000B7EB501F01D1286A00E0686A97FAD9
:100F2000A7F1B1FA81F101F01F0206FA02F10842BD
:100F3000D8D1E06980B36968C1F38101022970D01A
:100F40004FF080714F000228484609D091FAA1F174
:100F5000B1FA81F148F82100FFF7E4FB044669E0AB
:100F60008A4691FAA1F1B1FA81F1C14648F821000F
:100F7000FFF7D8FB804605E0FFF7D4FBA0EB0800A5
:100F8000022854D897FAA7F0B0FA80F040F0200079
:100F9000400902D0286801E061E0686A97FAA7F189
:100FA000B1FA81F101F01F0106FA01F10842E3D123
:100FB000206AB0F5803F05D16868A16820F4003050
:100FC00008436860D4E908010843696821F4741192
:100FD000084368609AFAAAF0B0FA80F049F82060F5
:100FE000FFF7A0FB044606E021E000BFFFF79AFBF5
:100FF000001B02281BD897FAA7F0B0FA80F040F047
:101000002000400901D0286800E0686A97FAA7F13B
:10101000B1FA81F101F01F0106FA01F10842E5D0B1
:101020001DE01EE0FFF77EFB001B022802D9032013
:10103000BDE8F88F97FAA7F0B0FA80F040F02000F2
:10104000400901D0286800E0686A97FAA7F1B1FA70
:1010500081F101F01F0106FA01F10842E2D10020FE
:10106000E6E70120E4E7000010B5040003D094F89F
:10107000510010B104E0012010BD204600F038F806
:10108000022084F851002068016821F040010160CD
:10109000D4E901010843D4E903121143084361690B
:1010A0000843218B01F400710843E1690843216A78
:1010B0000843A16A084321680860A069042101EA85
:1010C0001040616A0843216848602168E06A08614D
:1010D0002068C16921F40061C161044900200870E1
:1010E0006065012084F85100002010BD0000002040
:1010F00000B500680C4985B0884212D10B4881695F
:1011000041F4805181618069694600F48050049007
:10111000A020009002200190032003900448FFF7D4
:1011200003FA05B000BD000000300140001002408D
:10113000000801402DE9F843044690F85100984614
:10114000012870D139B332B394F8500001286AD025
:10115000012684F85060122084F85100002565654E
:101160002163A286E286E564A564A563A587E58779
:10117000A06A7703B84209D12068016821F40051C0
:1011800001602068016841F400510160A068B0F579
:10119000004F03D007E00120BDE8F8832068016814
:1011A00041F48041016020680168490603D4016868
:1011B00041F040010160E0680028606804D0D8B1C7
:1011C000E08E012818D021E010B1E08E012808D16E
:1011D000206B411C216321680078C860E08E401EAE
:1011E000E0860004000C1FD0434600220221204666
:1011F00000F061F9A8B9EBE7206B21680088C860AE
:10120000206B801C2063E08E401EE0860004000CF2
:101210000AD0434600220221204600F04CF9002863
:10122000EAD00320B8E726E0A06AB84204D12068DB
:10123000016841F4805101604346002202212046AA
:1012400000F039F930B9434601228021204600F0F0
:1012500032F920B1606D40F010006065E1E7A068F0
:1012600018B92068C1688068009084F8516084F8DB
:101270005050002090E702208EE74FF0E021042834
:10128000086903D020F004000861704740F00400B2
:10129000FAE7704710B5401EB0F1807F01D30120FE
:1012A00010BD4FF0E02460610F21601700F0F2F8EC
:1012B0000020A06107202061002010BD10B5FFF7BD
:1012C000E8FF10BD70B5040004D094F83900002583
:1012D00010B106E0012070BD84F83850204600F0BF
:1012E00021F8022084F839002068C16821F40051F7
:1012F000C160204600F08EF92068016921F4904118
:1013000001612068416921F02A0141612068C168BA
:1013100041F40051C160E563012084F839000020E8
:1013200070BD000010B50068114986B088421DD11B
:101330001048816941F48041816180690E4C00F45C
:10134000804004904FF40070009002200190032030
:10135000039069462046FFF7E7F800212015CDE904
:101360000001029169462046FFF7DEF806B010BD85
:101370000038014000100240000801402DE9F0470C
:10138000044690F8390099460D46012801D02228DC
:1013900058D12DB322B394F83800012852D0012639
:1013A00084F838600027E76394F8390022281AD0BF
:1013B0005FF0120084F83900A284E2844FF4805870
:1013C000E08C4B46401EE084A0684FF00002404590
:1013D0004FF08001204613D100F0D4F908BB04E09F
:1013E0000120BDE8F0873220E4E728882168C0F3B7
:1013F00008004860206908B16D1C08E0AD1C06E0DB
:1014000000F0C0F968B9216815F8010B4860E08C5C
:101410000028D5D14B4600224021204600F0B2F9E9
:1014200008B10320DDE794F83900322806D084F8AB
:10143000396000BF84F838700020D2E7222084F899
:101440003900F7E70220CCE7FEE700000F4810B5AF
:101450000D4901604FF4827141604FF40041816099
:101460000021C1604FF400720161C0E90512302211
:10147000C0E90721416281620A21C162FFF7F4FDE0
:10148000002800D0FEE710BD0030014038000020E9
:10149000FEE770470907090E002806DA00F00F0082
:1014A00000F1E02080F8141D704700F1E02080F882
:1014B0000014704770472DE9F0471D4690460E46D0
:1014C0000446FFF72FF907465FEA08004FF00008CF
:1014D0004FF4005A4FF0010926D034E0681C23D0A5
:1014E00025B1FFF71FF9C01BA8421DD9206841682C
:1014F00021F0E00141602068016821F040010160B5
:10150000A06A504509D12068016821F400510160AA
:101510002068016841F40051016084F8519084F81A
:1015200050800320BDE8F0872068806836EA00001C
:10153000D4D10DE0681C06D0002DD7D0FFF7F2F80B
:10154000C01BA842D2D82068806836EA0000F1D0DB
:101550000020E7E7704710B5FFF7EAF8BDE8104054
:10156000FFF7ACBE30B58FB001210804CDE9001003
:101570000024029402250491CDE907504FF4E010B5
:1015800009906846FFF7B0FA00B1FEE70F20CDE9F9
:101590000A054FF48060CDE90C4002210AA80E94A0
:1015A000FFF764F900B1FEE7FFF724FA4FF47A7110
:1015B000B0FBF1F0FFF76EFE0420FFF75EFE0022A5
:1015C0001146501EFFF720F90FB030BD0D480168DD
:1015D00041F00101016041680B4A1140416001681E
:1015E0000A4A11400160016821F4802101604168CC
:1015F00021F4FE0141604FF41F0181600449C003E2
:1016000008607047001002400000FFF8FFFFF6FE80
:1016100008ED00E02DE9F041044600680169E26848
:1016200021F44051114301612169A06808436169B7
:1016300008432168CA6841F20C639A430243CA60B6
:1016400020684169A26921F44071114341614C490C
:1016500020686425322688423CD1FFF7E9F900EB87
:10166000C00101EB001061688900B0FBF1F7FFF7E2
:10167000DFF900EBC00101EB00106168B0468900A2
:10168000B0FBF1F0B0FBF5F06FF01801484307EB49
:10169000800106EB0110B0FBF5F000F0F006FFF75B
:1016A000C7F900EBC00101EB001061688900B0FBD5
:1016B000F1F0B0FBF5F006EB0016FFF7B9F900EB1F
:1016C000C00101EB001061688900B0FBF1F7FFF782
:1016D000AFF93BE0FFF794F900EBC00101EB00101C
:1016E00061688900B0FBF1F7FFF78AF900EBC001F0
:1016F00001EB00106168B0468900B0FBF1F0B0FB6F
:10170000F5F06FF01801484307EB800106EB01107C
:10171000B0FBF5F000F0F006FFF772F900EBC00146
:1017200001EB001061688900B0FBF1F0B0FBF5F04F
:1017300006EB0016FFF764F900EBC00101EB0010A7
:1017400061688900B0FBF1F7FFF75AF900EBC001BF
:1017500001EB001061688900B0FBF1F0B0FBF5F01F
:101760006FF01801484307EB800108EB0110B0FB54
:10177000F5F0216800F00F0030448860BDE8F0818A
:10178000003801402DE9F0471D4690460E460446BC
:10179000FEF7C8FF07465FEA08004FF000094FF068
:1017A000010808D030E0681C05D095B1FEF7BAFFFB
:1017B000C01BA8420DD82068006836EA0000F2D1AC
:1017C00027E0681C20D025B1FEF7ACFFC01BA84263
:1017D0001AD92068C16821F08001C1602068C16801
:1017E00021F02001C1602068C16821F48071C160CE
:1017F0002068416921F00101416184F8398084F851
:1018000038900320BDE8F0872068006836EA0000C1
:10181000D7D00020F6E7FEE7014A024900F013B8EE
:10182000691800082C00002002E008C8121F08C137
:10183000002AFAD170477047002001E001C1121F51
:10184000002AFBD170472DE9F04116460F460446A9
:10185000002503E03946B047641C6D1C2078002841
:10186000F8D12846BDE8F08113B54FF6FF73012289
:1018700069460248FFF782FD00981CBD90000020D9
:1018800030B540F648348BB0204600F065F820466D
:1018900000F062F8FEF754FFFFF764FE224881690A
:1018A00041F0040181618069204D00F004000A903C
:1018B000002216212846FEF730FF16200090012056
:1018C00001900220039069462846FEF72DFE002471
:1018D0000820CDE90004694628460294FEF724FE5C
:1018E0001448134901604FF4E131C0E901140C219F
:1018F000C460C0E904418461C461FFF7E3FC00B146
:10190000FEE7FFF7A3FD04A8FEF785FC30B10AA0AF
:10191000FFF782FF0BB04FF0FF3030BD0C4A0D498E
:1019200004A8FEF735FCFEE7001002400008014065
:101930000038014090000020652D506170657220D4
:10194000696E6974206661696C65640A0000000054
:1019500024250008DC190008F0B50B30154D20F0E7
:1019600007010024144A0FE003688B420BD38B421B
:1019700005D95E1A43184768C3E9006700E0436869
:10198000136002C004E0021D10680028ECD120465C
:10199000002802D1286808B10020F0BD064A074897
:1019A0001060074A121A22F00702C0E90024012041
:1019B0002860D7E73400002030000020F400002029
:1019C000F0300020000000000000000001020304CD
:1019D000060708090000000001020304FFFFFFFFE3
:1019E000FFFFFFFFFFFFFFFFBFFFFFFFFFFFFFFF47
:1019F000FFFFFFFFFFFFFFFFFFFFFFBFFFFFFFFF37
:101A0000FFFFFFFFFFFFFFFFFFFFFFFFFFFFBFFF26
:101A1000FFFFFFFFFFFFFFFFFFFFFFFFFFFFFFFFD6
:101A2000FFBFFFFFFFFFFFFFFFFFFFFFFFFFFFFF06
:101A3000FFFFFFFFDFFFFFFFFFFFFFFFFFFFFFFFD6
:101A4000FFFFFFFFFFFFFFDFFFFFFFFFFFFFFFFFC6
:101A5000FFFFFFFFFFFFFFFFFFFFDFFFFFFFFFFFB6
:101A6000FFFFFFFFFFFFFFFFFFFFFFFFFFDFFFFFA6
:101A7000FFFFFFFFFFFFFFFFFFFFFFFFFFFFFFFF76
:101A8000DFFFFFFFFFFFFFFFFFFFFFFFFFFFFFFF86
:101A9000FFFFFFDFFFFFFFFFFFFFFFFFFFFFFFFF76
:101AA000FFFFFFFFFFFFDFFFFFFFFFFFFFFFFFFF66
:101AB000FFFFFFFFFFFFFFFFFFDFFFFFFFFFFFFF56
:101AC000FFFFFFFFFFFFFFFFFFFFFFFFDFFFFFFF46
:101AD000FFFFFFFF00000FFFFFFFFFFFFFFFFFDF24
:101AE000FFFFFFFFFFFFFE00000FFFFFFFFFFFFFF5
:101AF000FFFFEFFFFFFFFFFFFFFE000007FFFFFFFD
:101B0000FFFFFFFFFFEFFFFFFFFFFFFFFE000007EC
:101B1000FFFFFFFFFFFFFFFFEFFFFFFFFFFFFFFCE8
:101B2000000007FFFFFFFFFFFFFFFFEFFFFFFFFFCB
:101B3000FFFFFC000007FFFDFFCFFFFFFFFFEFFFF0
:101B4000FFFFFFFFFFFC000003FFF87F87FFFFFFA1
:101B5000FFEFFFFFFFFFFFFFFC000003FFF8FFC7E1
:101B6000FFFFFFFFEFFFFFFFFFFFFFFC007803FF1A
:101B7000F8FFE7FFFFFFFFEFFFFFFFF5FFFFFC00B0
:101B8000FB83FFF9FFE3FFFFFFFFEFFFFFFF803F56
:101B9000FFFC01F9C3FFF8FFE3FFFFFFFFEFFFFFCB
:101BA000FE001FFFF801D9C3FFF8FFC7FFFFFFFFCB
:101BB000F7FFFFFC000FFFF801D9C3FFF87F87FF95
:101BC000FFFFFFF7FFFFFC0004FFF801D9C3FFFC94
:101BD0003F07FFFFFFFFF7FFFFF80000FFF801DB03
:101BE000C1FFFC000FFFFFFFFFF7FFFFF00001FF49
:101BF000F800FF81FFFE001FFFFFFFFFF7FFFFF070
:101C00006001FFF8007F81FFFF807FFFFFFFFFF78C
:101C1000FFFFF06001FFF8003E01FFFFFFFFFFFF45
:101C2000FFFFF7FFFFE00001FFF8000001FFFEFFEC
:101C3000FFFFFFFFFFF7FFFFE00001FFF801C0011A
:101C4000FFF83FFFFFFFFFFFF7FFFF200001FFF856
:101C500001C001FFF19FFFFFFFFFFFF7FFFE200024
:101C600001FFF801C001FFF39FFFFFFFFFFFFBFF34
:101C7000F8200001FFF800E001FFF39FFFFFFFFFE6
:101C8000FFFBFFF0306001FFF801FFC1FFF19FFF94
:101C9000FFFFFFFFFBFFF0107001FFF801FFC1FF26
:101CA000F83FFFFFFFFFFFFBFFE0106003FFF801BD
:101CB000FFC1FFFEFFFFFFFFFFFFFBFFC0100003A0
:101CC000FFF8000001FFFFFFFFFFFFFFFFFBFFC169
:101CD000C80003FFF8000001FFFFC0FFFFFFFFFF88
:101CE000FBFFC1C40007FFF8000001FFFE001FFF5B
:101CF000FFFFFFFBFF81C4000FFFF8007FC1FFFC67
:101D0000000FFFFFFFFFFBFF8082001FFFF800FFB7
:101D1000C1FFF83307FFFFFFFFFBFF8001803FFF9C
:101D2000F801FFC1FFF8F1C7FFFFFFFFFDFF8000D3
:101D300061FFFFF801D981FFF9F9E3FFFFFFFFFD24
:101D4000FF80000EFFFFF801D9C1FFF9F9E3FFFFA3
:101D5000FFFFFDFF8000007FFFF801D9C1FFF8F110
:101D6000E3FFFFFFFFFDFF800000FFFFF801D9C187
:101D7000FFF801C7FFFFFFFFFDFF808000FFFFF8B6
:101D800001DFC1FFFC03C7FFFFFFFFFDFF81C000B4
:101D9000FFFFF800CFC1FFFE07EFFFFFFFFFFDFFD2
:101DA000C1C000FFFFF8000781FFFFFFFFFFFFFF3B
:101DB000FFFDFFC1C000FFFFF8000001FFFFFFFFB4
:101DC000FFFFFFFFFDFFC000007FFFF8000001FFE5
:101DD000FFFFE7FFFFFFFFFDFFE000007FFFF800D0
:101DE0007FC1FFFE0FC7FFFFFFFFFDFFF000023FB7
:101DF000FFF800FFC1FFFC03C7FFFFFFFFFEFFF07E
:101E00000007FFFFF801FFC1FFF800C7FFFFFFFF5A
:101E1000FEFFF8000FFFFFF801E001FFF8F067FF99
:101E2000FFFFFFFEFFFE001FFFFFF801C001FFF9EB
:101E3000F827FFFFFFFFFEFFFF007FFFFFF801C055
:101E400001FFF9FE07FFFFFFFFFEFFFFFFFFFFFFA0
:101E5000F800C001FFF9FF07FFFFFFFFFEFFFFFFD4
:101E6000FFFFFFF8006001FFF8FF87FFFFFFFFFEA5
:101E7000FFFFFFFFFFFFF87FFFC1FFFC7FC7FFFFF2
:101E8000FFFFFEFFFFFFFFFFFFF87FFFC1FFFCFF2B
:101E9000E7FFFFFFFFFEFFFFFFFFFFFFF87FFFC130
:101EA000FFFFFFFFFFFFFFFFFEFFFFFFFFFFFFF84A
:101EB000000001FFFFFFFFFFFFFFFFFF7FFFFFFFAE
:101EC000FFFFF8000001FFFFF7FFFFFFFFFFFF7FAD
:101ED000FFFFFFFFFFF8000001FFFFE3FFFFFFFF31
:101EE000FFFF7FFFFFFFFFFFF8000001FFFFE1FFA3
:101EF000FFFFFFFFFF7FFFFFFFFFFFF8000F01FF66
:101F0000FFF0FFFFFFFFFFFF7FFFFF0FFFFFF83C2A
:101F10003F81FFFFF8FFFFFFFFFFFF7FFFFCF3FFA5
:101F2000FFF8383F81FFFFFCFFFFFFFFFFFF7FFF50
:101F3000F3FDFFFFF83873C1FFFFF8FFFFFFFFFF5E
:101F4000FF7FFFEFFEFFFFF83871C1FFFFF8FFFFD3
:101F5000FFFFFFFF7FFFDFFF7FFFF838E1C1FFFFDB
:101F6000F0FFFFFFFFFFFF7FFFBFFFBFFFF83CE178
:101F7000C1FFFFE1FFFFFFFFFFFFBFFFBFFFBFFF8D
:101F8000F81FC1C1FFFFE3FFFFFFFFFFFFBFFF7FA0
:101F9000FFDFFFF81FC3C1FFFFC7FFFFFFFFFFFF0A
:101FA000BFFF7FFFDFFFF80F8781FFFFC7FFFFFF46
:101FB000FFFFFFBFFEFFFFEFFFF8000001FFFFCFB5
:101FC000FFFFFFFFFFFFBFFEFFFFEFFFF800000175
:101FD000FFFF8FFFFFFFFFFFFFBFFDFF81F7FFF850
:101FE000007801FFFFC7FFFFFFFFFFFFBFFDFF01FD
:101FF000F7FFF800FB81FFFFC7FFFFFFFFFFFFBFF9
:10200000FBFF3FFBFFF801F9C1FFFFC3FFFFFFFF2D
:10201000FFFFBFFBFFBFFBFFF801D9C1FFFFE1FFDF
:10202000FFFFFFFFFFBFFBF801FBFFF801D9C1FF76
:10203000FFF3FFFFFFFFFFFFDFF7F801FBFFF801F2
:10204000D9C1FFFFFFFFFFFFFFFFFFDFF7FFFFFD2E
:10205000FFF801DBC1FFFFFFFFFFFFFFFFFFDFF71F
:10206000FF31FDFFF800FF81FFFFFE3FFFFFFFFF95
:10207000FFDFF7FF39FDFFF8007F81FFFE1C0FFF38
:10208000FFFFFFFFDFF7FF39FDFFF8003E01FFFC18
:102090000807FFFFFFFFFFDFEFFF19FEFFF800005B
:1020A00001FFF80087FFFFFFFFFFDFEFFF83FEFF69
:1020B000F8010001FFF8E1C7FFFFFFFFFFDFEFFFBF
:1020C000C7FEFFF801E001FFF9E3E3FFFFFFFFFFB9
:1020D000DFEFFFFFFEFFF801F801FFF9F3E3FFFF79
:1020E000FFFFFFDFEFFFFFFEFFF801FF01FFF9F346
:1020F000E7FFFFFFFFFFEFEFFF81FEFFF8001FC1CB
:10210000FFF8FFC7FFFFFFFFFFEFDFFF01FEFFF854
:102110000003C1FFFCFF87FFFFFFFFFFEFDFFF3F73
:10212000FF7FF80003C1FFFDFFCFFFFFFFFFFFEFC1
:10213000DFFFBFFF7FF8003FC1FFFFFFFFFFFFFF93
:10214000FFFFEFDFFF01FF7FF801FF81FFFFFFFFD0
:10215000FFFFFFFFFFEFDFFF01FF7FF801FC01FF43
:10216000FFFFC7FFFFFFFFFFEFDFFFFFFF7FF8016C
:10217000E001FFFE07C7FFFFFFFFFFEFDFFFFFFFED
:102180007FF8010001FFFC03C7FFFFFFFFFFEFDF48
:10219000F901FF7FF8000001FFF800C7FFFFFFFF14
:1021A000FFEFDFF901FF7FF8007FC1FFF8F067FF65
:1021B000FFFFFFFFEFDFFFFFFF7FF800FFC1FFF929
:1021C000FC27FFFFFFFFFFF7DFFFEFFF7FF801FFB7
:1021D000C1FFF9FE07FFFFFFFFFFF7DFF801FF7FF9
:1021E000F801D981FFF9FF07FFFFFFFFFFF7DFF8D5
:1021F00001FF7FF801D9C1FFF8FF87FFFFFFFFFF55
:10220000F7DFFCEFFF7FF801D9C1FFFC7FC7FFFFBD
:10221000FFFFFFF7DFFE6FFF7FF801D9C1FFFCFF73
:10222000E7FFFFFFFFFFF7DFFF2FFF7FF801DFC1B1
:10223000FFFFFFFFFFFFFFFFFFF7DFFFCFFF7FF88D
:1022400000CFC1FFFFFFFFFFFFFFFFFFF7DFFFEF43
:10225000FEFFF8000781FFFFFFFFFFFFFFFFFFF713
:10226000EFFFFFFEFFF8000001FFFFFFFFFFFFFF92
:10227000FFFFF7EFF9C3FEFFF8380001FFFFFFFF94
:10228000FFFFFFFFFFFBEFF983FEFFF83F0001FFB9
:10229000FFEFFFFFFFFFFFFFFBEFF999FEFFF83FA6
:1022A000F001FFFFCFFFFFFFFFFFFFFBEFF999FEFC
:1022B000FFF807FF01FFFFCFFFFFFFFFFFFFFBEF6F
:1022C000F819FEFFF800FFC1FFBFEFF3FFFFFFFFAC
:1022D000FFFBF7F81BFDFFF8000FC1FF8FFFE3FFC7
:1022E000FFFFFFFFFBF7FFFFFDFFF8000FC1FFCF70
:1022F00003E7FFFFFFFFFFFBF7FFFFFDFFF800FF16
:10230000C1FFFC00FFFFFFFFFFFFFBF7FFF9FDFF31
:10231000F80FFF01FFF8003FFFFFFFFFFFFBF7FF94
:10232000F9FBFFF83FF001FFF0003FFFFFFFFFFF69
:10233000FBFBFFFFFBFFF83F0001FFF0001FFFFF6B
:10234000FFFFFFFDFBFFFFFBFFF83F0001FFE00089
:102350000FFFFFFFFFFFFDFBFFFFF7FFF83FF0035D
:10236000FFE0000FFFFFFFFFFFFDFDFFFFF7FFF89E
:1023700007FE03FFE0000FFFFFFFFFFFFDFDF80179
:10238000F7FFF8007FC3FC40000C7FFFFFFFFFFD5D
:10239000FEF801EFFFF8000FC3FC40000C7FFFFFC9
:1023A000FFFFFDFEFDFFEFFFFC000FC3FFE0000F8E
:1023B000FFFFFFFFFFFDFF7CFFDFFFFC00FFC3FF10
:1023C000E0000FFFFFFFFFFFFDFF7FFFDFFFFC1FB0
:1023D000FFC3FFE0001FFFFFFFFFFFFDFFBFFFBFC9
:1023E000FFFC3FFC03FFF0001FFFFFFFFFFFFDFFAF
:1023F000BFFFBFFFFC3FE003FFF8003FFFFFFFFF11
:10240000FFFEFFDFFF7FFFFC3E0007FFFC007FFFBA
:10241000FFFFFFFFFEFFEFFEFFFFFE300007FFDEC6
:1024200000F7FFFFFFFFFFFEFFF7FDFFFFFE0000CD
:1024300007FF8FC7E3FFFFFFFFFFFEFFF8F3FFFF7C
:10244000FE00000FFF9FFFF3FFFFFFFFFFFEFFFFF8
:102450000FFFFFFF00000FFFBFCFFFFFFFFFFFFFDA
:10246000FEFFFFFFFFFFFFFFFFFFFFFFCFFFFFFFAD
:10247000FFFFFFFEFFFFFFFFFFFFFFFFFFFFFFCF9D
:10248000FFFFFFFFFFFFFEFFFFFFFFFFFFFFFFFF5D
:10249000FFFFFFFFFFFFFFFFFFFEFFFFFFFFFFFF4D
:1024A000FFFFFFFFFFFFFFFFFFFFFFFFFF7FFFFFBC
:1024B000FFFFFFFFFFFFFFFFFFFFFFFFFFFFFFFF2C
:1024C0007FFFFFFFFFFFFFFFFFFFFFFFFFFFFFFF9C
:1024D000FFFFFF7FFFFFFFFFFFFFFFFFFFFFFFFF8C
:1024E000FFFFFFFFFFFF7FFFFFFFFFFFFFFFFFFF7C
:1024F000FFFFFFFFFFFFFFFFFF7FFFFFFFFFFFFF6C
:10250000FFFFFFFFFFFFFFFFFFFFFFFF7FFFFFFF5B
:10251000FFFFFFFFFFFFFFFFFFFFFFFFFFFFFF7F4B
:10252000FFFFFFFFFFFFFFFFFFFFFFFFFFFFFFFFBB
:10253000C0000000000000FFFFFFFFFFFFFFFFFFE4
:10254000FFFFFFC0000000000000FFFFFFFFFFFFD4
:10255000FFFFFFFFFFFFC0000000000000FFFFFFC4
:10256000FFFFFFFFFFFFFFFFFFC0000000000000B4
:10257000FFFFFFFFFFFFFFFFFFFFFFFFE000000087
:10258000000000FFFFFFFFFFFFFFFFFFFFFFFFE077
:10259000000000000000FFFFFFFFFFFFFFFFFFFF45
:1025A000FFFFE0000000000000FFFFFFFFFFFFFF54
:1025B000FFFFFFFFFFE0000000000000FFFFFFFF44
:1025C000FFFFFFFFFFFFFFFFE0000000000000FF34
:1025D000FFFFFFFFFFFFFFFFFFFFFFE00000000026
:1025E0000000FFFFFFFFFFFFFFFFFFFFFFFFE00017
:1025F0000000000000FFFFFFFFFFFFFFFFFFFFFFE6
:10260000FFE0000000000000FFFFFFFFFFFFFFFFF3
:10261000FFFFFFFFE0000000000000FFFFFFFFFFE3
:10262000FFFFFFFFFFFFFFE0000000000000FFFFD3
:10263000FFFFFFFFFFFFFFFFFFFFF00000000000B4
:1026400000FFFFFFFFFFFFFFFFFFFFFFFFF00000A6
:1026500000000000FFFFFFFFFFFFFFFFFFFFFFFF86
:10266000F0000000000000FFFFFFFFFFFFFFFFFF83
:10267000FFFFFFF0000000000000FFFFFFFFFFFF73
:10268000FFFFFFFFFFFFF0000000000000FFFFFF63
:10269000FFFFFFFFFFFFFFFFFFF000000000000053
:1026A000FFFFFFFFFFFFFFFFFFFFFFFFF000000046
:1026B000000000FFFFFFFFFFFFFFFFFFFFFFFFF036
:1026C0000000000A0000FFFFFFFFFFFFFFFFFFFF0A
:1026D000FFFFF00000007FC000FFFFFFFFFFFFFFD4
:1026E000FFFFFFFFFFF0000001FFE000FFFFFFFF23
:1026F000FFFFFFFFFFFFFFFFF8000003FFF000FFF9
:10270000FFFFFFFFFFFFFFFFFFFFFFF8000003FFDA
:10271000FB00FFFFFFFFFFFFFFFFFFFFFFFFF800D2
:102720000007FFFF00FFFFFFFFFFFFFFFFFFFFFFAF
:10273000FFF800000FFFFE00FFFFFFFFFFFFFFFF9E
:10274000FFFFFFFFF800000FFFFE00FFFFFFFFFF8E
:10275000FFFFFFFFFFFFFFF800000FFFFE00FFFF7E
:10276000FFFFFFFFFFFFFFFFFFFFF800001FFFFE5F
:1027700000FFFFFFFFFFFFFFFFFFFFFFFFF800006D
:102780001FFFFE00FFFFFFFFFFFFFFFFFFFFFFFF39
:10279000F80000DFFFFE00FFFFFFFFFFFFFFFFFF6E
:1027A000FFFFFFF80001DFFFFE00FFFFFFFFFFFF5D
:1027B000FFFFFFFFFFFFFC0007DFFFFE00FFFFFF43
:1027C000FFFFFFFFFFFFFFFFFFFC000FCFFFFE003B
:1027D000FFFFFFFFFFFFFFFFFFFFFFFFFC000FEF0B
:1027E000FFFE00FFFFFFFFFFFFFFFFFFFFFFFFFCFC
:1027F000001FEFFFFC00FFFFFFFFFFFFFFFFFFFFDA
:10280000FFFFFC003FEFFFFC00FFFFFFFFFFFFFFAC
:10281000FFFFFFFFFFFC003FF7FFFC00FFFFFFFF94
:10282000FFFFFFFFFFFFFFFFFC003FFFFFF800FF80
:10283000FFFFFFFFFFFFFFFFFFFFFFFC007FFFFF2A
:10284000F000FFFFFFFFFFFFFFFFFFF9FFFFFC00AE
:102850007FFFFFE000FFFFFFFFFFFFFFFFFFF83FED
:10286000FFFC007FFFFFC000FFFFFFFFFFFFFFFF38
:10287000FFF80FFFFE007FFFFE0000FFFFFFFFFFDE
:10288000FFFFFFFFFC01FFFE007FFFFD0000FFFFD9
:10289000FFFFFFFFFFFFFFFF807FFE007FFFFF8046
:1028A00000FFFFFFFFFFFFFFFFFFFFF01FFE007FA6
:1028B000FFFF0000FFFFFFFFFFFFFFFFFFFFFE0F17
:1028C000FE007FFFFF0000FFFFFFFFFFFFFFFFFF96
:1028D000FFF007FE007FFFFF0000FFFFFFFFFFFF8D
:1028E000FFFFFFFF8003FE003FFFFF0000FFFFFF31
:1028F000FFFFFFFFFFFFFC01E1FE003FFFFF0000C5
:10290000FFFFFFFFFFFFFFFFFFF807F1FE003FFFA4
:10291000FF8000FFFFFFFFFFFFFFFFFFF83FF1FE1B
:10292000001FFFFF8000FFFFFFFFFFFFFFFFFFF81B
:10293000FFF1FE000FFFFDC000FFFFFFFFFFFFFFE5
:10294000FFFFFFFFF1FF000FFFF80000FFFFFFFF99
:10295000FFFFFFFFFFFFFFFFFF0007FFF00000FF8B
:10296000FFFFFFFFFFFFFFFFFFFFFFFF0001FFE093
:102970000000FFFFFFFFFFFFFFFFFFFE003FFF0024
:1029800000FF800000FFFFFFFFFFFFFFFFFFFC00D5
:102990003FFF000000000000FFFFFFFFFFFFFFFF01
:1029A000FFF8003FFF000000000000FFFFFFFFFFF7
:1029B000FFFFFFFFF8003FFF000000000000FFFFE7
:1029C000FFFFFFFFFFFFFFF8CC7FFF0000000000CC
:1029D00000FFFFFFFFFFFFFFFFFFF8CE3FFF0000FC
:1029E00000000000FFFFFFFFFFFFFFFFFFF8CE3FEB
:1029F000FF000000000000FFFFFFFFFFFFFFFFFFE1
:102A0000F8C63FFF800000000000FFFFFFFFFFFF50
:102A1000FFFFFFF8C03FFF800000000000FFFFFF46
:102A2000FFFFFFFFFFFFF8E03FFF80000000000016
:102A3000FFFFFFFFFFFFFFFFFFFC607FFF80000045
:102A4000000000FFFFFFFFFFFFFFFFFFFFF0FFFFA2
:102A5000800000F00000FFFFFFFFFFFFFFFFFFFF10
:102A6000FFFFFF8000036C0000FFFFFFFFFFFFFF81
:102A7000FFFFFFFFFFFF80000DFA0000FFFFFFFFD9
:102A8000FFFFFFFFFF00003FFF800017FD0000FF7A
:102A9000FFFFFFFFFFFFFFFF00003FFF80002FFE53
:102AA0008000FFFFFFFFFFFFFFFFFF00003FFF80F1
:102AB000005FFF4000FFFFFFFFFFFFFFFFFF000081
:102AC0003FFFC0007FFFC000FFFFFFFFFFFFFFFFD2
:102AD000FFF8FC7FFFC000BFFFA000FFFFFFFFFF6C
:102AE000FFFFFFFFF8FE7FFFC000FFFFE000FFFFDA
:102AF000FFFFFFFFFFFFFFF8FE3FFFC0017FFFD09A
:102B000000FFFFFFFFFFFFFFFFFFF8FE3FFFC001D9
:102B1000FFFFF000FFFFFFFFFFFFFFFFFFF87C3F1D
:102B2000FFC002FFFFE800FFFFFFFFFFFFFFFFFF07
:102B3000FC003FFFC003FFFFF800FFFFFFFFFFFFA8
:102B4000FFFFFFFC007FFFC005FFFFF400FFFFFF5A
:102B5000FFFFFFFFFFFFFE007FFFC007FFFFFC003E
:102B6000FFFFFFFFFFFFFFFFFFFF81FFFFC007FF2A
:102B7000FFFC00FFFFFFFFFFFFFFFFFFFFFFFFFF67
:102B8000E00BFFFFFC00FFFFFFFFFFFFFFFFFFFF6A
:102B9000FFFFFFE00FFFFFFA00FFFFFFFFFFFFFF58
:102BA000FFFFFE003FFFE00FFFFFFE00FFFFFFFF04
:102BB000FFFFFFFFFFFC003FFFE00FFFFFFE00FFF6
:102BC000FFFFFFFFFFFFFFFFF8003FFFE00FFFFFEA
:102BD000FE00FFFFFFFFFFFFFFFFFFF8003FFFE0EA
:102BE00017FFFFFD00FFFFFFFFFFFFFFFFFFF8FFE5
:102BF000FFFFE01FFFFFFF00FFFFFFFFFFFFFFFFE3
:102C0000FFF8FFFFFFE01FFFFFFF00FFFFFFFFFFD9
:102C1000FFFFFFFFF8FFFFFFE01FFFFFFF00FFFFC9
:102C2000FFFFFFFFFFFFFFFC3FFFFFE01FFFFFFF76
:102C300000FFFFFFFFFFFFFFFFFFF8003FFFF01F58
:102C4000FFFFFF00FFFFFFFFFFFFFFFFFFF8003F59
:102C5000FFF02FFFFFFF00FFFFFFFFFFFFFFFFFF62
:102C6000F8003FFFF03FFFFFFE80FFFFFFFFFFFF89
:102C7000FFFFFFF8003FFFF03FFFFFFF80FFFFFF78
:102C8000FFFFFFFFFFFFFFFFFFFFF03FFFFFFF80A2
:102C9000FFFFFFFFFFFFFFFFFFFFFFFFFFF03FFF13
:102CA000FFFF80FFFFFFFFFFFFFFFFFFFFFFFFFFB3
:102CB000F03FFFFFFF80FFFFFFFFFFFFFFFFFFF879
:102CC000003FFFF03FFFFFFF80FFFFFFFFFFFFFF21
:102CD000FFFFF8003FFFF03FFFFFFF80FFFFFFFF18
:102CE000FFFFFFFFFFF8003FFFF03FFFFFFF80FF08
:102CF000FFFFFFFFFFFFFFFFF8003FFFF03FFFFF79
:102D0000FF80FFFFFFFFFFFFFFFFFFFFF87FFFF8E0
:102D10003FFFFFFF80FFFFFFFFFFFFFFFFFFFFFE03
:102D20007FFFF83FFFFFFF80FFFFFFFFFFFFFFFF79
:102D3000FFFFFE3FFFF83FFFFFFF80FFFFFFFFFFAA
:102D4000FFFFFFFFFFFE3FFFF83FFFFFFF80FFFF9A
:102D5000FFFFFFFFFFFFFFF8003FFFF83FFFFFFF10
:102D600080FFFFFFFFFFFFFFFFFFF8003FFFF83F7F
:102D7000FFFFFF80FFFFFFFFFFFFFFFFFFF8007F68
:102D8000FFF83FFFFFFE80FFFFFFFFFFFFFFFFFF9A
:102D9000F800FFFFF82FFFFFFF00FFFFFFFFFFFF1F
:102DA000FFFFFFFFFFFFFFF81FFFFFFF00FFFFFF19
:102DB000FFFFFFFFFFFFFFFFFFFFF81FFFFFFF0009
:102DC000FFFFFFFFFFFFFFFFFFFFFFFFFFFC1FFFF6
:102DD000FFFF00FFFFFFFFFFFFFFFFFFFFFFFFFF02
:102DE000FC1FFFFFFF00FFFFFFFFFFFFFFFFFFFFD5
:102DF000E1FFFFFC1FFFFFFF00FFFFFFFFFFFFFFE3
:102E0000FFFFC780FFFFFC17FFFFFD00FFFFFFFF75
:102E1000FFFFFFFFFF8F807FFFFC0FFFFFFE00FF24
:102E2000FFFFFFFFFFFFFFFF8F007FFFFC0FFFFF94
:102E3000FE00FFFFFFFFFFFFFFFFFF8F0C3FFFFCC8
:102E40000FFFFFFE00FFFFFFFFFFFFFFFFFF8F1ED3
:102E50003FFFFC0FFFFFFA00FFFFFFFFFFFFFFFF39
:102E6000FF8E1E3FFFFC0BFFFFFC00FFFFFFFFFF7D
:102E7000FFFFFFFF861E3FFFFC07FFFFFC00FFFF79
:102E8000FFFFFFFFFFFFFF803E3FFFFE07FFFFF456
:102E900000FFFFFFFFFFFFFFFFFFC03E3FFFFE05FC
:102EA000FFFFF800FFFFFFFFFFFFFFFFFFC07C3FBA
:102EB000FFFE03FFFFF800FFFFFFFFFFFFFFFFFF25
:102EC000F0FC7FFFFE02FFFFE800FFFFFFFFFFFFB8
:102ED000FFFFFFFFFFFFFFFE01FFFFF000FFFFFF0F
:102EE000FFFFFFFFFFFFFFFFFFFFFE017FFFD0009F
:102EF000FFFFFFFFFFFFFFFFFFFFFFFFFFFE00FFE2
:102F0000FFE000FFFFFFFFFFFFFFFFFFFFFFFFFFEF
:102F1000FE00BFFFA000FFFFFFFFFFFFFFFFFFFF5F
:102F2000FFFFFFFE007FFFC000FFFFFFFFFFFFFF6F
:102F3000FFFFFFFFFFFFFE005FFF4000FFFFFFFFFF
:102F4000FFFFFFFFFFFFFFFFFFFF002FFE8000FFDF
:102F5000FFFFFFFFFFFFFFFFFFFFFFFFFF0017FD6A
:102F60000000FFFFFFFFFFFFFFFFFFFFFFFFFFFF6F
:102F7000000BFA0000FFFFFFFFFFFFFFFFFFFFFF57
:102F8000FFFFFF00076C0000FFFFFFFFFFFFFFFFD9
:102F9000FFFFFFFFFFFF0000F00000FFFFFFFFFF4C
:102FA000FFFFFFFFFFFFFFFFFF0000000000FFFF2C
:102FB000FFFFFFFFFFFFFFFFFFFFFFFF000000001D
:102FC00000FFFFFFFFFFFFFFFFFFFFFFFFFFFF000F
:102FD00000000000FFFFFFFFFFFFFFFFFFFFFFFFFD
:102FE000FFFF0000000000FFFFFFFFFFFFFFFFFFEC
:102FF000FFFFFFFFFF8000000000FFFFFFFFFFFF5C
:10300000FFFFFFFFFFFFFFFF8000000000FFFFFF4B
:10301000FFFFFFFFFFFFFFFFFFFFFF80000000003B
:10302000FFFFFFFFFFFFFFFFFFFFFFFFFFFF80002E
:10303000000000FFFFFFFFFFFFFFFFFFFFFFFFFF9D
:10304000FF8000000000FFFFFFFFFFFFFFFFFFFF0B
:10305000FFFFFFFF8000000000FFFFFFFFFFFFFFFB
:10306000FFFFFFFFFFFFFF80000000000E14010ABA
:1030700006040A0A0F03030C060A000E14010A468E
:10308000048A4A0F83430C860A040E14018A06043C
:103090008A4A0F83430C064A048E94018A06048AE6
:1030A0004A0F83430C060A048E94018A06048A4A56
:1030B0000F83430C060A04031D010108233737015F
:1030C000000000000000835D018148237777010044
:1030D0000000000000031D01010823373701000034
:1030E000000000000431000800000020380000004B
:1030F000281800083C31000838000020B8400000C3
:1031000038180008000000000000000000A24A0477
:10311000000801401000000000080140020000000B
:103120000008014004000000000801400800000001
:0C31300000000000000000000000000093
:0400000508000131BD
:00000001FF
