:020000040800F2
:10000000F8400020450100084B13000801130008C8
:10001000491300088D010008371B0008000000008C
:10002000000000000000000000000000751800083B
:100030008F01000800000000D5170008771800089D
:100040005F0100085F0100085F0100085F01000810
:100050005F0100085F0100085F0100085F01000800
:100060005F0100085F0100085F0100085F010008F0
:100070005F0100085F0100085F0100085F010008E0
:100080005F0100085F0100085F0100085F010008D0
:100090005F0100085F0100085F0100085F010008C0
:1000A0005F0100085F0100085F0100085F010008B0
:1000B0005F0100085F0100085F0100085F010008A0
:1000C0005F0100085F0100085F0100085F01000890
:1000D0005F0100085F0100085F0100085F01000880
:1000E0005F0100085F0100085F0100085F01000870
:1000F0005F0100085F0100085F0100085F01000860
:100100005F0100085F0100085F0100085F0100084F
:100110005F0100085F0100085F0100085F0100083F
:100120005F0100085F0100085F0100085F0100082F
:10013000DFF80CD000F018F800480047A11B0008B9
:10014000F84000200648804706480047FEE7FEE7E3
:10015000FEE7FEE7FEE7FEE7FEE7FEE7FEE7FEE777
:10016000ED18000831010008064C074D06E0E06874
:1001700040F0010394E8070098471034AC42F6D3EE
:10018000FFF7DAFFFC3700081C380008FEE770476D
:100190002DE9F04116460F00044618D0102100F05A
:1001A0009CF8022000F0BBF8002504E0795D2046B1
:1001B00000F09EF86D1C2069C11700EB5170616959
:1001C000C0104843A842F1DC022000F0A8F8CEB1EC
:1001D0001321204600F081F8022000F0A0F800254D
:1001E00004E0715D204600F083F86D1C2069C117A2
:1001F00000EB51706169C0104843A842F1DC022055
:1002000000F08DF81221204600F067F82046BDE886
:10021000F04100F078B810B50446012020600220BB
:1002200060600020A0600320E06068202061D4208E
:10023000606100F097F810B14FF0FF3010BD20461C
:1002400000F039F80621204600F047F81721204633
:1002500000F04EF81721204600F04AF817212046FA
:1002600000F046F80421204600F037F8204600F060
:100270004AF80021204600F030F88F21204600F097
:1002800037F85021204600F028F83721204600F0AA
:100290002FF86121204600F020F86821204600F068
:1002A00027F80021204600F023F8D421204600F052
:1002B0001FF8002010BD10B504460068002100F0B2
:1002C00041F8C82000F02BF80121206800F03AF82E
:1002D000BDE81040C82000F022B810B50C464068B8
:1002E000002100F02FF82046BDE8104000F052B881
:1002F00010B50C464068012100F024F82046BDE806
:10030000104000F047B810B5044602E0642000F049
:1003100006F8E06800F006F80028F7D010BD00F0FD
:1003200053B80000064A10B502EBC00152F8300085
:10033000898889B200F048F9012800D0002010BD5A
:1003400040000020064B012903EBC00253F83000A7
:10035000526891B202D0002200F03BB90122FBE7C3
:10036000400000200A480949D0E90023C1E90023E0
:10037000D0E90223C1E90223D0E90423C1E904231F
:10038000D0E90620C1E90620002070474000002087
:100390000400002031B50A4C0022A08881B22068F8
:1003A00000F017F94FF47A7301226946054800F00E
:1003B0001DFEA088012281B2206800F00AF938BD34
:1003C000400000206000002031B500F007F904462D
:1003D00000F004F90099001B8842F9D338BD0000F1
:1003E0002DE9F84FDFF8B8A100220AF1040B1446FA
:1003F00001274FF00F090BF1040E00BF0B6807FA3D
:1004000004F52B40AB4274D1DFF898C14E68A6EBDF
:100410000C0866452BD00DDC032E34D005DC36B33A
:10042000012E19D0022E2FD11BE0112E16D0122E24
:100430002AD119E0B8F5881F19D006DCB8F5803F3D
:1004400015D0B8F5801F1FD111E0B8F5001F0ED0F0
:10045000B8F5041F18D10AE0CA6815E0CA68121D71
:1004600012E0CA6808320FE0CA680C320CE08A68F1
:100470002AB1012A4FF0080203D0456104E00422AA
:1004800002E0056100E00022FF2B01D8064601E0F2
:1004900000F104064FEA840501D9A5F12005D6F83C
:1004A00000C009FA05F82CEA080C02FA05F54CEA36
:1004B000050CC6F800C04D68ED006AD53A4DAE692E
:1004C00046F00106AE61AD6924F0030605F00105B2
:1004D0000095364D06EB050CDCF80850A6074FEAF0
:1004E000167809FA08F6B543314EB04202D100261B
:1004F0001AE04EE02F4EB04201D1012614E02E4EFC
:10050000B04201D102260FE02C4EB04201D10326A9
:100510000AE02B4EB04201D1042605E0294EB0423C
:1005200001D1052600E0062606FA08F62E43CCF88F
:1005300008604D68DAF80060ED03554601D51E43AA
:1005400000E09E432E604D68AD0305D5DBF80060EA
:100550001E43CBF8006004E0DBF800509D43CBF86D
:1005600000504D68DEF80060ED02754601D51E436F
:1005700000E09E432E604D68AD0205D5084D0C3558
:100580002E681E432E6004E0054E0C3635689D43F0
:100590003560641C102CFFF431AFBDE8F88F00000B
:1005A0000004014000001110001002400000014052
:1005B00000080140000C01400010014000140140FF
:1005C00000180140001C01408068084000D0012054
:1005D00070470AB1016170470904FBE701480068F0
:1005E000704700003000002002480168491C01608B
:1005F0007047000030000020074810B5016841F046
:1006000010010160032000F07BF8002000F006F8E4
:1006100000F016F8002010BD0020024010B504467E
:1006200000F044F94FF47A71B0FBF1F000F08EFD68
:1006300000222146501E00F043F8002010BD0000AB
:100640001D4808B5816941F001018161806900F0B0
:1006500001000090032000F053F8002211466FF0D3
:100660000B0000F02DF8002211466FF00A0000F098
:1006700027F8002211466FF0090000F021F800224F
:100680001146501F00F01CF800221146101F00F008
:1006900017F800221146901E00F012F800221146B1
:1006A000501E00F00DF80548416821F0E06141F06E
:1006B0008061416008BD0000001002400000014060
:1006C000F0B40E4B1B680C46C3F30223C3F10705BD
:1006D000042D00D90425191D072901D2002300E0AB
:1006E000DB1E012606FA05F1491E214099409E4075
:1006F000761E16403143F0BC00F028BE0CED00E041
:10070000064900F0070208684FF6FF03184040EA68
:100710000220034A10430860704700000CED00E01F
:100720000000FA052DE9F047DFF8708105460E4616
:10073000D8F8000000F00700B0420CD2D8F8001042
:1007400021F007013143C8F80010D8F8000000F08C
:100750000700B04277D12878514C800705D56068F2
:10076000A96820F0F000084360602878C00759D0DD
:100770006968012001290DD0022929D05FF0020308
:1007800093FAA3F2B2FA82F242F02002520904D0A4
:10079000226803E04FF40033F2E7626A93FAA3F3AE
:1007A000B3FA83F303F01F03984002424BD0606812
:1007B00020F0030008436060FFF710FF69680746F8
:1007C00041F2883001290DD00229814617D025E059
:1007D0004FF00073D4E700BFFFF700FFC11B49458E
:1007E00001D918E081466068C0F381000128F3D187
:1007F00018E000BFFFF7F2FEC11B49450BD8606847
:10080000C0F381000228F5D10CE000BFFFF7E6FE3F
:10081000C11B494502D90320BDE8F087606810F08C
:100820000C0FF3D1D8F80010404601F00701B14297
:100830000BD9016821F0070131430160006800F025
:100840000700B04201D00120E6E72878400705D52F
:100850006068E96820F4E060084360602878000779
:1008600006D56068296920F4605040EAC1006060E4
:1008700000F052F86168F02292FAA2F201F0F00161
:10088000B2FA82F2D140074A515CC840064908607A
:100890000020FFF7C3FE0020BEE70000002002405A
:1008A00000100240E81D0008000000200148006818
:1008B00070470000000000200848094900684968A6
:1008C0004FF4E06292FAA2F201F4E061B2FA82F22D
:1008D000D140044A515CC84070470000000000202D
:1008E00000100240F81D00080848094900684968DE
:1008F0004FF4605292FAA2F201F46051B2FA82F21D
:10090000D140044A515CC8407047000000000020FC
:1009100000100240F81D000810B519A385B00FCBD8
:100920008DE80F001AA01B4B006804905A681A4803
:1009300002F00C0104291DD008291BD14FF47014BA
:1009400094FAA4F402F47011B4FA84F4E140D203EE
:100950001DF8011010D55A684FF4003393FAA3F331
:1009600002F40032B3FA83F3DA4004AB9A5CB0FBD2
:10097000F2F0484305B010BD08484843FAE70000CC
:1009800002030405060708090A0B0C0D0E0F1010D0
:10099000010200000010024000127A0000093D0030
:1009A0002DE9F84F04460078F74DC0074FF00106D7
:1009B00025D068687704C0F38100012807D06868F3
:1009C000C0F3810002281BD16868C00318D597FACC
:1009D000A7F0B0FA80F040F02000400901D028686C
:1009E00000E0686A97FAA7F1B1FA81F101F01F01FE
:1009F00006FA01F108425ED0606800287CD05AE017
:100A00006068B0F5803F0BD010B1B0F5A02F11D0C9
:100A1000286820F480302860286820F4802002E0D4
:100A2000286840F480302860606828B3FFF7D6FD5E
:100A300080460BE0286840F480202860F0E700BF83
:100A4000FFF7CCFDA0EB0800642871D897FAA7F057
:100A5000B0FA80F040F02000400901D0286800E0A2
:100A6000686A97FAA7F1B1FA81F101F01F0106FA5D
:100A700001F10842E4D01EE0FFF7B0FD804605E03A
:100A8000FFF7ACFDA0EB08006428DED897FAA7F0CA
:100A9000B0FA80F040F02000400901D0286800E062
:100AA000686A97FAA7F1B1FA81F101F01F0106FA1D
:100AB00001F10842E4D12078DFF8D08280074FF0BE
:100AC00000094FF002075BD568684FF0F80B10F093
:100AD0000C0F07D06868C0F3810002281CD1686839
:100AE000C00319D497FAA7F0B0FA80F040F02000C4
:100AF000400902D0286801E08BE0686A97FAA7F104
:100B0000B1FA81F101F01F0106FA01F108422CD07F
:100B1000206901287DD128E0206990B396FAA6F0DB
:100B2000B0FA80F048F82060FFF758FD824607E0F1
:100B300011E100BFFFF752FDA0EB0A00022884D8A4
:100B400097FAA7F0B0FA80F040F02000400901D0F9
:100B5000286800E0686A97FAA7F1B1FA81F101F01C
:100B60001F0106FA01F10842E4D028689BFAABF2B3
:100B70006169B2FA82F220F0F800914008432860DF
:100B800025E0FFE796FAA6F1B1FA81F148F8219045
:100B9000FFF724FD824605E0FFF720FDA0EB0A00E9
:100BA0000228CCD897FAA7F0B0FA80F040F02000E5
:100BB000400901D0286800E0686A97FAA7F1B1FA05
:100BC00081F101F01F0106FA01F10842E4D1207819
:100BD00000076ED5A069B8B396FAA6F0B0FA80F017
:100BE00008EB8000C0F88064FFF7F8FC824605E05F
:100BF000FFF7F4FCA0EB0A000228A0D897FAA7F0B0
:100C0000B0FA80F040F06000B6EB501F02D12868C7
:100C10000CE062E197FAA7F0B0FA80F040F06000D3
:100C2000B7EB501F01D1286A00E0686A97FAA7F174
:100C3000B1FA81F101F01F0106FA01F21042D7D09A
:100C40000120FFF7C1FB34E0FFE796FAA6F1B1FA05
:100C500081F108EB8101C1F88094FFF7BFFC824667
:100C600006E000BFFFF7BAFCA0EB0A00022872D82A
:100C700097FAA7F0B0FA80F040F06000B6EB501F92
:100C800001D128680BE097FAA7F0B0FA80F040F0A5
:100C90006000B7EB501F01D1286A00E0686A97FA3C
:100CA000A7F1B1FA81F101F01F0106FA01F2104239
:100CB000D8D12078400765D5E86940F08050E861D8
:100CC000E869DFF8CCB000F080500090DBF800104D
:100CD00041F48071CBF80010FFF780FC824605E0FC
:100CE000FFF77CFCA0EB0A00642834D8DBF8000096
:100CF000C005F5D5E06801280AD008B1052813D051
:100D0000286A20F001002862286A20F0040002E02E
:100D1000286A40F001002862E06841F2883B90B305
:100D2000FFF75CFC82460BE0286A40F00400286272
:100D3000EEE700BFFFF752FCA0EB0A0159450AD8C5
:100D400097FAA7F0B0FA80F040F04000B6EB501FE1
:100D500002D128680CE0A3E097FAA7F0B0FA80F07F
:100D600040F04000B7EB501F01D1286A00E0686AEC
:100D700097FAA7F1B1FA81F101F01F0206FA02F128
:100D80000842D7D031E005E00010024000004242A6
:100D900000700040FFF722FC824605E0FFF71EFCD2
:100DA000A0EB0A0159457BD897FAA7F0B0FA80F07A
:100DB00040F04000B6EB501F01D128680BE097FAD5
:100DC000A7F0B0FA80F040F04000B7EB501F01D11F
:100DD000286A00E0686A97FAA7F1B1FA81F101F098
:100DE0001F0206FA02F10842D8D1E06980B36968AF
:100DF000C1F38101022970D04FF080714F000228A9
:100E0000484609D091FAA1F1B1FA81F148F82100E0
:100E1000FFF7E4FB044669E08A4691FAA1F1B1FAD2
:100E200081F1C14648F82100FFF7D8FB804605E074
:100E3000FFF7D4FBA0EB0800022854D897FAA7F0DC
:100E4000B0FA80F040F02000400902D0286801E0AC
:100E500061E0686A97FAA7F1B1FA81F101F01F0128
:100E600006FA01F10842E3D1206AB0F5803F05D1CE
:100E70006868A16820F4003008436860D4E908017C
:100E80000843696821F47411084368609AFAAAF06B
:100E9000B0FA80F049F82060FFF7A0FB044606E0B6
:100EA00021E000BFFFF79AFB001B02281BD897FA2E
:100EB000A7F0B0FA80F040F02000400901D0286887
:100EC00000E0686A97FAA7F1B1FA81F101F01F0119
:100ED00006FA01F10842E5D01DE01EE0FFF77EFBB7
:100EE000001B022802D90320BDE8F88F97FAA7F06B
:100EF000B0FA80F040F02000400901D0286800E0FE
:100F0000686A97FAA7F1B1FA81F101F01F0106FAB8
:100F100001F10842E2D10020E6E70120E4E7000009
:100F200010B5040003D094F8510010B104E0012082
:100F300010BD204600F038F8022084F851002068E7
:100F4000016821F040010160D4E901010843D4E9BE
:100F500003121143084361690843218B01F40071B6
:100F60000843E1690843216A0843A16A08432168EC
:100F70000860A069042101EA1040616A0843216801
:100F800048602168E06A08612068C16921F4006155
:100F9000C1610449002008706065012084F8510097
:100FA000002010BD2C00002000B500680C4985B061
:100FB000884212D10B48816941F480518161806976
:100FC000694600F480500490A02000900220019017
:100FD000032003900448FFF703FA05B000BD0000AA
:100FE0000030014000100240000801402DE9F843A4
:100FF000044690F851009846012870D139B332B3B5
:1010000094F8500001286AD0012684F8506012201C
:1010100084F85100002565652163A286E286E564B7
:10102000A564A563A587E587A06A7703B84209D1BF
:101030002068016821F4005101602068016841F4D2
:1010400000510160A068B0F5004F03D007E0012017
:10105000BDE8F8832068016841F4804101602068A0
:101060000168490603D4016841F040010160E0686D
:101070000028606804D0D8B1E08E012818D021E0A3
:1010800010B1E08E012808D1206B411C216321683A
:101090000078C860E08E401EE0860004000C1FD07F
:1010A000434600220221204600F095FBA8B9EBE759
:1010B000206B21680088C860206B801C2063E08E54
:1010C000401EE0860004000C0AD0434600220221A4
:1010D000204600F080FB0028EAD00320B8E726E095
:1010E000A06AB84204D12068016841F480510160CF
:1010F000434600220221204600F06DFB30B94346F2
:1011000001228021204600F066FB20B1606D40F096
:1011100010006065E1E7A06818B92068C1688068C0
:10112000009084F8516084F85050002090E702202D
:101130008EE74FF0E0210428086903D020F0040076
:101140000861704740F00400FAE7704710B5401E90
:10115000B0F1807F01D3012010BD4FF0E024606129
:101160000F21601700F0F2F80020A0610720206135
:10117000002010BD10B5FFF7E8FF10BD70B50400EA
:1011800004D094F83900002510B106E0012070BDAC
:1011900084F83850204600F021F8022084F8390005
:1011A0002068C16821F40051C160204600F0C2FBF4
:1011B0002068016921F4904101612068416921F0B2
:1011C0002A0141612068C16841F40051C160E563B2
:1011D000012084F83900002070BD000010B50068BF
:1011E000114986B088421DD11048816941F480417F
:1011F000816180690E4C00F4804004904FF40070CF
:101200000090022001900320039069462046FFF7DA
:10121000E7F800212015CDE900010291694620463A
:10122000FFF7DEF806B010BD0038014000100240A4
:10123000000801402DE9F047044690F8390099462E
:101240000D46012801D0222858D12DB322B394F89D
:101250003800012852D0012684F838600027E7635F
:1012600094F8390022281AD05FF0120084F839006F
:10127000A284E2844FF48058E08C4B46401EE08408
:10128000A0684FF0000240454FF08001204613D186
:1012900000F008FC08BB04E00120BDE8F087322024
:1012A000E4E728882168C0F308004860206908B195
:1012B0006D1C08E0AD1C06E000F0F4FB68B9216885
:1012C00015F8010B4860E08C0028D5D14B46002270
:1012D0004021204600F0E6FB08B10320DDE794F84A
:1012E0003900322806D084F8396000BF84F838709D
:1012F0000020D2E7222084F83900F7E70220CCE76B
:10130000FEE700000F4810B50D4901604FF48271EF
:1013100041604FF4004181600021C1604FF40072D0
:101320000161C0E905123022C0E9072141628162F2
:101330000A21C162FFF7F4FD002800D0FEE710BDCE
:101340000030014060000020FEE770470907090EE9
:10135000002806DA00F00F0000F1E02080F8141DEC
:10136000704700F1E02080F800147047F0B50F4698
:10137000064600250CE0002406E03B4622462946AE
:10138000304600F081F9641CB068A042F5DC6D1CA9
:101390007068A842EFDCF0BD70B500291EDB45681F
:1013A0008D421BDD002A19DB8468944216DDCC17C0
:1013B00001EB547424F007040E1B02FB05110068B6
:1013C0004FEAE17201EB527100EBE10080240178F9
:1013D000F4400BB1214300E0A143017070BD000057
:1013E0002DE9FF4F93460D9DA888410700D00121AC
:1013F00001EBD000203BE9885843484329680E1888
:10140000002727E000244FF0800A0BEB0708DFF8E5
:10141000509017E0E01704EB507020F0070031788F
:10142000221A2AFA02F0014206D001984246011916
:101430000E9B009800F028F904EA0900072800D163
:10144000761C641CA888A042E4DC2879400700D000
:10145000761C7F1CE888B842D4DCBDE8FF8F000012
:10146000070000802DE9FF4F5D42022000EB45049C
:1014700000988846002641681746414535DD0098AA
:101480008068B84231DDBA19A8EB050191468B4658
:101490000D9B009800F0F8F808EB05014A468A46D3
:1014A0000D9B009800F0F0F8BA1B914651460D9B39
:1014B000009800F0E9F84A4659460D9B009800F064
:1014C000E3F82046B44208DC761C00EB4604641CBA
:1014D000F54202D1A84200DC0020A84203DD6D1CC9
:1014E00004EB4504641C002DCDDDBDE8FF8F2DE924
:1014F000FF4F82B05D42022000EB450402988B460C
:1015000000274168924659454ADD02988168514555
:1015100046DDABEB05010AEB0702009191460F9BFC
:10152000029800F0B1F80BEB05064A4631460F9BD6
:10153000029800F0A9F8AAEB0702904631460F9BEB
:10154000029800F0A1F842460F9B0099029800F023
:101550009BF80F9800900120A0EB45034A463146C6
:101560000193029800F046F80F980090DDE90130F1
:101570004246314600F03EF82046BC4208DC7F1C63
:1015800000EB4704641CFD4202D1A84200DC0020AD
:10159000A84203DD6D1C04EB4504641C002DB8DD7E
:1015A00006B0BDE8F08F00002DE9F8438146DDE983
:1015B00008088B4201DD0C4600E01C4600DD1946A0
:1015C0000D46904201DD164600E0064600DD02466B
:1015D000A2EB06070AE000BF07F1010332462146ED
:1015E0004846CDF8008000F0CFF8641CAC42F3DD33
:1015F000BDE8F8832DE9F041164680460C46CF1829
:10160000069D06E02B4632462146404600F03CF857
:10161000641CA742F6DCBDE8F0812DE9FF4F81B0E4
:101620000C460E9F1E461546181B00D5A01B814672
:101630004FF0FF31B44201DA012000E0084600908B
:10164000781B002800DDE81B8246BD4200DA01213C
:101650008B4609EB0A0810E02A4621460F9B0198A9
:1016600000F012F8BAEB480F02DC0098D0440444B2
:10167000B9EB480F01DBC8445D44B44201D0BD4220
:10168000EAD105B0BDE8F08F70B400291CDB4668D4
:101690008E4219DD002A17DB8568954214DDC46887
:1016A00044B1012C09D0022C0BD0032C0CD11446D0
:1016B0006A1A214670BCFFF76FBE0C46B11A22466B
:1016C000F8E7711AAA1AF5E770BC70472DE9F847D8
:1016D0008246DDE909058B4201DD0F4600E01F4629
:1016E00001DD1C4600E00C46904201DD164600E09C
:1016F000064600DD02469146A4EB070808F1010307
:101700003246394650460095FFF774FF08F1010351
:101710004A46394650460095FFF76CFFA9EB06088C
:1017200008F10103324639465046009500F02CF886
:1017300008F10103324621465046009500F024F896
:10174000BDE8F8872DE9FC479246DDE90A79804635
:101750001C4600260D460AE0CDE90079524629468E
:101760004046FFF73DFEB888641C0544761C23788C
:10177000002B07D0B888D8F8041006FB101189B2E6
:101780008142E9D2BDE8FC872DE9F0410E46804652
:101790001446D718069D06E02B46224631464046A1
:1017A000FFF772FF641CA742F6DCBDE8F08110B5BC
:1017B0000024C4600160510707D0D11702EB5171BA
:1017C00021F00701511A521A0832C0E9012310BD55
:1017D000C160704770472DE9F0471D4690460E46A0
:1017E0000446FEF7FBFE07465FEA08004FF00008DC
:1017F0004FF4005A4FF0010926D034E0681C23D082
:1018000025B1FEF7EBFEC01BA8421DD92068416838
:1018100021F0E00141602068016821F04001016091
:10182000A06A504509D12068016821F40051016087
:101830002068016841F40051016084F8519084F8F7
:1018400050800320BDE8F0872068806836EA0000F9
:10185000D4D10DE0681C06D0002DD7D0FEF7BEFE17
:10186000C01BA842D2D82068806836EA0000F1D0B8
:101870000020E7E7704710B5FEF7B6FEBDE8104060
:10188000FFF778BC30B58FB001210804CDE9001016
:101890000024029402250491CDE907504FF4E01092
:1018A00009906846FFF77CF800B1FEE70F20CDE90C
:1018B0000A054FF48060CDE90C4002210AA80E947D
:1018C000FEF730FF00B1FEE7FEF7F0FF4FF47A714C
:1018D000B0FBF1F0FFF73AFC0420FFF72AFC0022EE
:1018E0001146501EFEF7ECFE0FB030BD0D480168EA
:1018F00041F00101016041680B4A114041600168FB
:101900000A4A11400160016821F4802101604168A8
:1019100021F4FE0141604FF41F0181600449C003BE
:1019200008607047001002400000FFF8FFFFF6FE5D
:1019300008ED00E02DE9F041044600680169E26825
:1019400021F44051114301612169A0680843616994
:1019500008432168CA6841F20C639A430243CA6093
:1019600020684169A26921F44071114341614C49E9
:1019700020686425322688423CD1FEF7B5FF00EB93
:10198000C00101EB001061688900B0FBF1F7FEF7C0
:10199000ABFF00EBC00101EB00106168B0468900AD
:1019A000B0FBF1F0B0FBF5F06FF01801484307EB26
:1019B000800106EB0110B0FBF5F000F0F006FEF739
:1019C00093FF00EBC00101EB001061688900B0FBE0
:1019D000F1F0B0FBF5F006EB0016FEF785FF00EB2B
:1019E000C00101EB001061688900B0FBF1F7FEF760
:1019F0007BFF3BE0FEF760FF00EBC00101EB001056
:101A000061688900B0FBF1F7FEF756FF00EBC001FB
:101A100001EB00106168B0468900B0FBF1F0B0FB4B
:101A2000F5F06FF01801484307EB800106EB011059
:101A3000B0FBF5F000F0F006FEF73EFF00EBC00152
:101A400001EB001061688900B0FBF1F0B0FBF5F02C
:101A500006EB0016FEF730FF00EBC00101EB0010B3
:101A600061688900B0FBF1F7FEF726FF00EBC001CB
:101A700001EB001061688900B0FBF1F0B0FBF5F0FC
:101A80006FF01801484307EB800108EB0110B0FB31
:101A9000F5F0216800F00F0030448860BDE8F08167
:101AA000003801402DE9F0471D4690460E46044699
:101AB000FEF794FD07465FEA08004FF000094FF07B
:101AC000010808D030E0681C05D095B1FEF786FD0E
:101AD000C01BA8420DD82068006836EA0000F2D189
:101AE00027E0681C20D025B1FEF778FDC01BA84276
:101AF0001AD92068C16821F08001C1602068C168DE
:101B000021F02001C1602068C16821F48071C160AA
:101B10002068416921F00101416184F8398084F82D
:101B200038900320BDE8F0872068006836EA00009E
:101B3000D7D00020F6E7FEE7014A024900F013B8CB
:101B4000891B00083400002002E008C8121F08C1E9
:101B5000002AFAD170477047002001E001C1121F2E
:101B6000002AFBD170472DE9F04116460F46044686
:101B7000002503E03946B047641C6D1C207800281E
:101B8000F8D12846BDE8F08113B54FF6FF73012266
:101B900069460248FFF74EFB00981CBDB8000020C4
:101BA0002DE9F04140F6C42496B0204600F0E6F856
:101BB0008046204600F0E2F80746FEF71DFDFFF7DD
:101BC00061FE5948816941F0040181618069574E85
:101BD00000F004000090002216213046FEF7F9FCC8
:101BE00016200125CDE912050220159012A93046D4
:101BF000FEF7F6FB00240820CDE9120412A93046B6
:101C00001494FEF7EDFB4B48494901604FF4E13174
:101C1000C0E901140C21C460C0E904418461C461BD
:101C2000FFF7ACFA00B1FEE7FFF76CFB02A8FEF786
:101C3000F2FA38B140A0FFF77FFF16B04FF0FF3047
:101C4000BDE8F081DDE90623414608A8FFF7AFFDB6
:101C5000012108A8FFF78AFBDDE9062339460CA815
:101C6000FFF7A5FD01210CA8FFF780FB002108A8C4
:101C7000FFF7AEFD00210CA8FFF7AAFD6426CDE911
:101C8000006432233C220A2108A8FFF71FFDCDE99A
:101C9000006432233C220A2108A8FFF7BEFCCDE9EC
:101CA00000640A233C22322108A8FFF7B6FC502228
:101CB0000F23114608A80094FFF7D4FBB420CDE908
:101CC0000004322378220A210CA8FFF76DFC1A20A9
:101CD000CDE900048023062200210CA8FFF764FC54
:101CE0000F23962250210CA80094FFF700FC184EF9
:101CF000CDE9006417A31E22042108A8FFF722FDE6
:101D0000CDE9006517A30A2206210CA8FFF71AFDEA
:101D10003A46414602A8FEF73BFA164A164902A87F
:101D2000FEF736FAFEE7000000100240000801400E
:101D300000380140B8000020652D506170657220A8
:101D4000696E6974206661696C65640A0000000050
:101D500024000020652D50617065722044656D6F10
:101D60000000000048656C6C6F20776F726C642116
:101D700000000000C4280008001E0008F0B50B3069
:101D8000154D20F007010024144A0FE003688B4230
:101D90000BD38B4205D95E1A43184768C3E9006725
:101DA00000E04368136002C004E0021D10680028D0
:101DB000ECD12046002802D1286808B10020F0BDEF
:101DC000064A07481060074A121A22F00702C0E9C3
:101DD000002401202860D7E73C00002038000020C4
:101DE000FC000020F830002000000000000000008F
:101DF00001020304060708090000000001020304B1
:101E0000FFFFFFFFFFFFFFFFFFFFFFFFFFFFFFFFE2
:101E1000FFFFFFFFFFFFFFFFFFFFFFFFFFFFFFFFD2
:101E2000FFFFFFFFFFFFFFFFFFFFFFFFFFFFFFFFC2
:101E3000FFFFFFFFFFFFFFFFFFFFFFFFFFFFFFFFB2
:101E4000FFFFFFFFFFFFFFFFFFFFFFFFFFFFFFFFA2
:101E5000FFBFFFFFFFFFFFFFFFFFFFFFFFFFCFFF02
:101E6000FFFFFFFFFFFFFFFFFFFFFFE0FFFFFFFFA1
:101E7000FFFFFFFFFFFFFFFFF83FFFFFFFFFFFFF39
:101E8000FFFFFFFFFFFE0FFFFFFFFFFFFFFFFFFF53
:101E9000FFFFFF07FFFFFFFFFFFFFFFFFFE7FFFF62
:101EA000C3FFFFFFFFFFFFFFFFFFC7FFFFC03FFFB5
:101EB000FFFFFFFFFFFFFFE7FFFFE00FFFFFFFFF59
:101EC000FFFFFFFFE7FFFFF007FFFFFFFFFFFFFF41
:101ED000FFE7FFFFF807FFFFFFFFFFFFFFFFE7FF41
:101EE000FFFC03FFFFFFFFFFFFFFFFE7FFFFFE0118
:101EF000FFFFFFFFFFFFFFFFE7FFFFFF00FFFFFF09
:101F0000FFFFFFFFFFE7FFFFFF80FFFFFFFFFFFF78
:101F1000FFFFE7FFFFFFC0FFFFFFFFFFFFFFFFE740
:101F2000FFFFFFC0FFFFFFFFFFFFFFFFE7FFFFFF18
:101F3000E07FFFFFFFFFFFFFFFE7FFFFFFE07FFF07
:101F4000FFFFFFFFFFFFE7FFFFFFE07FFFFFFFFF58
:101F5000FFFFFFE7FFFFFFF07FFFFFFFFFFFFFFF38
:101F6000E7FFFFFFF07FFFFFFFFFFFFFFFE7FFFF40
:101F7000FFF07FDFFFFFFFFFFFFFE7FFFFFFF07FC7
:101F8000BFFFFFFFFFFFFFE7FFFFFFF07E7FFFFFC9
:101F9000FFFFFFFFE7FFFFFFF07E7FFFFFFFFFFF79
:101FA000FFE7FFFFFFF07CFFFFFFFFFFFFFFE7FF03
:101FB000FFFFF07DFFFFFFFFFFFFFFE7FFFC03E0F8
:101FC000FDFFFFFFFFFFFFFFE7FFF800E079FFFFE6
:101FD000FFFFFFFFFFE7FFF00060FFFFFFFFFFFFD6
:101FE000FFFFE7FFE00030F8001FFFFFFFFFFFE704
:101FF000FFC0601180001FFFFFFFFFFFE7FF003001
:102000001900001FFFFFFFFFFFE7FE402008000050
:10201000FFFFFFFFFFFFE7C1C00008007FFFFFFFDA
:10202000FFFFFFE780C0200800FFFFFFFFFFFFFF6B
:10203000E7004C200807FFFFFFFFFFFFFFE610044B
:1020400020001DFFFFFFFFFFFFFFE6100420407C84
:10205000FFF9FFFFFFFFFFE410000080FCFFE07FBF
:10206000FFFFFFFFE40C00030FFC7FE43FFFFFFFD7
:10207000FFE40E00C01FFC7FC01FFFFFFFFFE40B4B
:1020800083E00FFC7FC21FFFFFFFFFE60007F00F9A
:10209000FE7FC10FFFFFFFFFE60007F007FE7FC0D6
:1020A0008FFFFFFFFFE70007F003FE7FE07FFFFFEA
:1020B000FFFFE78003F301FE7FE01FFFFFFFFFE765
:1020C000C003E380FE7FF01FFFFFFFFFE7F800C0C3
:1020D000E0FC7FF087FFFFFFFFE7F700003CFC7F9D
:1020E000F083FFFFFFFFE7F9800018FCFFF081FF9E
:1020F000FFFFFFE79D800400FCFFF1C1FFFFFFFF32
:10210000E635010400FDFFF371FFFFFFFFE6620209
:102110000000FDFFE201FFFFFFFFE4C2020000FB41
:10212000FFE201FFFFFFFFE582020001F3FFE00194
:10213000FFFFFFFFE3010E0003F3FFE401FFFFFFDA
:10214000FFE60183007FE7FFC000FFFFFFFFE40120
:102150008100FFCFFFE0003FFFFFFFE0018000FFB5
:102160008FFFE0001FFFFFFFE003C001FF9FFFE0C4
:10217000011FFFFFFFE00FF801FFDFFFFC161FFF4D
:10218000FFFFE01FF0C7F83FFFF61F1FFFFFFFE054
:102190003FC06FF01FFFE2011FFFFFFFE07FC03F66
:1021A000C00FFFCC009FFFFFFFE0FFC01FC00FFF6D
:1021B000DE0019FFFFFFE0FF800F800FFF9F000090
:1021C000FFFFFFE1FF80400007FF9FFE00FFFFFFD2
:1021D000F3FF80C00007FFBFFF007FFFFFE7FFC0E6
:1021E000800007FFBFFF907FFFFFE7FFC780000F62
:1021F000FFBFFFD87FFFFFE7FFE0C0003FFF3FFFCB
:10220000E07FFFFFE7FFE0C0001FFF3FFFF0FFFFA1
:10221000FFE7FFF0208007FF3FFFFFFFFFFFE7FF23
:10222000E0300003FF7FFFFFFFFFFFE7FFC030400C
:1022300003FF3FFFFFFFFFFFE7FC40106003FF7F4E
:10224000FFFFFFFFFFE7E0C0183C07FE7FFFFFFF37
:10225000FFFFE787C008180FFC7FFFFFFFFFFFF7B6
:102260000FE008101FFCFFFFFFFFFFFFF67FFE0CD3
:102270001043F9FFFFFFFFFFFFF0FFF1041081F3B0
:10228000FFFFFFFFFFFFF1FFE1041181E3FFFFFF0D
:10229000FFFFFFF3FFC00611804FFFFFFFFFFFFFAF
:1022A000F3FFC00210007FFFFFFFFFFFFFF7FFC03B
:1022B0002210087FFFFFFFFFFFFFF7FFC03A300C3F
:1022C0007FFFFFFFFFFFFFF7FFC218000C7FFFFF3C
:1022D000FFFFFFFFF7FFC310001C7FFFFFFFFFFFA3
:1022E000FFF7FFC18000607FFFFFFFFFFFFFF7FFE9
:1022F00080C000C03FFFFFFFFFFFFFF7FF80C0016E
:10230000803FFFFFFFFFFFFFF7F0003000001FFFDF
:10231000FFFFFFFFFFF703E000E0001FFFFFFFFFED
:10232000FFFFF60FF001F0023FFFFFFFFFFFFFF09E
:10233000FFF803F83C3FFFFFFFFFFFFFF1E004075A
:10234000F8007FFFFFFFFFFFFFF3800207F800FFA9
:10235000FFFFFFFFFFFFF60FFE07F801FFFFFFFF84
:10236000FFFFFFF07FFC03F803BFFFFFFFFFFFFF4E
:10237000F1E01021F00327FFFFFFFFFFFFF307C08D
:10238000C0608191FFFFFFFFFFFFF03FC10000C170
:10239000D8FFFFFFFFFFFFF07F870400604C3FFF87
:1023A000FFFFFFFFF3FF860C00204F3FFFFFFFFF03
:1023B000FFF7FF801808100FFFFFFFFFFFFFF7FF79
:1023C000C01808080FFFFFFFFFFFFFF7FFC0104C0A
:1023D0000F1FFFFFFFFFFFFFF7004000440C3FFF10
:1023E000FFFFFFFFFFF000000C460C3FFFFFFFFF69
:1023F000FFFFF000301CC60C3FFFFFFFFFFFFFF1A7
:10240000FFF8F8C60C3FFFFFFFFFFFFFF0001C00C6
:10241000C60C3FFFFFFFFFFFFFF0000C00C3003FB3
:10242000FFFFFFFFFFFFF3801800C3003FFFFFFF28
:10243000FFFFFFF7FF7000C1003FFFFFFFFFFFFF3F
:10244000F7FFE000C3807FFFFFFFFFFFFFF3FFC048
:1024500000C70FFFFFFFFFFFFFFFF1FF8000C60770
:102460009FFFFFFFFFFFFFF07FC008C4030FFFFFC8
:10247000FFFFFFFFF00FC018C00347FFFFFFFFFF84
:10248000FFF3838020C00239FFFFFFFFFFFFF0E072
:10249000C000C0020C7FFFFFFFFFFFF01C40437035
:1024A000FC033FFFFFFFFFFFF00F20C231EC038F63
:1024B000FFFFFFFFFFF0039FC403FF00C7FFFFFF05
:1024C000FFFFF0006FE0073F8063FFFFFFFFFFF7B4
:1024D0000031E004FFC031FFFFFFFFFFF7E018F01D
:1024E00001FFF01CFFFFFFFFFFF7F80E300BFFF0BE
:1024F0000C7FFFFFFFFFF7FC07181FFFFC0F3FFFDC
:10250000FFFFFFF3FE071C3FFFFE079FFFFFFFFFDC
:10251000F3FF83CFFFFFFF038FFFFFFFFFF3FFC337
:10252000E7FFFFFF83E7FFFFFFFFF3FFC1F7FFFFB9
:10253000FF81E3FFFFFFFFF3FFE1F3FFFFFFC1F1C7
:10254000FFFFFFFFF3FFE0FBFFFFFFE0F9FFFFFFEF
:10255000FFF3FFF0F9FFFFFFF0FCFFFFFFFFF3FFCA
:10256000F8FDFFFFFFF8FEFFFFFFFFF3FFF87CFF22
:10257000FFFFFC7F7FFFFFFFF3FFFC7C7FFFFFFE81
:102580007F3FFFFFFFF3FFFC3E7FFFFFFF7FBFFFAB
:10259000FFFFF3FFFE3E3FFFFFFFFFDFFFFFFFF305
:1025A000FFFE3F3FFFFFFFFFCFFFFFFFF3FFFF3FB8
:1025B0003FF0FFFFFFEFFFFFFFF3FFFE3FBFF00322
:1025C000FFFFC7FFFFFFF3FFFE3FBFE001FFFFE795
:1025D000FFFFFFF3FFFF3F9FE000FFFFE7FFFFFF6D
:1025E000F3FFFF3FDFF0007FFFF3FFFFFFF3FFFF8D
:1025F0003FDFFB007FFFF3FFFFFFF3FFFF3FDFF055
:10260000007FFFFBFFFFFFF3FFFF7FDFC0103FFFF7
:10261000FBFFFFFFF3FFFFFFDFC0103FFFFBFFFFEC
:10262000FFF3FFFFFFDFC0101FFFFBFFFFFFF3FF04
:10263000FFFFDFC1F81FFFFBFFFFFFF3FFFFFFDF1F
:10264000C00C0FFFFBFFFFFFF3FFFFFFDFE0060300
:10265000FFF3FFFFFFF3FFFFFFDFE003001FF3FFC8
:10266000FFFFF3FFFFFFDFF801C003E7FFFFFFF30A
:10267000FFFFFFDFFC007F01E7FFFFFFF3FFFFFF2E
:10268000DFFC003FC0C7FFFFFFF3FFFFFFDFFC00E1
:102690000000EFFFFFFFF3FFFFFFDFFC000000DFA4
:1026A000FFFFFFF3FFFFFFDFFC000000DFFFFFFF86
:1026B000F3FFFFFF9FFE000000FFFFFFFFF3FFFFA0
:1026C000FF1FFF800000FFFFFFFFF3FFFFFE1FFF64
:1026D000E000001FFFFFFFF3FFFFFC1FFFF0000003
:1026E0001FFFFFFFF3FFFFFF9FFFF000181FFFFF1B
:1026F000FFF3FFFFFFDFFFF000301FFFFFFFF3FFDF
:10270000FFFFDFFFF183C03FFFFFFFF3FFFFFECFBF
:10271000FFE0FF013FFFFFFFF3FFFF84CFFF0070EB
:10272000011FFFFFFFF3FFFF0667FE0040023FFFB0
:10273000FFFFF3FFFE07E7FE0040063FFFFFFFFB42
:10274000FFFC03E1FE0040067FFFFFFFFBFFFC04F0
:1027500060FF00400CFFFFFFFFFBFFFE18307F8093
:102760000018FFFFFFFFFBFFE038363FC00019FFF6
:10277000FFFFFFFBFFC020331FF00031FFFFFFFF13
:10278000FBFFC0C8118FF80063FFFFFFFFFBFF8056
:10279000C0398FFC0063FFFFFFFFFBFFF98048C7D4
:1027A000FC0043FFFFFFFFFBFFBF06C407FC00C3A5
:1027B000FFFFFFFFFBFE03078607FC0C83FFFFFF05
:1027C000FFFBFE01078607FC1E83FFFFFFFFFBFCEC
:1027D00005079307FC1D81FFFFFFFFFBFC080FB1FE
:1027E00003FE23E1FFFFFFFFFBFFF8FF9923FFE755
:1027F00030FFFFFFFFFBFE00FFC091FF80107FFF57
:10280000FFFFFBFC00FFE098FF00007FFFFFFFFFE2
:10281000FC00FFE08C7F00007FFFFFFFFFFC21FF3B
:10282000F8807F00007FFFFFFFFFFC71FFFC807FCF
:102830000000FFFFFFFFFFFFFFFFFE403F8000FFA4
:10284000FFFFFFFFFFFFFFFFC03F8001FFFFFFFF14
:10285000FFFFFFFFFF803FE001FFFFFFFFFFFFFFE4
:10286000FFFFC07FFC01FFFFFFFFFFFFFFFFFFE057
:102870003FFC01FFFFFFFFFFFFFFFFFFF83FFC01F1
:10288000FFFFFFFFFFFFFFFFFFFFFFFC03FFFFFF57
:10289000FFFFFFFFFFFFFFFFFE07FFFFFFFFFFFF41
:1028A000FFFFFFFFFFFF9FFFFFFFFFFFFFFFFFFF98
:1028B000FFFFFFFFFFFFFFFFFFFFFFFFFFFFFFFF28
:1028C000FFFFFFFFFFFFFFFFFFFFFFFFFFFFFFFF18
:1028D000FFFFFFFFFFFFFFFFFFFFFFFFFFFFFFFF08
:1028E000FFFFFFFFFFFFFFFF1FFFFFFFFFFFFFFFD8
:1028F000FFFFFC7FFE3FFFFFFFFFFFFFFFFFFFF833
:102900003FFC3FFFFFFFFFFFFFFFFFFFC01FF03F48
:10291000FFFFFFFFFFFFFFFFFF800FC03FFFFFFF35
:10292000FFFFFFFFFFFF8047807FFFFFFFFFFFFFED
:10293000FFFFFF80021FFFFFFFFFFFFFFFFFFFFF03
:102940008386783FFFFFFFFFFFFFFFFFFF820CE062
:102950000FFFFFFFFFFFFFFFFFFF800C8003FFFF64
:10296000FFFFFFFFFFFFFF80050000FFFFFFFFFFEE
:10297000FFFFFFFFC6040000FFFFFFFFFFFFFFFF99
:10298000FFC0040001FFFFFFFFFFFFFFFFFFE004A8
:102990006001FFFFFFFFFFFFFFFFFFF0066001FF89
:1029A000FFFFFFFFFFFFFFFFFC0E0001FFFFFFFF28
:1029B000FFFFFFFFFFFFE22001FFFFFFFFFFFFFF21
:1029C000FFFFF0001003FFFFFFFFFFFFFFFFFFE02F
:1029D000800007FFFFFFFFFFFFFFFFFFF0801807EA
:1029E000FFFFFFFFFFFFFFFFFFF000801FFFFFFF64
:1029F000FFFFFFFFFFFFF0C0803C7FFFFFFFFFFFF7
:102A0000FFFFFFE0C07FF03FFFFFFFFFFFFFFFFF83
:102A1000E06040001FFFFFFFFFFFFFFFFFE03820E7
:102A2000000FFFFFFFFFFFFFFFFFE01C18001FFF6D
:102A3000FFFFFFFFFFFFFFFC030C0FFFFFFFFFFF88
:102A4000FFFFFFFFFF0603FFFFFFFFFFFFFFFFFF8B
:102A5000FFFFFC01FFFFFFFFFFFFFFFFFFFFFFF096
:102A6000C9FFFFFFFFFFFFFFFFFFFFFFC0CFFFFF1B
:102A7000FFFFFFFFFFFFFFFFFFC047FFFFFFFFFF5D
:102A8000FFFFFFFFFFFFE007FFFFFFFFFFFFFFFF6D
:102A9000FFFFFFE007FFFFFFFFFFFFFFFFFFFFFF5D
:102AA000F007FFFFFFFFFFFFFFFFFFFFFFF03FFF0C
:102AB000FFFFFFFFFFFFFFFFFFFFF9CFFFFFFFFF5C
:102AC000FFFFFFFFFFFFFFFFEFFFFFFFFFFFFFFF26
:102AD000FFFFFFFFFFFFFFFFFFFFFFFFFFFFFFFF06
:102AE000FFFFFFFFFFFFFFFFFFFFFFFFFFFFFFFFF6
:102AF000FFFFFFFFFFFFFFFFFFFFFFFFFFFFFFFFE6
:102B0000FFFFFFFFFFFFFFFFFFFFFFFFFFFFFFFFD5
:102D5000FFFFFF3FFFFFFFFFFFFFFFFFFFFFFFF052
:102D60003FFFFFFFFFFFFFFFFFFFFFFF801FFFFF92
:102D7000FFFFFFFFFFFFFFFFFF000FFFFFFFFFFF52
:102D8000FFFFFFFFFFFE000FFFFFFFFFFFFFFFFF43
:102D9000FFFFFE0007FFFFFFFFFFFFFFFFFFFFFE3C
:102DA0000007FFFFFFFFFFFFFFFFFFFFFE4E07FFD4
:102DB000FFFFFFFFFFFFFFFFFFFE0107FFFFFFFF1A
:102DC000FFFFFFFFFFFFFE0107FFFFFFFFFFFFFF0A
:102DD000FFFFFFFE000FFFFFFFFFFFFFFFFFFFFFF3
:102DE000FE00FFFFFFFFFFFFFFFFFFFFFFFE03FFF0
:102DF000FFFFFFFFFFFFFFFFFFFFFE1C01FFFFFFC5
:102E0000FFFFFFFFFFFFFFFE6800FFFFFFFFFFFF69
:102E1000FFFFFFFFF0C4007FFFFFFFFFFFFFFFFF8B
:102E2000FFF106003FFFFFFFFFFFFFFFFFFFE10392
:102E3000003FFFFFFFFFFFFFFFFFFFE201801FFFDB
:102E4000FFFFFFFFFFFFFFFFC1C08007FFFFFFFF86
:102E5000FFFFFFFFFFC070C00FFFFFFFFFFFFFFF7F
:102E6000FFFFE038001FFFFFFFFFFFFFFFFFFFE056
:102E70000C01FFFFFFFFFFFFFFFFFFFFC01FFF8FE2
:102E8000FFFFFFFFFFFFFFFFFF8070000FFFFFFF4F
:102E9000FFFFFFFFFFFF8100001FFFFFFFFFFFFF9E
:102EA000FFFFFFC100003FFFFFFFFFFFFFFFFFFF2E
:102EB000C00FC07FFFFFFFFFFFFFFFFFFFE00FC05E
:102EC000FFFFFFFFFFFFFFFFFFFFF0003FFFFFFFE0
:102ED000FFFFFFFFFFFFFFFA070FFFFFFFFFFFFFEF
:102EE000FFFFFFFFFE0707FFFFFFFFFFFFFFFFFFE3
:102EF000FFFF0803FFFFFFFFFFFFFFFFFFFFFF00D4
:102F000003FFFFFFFFFFFFFFFFFFFFFFC001FFFF0A
:102F1000FFFFFFFFFFFFFFFFFFE000FFFFFFFFFFDF
:102F2000FFFFFFFFFFFFF801FFFFFFFFFFFFFFFFB6
:102F3000FFFFFFFC07FFFFFFFFFFFFFFFFFFFFFF9C
:102F4000FFFFFFFFFFFFFFFFFFFFFFFFFFFFFFFF91
:102F5000FFFFFFFFFFFFFFFFFFFFFFFFFFFFFFFF81
:102F6000FFFFFFFFFFFFFFFFFFFFFFFFFFFFFFFF71
:102F7000FFFFFFFFFFFFFFFFFFFFFFFFFFFFFFFF61
:10338000FFFFFFFFFFFFFFFF000000000000000045
:1033900000000000001010101010000010000000CD
:1033A000006C4848000000000000000000141428D1
:1033B0007C287C285050000000103840403848706D
:1033C00010100000002050200C70081408000000AD
:1033D0000000001820205448340000000010101095
:1033E000100000000000000000080810101010106D
:1033F00010080800002020101010101010202000CD
:1034000000107C10282800000000000000001010B0
:1034100010FE101010000000000000000000001856
:103420001030200000000000007C000000000000C0
:10343000000000000000003030000000000404081C
:103440000810102020400000003844444444444404
:103450003800000000301010101010107C00000028
:1034600000384404081020447C0000000038440464
:103470001804044438000000000C141424447E0492
:103480000E000000003C20203804044438000000F6
:10349000001C20407844444438000000007C440470
:1034A0000808081010000000003844443844444420
:1034B0003800000000384444443C04087000000018
:1034C0000000003030000030300000000000001824
:1034D000180000183020000000000C106080601000
:1034E0000C000000000000007C007C0000000000D8
:1034F0000000C02018041820C0000000000018249C
:1035000004081000300000003844444C54544C402F
:10351000443800000030102828287C44EE000000C9
:1035200000F8444478444444F8000000003C44401F
:10353000404040443800000000F0484444444448BF
:10354000F000000000FC445070504044FC000000BB
:10355000007E22283828202070000000003C4440D3
:10356000404E44443800000000EE44447C4444444F
:10357000EE000000007C1010101010107C00000005
:10358000003C0808084848483000000000EE444865
:1035900050704844E60000000070202020202424C1
:1035A0007C00000000EE6C6C54544444EE000000BB
:1035B00000EE64645454544CEC0000000038444461
:1035C0004444444438000000007824242438202057
:1035D000700000000038444444444444381C000057
:1035E00000F8444444784844E200000000344C4071
:1035F000380404645800000000FE921010101010EF
:103600003800000000EE44444444444438000000C4
:1036100000EE4444282828101000000000EE444426
:10362000545454542800000000C644281010284464
:10363000C600000000EE44282810101038000000DA
:10364000007C4408101020447C000000003820203A
:1036500020202020202038000040202020101008AA
:10366000080800000038080808080808080838009A
:1036700000101028440000000000000000000000BE
:1036800000000000000000FE001008000000000024
:103690000000000000000038443C44443E000000AC
:1036A00000C0405864444444F80000000000003C5E
:1036B0004440404438000000000C04344C4444446E
:1036C0003E00000000000038447C40403C00000008
:1036D000001C207C202020207C0000000000003600
:1036E0004C4444443C04380000C0405864444444C2
:1036F000EE00000000100070101010107C000000A0
:1037000000100078080808080808700000C0405C35
:1037100048705048DC0000000030101010101010ED
:103720007C000000000000E854545454FE000000E7
:10373000000000D864444444EE000000000000385B
:103740004444444438000000000000D86444444429
:103750007840E000000000364C4444443C040E0035
:103760000000006C302020207C0000000000003CA5
:1037700044380444780000000000207C20202022EF
:103780001C000000000000CC4444444C3600000003
:10379000000000EE4444282810000000000000EE65
:1037A0004454545428000000000000CC48303048F5
:1037B000CC000000000000EE44242818101078000F
:1037C0000000007C481020447C000000000810101D
:1037D0001010201010100800001010101010101001
:1037E0001010000000201010101008101010200001
:1037F0000000000000245800000000001C380008F1
:103800000000002040000000481B00085C38000851
:1038100040000020B8400000581B000800A24A04E5
:1038200000080140100000000008014002000000F4
:1038300000080140040000000008014008000000EA
:103840008833000807000C000000000000000000A2
:0C3850000000000000000000000000006C
:0400000508000131BD
:00000001FF
