:020000040800F2
:10000000F85000204501000823140008D913000807
:10001000211400088D0100080B1C000800000000DE
:100020000000000000000000000000004919000866
:100030008F01000800000000A91800084B190008F3
:100040005F0100085F0100085F0100085F01000810
:100050005F0100085F0100085F0100085F01000800
:100060005F0100085F0100085F0100085F010008F0
:100070005F0100085F0100085F0100085F010008E0
:100080005F0100085F0100085F0100085F010008D0
:100090005F0100085F0100085F0100085F010008C0
:1000A0005F0100085F0100085F0100085F010008B0
:1000B0005F0100085F0100085F0100085F010008A0
:1000C0005F0100085F0100085F0100085F01000890
:1000D0005F0100085F0100085F0100085F01000880
:1000E0005F0100085F0100085F0100085F01000870
:1000F0005F0100085F0100085F0100085F01000860
:100100005F0100085F0100085F0100085F0100084F
:100110005F0100085F0100085F0100085F0100083F
:100120005F0100085F0100085F0100085F0100082F
:10013000DFF80CD000F018F800480047751C0008E4
:10014000F85000200648804706480047FEE7FEE7D3
:10015000FEE7FEE7FEE7FEE7FEE7FEE7FEE7FEE777
:10016000C119000831010008064C074D06E0E0689F
:1001700040F0010394E8070098471034AC42F6D3EE
:10018000FFF7DAFFC4740008E4740008FEE7704764
:100190002DE9F0410E460746612100F0C0F801212B
:1001A000384600F0C7F89021384600F0C3F8012126
:1001B000384600F0BFF82C21384600F0BBF8822109
:1001C000384600F0ACF81221384600F0B3F8502160
:1001D000384600F0A4F89721384600F0A0F8FEB1A8
:1001E0001021384600F09BF8002443F69825FF21A3
:1001F000384600F09FF8641CAC42F8DB022000F0A7
:10020000FBF81321384600F08AF800243846315DA7
:1002100000F090F8641CAC42F8DB022000F0ECF82F
:10022000384600F093F81221384600F078F8642040
:1002300000F0E2F83846BDE8F04100F0D1B810B562
:10024000044601202060022060600020A06003209E
:10025000E0604FF4C87020614FF49670606100F068
:10026000EDF810B14FF0FF3010BD204600F045F81A
:100270000121204600F053F80321204600F05AF8EF
:100280000021204600F056F82B21204600F052F8BD
:100290002B21204600F04EF8FF21204600F04AF8BE
:1002A0000621204600F03BF81721204600F042F8D6
:1002B0001721204600F03EF81721204600F03AF8BA
:1002C0000421204600F02BF8204600F089F8002198
:1002D000204600F024F8BF21204600F02BF80B2127
:1002E000204600F027F83021204600F018F83C2185
:1002F000204600F01FF8002010BD10B5044600682D
:10030000002100F08BF8C82000F076F80121206869
:1003100000F084F8BDE81040C82000F06DB810B5BA
:100320000C464068002100F079F82046BDE81040F6
:1003300000F09CB810B50C464068012100F06EF842
:100340002046BDE8104000F091B8000070B50546A9
:100350002021FFF7E4FF214E00242846315DFFF7FE
:10036000E9FF641C2C2CF8D321212846FFF7D7FF86
:100370001A4E00242C362846315DFFF7DBFF641C43
:100380002A2CF8D322212846FFF7C9FF134E002458
:1003900056362846315DFFF7CDFF641C2A2CF8D372
:1003A00023212846FFF7BBFF0C4E00248036284649
:1003B000315DFFF7BFFF641C2A2CF8D324212846A7
:1003C000FFF7ADFF054E0024AA362846315DFFF742
:1003D000B1FF641C2A2CF8D370BD0000A01E0008D9
:1003E00010B5044602E0642000F006F8E06800F072
:1003F00005F80028F7D010BD00F052B8064A10B535
:1004000002EBC00152F83000898889B200F048F947
:10041000012800D0002010BDD8000020064B012983
:1004200003EBC00253F83000526891B202D00022B0
:1004300000F03BB90122FBE7D80000200A48094937
:10044000D0E90023C1E90023D0E90223C1E9022356
:10045000D0E90423C1E90423D0E90620C1E906203C
:1004600000207047D80000200C00002031B50A4C55
:100470000022A08881B2206800F017F94FF47A7347
:1004800001226946054800F01DFEA088012281B2C4
:10049000206800F00AF938BDD80000204000002094
:1004A00031B500F007F9044600F004F90099001B8B
:1004B0008842F9D338BD00002DE9F84FDFF8B8A124
:1004C00000220AF1040B144601274FF00F090BF12B
:1004D000040E00BF0B6807FA04F52B40AB4274D141
:1004E000DFF898C14E68A6EB0C0866452BD00DDCF2
:1004F000032E34D005DC36B3012E19D0022E2FD1B5
:100500001BE0112E16D0122E2AD119E0B8F5881F43
:1005100019D006DCB8F5803F15D0B8F5801F1FD183
:1005200011E0B8F5001F0ED0B8F5041F18D10AE08D
:10053000CA6815E0CA68121D12E0CA6808320FE0E6
:10054000CA680C320CE08A682AB1012A4FF008020E
:1005500003D0456104E0042202E0056100E00022CE
:10056000FF2B01D8064601E000F104064FEA84059E
:1005700001D9A5F12005D6F800C009FA05F82CEA42
:10058000080C02FA05F54CEA050CC6F800C04D68E7
:10059000ED006AD53A4DAE6946F00106AE61AD692F
:1005A00024F0030605F001050095364D06EB050C19
:1005B000DCF80850A6074FEA167809FA08F6B543A2
:1005C000314EB04202D100261AE04EE02F4EB0422A
:1005D00001D1012614E02E4EB04201D102260FE0D7
:1005E0002C4EB04201D103260AE02B4EB04201D17D
:1005F000042605E0294EB04201D1052600E006267A
:1006000006FA08F62E43CCF808604D68DAF8006068
:10061000ED03554601D51E4300E09E432E604D6814
:10062000AD0305D5DBF800601E43CBF8006004E0A5
:10063000DBF800509D43CBF800504D68DEF80060B9
:10064000ED02754601D51E4300E09E432E604D68C5
:10065000AD0205D5084D0C352E681E432E6004E012
:10066000054E0C3635689D433560641C102CFFF434
:1006700031AFBDE8F88F0000000401400000111008
:10068000001002400000014000080140000C014041
:10069000001001400014014000180140001C0140FE
:1006A0008068084000D0012070470AB1016170479E
:1006B0000904FBE7014800687047000004000020BF
:1006C00002480168491C01607047000004000020D6
:1006D000074810B5016841F010010160032000F0E7
:1006E0007BF8002000F006F800F016F8002010BD9E
:1006F0000020024010B5044600F044F94FF47A712E
:10070000B0FBF1F000F08EFD00222146501E00F0FB
:1007100043F8002010BD00001D4808B5816941F074
:1007200001018161806900F001000090032000F068
:1007300053F8002211466FF00B0000F02DF8002254
:1007400011466FF00A0000F027F8002211466FF002
:10075000090000F021F800221146501F00F01CF89B
:1007600000221146101F00F017F800221146901EBB
:1007700000F012F800221146501E00F00DF8054856
:10078000416821F0E06141F08061416008BD0000F6
:100790000010024000000140F0B40E4B1B680C46F4
:1007A000C3F30223C3F10705042D00D90425191D45
:1007B000072901D2002300E0DB1E012606FA05F11D
:1007C000491E214099409E40761E16403143F0BCA0
:1007D00000F028BE0CED00E0064900F007020868B2
:1007E0004FF6FF03184040EA0220034A1043086016
:1007F000704700000CED00E00000FA052DE9F0471D
:10080000DFF8708105460E46D8F8000000F00700BA
:10081000B0420CD2D8F8001021F007013143C8F8DB
:100820000010D8F8000000F00700B04277D1287817
:10083000514C800705D56068A96820F0F000084396
:1008400060602878C00759D06968012001290DD05F
:10085000022929D05FF0020393FAA3F2B2FA82F2DE
:1008600042F02002520904D0226803E04FF4003322
:10087000F2E7626A93FAA3F3B3FA83F303F01F0378
:10088000984002424BD0606820F00300084360604B
:10089000FFF710FF6968074641F2883001290DD043
:1008A0000229814617D025E04FF00073D4E700BF3E
:1008B000FFF700FFC11B494501D918E08146606878
:1008C000C0F381000128F3D118E000BFFFF7F2FE6A
:1008D000C11B49450BD86068C0F381000228F5D1DF
:1008E0000CE000BFFFF7E6FEC11B494502D903201B
:1008F000BDE8F087606810F00C0FF3D1D8F8001055
:10090000404601F00701B1420BD9016821F007010F
:1009100031430160006800F00700B04201D00120BF
:10092000E6E72878400705D56068E96820F4E060CC
:10093000084360602878000706D56068296920F4BC
:10094000605040EAC100606000F052F86168F02237
:1009500092FAA2F201F0F001B2FA82F2D140074A13
:10096000515CC840064908600020FFF7C3FE002024
:10097000BEE700000020024000100240881E000870
:1009800008000020014800687047000008000020AF
:1009900008480949006849684FF4E06292FAA2F2F7
:1009A00001F4E061B2FA82F2D140044A515CC840DD
:1009B000704700000800002000100240981E000848
:1009C00008480949006849684FF4605292FAA2F257
:1009D00001F46051B2FA82F2D140044A515CC8403D
:1009E000704700000800002000100240981E000818
:1009F00010B519A385B00FCB8DE80F001AA01B4BC3
:100A0000006804905A681A4802F00C0104291DD0AD
:100A100008291BD14FF4701494FAA4F402F4701155
:100A2000B4FA84F4E140D2031DF8011010D55A68DD
:100A30004FF4003393FAA3F302F40032B3FA83F3D2
:100A4000DA4004AB9A5CB0FBF2F0484305B010BD4D
:100A500008484843FAE700000203040506070809AE
:100A60000A0B0C0D0E0F10100102000000100240C6
:100A700000127A0000093D002DE9F84F0446007885
:100A8000F74DC0074FF0010625D068687704C0F322
:100A90008100012807D06868C0F3810002281BD1BB
:100AA0006868C00318D597FAA7F0B0FA80F040F054
:100AB0002000400901D0286800E0686A97FAA7F191
:100AC000B1FA81F101F01F0106FA01F108425ED08E
:100AD000606800287CD05AE06068B0F5803F0BD099
:100AE00010B1B0F5A02F11D0286820F48030286014
:100AF000286820F4802002E0286840F480302860D4
:100B0000606828B3FFF7D6FD80460BE0286840F404
:100B100080202860F0E700BFFFF7CCFDA0EB0800C5
:100B2000642871D897FAA7F0B0FA80F040F020005E
:100B3000400901D0286800E0686A97FAA7F1B1FA85
:100B400081F101F01F0106FA01F10842E4D01EE034
:100B5000FFF7B0FD804605E0FFF7ACFDA0EB080015
:100B60006428DED897FAA7F0B0FA80F040F02000B1
:100B7000400901D0286800E0686A97FAA7F1B1FA45
:100B800081F101F01F0106FA01F10842E4D1207859
:100B9000DFF8D08280074FF000094FF002075BD5E5
:100BA00068684FF0F80B10F00C0F07D06868C0F3BE
:100BB000810002281CD16868C00319D497FAA7F0F5
:100BC000B0FA80F040F02000400902D0286801E02F
:100BD0008BE0686A97FAA7F1B1FA81F101F01F0181
:100BE00006FA01F108422CD0206901287DD128E0C5
:100BF000206990B396FAA6F0B0FA80F048F8206029
:100C0000FFF758FD824607E011E100BFFFF752FDF4
:100C1000A0EB0A00022884D897FAA7F0B0FA80F077
:100C200040F02000400901D0286800E0686A97FA87
:100C3000A7F1B1FA81F101F01F0106FA01F10842B2
:100C4000E4D028689BFAABF26169B2FA82F220F034
:100C5000F80091400843286025E0FFE796FAA6F1E6
:100C6000B1FA81F148F82190FFF724FD824605E0B2
:100C7000FFF720FDA0EB0A000228CCD897FAA7F0D6
:100C8000B0FA80F040F02000400901D0286800E070
:100C9000686A97FAA7F1B1FA81F101F01F0106FA2B
:100CA00001F10842E4D1207800076ED5A069B8B3FD
:100CB00096FAA6F0B0FA80F008EB8000C0F88064E5
:100CC000FFF7F8FC824605E0FFF7F4FCA0EB0A0012
:100CD0000228A0D897FAA7F0B0FA80F040F06000A0
:100CE000B6EB501F02D128680CE062E197FAA7F03A
:100CF000B0FA80F040F06000B7EB501F01D1286AD5
:100D000000E0686A97FAA7F1B1FA81F101F01F01DA
:100D100006FA01F21042D7D00120FFF7C1FB34E000
:100D2000FFE796FAA6F1B1FA81F108EB8101C1F86B
:100D30008094FFF7BFFC824606E000BFFFF7BAFCD5
:100D4000A0EB0A00022872D897FAA7F0B0FA80F058
:100D500040F06000B6EB501F01D128680BE097FA15
:100D6000A7F0B0FA80F040F06000B7EB501F01D15F
:100D7000286A00E0686A97FAA7F1B1FA81F101F0F8
:100D80001F0106FA01F21042D8D12078400765D53C
:100D9000E86940F08050E861E869DFF8CCB000F025
:100DA00080500090DBF8001041F48071CBF8001007
:100DB000FFF780FC824605E0FFF77CFCA0EB0A0011
:100DC000642834D8DBF80000C005F5D5E0680128B8
:100DD0000AD008B1052813D0286A20F00100286243
:100DE000286A20F0040002E0286A40F0010028622E
:100DF000E06841F2883B90B3FFF75CFC82460BE071
:100E0000286A40F004002862EEE700BFFFF752FCBA
:100E1000A0EB0A0159450AD897FAA7F0B0FA80F07A
:100E200040F04000B6EB501F02D128680CE0A3E070
:100E300097FAA7F0B0FA80F040F04000B7EB501FEF
:100E400001D1286A00E0686A97FAA7F1B1FA81F146
:100E500001F01F0206FA02F10842D7D031E005E0A6
:100E6000001002400000424200700040FFF722FCE8
:100E7000824605E0FFF71EFCA0EB0A0159457BD82E
:100E800097FAA7F0B0FA80F040F04000B6EB501FA0
:100E900001D128680BE097FAA7F0B0FA80F040F093
:100EA0004000B7EB501F01D1286A00E0686A97FA4A
:100EB000A7F1B1FA81F101F01F0206FA02F108422E
:100EC000D8D1E06980B36968C1F38101022970D08B
:100ED0004FF080714F000228484609D091FAA1F1E5
:100EE000B1FA81F148F82100FFF7E4FB044669E01C
:100EF0008A4691FAA1F1B1FA81F1C14648F8210080
:100F0000FFF7D8FB804605E0FFF7D4FBA0EB080015
:100F1000022854D897FAA7F0B0FA80F040F02000E9
:100F2000400902D0286801E061E0686A97FAA7F1F9
:100F3000B1FA81F101F01F0106FA01F10842E3D193
:100F4000206AB0F5803F05D16868A16820F40030C0
:100F500008436860D4E908010843696821F4741102
:100F6000084368609AFAAAF0B0FA80F049F8206065
:100F7000FFF7A0FB044606E021E000BFFFF79AFB65
:100F8000001B02281BD897FAA7F0B0FA80F040F0B7
:100F90002000400901D0286800E0686A97FAA7F1AC
:100FA000B1FA81F101F01F0106FA01F10842E5D022
:100FB0001DE01EE0FFF77EFB001B022802D9032084
:100FC000BDE8F88F97FAA7F0B0FA80F040F0200063
:100FD000400901D0286800E0686A97FAA7F1B1FAE1
:100FE00081F101F01F0106FA01F10842E2D100206F
:100FF000E6E70120E4E7000010B5040003D094F810
:10100000510010B104E0012010BD204600F038F876
:10101000022084F851002068016821F0400101603D
:10102000D4E901010843D4E903121143084361697B
:101030000843218B01F400710843E1690843216AE8
:101040000843A16A084321680860A069042101EAF5
:101050001040616A0843216848602168E06A0861BD
:101060002068C16921F40061C16104490020087051
:101070006065012084F85100002010BD00000020B0
:1010800000B500680C4985B0884212D10B488169CF
:1010900041F4805181618069694600F48050049078
:1010A000A020009002200190032003900448FFF745
:1010B00003FA05B000BD00000030014000100240FE
:1010C000000801402DE9F843044690F85100984685
:1010D000012870D139B332B394F8500001286AD096
:1010E000012684F85060122084F8510000256565BF
:1010F0002163A286E286E564A564A563A587E587EA
:10110000A06A7703B84209D12068016821F4005130
:1011100001602068016841F400510160A068B0F5E9
:10112000004F03D007E00120BDE8F8832068016884
:1011300041F48041016020680168490603D40168D8
:1011400041F040010160E0680028606804D0D8B137
:10115000E08E012818D021E010B1E08E012808D1DE
:10116000206B411C216321680078C860E08E401E1E
:10117000E0860004000C1FD04346002202212046D6
:1011800000F093FBA8B9EBE7206B21680088C860EA
:10119000206B801C2063E08E401EE0860004000C63
:1011A0000AD0434600220221204600F07EFB0028A0
:1011B000EAD00320B8E726E0A06AB84204D120684C
:1011C000016841F48051016043460022022120461B
:1011D00000F06BFB30B9434601228021204600F02D
:1011E00064FB20B1606D40F010006065E1E7A0682D
:1011F00018B92068C1688068009084F8516084F84C
:101200005050002090E702208EE74FF0E0210428A4
:10121000086903D020F004000861704740F0040022
:10122000FAE7704710B5401EB0F1807F01D301206E
:1012300010BD4FF0E02460610F21601700F0F2F85C
:101240000020A06107202061002010BD10B5FFF72D
:10125000E8FF10BD70B5040004D094F839000025F3
:1012600010B106E0012070BD84F83850204600F02F
:1012700021F8022084F839002068C16821F4005167
:10128000C160204600F0C0FB2068016921F4904154
:1012900001612068416921F02A0141612068C1682B
:1012A00041F40051C160E563012084F83900002059
:1012B00070BD000010B50068114986B088421DD18C
:1012C0001048816941F48041816180690E4C00F4CD
:1012D000804004904FF400700090022001900320A1
:1012E000039069462046FFF7E7F800212015CDE975
:1012F0000001029169462046FFF7DEF806B010BDF6
:101300000038014000100240000801402DE9F0477C
:10131000044690F8390099460D46012801D022284C
:1013200058D12DB322B394F83800012852D00126A9
:1013300084F838600027E76394F8390022281AD02F
:101340005FF0120084F83900A284E2844FF48058E0
:10135000E08C4B46401EE084A0684FF00002404500
:101360004FF08001204613D100F006FC08BB04E0DA
:101370000120BDE8F0873220E4E728882168C0F327
:1013800008004860206908B16D1C08E0AD1C06E04B
:1013900000F0F2FB68B9216815F8010B4860E08C99
:1013A0000028D5D14B4600224021204600F0E4FB26
:1013B00008B10320DDE794F83900322806D084F81C
:1013C000396000BF84F838700020D2E7222084F80A
:1013D0003900F7E70220CCE7FEE700000F4810B520
:1013E0000D4901604FF4827141604FF4004181600A
:1013F0000021C1604FF400720161C0E90512302282
:10140000C0E90721416281620A21C162FFF7F4FD50
:10141000002800D0FEE710BD003001404000002051
:10142000FEE770470907090E002806DA00F00F00F2
:1014300000F1E02080F8141D704700F1E02080F8F2
:1014400000147047F0B50F46064600250CE0002456
:1014500006E03B4622462946304600F081F9641CEE
:10146000B068A042F5DC6D1C7068A842EFDCF0BDEE
:1014700070B500291EDB45688D421BDD002A19DB93
:101480008468944216DDCC1701EB547424F00704F1
:101490000E1B02FB051100684FEAE17201EB52716D
:1014A00000EBE10080240178F4400BB1A14300E09F
:1014B0002143017070BD00002DE9FF4F93460D9D43
:1014C000A888410700D0012101EBD000203BE9882A
:1014D0005843484329680E18002727E000244FF09E
:1014E000800A0BEB0708DFF8509017E0E01704EBD9
:1014F000507020F007003178221A2AFA02F00142D7
:1015000006D00198424601190E9B009800F028F978
:1015100004EA0900072800D1761C641CA888A042B0
:10152000E4DC2879400700D0761C7F1CE888B842AC
:10153000D4DCBDE8FF8F0000070000802DE9FF4FDD
:101540005D42022000EB4504009888460026416871
:101550001746414535DD00988068B84231DDBA193B
:10156000A8EB050191468B460D9B009800F0F8F81A
:1015700008EB05014A468A460D9B009800F0F0F8FA
:10158000BA1B914651460D9B009800F0E9F84A4677
:1015900059460D9B009800F0E3F82046B44208DC61
:1015A000761C00EB4604641CF54202D1A84200DC24
:1015B0000020A84203DD6D1C04EB4504641C002DD3
:1015C000CDDDBDE8FF8F2DE9FF4F82B05D420220E7
:1015D00000EB450402988B46002741689246594526
:1015E0004ADD02988168514546DDABEB05010AEB07
:1015F0000702009191460F9B029800F0B1F80BEBA7
:1016000005064A4631460F9B029800F0A9F8AAEB5E
:101610000702904631460F9B029800F0A1F842461F
:101620000F9B0099029800F09BF80F980090012002
:10163000A0EB45034A4631460193029800F046F874
:101640000F980090DDE901304246314600F03EF847
:101650002046BC4208DC7F1C00EB4704641CFD42B2
:1016600002D1A84200DC0020A84203DD6D1C04EB7F
:101670004504641C002DB8DD06B0BDE8F08F000005
:101680002DE9F8438146DDE908088B4201DD0C466F
:1016900000E01C4600DD19460D46904201DD16466D
:1016A00000E0064600DD0246A2EB06070AE000BFA6
:1016B00007F10103324621464846CDF8008000F08C
:1016C000CFF8641CAC42F3DDBDE8F8832DE9F041AE
:1016D000164680460C46CF18069D06E02B4632463D
:1016E0002146404600F03CF8641CA742F6DCBDE809
:1016F000F0812DE9FF4F81B00C460E9F1E46154626
:10170000181B00D5A01B81464FF0FF31B44201DA0F
:10171000012000E008460090781B002800DDE81B4F
:101720008246BD4200DA01218B4609EB0A0810E02F
:101730002A4621460F9B019800F012F8BAEB480F99
:1017400002DC0098D0440444B9EB480F01DBC844E4
:101750005D44B44201D0BD42EAD105B0BDE8F08F8E
:1017600070B400291CDB46688E4219DD002A17DBA5
:101770008568954214DDC46844B1012C09D0022C5F
:101780000BD0032C0CD114466A1A214670BCFFF70B
:101790006FBE0C46B11A2246F8E7711AAA1AF5E78D
:1017A00070BC70472DE9F8478246DDE909058B4298
:1017B00001DD0F4600E01F4601DD1C4600E00C463F
:1017C000904201DD164600E0064600DD02469146E5
:1017D000A4EB070808F1010332463946504600954C
:1017E000FFF774FF08F101034A4639465046009559
:1017F000FFF76CFFA9EB060808F1010332463946F2
:101800005046009500F02CF808F1010332462146BD
:101810005046009500F024F8BDE8F8872DE9FC4714
:101820009246DDE90A7980461C4600260D460AE00C
:10183000CDE90079524629464046FFF73DFEB8887B
:10184000641C0544761C2378002B07D0B888D8F890
:10185000041006FB101189B28142E9D2BDE8FC8771
:101860002DE9F0410E4680461446D718069D06E045
:101870002B46224631464046FFF772FF641CA742C2
:10188000F6DCBDE8F08110B50024C46001605107AA
:1018900007D0D11702EB517121F00701511A521AEA
:1018A0000832C0E9012310BD70472DE9F0471D46FD
:1018B00090460E460446FEF7FDFE07465FEA080026
:1018C0004FF000084FF4005A4FF0010926D034E0E1
:1018D000681C23D025B1FEF7EDFEC01BA8421DD920
:1018E0002068416821F0E00141602068016821F032
:1018F00040010160A06A504509D12068016821F4C7
:10190000005101602068016841F40051016084F8D1
:10191000519084F850800320BDE8F08720688068EB
:1019200036EA0000D4D10DE0681C06D0002DD7D0D7
:10193000FEF7C0FEC01BA842D2D82068806836EAF5
:101940000000F1D00020E7E7704710B5FEF7B8FEC1
:10195000BDE81040FFF77ABC30B58FB00121080414
:10196000CDE900100024029402250491CDE907502E
:101970004FF4E01009906846FFF77EF800B1FEE7EB
:101980000F20CDE90A054FF48060CDE90C4002211B
:101990000AA80E94FEF732FF00B1FEE7FEF7F2FF51
:1019A0004FF47A71B0FBF1F0FFF73CFC0420FFF735
:1019B0002CFC00221146501EFEF7EEFE0FB030BD8B
:1019C0000D48016841F00101016041680B4A114076
:1019D000416001680A4A11400160016821F48021D8
:1019E0000160416821F4FE0141604FF41F018160F4
:1019F0000449C00308607047001002400000FFF86F
:101A0000FFFFF6FE08ED00E02DE9F0410446006816
:101A10000169E26821F44051114301612169A06824
:101A20000843616908432168CA6841F20C639A431C
:101A30000243CA6020684169A26921F440711143E0
:101A400041614C4920686425322688423CD1FEF72A
:101A5000B7FF00EBC00101EB001061688900B0FB2B
:101A6000F1F7FEF7ADFF00EBC00101EB001061687C
:101A7000B0468900B0FBF1F0B0FBF5F06FF0180153
:101A8000484307EB800106EB0110B0FBF5F000F0D6
:101A9000F006FEF795FF00EBC00101EB0010616856
:101AA0008900B0FBF1F0B0FBF5F006EB0016FEF795
:101AB00087FF00EBC00101EB001061688900B0FBFB
:101AC000F1F7FEF77DFF3BE0FEF762FF00EBC001A0
:101AD00001EB001061688900B0FBF1F7FEF758FFD9
:101AE00000EBC00101EB00106168B0468900B0FB5B
:101AF000F1F0B0FBF5F06FF01801484307EB8001FF
:101B000006EB0110B0FBF5F000F0F006FEF740FF29
:101B100000EBC00101EB001061688900B0FBF1F03F
:101B2000B0FBF5F006EB0016FEF732FF00EBC0014C
:101B300001EB001061688900B0FBF1F7FEF728FFA8
:101B400000EBC00101EB001061688900B0FBF1F00F
:101B5000B0FBF5F06FF01801484307EB800108EB8C
:101B60000110B0FBF5F0216800F00F0030448860F0
:101B7000BDE8F081003801402DE9F0471D46904650
:101B80000E460446FEF796FD07465FEA08004FF052
:101B900000094FF0010808D030E0681C05D095B16D
:101BA000FEF788FDC01BA8420DD82068006836EA01
:101BB0000000F2D127E0681C20D025B1FEF77AFDA5
:101BC000C01BA8421AD92068C16821F08001C160F9
:101BD0002068C16821F02001C1602068C16821F43B
:101BE0008071C1602068416921F00101416184F880
:101BF000398084F838900320BDE8F08720680068B9
:101C000036EA0000D7D00020F6E7FEE7014A024995
:101C100000F013B85D1C00083400002002E008C882
:101C2000121F08C1002AFAD170477047002001E056
:101C300001C1121F002AFBD170472DE9F041164661
:101C40000F460446002503E03946B047641C6D1C6E
:101C500020780028F8D12846BDE8F08113B54FF66A
:101C6000FF73012269460248FFF750FB00981CBD34
:101C700098000020F0B591B043F6982000F0CEF81F
:101C80000746FEF725FDFFF767FE5048816941F0E2
:101C90000401816180694E4E00F004000090002232
:101CA00016213046FEF701FD16200125CDE90C0571
:101CB00002200F900CA93046FEF7FEFB00240820FE
:101CC000CDE90C040CA930460E94FEF7F5FB424812
:101CD000404901604FF4E131C0E901140C21C460B6
:101CE000C0E904418461C461FFF7B4FA00B1FEE7C2
:101CF000FFF774FB02A8FEF7A2FA30B137A0FFF796
:101D000085FF11B04FF0FF30F0BDDDE90623394605
:101D100008A8FFF7B8FD002108A8FFF793FB4FF4D0
:101D20008C76CDE90065B4235022142108A8FFF772
:101D300039FDCDE90065B4235022142108A8FFF72E
:101D4000D8FCCDE9006514235022B42108A8FFF780
:101D5000D0FCCDE900654FF4B4735022C82108A827
:101D6000FFF78EFC3C23A0224FF4967108A8009444
:101D7000FFF7E4FB1E23D2225A2108A80095FFF7A3
:101D800022FC1E20CDE900054FF4C8730622002175
:101D900008A8FFF775FC174ECDE9006416A30A22C8
:101DA000642108A8FFF73AFDCDE9006516A32822B3
:101DB000642108A8FFF732FD394602A8FEF7E8F9CA
:101DC000154902A8FEF7E4F9FEE700000010024002
:101DD000000801400038014098000020652D506146
:101DE00070657220696E6974206661696C65640A49
:101DF000000000002C00002048656C6C6F20776F9D
:101E0000726C642100000000652D506170657220C5
:101E100044656D6F00000000741F0008F0B50B30C2
:101E2000154D20F007010024144A0FE003688B428F
:101E30000BD38B4205D95E1A43184768C3E9006784
:101E400000E04368136002C004E0021D106800282F
:101E5000ECD12046002802D1286808B10020F0BD4E
:101E6000064A07481060074A121A22F00702C0E922
:101E7000002401202860D7E73C0000203800002023
:101E8000FC000020F84000200000000000000000DE
:101E90000102030406070809000000000102030410
:101EA000001700000002001717000002000A0100DE
:101EB0000001000E0E000002000000000000000003
:101EC00000000000000000000000000040170000BB
:101ED0000002901717000002400A01000001A00E46
:101EE0000E000002000000000000000000000000E2
:101EF00000000000000040170000000290171700CB
:101F00000002400A01000001A00E0E0000020000C5
:101F100000000000000000000000000000000000C1
:101F2000801700000002901717000002800A0100CD
:101F30000001500E0E000002000000000000000032
:101F400000000000000000000000801700000002F8
:101F5000901717000002800A01000001500E0E00C9
:101F6000000200000000000000000000000000006F
:101F700000000000FFFFFFFFFFFFFFFFFFFFFFFF6D
:101F8000FFFFFFFFFFFFFFFFFFFFFFFFFFFFFFFF61
:101F9000FFFFFFFFFFFFFFFFFFFFFFFFFFFFFFFF51
:101FA000FFFFFFFFFFFFFFFFFFFFFFFFFFFFFFFF41
:101FB000FFFFFFFFFFFFFFFFFFFFFFFFFFFFFFFF31
:10219000F7FFFFFFFFFFFFFFFFFFFFFFFFFFFFFF57
:1021A000FFFFFFFFFFFFFFFFFFFFFFFFFFFFFFFF3F
:1021B000FFFFFFFFFFFFFFFFFFFFFFFFFFFFFFFF2F
:1021C000FFFFC3FFFFFFFFFFFFFFFFFFFFFFFFFF5B
:1021D000FFFFFFFFFFFFFFFFFFFFFFFFFFFFFFFF0F
:1021E000FFFFFFFFFFFFFFFFFFFFFFFFFFFFFFFFFF
:1021F000FFFFFFFE07FFFFFFFFFFFFFFFFFFFFFFE8
:10220000FFFFFFFFFFFFFFFFFFFFFFFFFFFFFFFFDE
:10221000FFFFFFFFFFFFFFFFFFFFFFFFFFFFFFFFCE
:10222000FFFFFFFFFFF007FFFFFFFFFFFFFFFFFFC5
:10223000FFFFFFFFFFFFFFFFFFFFFFFFFFFFFFFFAE
:10224000FFFFFFFFFFFFFFFFFFFFFFFFFFFFFFFF9E
:10225000FFFFFFFFFFFFFFC007FFFFFFFFFFFFFFC5
:10226000FFFFFFFFFFFFFFFFFFFFFFFFFFFFFFFF7E
:10227000FFFFFFFFFFFFFFFFFFFFFFFFFFFFFFFF6E
:10228000FFFFFFFFFFFFFFFFFE0007FFFFFFFFFF56
:10229000FFFFFFFFFFFFFFFFFFFFFFFFFFFFFFFF4E
:1022A000FFFFFFFFFFFFFFFFFFFFFFFFFFFFFFFF3E
:1022B000FFFFFFFFFFFFFFFFFFFFF80003FFFFFF30
:1022C000FFFFFFFFFFFFFFFFFFFFFFFFFFFFFFFF1E
:1022D000FFFFFFFFFFFFFFFFFFFFFFFFFFFFFFFF0E
:1022E000FFFFFFFFFFFFFFFFFFFFFFFFE3D003FF45
:1022F000FFFFFFFFFFFFFFFFFFFFFFFFFFFFFFFFEE
:10230000FFFFFFFFFFFFFFFFFFFFFFFFFFFFFFFFDD
:10231000FFFFFFFFFFFFFFFFFFFFFFFFFFFFCFEB11
:1023200003FFFFFFFFFFFFFFFFFFFFFFFFFFFFFFB9
:10233000FFFFFFFFFFFFFFFFFFFFFFFFFFFFFFFFAD
:10234000FFFFFFFFFFFFFFFFFFFFFFFFFFFFFFFF9D
:1023500003E383FFFFFFFFFFFFFFFFFFFFFFFFFF21
:10236000FFFFFFFFFFFFFFFFFFFFFFFFFFFFFFFF7D
:10237000FFFFFFFFFFFFFFFFFFFFFFFFFFFFFFFF6D
:10238000FFFE43F3C3FFFFFFFFFFFFFFFFFFFFFF62
:10239000FFFFFFFFFFFFFFFFFFFFFFFFFFFFFFFF4D
:1023A000FFFFFFFFFFFFFFFFFFFFFFFFFFFFFFFF3D
:1023B000FFFFFFF9C3F3E3FCFFFFFFFFFFFFFFFF9A
:1023C000FFFFFFFFFFFFFFFFFFFFFFFFFFFFFFFF1D
:1023D000FFFFFFFFFFFFFFFFFFFFFFFFFFFFFFFF0D
:1023E000FFFFFFFFFFF3E3F9E3F8FFFFFFFFFFFF4E
:1023F000FFFFFFFFFFFFFFFFFFFFFFFFFFFFFFFFED
:10240000FFFFFFFFFFFFFFFFFFFFFFFFFFFFFFFFDC
:10241000FFFFFFFFFFFFFFE5FFFBF3E0FFFFFFFF15
:10242000FFFFFFFFFFFFFFFFFFFFFFFFFFFFFFFFBC
:10243000FFFFFFFFFFFFFFFFFFFFFFFFFFFFFFFFAC
:10244000FFFFFFFFFFFFFFFFFFC8FFFBF3C07FFFA2
:10245000FFFFFFFFFFFFFFFFFFFFFFFFFFFFFFFF8C
:10246000FFFFFFFFFFFFFFFFFFFFFFFFFFFFFFFF7C
:10247000FFFFFFFFFFFFFFFFFFFFFF92FFFBF700E4
:102480007FFFFFFFFFFFFFFFFFFFFFFFFFFFFFFFDC
:10249000FFFFFFFFFFFFFFFFFFFFFFFFFFFFFFFF4C
:1024A000FFFFFFFFFFFFFFFFFFFFFFFFFF30FFF317
:1024B000F4007FFFFFFFFFFFFFFFFFFFFFFFFFFFB6
:1024C000FFFFFFFFFFFFFFFFFFFFFFFFFFFFFFFF1C
:1024D000FFFFFFFFFFFFFFFFFFFFFFFFFFFFFE5BB1
:1024E000FFF3F0707FFFFFFFFFFFFFFFFFFFFFFF26
:1024F000FFFFFFFFFFFFFFFFFFFFFFFFFFFFFFFFEC
:10250000FFFFFFFFFFFFFFFFFFFFFFFFFFFFFFFFDB
:10251000FE0BFFF3E1F87FFFFFFFFFFFFFFFFFFF71
:10252000FFFFFFFFFFFFFFFFFFFFFFFFFFFFFFFFBB
:10253000FFFFFFFFFFFFFFFFFFFFFFFFFFFFFFFFAB
:10254000FFFFFC09FFF385FC7FFFFFFFFFFFFFFF9D
:10255000FFFFFFFFFFFFFFFFFFFFFFFFFFFFFFFF8B
:10256000FFFFFFFFFFFFFFFFFFFFFFFFFFFFFFFF7B
:10257000FFFFFFFFF94CFFE73DFE7FFFFFFFFFFF7F
:10258000FFFFFFFFFFFFFFFFFFFFFFFFFFFFFFFF5B
:10259000FFFFFFFFFFFFFFFFFFFFFFFFFFFFFFFF4B
:1025A000FFFFFFFFFFFFF27E7FE6FDFE3FFFFFFF25
:1025B000FFFFFFFFFFFFFFFFFFFFFFFFFFFFFFFF2B
:1025C000FFFFFFFFFFFFFFFFFFFFFFFFFFFFFFFF1B
:1025D000FFFFFFFFFFFFFFFFF03FBFE19DFE3FFF5B
:1025E000FFFFFFFFFFFFFFFFFFFFFFFFFFFFFFFFFB
:1025F000FFFFFFFFFFFFFFFFFFFFFFFFFFFFFFFFEB
:10260000FFFFFFFFFFFFFFFFFFFFE43FDFE39DFF53
:102610003FFFFFFFFFFFFFFFFFFFFFFFFFFFFFFF8A
:10262000FFFFFFFFFFFFFFFFFFFFFFFFFFFFFFFFBA
:10263000FFFFFFFFFFFFFFFFFFFFFFFFE4DFFFC61E
:102640007DFF3FFFFFFFFFFFFFFFFFFFFFFFFFFFDC
:10265000FFFFFFFFFFFFFFFFFFFFFFFFFFFFFFFF8A
:10266000FFFFFFFFFFFFFFFFFFFFFFFFFFFFEFFF8A
:10267000FFDEFFFF9FFFFFFFFFFFFFFFFFFFFFFFEB
:10268000FFFFFFFFFFFFFFFFFFFFFFFFFFFFFFFF5A
:10269000FFFFFFFFFFFFFFFFFFFFFFFFFFFFFFFF4A
:1026A000CFFFFF93FFFF9FFFFFFFFFFFFFFFFFFF36
:1026B000FFFFFFFFFFFFFFFFFFFFFFFFFFFFFFFF2A
:1026C000FFFFFFFFFFFFFFFFFFFFFFFFFFFFFFFF1A
:1026D000FFFFCDFFFF33FFFF9FFFFFFFFFFFFFFF68
:1026E000FFFFFFFFFFFFFFFFFFFFFFFFFFFFFFFFFA
:1026F000FFFFFFFFFFFFFFFFFFFFFFFFFFFFFFFFEA
:10270000FFFFFFFFC0FFFE1FFDFF9FFFFFFFFFFF5B
:10271000FFFFFFFFFFFFFFFFFFFFFFFFFFFFFFFFC9
:10272000FFFFFFFFFFFFFFFFFFFFFFFFFFFFFFFFB9
:10273000FFFFFFFFFFFFC9FFFC8FFFFF9FFFFFFFB2
:10274000FFFFFFFFFFFFFFFFFFFFFFFFFFFFFFFF99
:10275000FFFFFFFFFFFFFFFFFFFFFFFFFFFFFFFF89
:10276000FFFFFFFFFFFFFFFFC9FFF9FFFDFF8FFF27
:10277000FFFFFFFFFFFFFFFFFFFFFFFFFFFFFFFF69
:10278000FFFFFFFFFFFFFFFFFFFFFFFFFFFFFFFF59
:10279000FFFFFFFFFFFFFFFFFFFFCFFFF0FFF5FF92
:1027A0008FFFFFFFFFFFFFFFFFFFFFFFFFFFFFFFA9
:1027B000FFFFFFFFFFFFFFFFFFFFFFFFFFFFFFFF29
:1027C000FFFFFFFFFFFFFFFFFFFFFFFFE7FFF67FBA
:1027D000F7FF8FFFFFFFFFFFFFFFFFFFFFFFFFFF81
:1027E000FFFFFFFFFFFFFFFFFFFFFFFFFFFFFFFFF9
:1027F000FFFFFFFFFFFFFFFFFFFFFFFFFFFFE7FF01
:10280000E33FFDFF8FFFFFFFFFFFFFFFFFFFFFFF26
:10281000FFFFFFFFFFFFFFFFFFFFFFFFFFFFFFFFC8
:10282000FFFFFFFFFFFFFFFFFFFFFFFFFFFFFFFFB8
:10283000F3FFEF9F0BFF87FFFFFFFFFFFFFFFFFF90
:10284000FFFFFFFFFFFFFFFFFFFFFFFFFFFFFFFF98
:10285000FFFFFFFFFFFFFFFFFFFFFFFFFFFFFFFF88
:10286000FFFFF3FFCE4FA1FF87FFFFFFFFFFFFFF3B
:10287000FFFFFFFFFFFFFFFFFFFFFFFFFFFFFFFF68
:10288000FFFFFFFFFFFFFFFFFFFFFFFFFFFFFFFF58
:10289000FFFFFFFFF9FFD727F3FF97FFFFFFFFFFC2
:1028A000FFFFFFFFFFFFFFFFFFFFFFFFFFFFFFFF38
:1028B000FFFFFFFFFFFFFFFFFFFFFFFFFFFFFFFF28
:1028C000FFFFFFFFFFFFFCFBD3C3FBFF97FFFFFFF3
:1028D000FFFFFFFFFFFFFFFFFFFFFFFFFFFFFFFF08
:1028E000FFFFFFFFFFFFFFFFFFFFFFFFFFFFFFFFF8
:1028F000FFFFFFFFFFFFFFFFFE7CD3E1FBFF97FF22
:10290000FFFFFFFFFFFFFFFFFFFFFFFFFFFFFFFFD7
:10291000FFFFFFFFFFFFFFFFFFFFFFFFFFFFFFFFC7
:10292000FFFFFFFFFFFFFFFFFFF00F3E1FF1FFFF65
:10293000C7FFFFFFFFFFFFFFFFFFFFFFFFFFFFFFDF
:10294000FFFFFFFFFFFFFFFFFFFFFFFFFFFFFFFF97
:10295000FFFFFFFFFFFFFFFFFFFFFFC0008F93F8A8
:10296000DFFFC7FFFFFFFFFFFFFFFFFFFFFFFFFFCF
:10297000FFFFFFFFFFFFFFFFFFFFFFFFFFFFFFFF67
:10298000FFFFFFFFFFFFFFFFFFFFFFFFFFCFFC0386
:1029900093FE5FFFC7FFFFFFFFFFFFFFFFFFFFFF8C
:1029A000FFFFFFFFFFFFFFFFFFFFFFFFFFFFFFFF37
:1029B000FFFFFFFFFFFFFFFFFFFFFFFFFFFFFFA383
:1029C000FFE0CFFF7FFFC7FFFFFFFFFFFFFFFFFF1E
:1029D000FFFFFFFFFFFFFFFFFFFFFFFFFFFFFFFF07
:1029E000FFFFFFFFFFFFFFFFFFFFFFFFFFFFFFFFF7
:1029F000FF79FFFC0FFF3F7FE7FFFFFFFFFFFFFFB8
:102A0000FFFFFFFFFFFFFFFFFFFFFFFFFFFFFFFFD6
:102A1000FFFFFFFFFFFFFFFFFFFFFFFFFFFFFFFFC6
:102A2000FFFFFEFE7FF8F7FF9F7FE3FFFFFFFFFF43
:102A3000FFFFFFFFFFFFFFFFFFFFFFFFFFFFFFFFA6
:102A4000FFFFFFFFFFFFFFFFFFFFFFFFFFFFFFFF96
:102A5000FFFFFFFFFEFFFFF3D3F7DFBFE3FFFFFF43
:102A6000FFFFFFFFFFFFFFFFFFFFFFFFFFFFFFFF76
:102A7000FFFFFFFFFFFFFFFFFFFFFFFFFFFFFFFF66
:102A8000FFFFFFFFFFFFFCBFFFC1EBFBCF9FE3FF9B
:102A9000FFFFFFFFFFFFFFFFFFFFFFFFFFFFFFFF46
:102AA000FFFFFFFFFFFFFFFFFFFFFFFFFFFFFFFF36
:102AB000FFFFFFFFFFFFFFFFFC0FFFDC71FBEFCF0E
:102AC000E7FFFFFFFFFFFFFFFFFFFFFFFFFFFFFF2E
:102AD000FFFFFFFFFFFFFFFFFFFFFFFFFFFFFFFF06
:102AE000FFFFFFFFFFFFFFFFFFFFF9BFFFAFFCF995
:102AF000FFEFE7FFFFFFFFFFFFFFFFFFFFFFFFFF0E
:102B0000FFFFFFFFFFFFFFFFFFFFFFFFFFFFFFFFD5
:102B1000FFFFFFFFFFFFFFFFFFFFFFFFFBFFFF4781
:102B2000FE79F7F7A7FFFFFFFFFFFFFFFFFFFFFFA4
:102B3000FFFFFFFFFFFFFFFFFFFFFFFFFFFFFFFFA5
:102B4000FFFFFFFFFFFFFFFFFFFFFFFFFFFFFBFF99
:102B5000FE47FF39F7FBA7FFFFFFFFFFFFFFFFFF68
:102B6000FFFFFFFFFFFFFFFFFFFFFFFFFFFFFFFF75
:102B7000FFFFFFFFFFFFFFFFFFFFFFFFFFFFFFFF65
:102B8000FA3FFCEFFF99FBFD87FFFFFFFFFFFFFF11
:102B9000FFFFFFFFFFFFFFFFFFFFFFFFFFFFFFFF45
:102BA000FFFFFFFFFFFFFFFFFFFFFFFFFFFFFFFF35
:102BB000FFFFFA3FFCFFFFC9FDFC87F87FFFFFFF27
:102BC000FFFFFFFFFFFFFFFFFFFFFFFFFFFFFFFF15
:102BD000FFFFFFFFFFFFFFFFFFFFFFFFFFFFFFFF05
:102BE000FFFFFFFFFA07FDFFFFE0FCFE07C00FFF3E
:102BF000FFFFFFFFFFFFFFFFFFFFFFFFFFFFFFFFE5
:102C0000FFFFFFFFFFFFFFFFFFFFFFFFFFFFFFFFD4
:102C1000FFFFFFFFFFFFF87FF9FFFFF87E7E0F9FAA
:102C2000F3FFFFFFFFFFFFFFFFFFFFFFFFFFFFFFC0
:102C3000FFFFFFFFFFFFFFFFFFFFFFFFFFFFFFFFA4
:102C4000FFFFFFFFFFFFFFFFF3FFFBFFFFFE3F392B
:102C50000F2019FFFFFFFFFFFFFFFFFFFFFFFFFF39
:102C6000FFFFFFFFFFFFFFFFFFFFFFFFFFFFFFFF74
:102C7000FFFFFFFFFFFFFFFFFFFFF3FFFBFFFFFF74
:102C80000F980E0FC1FFFFFFFFFFFFFFFFFFFFFFCA
:102C9000FFFFFFFFFFFFFFFFFFFFFFFFFFFFFFFF44
:102CA000FFFFFFFFFFFFFFFFFFFFFFFFF23FFBFF05
:102CB000FFFFC7C00C7FF3FFFFFFFFFFFFFFFFFF1A
:102CC000FFFFFFFFFFFFFFFFFFFFFFFFFFFFFFFF14
:102CD000FFFFFFFFFFFFFFFFFFFFFFFFFFFFFA3FC9
:102CE000FBFFFFFFF02009FFF9FFFFFFFFFFFFFFE2
:102CF000FFFFFFFFFFFFFFFFFFFFFFFFFFFFFFFFE4
:102D0000FFFFFFFFFFFFFFFFFFFFFFFFFFFFFFFFD3
:102D1000FBFFF3FFFFFFFC0001FFF9FFFFFFFFFFD9
:102D2000FFFFFFFFFFFFFFFFFFFFFFFFFFFFFFFFB3
:102D3000FFFFFFFFFFFFFFFFFFFFFFFFFFFFFFFFA3
:102D4000FFFFFBFFEBFF803FFE0007FFFCFFFFFFE5
:102D5000FFFFFFFFFFFFFFFFFFFFFFFFFFFFFFFF83
:102D6000FFFFFFFFFFFFFFFFFFFFFFFFFFFFFFFF73
:102D7000FFFFFFFFF93FDBD81FC7FF800FFFFCFFFE
:102D8000FFFFFFFFFFFFFFFFFFFFFFFFFFFFFFFF53
:102D9000FFFFFFFFFFFFFFFFFFFFFFFFFFFFFFFF43
:102DA000FFFFFFFFFFFFF93E5BEC7FFC3F800FFF63
:102DB000FFFFFFFFFFFFFFFFFFFFFFFFFFFFFFFF23
:102DC000FFFFFFFFFFFFFFFFFFFFFFFFFFFFFFFF13
:102DD000FFFFFFFFFFFFFFFFFCFF1BFF8FFF8000D8
:102DE0001FFFFFFFFFFFFFFFFFFFFFFFFFFFFFFFD3
:102DF000FFFFFFFFFFFFFFFFFFFFFFFFFFFFFFFFE3
:102E0000FFFFFFFFFFFFFFFFFFFFFCFF3BFFF9FF9F
:102E1000FF001FFFFFFFFFFFFFFFFFFFFFFFFFFFA1
:102E2000FFFFFFFFFFFFFFFFFFFFFFFFFFFFFFFFB2
:102E3000FFFFFFFFFFFFFFFFFFFFFFFFFE7EBBFF68
:102E4000FFFFFF803FFFFFFFFFFFFFFFFFFFFFFFD1
:102E5000FFFFFFFFFFFFFFFFFFFFFFFFFFFFFFFF82
:102E6000FFFFFFFFFFFFFFFFFFFFFFFFFFFFFF3E33
:102E7000BBFFFFEFFF003FFFFFFFFFFFFFFFFFFF75
:102E8000FFFFFFFFFFFFFFFFFFFFFFFFFFFFFFFF52
:102E9000FFFFFFFFFFFFFFFFFFFFFFFFFFFFFFFF42
:102EA000FFBE53FFFFF3FE003FFFFFFFFFFFFFFFEB
:102EB000FFFFFFFFFFFFFFFFFFFFFFFFFFFFFFFF22
:102EC000FFFFFFFFFFFFFFFFFFFFFFFFFFFFFFFF12
:102ED000FFFFFF9F13FFFFF8FC047FFFFFFFFFFFD3
:102EE000FFFFFFFFFFFFFFFFFFFFFFFFFFFFFFFFF2
:102EF000FFFFFFFFFFFFFFFFFFFFFFFFFFFFFFFFE2
:102F0000FFFFFFFFFFCF83FFFFFE180C7FFFFFFFD8
:102F1000FFFFFFFFFFFFFFFFFFFFFFFFFFFFFFFFC1
:102F2000FFFFFFFFFFFFFFFFFFFFFFFFFFFFFFFFB1
:102F3000FFFFFFFFFFFFFFE7C3FFFFFFC01CFFFF17
:102F4000FFFFFFFFFFFFFFFFFFFFFFFFFFFFFFFF91
:102F5000FFFFFFFFFFFFFFFFFFFFFFFFFFFFFFFF81
:102F6000FFFFFFFFFFFFFFFFFFF3E7FFFFFFFE7C19
:102F7000FFFFFFFFFFFFFFFFFFFFFFFFFFFFFFFF61
:102F8000FFFF01FFFFFFFFFFFFFFFFFFFFFFFFFF4F
:102F9000FFFFFFFFFFFFFFFFFFFFFFF9E3FFFFFF63
:102FA000F9FDFFFFFFFFFFFFFFFFFFFFFFFFFFFF39
:102FB000FFFFFFF8000FFFFFFFFFFFFFFFFFFFFF17
:102FC000FFFFFFFFFFFFFFFFFFFFFFFFFFFE73FF9E
:102FD000FEFFE3FDFFFFFFFFFFFFFFFFFFFFFFFF20
:102FE000FFFFFFFFFFF1FF83FFFFFFFFFFFFFFFF7B
:102FF000FFFFFFFFFFFFFFFFFFFFFFFFFFFFFFFFE1
:1030000033FDFEF88FFFFFFFFFFFFFFFFFFFFFFF16
:10301000FFFFFFFFFFFFFFE7FFF0FFFFFFFFFFFFE7
:10302000FFFFFFFFFFFFFFFFFFFFFFFFFFFFFFFFB0
:10303000FFFF93EB7EF83FFFFFFFFFFFFFFFFFFF68
:10304000FFFFFFFFFFFFFFFFFFDFFFD87FFFFFFF57
:10305000FFFFFFFFFFFFFFFFFFFFFFFFFFFFFFFF80
:10306000FFFFFFFFC3F8FFF8FFFFFFFFFFFFFFFFBA
:10307000FFFFFFFFFFFFFFFFFFFFFF9FFBDB1FFFC8
:10308000FFFFFFFFFFFFFFFFFFFFFFFFFFFFFFFF50
:10309000FFFFFFFFFFFFE1F9FFC3FFFFFFFFFFFFA0
:1030A000FFFFFFFFFFFFFFFFFFFFFF7FF3BFF80BF7
:1030B000CFFFFFFFFFFFFFFFFFFFFFFFFFFFFFFF50
:1030C000FFFFFFFFFFFFFFFFF9F3FF0FFFFFFFFF12
:1030D000FFFFFFFFFFFFFFFFFFFFFFFFFE1F813F1F
:1030E000FFE3E7FFFFFFFFFFFFFFFFFFFFFFFFFF24
:1030F000FFFFFFFFFFFFFFFFFFFFFCF7F87FFFFF72
:10310000FFFFFFFFFFFFFFFFFFFFFFFFFFFFFECF00
:103110001C3FFFF3E3FFFFFFFFFFFFFFFFFFFFFF8A
:10312000FFFFFFFFFFFFFFFFFFFFFFFFFE77C1FF76
:10313000FFFFFFFFFFFFFFFFFFFFFFFFFFFFFFFF9F
:10314000FEE09C3FFFFBCBFFFFFFFFFFFFFFFFFF0A
:10315000FFFFFFFFFFFFFFFFFFFFFFFFFFFFFF205E
:103160001FFFFFFFFFFFFFFFFFFFFFFFFFFFFFFF4F
:10317000FFFFFCF19C1FFFF3D9FFFFFFFFFFFFFFE5
:10318000FFFFFFFFFFFFFFFFFFFFFFFFFFFFFFFF4F
:10319000FFE0FFFFFFFFFFFFFFFFFFFFFFFFFFFF5E
:1031A000FFFFFFFF7EFED99FFFF79CFF87FFFFFF1A
:1031B000FFFFFFFFFFFFFFFFFFFFFFFFFFFFFFFF1F
:1031C000FFFFFFFFFFFFFFFFFFFFFFFFFFFFFFFF0F
:1031D000FFFFFFFFFFFE3E3E59CEFFE41CFF23FF33
:1031E000FFFFFFFFFFFFFFFFFFFFFFFFFFFFFFFFEF
:1031F000FFFFFFFFFFFFFFFFFFFFFFFFFFFFFFFFDF
:10320000FFFFFFFFFFFFFFFF7F1F19CCFFE0C6FEA0
:10321000F9FFFFFFFFFFFFFFFFFFFFFFFFFFFFFFC4
:10322000FFFFFFFFFFFFFFFFFFFFFFFFFFFFFFFFAE
:10323000FFFFFFFFFFFFFFFFFFFFFF1F19E5FFC7B6
:10324000E07EF9FFFFFFFFFFFFFFFFFFFFFFFFFF34
:10325000FFFFFFFFFFFFFFFFFFFFFFFFFFFFFFFF7E
:10326000FFFFFFFFFFFFFFFFFFFFFFFFFF1F93E4D5
:10327000FFCFFF7FF9FFFFFFFFFFFFFFFFFFFFFF14
:10328000FFFFFFFFFFFFFFFFFFFFFFFFFFFFFFFF4E
:10329000FFFFFFFFFFFFFFFFFFFFFFFFFFFFFF2F0E
:1032A00093F4FF9FFF7DF9FFFFFFFFFFFFFFFFFF8D
:1032B000FFFFFFFFFFFFFFFFFFFFFFFFFFFFFFFF1E
:1032C000FFFFFFFFFFFFFFFFFFFFFFFFFFFFFFFF0E
:1032D000FE6FC7F03F3FFF3DF9FFFFFFFFFFFFFF1E
:1032E000FFFFFFFFFFFFFFFFFFFFFFFFFFFFFFFFEE
:1032F000FFFFFFFFFFFFFFFFFFFFFFFFFFFFFFFFDE
:10330000FFFFE07FCFF27E7FFF3DF9FDFFFFFFFF74
:10331000FFFFFFFFFFFFFFFFFFFFFFFFFFFFFFFFBD
:10332000FFFFFFEFFFFFFFFFFFFFFFFFFFFFFFFFBD
:10333000FFFFFFFF803FCFF0FCFFFF39F8F8FFFFF2
:10334000FFFFFFFFFFFFFFFFFFFFFFFFFFFFFFFF8D
:10335000FFFFFFFFFFFFFFFFFFFFFFFFFFFFFFFF7D
:10336000FFFFFFFFFFFE078FCFF1F9FFFF33FC7870
:10337000FFFFFFFFFFFFFFFFFFFFFFFFFFFFFFFF5D
:10338000FFFFFFFFFFFFFFFFFFFFFFFFFFFFFFFF4D
:10339000FFFFFFFFFFFFFFF8E3E7E7F1F3FFFF2782
:1033A000FF1FFFFFFFFFFFFFFFFFFFFFFFFFFFFF0D
:1033B000FFFFFFFFFFFFFFFFFFFFFFFFFFFFFFFF1D
:1033C000FFFFFFFFFFFFFFFFFFF1F1F3E7F3F7FF61
:1033D000FF0FFFFFFFFFFFFFFFFFFFFFFFFFFFFFED
:1033E000FFFFFFFFFFFFFFFFFFFFFFFFFFFFFFFFED
:1033F000FFFFFFFFFFFFFFFFFFFFFFE7F9FDE3E335
:10340000E7FFFF3FF3FFFDFFFFFFFFFFFFFFFFFFB2
:10341000FFFFFFFFFFFFFFFFFFFFFFFFFFFFFFFFBC
:10342000FFFFFFFFFFFFFFFFFFFFFFFFFFCFFCFCE2
:10343000E1E7E7FFFE7FF7FFFDFFFFFFFFFFFFFF75
:10344000FFFFFFFFFFFFFFFFFFFFFFFFFFFFFFFF8C
:10345000FFFFFFFFFFFFFFFFFFFFFFFFFFFFFFDF9C
:10346000FCFE75CFCFFFF87FF7F3FDFFFFFFFFFFF7
:10347000FFFFFFFFFFFFFFFFFFFFFFFFFFFFFFFF5C
:10348000FFFFFFFFFFFFFFFFFFFFFFFFFFFFFFFF4C
:10349000FF9FFEFF749FCFFE00FFFFF7FFFFFFFFC0
:1034A000FFFF87FFFFFFFFFFFFFFFE07FFFFFFFF9D
:1034B000FFFFFFFFFFFFFFFFFFFFFFFFFFFFFFFF1C
:1034C000FFFFFF9FFE7F3A3F8FE005FFFFFFFFFFFB
:1034D000FFFFFFFE10FFFFFFFFFFFFE00003FFFF06
:1034E000FFFFFFFFFFFFFFFFFFFFFFFFFFFFFFFFEC
:1034F000FFFFFFFFFFBFFE7F387F8F8019FFFFFFB9
:10350000FFFFFFFFFFF9FE3FFFFFFFFFC0000019B5
:10351000FFFFFFFFFFFFFFFFFFFFFFFFFFFFFFFFBB
:10352000FFFFFFFFFFFFFF3FFF3FBC7F8F03F3FF66
:10353000FFFFF3FFFFFFFFE7FF8FFFFFFFFC00E050
:10354000000CFFFFFFFFFFFFFFFFFFFFFFFFFFFF7D
:10355000FFFFFFFFFFFFFFFFFF3FFF3F9C7F8E034B
:10356000C7FFFFFFF3FFFFFFFF1FFFE7FFFFFFF1B5
:103570003FFFF0047FFFFFFFFFFFFFFFFFFFFFFFA5
:10358000FFFFFFFFFFFFFFFFFFFFFF3FFF9FCD3F5D
:103590008C071FFFFFFFF7FFFFFFFC7FFFF3FFFF1D
:1035A000FFC6FFFFF8427FFFFFFFFFFFFFFFFFFFA8
:1035B000FFFFFFFFFFFFFFFFFFFFFFFFFF7FFF8F0B
:1035C000C59F841C7FFF00FFFFFFFFFFF3FF00FD8F
:1035D000FFFFFF9DFFFFFE22FFFFFFFFFFFFFFFF3B
:1035E000FFFFFFFFFFFFFFFFFFFFFFFFFFFFFF7F6B
:1035F000F7CFC19F8419FFFC001007FFFFFFCFF832
:103600003C1CFFFFFF3BFFFFFE10FFFFFFFFFFFF24
:10361000FFFFFFFFFFFFFFFFFFFFFFFFFFFFFFFFBA
:10362000FF7FE3E3C08F0013FFF0FF000047FFFCC4
:103630007FE3FFC67FFFFCF7FFFFFF18FFFFFFFFE1
:10364000FFFFFFFFFFFFFFFFFFFFFFFFFFFFFFFF8A
:10365000FFFFFE3FE3F000CE0027FFE1FFE3F803AA
:10366000FFC3FFC7FFF13FFFF9E7FFFFFF88FFFF41
:10367000FFFFFFFFFFFFFFFFFFFFFFFFFFFFFFFF5A
:10368000FFFFFFFFFE3FFFFC004C0027FF87FFF01E
:103690000000001FFF9FFFFC1FFFE38FFFFFFF885D
:1036A000FFFFFFFFFFFFFFFFFFFFFFFFFFFFFFFF2A
:1036B000FFFFFFFFFFFFFE1FFFFF01000067FC0F82
:1036C000FFF807FE01F9FE7FFFFF0FFF073FFFFF37
:1036D000F988FFFFFFFFFFFFFFFFFFFFFFFFFFFF77
:1036E000FFFFFFFFFFFFFFFFFE4FFFFFC1807000E6
:1036F000003FDFFCFFFFFFF9FCFFFFFFC0603C7FE6
:10370000FFFFFDC0FFFFFFFFFFFFFFFFFFFFFFFF0A
:10371000FFFFFFFFFFFFFFFFFFFFFE27FFFFC1C00F
:10372000080000FF9FFE7FFFFFFDF9FFFFFFF8008D
:10373000C1FFFFFFFFE0FFFFFFFFFFFFFFFFFFFFF6
:10374000FFFFFFFFFFFFFFFFFFFFFFFFFE33FFFF56
:10375000C0E0003800FFBFFE7FFFFFFFF3FFFFFF69
:10376000FFE03FFFFFFFFFE0FFFFFFFFFFFFFFFF67
:10377000FFFFFFFFFFFFFFFFFFFFFFFFFFFFFE1D3C
:10378000FFFFE0700418007FFFFF7FFFFFFFE7FFF0
:10379000FFFFFFFFFFFFFFFFFFF0FFFFFFFFFFFF48
:1037A000FFFFFFFFFFFFFFFFFFFFFFFFFFFFFFFF29
:1037B000FE0E7FFFE0100408183FFFFF7FFFFFFFB2
:1037C000CFFFFFFFFFFFFFFFFFFFFFFC7FFFFFFFBC
:1037D000FFFFFFFFFFFFFFFFFFFFFFFFFFFFFFFFF9
:1037E000FFFFFE471FFFF00004088E3FFFFF3FFF73
:1037F000FFFFDFFFFFFFFFFFFFFFFFFFFFFE078F62
:10380000FFFFFFFFFFFFFFFFFFFFFFFFFFFFFFFFC8
:10381000FFFFFFFFFF63C7FFFC000C008F3FFFFFB0
:103820003FFFFFFFBFFFFFFFFFFFFFFFFFFFFFFFA8
:1038300003FFFFFFFFFFFFFFFFFFFFFFFFFFFFFF94
:10384000FFFFFFFFFFFFFF30F1FFFF821801873FFF
:10385000FFFFBFFFFFFF7FFFFFFFFFFFFFFFFFFF38
:10386000FFFF8FFFFDFFFFFFFFFFFFFFFFFFFFFFDA
:10387000FFFFFFFFFFFFFFFFFF381CE1FFF1F0013B
:10388000C73FFFFF9FFFFFFE7FFFFFFFFFFFFFFF21
:10389000FFFFFFFFE3FFFBFFFFFFFFFFFFFFFFFF58
:1038A000FFFFFFFFFFFFFFFFFFFFFF3E00047F0062
:1038B0000103C33FFFFF8FFFFFFEFFFFFFFFFFFF7F
:1038C000FFFFFFFFFFFFF8FFFFFFFFFFFFFFFFFF0F
:1038D000FFFFFFFFFFFFFFFFFFFFFFFFFFBF87832C
:1038E00000000061C39FFFFF8FFFFFFDFFFFFFFF91
:1038F000FFFFFFFFFFFFFFFFFE03FFFFFFFFFFFFD5
:10390000FFFFFFFFFFFFFFFFFFFFFFFFFFFFFF9F27
:10391000FFF1E600C261C39FFFFF9FFFFFF9FFFFBA
:10392000FFFFFFFFFFFFFFFFFFFFFFFFFFFFFFFFA7
:10393000FFFFFFFFFFFFFFFFFFFFFFFFFFFFFFFF97
:10394000FFDFFFF078008261E19FFFFF9FFFFFF341
:10395000FFFFFFFFFFFFFFFFFFFFFFFFFFFFFFFF77
:10396000FFFFFFFFFFFFFFFFFFFFFFFFFFFFFFFF67
:10397000FFFFFFFFEFE000018661E1FFFFFF9FFF18
:10398000FFE7FFFFFFFFFFFFFFFFFFFFFFFFFFFF5F
:10399000FFFFFFFFFFFFFFFFFFFFFFFFFFFFFFFF37
:1039A000FFFFFFFFFF3FCFE400010040F0FFFFFFFC
:1039B0001FFFFFCFFFFFFFFFFFFFFFFFFFFFFFFF27
:1039C000FFFFFFFFFFFFFFFFFFFFFFFFFFFFFFFF07
:1039D000FFFFFFFFFFFFFFF9FFFE04018041D07FE3
:1039E000FFFF1FFFFF9FFFFFFFFFFFFFFFFFFFFF27
:1039F000FFFFFFFFFFFFFFFFFFFFFFFFFFFFFFFFD7
:103A0000FFFFFFFFFFFFFFFFFFFC7FF80033804059
:103A1000883FFFFF4FFFF87FFFFFFFFFFFFFFFFF24
:103A2000FFFFFFFFFFFFFFFFFFFFFFFFFFFFFFFFA6
:103A3000FFFFFFFFFFFFFFFFFFFFFFFF0FE023E799
:103A4000C200CC1FFFFF4FFFF8FFFFFFFFFFFFFF8C
:103A5000FFFFFFFFFFFFFFFFFFFFFFFFFFFFFFFF76
:103A6000FFFFFFFFFFFFFFFFFFFFFFFFFFFF8006DE
:103A70004F8FE300FE07FFFE47FFE1FFFFFFFFFF61
:103A8000FFFFFFFFFFFFFFFFFFFFFFFFFFFFFFFF46
:103A9000FFFFFFFFFFFFFFFFFFFFFFFFFFFFFFFF36
:103AA000FC7C9C3FF300FF80FFFE13FC07FFFFFF41
:103AB000FFFFFFFFFFFFFFFFFFFFFFFFFFFFFFFF16
:103AC000FFFFFFFFFFFFFFFFFFFFFFFFFFFFFFFF06
:103AD000FFFFFFF9B1FFF9807FC03FFC00003FFF0F
:103AE000FFFFFFFFFFFFFFFFFFFFFFFFFFFFFFFFE6
:103AF000FFFFFFFFFFFFFFFFFFFFFFFFFFFFFFFFD6
:103B0000FFFFFFFFFFF107FFF9C07FF00FFC00038D
:103B1000FFFFFFFFFFFFFFFFFFFFFFFFFFFFFFFFB5
:103B2000FFFFFFFFFFFFFFFFFFFFFFFFFFFFFFFFA5
:103B3000FFFFFFFFFFFFFFF31FFFF9E03FFE01F074
:103B4000007FFFFFFFFFFFFFFFFFFFFFFFFFFFFF04
:103B5000FFFFFFFFFFFFFFFFFFFFFFFFFFFFFFFF75
:103B6000FFFFFFFFFFFFFFFFFFE33FFFFCF03FFF13
:103B700080003FFFFFFFFFFFFFFFFFFFFFFFFFFF93
:103B8000FFFFFFFFFFFFFFFFFFFFFFFFFFFFFFFF45
:103B9000FFFFFFFFFFFFFFFFFFFFFFE73FFFFC7897
:103BA0003FFFC001FFFFFFFFFFFFFFFFFFFFFFFF22
:103BB000FFFFFFFFFFFFFFFFFFFFFFFFFFFFFFFF15
:103BC000FFFFFFFFFFFFFFFFFFFFFFFFFFE73FFFDD
:103BD000FC7E1FFFF003FFFFFFFFFFFFFFFFFFFF64
:103BE000FFFFFFFFFFFFFFFFFFFFFFFFFFFFFFFFE5
:103BF000FFFFFFFFFFFFFFFFFFFFFFFFFFFFFFCE06
:103C00003FFFFC3F8FFFF807FFFFFFFFFFFFFFFFB6
:103C1000FFFFFFFFFFFFFFFFFFFFFFFFFFFFFFFFB4
:103C2000FFFFFFFFFFFFFFFFFFFFFFFFFFFFFFFFA4
:103C3000FFCE3FFFFC9FC7FFFC0FFFFFFFFFFFFF13
:103C4000FFFFFFFFFFFFFFFFFFFFFFFFFFFFFFFF84
:103C5000FFFFFFFFFFFFFFFFFFFFFFFFFFFFFFFF74
:103C6000FFFFFFCC9FFFFC9FE7FFFE1FFFFFFFFF53
:103C7000FFFFFFFFFFFFFFFFFFFFFFFFFFFFFFFF54
:103C8000FFFFFFFFFFFFFFFFFFFFFFFFFFFFFFFF44
:103C9000FFFFFFFFFFC8CFFFFD9FE0FFFE3FFFFFDD
:103CA000FFFFFFFFFFFFFFFFFFFFFFFFFFFFFFFF24
:103CB000FFFFFFFFFFFFFFFFFFFFFFFFFFFFFFFF14
:103CC000FFFFFFFFFFFFFFC0E7FC79DFF07FFE7F14
:103CD000FFFFFFFFFFFFFFFFFFFFFFFFFFFFFFFFF4
:103CE000FFFFFFFFFFFFFFFFFFFFFFFFFFFFFFFFE4
:103CF000FFFFFFFFFFFFFFFFFFC1F0F073DFF07F6B
:103D0000FCFFFFFFFFFFFFFFFFFFFFFFFFFFFFFFC6
:103D1000FFFFFFFFFFFFFFFFFFFFFFFFFFFFFFFFB3
:103D2000FFFFFFFFFFFFFFFFFFFFFFC1FC0307DFF8
:103D3000F0FFF8FFFFFFFFFFFFFFFFFFFFFFFFFFA9
:103D4000FFFFFFFFFFFFFFFFFFFFFFFFFFFFFFFF83
:103D5000FFFFFFFFFFFFFFFFFFFFFFFFFFC1FFFFB1
:103D6000DFDFF27FE3FFFFFFFFFFFFFFFFFFFFFF4C
:103D7000FFFFFFFFFFFFFFFFFFFFFFFFFFFFFFFF53
:103D8000FFFFFFFFFFFFFFFFFFFFFFFFFFFFFFC181
:103D9000FFFFFFDFF30F07FFFFFFFFFFFFFFFFFF47
:103DA000FFFFFFFFFFFFFFFFFFFFFFFFFFFFFFFF23
:103DB000FFFFFFFFFFFFFFFFFFFFFFFFFFFFFFFF13
:103DC000FFC1FFFFFFDFF3801FFFFFFFFFFFFFFFCC
:103DD000FFFFFFFFFFFFFFFFFFFFFFFFFFFFFFFFF3
:103DE000FFFFFFFFFFFFFFFFFFFFFFFFFFFFFFFFE3
:103DF000FFFFFFC1FFFFFF9FF3E0FFFFFFFFFFFF9C
:103E0000FFFFFFFFFFFFFFFFFFFFFFFFFFFFFFFFC2
:103E1000FFFFFFFFFFFFFFFFFFFFFFFFFFFFFFFFB2
:103E2000FFFFFFFFFFE1FFFFFF9FF3FFFFFFFFFF2C
:103E3000FFFFFFFFFFFFFFFFFFFFFFFFFFFFFFFF92
:103E4000FFFFFFFFFFFFFFFFFFFFFFFFFFFFFFFF82
:103E5000FFFFFFFFFFFFFFE1FFFFFF9FF3FFFFFFFC
:103E6000FFFFFFFFFFFFFFFFFFFFFFFFFFFFFFFF62
:103E7000FFFFFFFFFFFFFFFFFFFFFFFFFFFFFFFF52
:103E8000FFFFFFFFFFFFFFFFFFE1FFFFFF9FF3FFCC
:103E9000FFFFFFFFFFFFFFFFFFFFFFFFFFFFFFFF32
:103EA000FFFFFFFFFFFFFFFFFFFFFFFFFFFFFFFF22
:103EB000FFFFFFFFFFFFFFFFFFFFFFF1FE7FFF9F01
:103EC000F3FFFFFFFFFFFFFFFFFFFFFFFFFFFFFF0E
:103ED000FFFFFFFFFFFFFFFFFFFFFFFFFFFFFFFFF2
:103EE000FFFFFFFFFFFFFFFFFFFFFFFFFFF0FF7F71
:103EF000FF9FE7FFFFFFFFFFFFFFFFFFFFFFFFFF4A
:103F0000FFFFFFFFFFFFFFFFFFFFFFFFFFFFFFFFC1
:103F1000FFFFFFFFFFFFFFFFFFFFFFFFFFFFFFF8B8
:103F20003FFFFF8FE7FFFFFFFFFFFFFFFFFFFFFFE9
:103F3000FFFFFFFFFFFFFFFFFFFFFFFFFFFFFFFF91
:103F4000FFFFFFFFFFFFFFFFFFFFFFFFFFFFFFFF81
:103F5000FFF90F800F8FCFFFFFFFFFFFFFFFFFFF76
:103F6000FFFFFFFFFFFFFFFFFFFFFFFFFFFFFFFF61
:103F7000FFFFFFFFFFFFFFFFFFFFFFFFFFFFFFFF51
:103F8000FFFFFFFCC0000187CFFFFFFFFFFFFFFF28
:103F9000FFFFFFFFFFFFFFFFFFFFFFFFFFFFFFFF31
:103FA000FFFFFFFFFFFFFFFFFFFFFFFFFFFFFFFF21
:103FB000FFFFFFFFFFFCF87FE0179FFFFFFFFFFF02
:103FC000FFFFFFFFFFFFFFFFFFFFFFFFFFFFFFFF01
:103FD000FFFFFFFFFFFFFFFFFFFFFFFFFFFFFFFFF1
:103FE000FFFFFFFFFFFFFFFCFFFFFC123FFFFFFF94
:103FF000FFFFFFFFFFFFFFFFFFFFFFFFFFFFFFFFD1
:10400000FFFFFFFFFFFFFFFFFFFFFFFFFFFFFFFFC0
:10401000FFFFFFFFFFFFFFFFFFFE7FFFFF007FFFB0
:10402000FFFFFFFFFFFFFFFFFFFFFFFFFFFFFFFFA0
:10403000FFFFFFFFFFFFFFFFFFFFFFFFFFFFFFFF90
:10404000FFFFFFFFFFFFFFFFFFFFFFFE7FFFFF817F
:10405000FFFFFFFFFFFFFFFFFFFFFFFFFFFFFFFF70
:10406000FFFFFFFFFFFFFFFFFFFFFFFFFFFFFFFF60
:10407000FFFFFFFFFFFFFFFFFFFFFFFFFFFF1FFF30
:10408000FFFFFFFFFFFFFFFFFFFFFFFFFFFFFFFF40
:10409000FFFFFFFFFFFFFFFFFFFFFFFFFFFFFFFF30
:1040A000FFFFFFFFFFFFFFFFFFFFFFFFFFFFFFFF20
:1040B00087FFFFFFFFFFFFFFFFFFFFFFFFFFFFFF88
:1040C000FFFFFFFFFFFFFFFFFFFFFFFFFFFFFFFF00
:1040D000FFFFFFFFFFFFFFFFFFFFFFFFFFFFFFFFF0
:1040E000FFFFC3FFFFFFFFFFFFFFFFFFFFFFFFFF1C
:1040F000FFFFFFFFFFFFFFFFFFFFFFFFFFFFFFFFD0
:10410000FFFFFFFFFFFFFFFFFFFFFFFFFFFFFFFFBF
:10411000FFFFFFFFF0FFFFFFFFFFFFFFFFFFFFFFBE
:10412000FFFFFFFFFFFFFFFFFFFFFFFFFFFFFFFF9F
:10413000FFFFFFFFFFFFFFFFFFFFFFFFFFFFFFFF8F
:10414000FFFFFFFFFFFFFC7FFFFFFFFFFFFFFFFF02
:10415000FFFFFFFFFFFFFFFFFFFFFFFFFFFFFFFF6F
:10416000FFFFFFFFFFFFFFFFFFFFFFFFFFFFFFFF5F
:10417000FFFFFFFFFFFFFFFFFE7FFFFFFFFFFFFFD0
:10418000FFFFFFFFFFFFFFFFFFFFFFFFFFFFFFFF3F
:10419000FFFFFFFFFFFFFFFFFFFFFFFFFFFFFFFF2F
:1041A000FFFFFFFFFFFFFFFFFFFFFF3FFFFFFFFFDF
:1041B0001FFFFFFFFFFFFFFFFFFFFFFFFFFFFFFFEF
:1041C000FFFFFFFFFFFFFFFFFFFFFFFFFFFFFFFFFF
:1041D000FFFFFFFFFFFFFFFFFFFFFFFFFF3FFFFFAF
:1041E000FFFC0FFFFFFFFFFFFFFFFFFFFFFFFFFFD2
:1041F000FFFFFFFFFFFFFFFFFFFFFFFFFFFFFFFFCF
:10420000FFFFFFFFFFFFFFFFFFFFFFFFFFFFFFBFFE
:10421000FFFFFFF807FFFFFFFFFFFFFFFFFFFFFFAD
:10422000FFFFFFFFFFFFFFFFFFFFFFFFFFFFFFFF9E
:10423000FFFFFFFFFFFFFFFFFFFFFFFFFFFFFFFF8E
:10424000FF9FFFFFFFF9C3FFFFFFFFFFFFFFFFFF20
:10425000FFFFFFFFFFFFFFFFFFFFFFFFFFFFFFFF6E
:10426000FFFFFFFFFFFFFFFFFFFFFFFFFFFFFFFF5E
:10427000FFFFFF9FFFFFFFF3E3FFFFFFFFFFFFFFD6
:10428000FFFFFFFFFFFFFFFFFFFFFFFFFFFFFFFF3E
:10429000FFFFFFFFFFFFFFFFFFFFFFFFFFFFFFFF2E
:1042A000FFFFFFFFFFDFFFFFFFF3E3FFFFFFFFFF66
:1042B000FFFFFFFFFFFFFFFFFFFFFFFFFFFFFFFF0E
:1042C000FFFFFFFFFFFFFFFFFFFFFFFFFFFFFFFFFE
:1042D000FFFFFFFFFFFFFFDFFFFFFFE473FFFFFFB5
:1042E000FFFFFFFFFFFFFFFFFFFFFFFFFFFFFFFFDE
:1042F000FFFFFFFFFFFFFFFFFFFFFFFFFFFFFFFFCE
:10430000FFFFFFFFFFFFFFFFFFDFFFFFFFE033FFC8
:10431000FFFFFFFFFFFFFFFFFFFFFFFFFFFFFFFFAD
:10432000FFFFFFFFFFFFFFFFFFFFFFFFFFFFFFFF9D
:10433000FFFFFFFFFFFFFFFFFFFFFFDFFFFFFFC0EC
:1043400013FFFFFFFFFFFFFFFFFFFFFFFFFFFFFF69
:10435000FFFFFFFFFFFFFFFFFFFFFFFFFFFFFFFF6D
:10436000FFFFFFFFFFFFFFFFFFFFFFFFFFCFFFFF8D
:10437000FF8703FFFFFFFFFFFFFFFFFFFFFFFFFFC1
:10438000FFFFFFFFFFFFFFFFFFFFFFFFFFFFFFFF3D
:10439000FFFFFFFFFFFFFFFFFFFFFFFFFFFFFFEF3D
:1043A000FFFFFF1F83FFFFFFFFFFFFFFFFFFFFFF79
:1043B000FFFFFFFFFFFFFFFFFFFFFFFFFFFFFFFF0D
:1043C000FFFFFFFFFFFFFFFFFFFFFFFFFFFFFFFFFD
:1043D000FFE7FFFFFE3FC3FFFFFFFFFFFFFFFFFF02
:1043E000FFFFFFFFFFFFFFFFFFFFFFFFFFFFFFFFDD
:1043F000FFFFFFFFFFFFFFFFFFFFFFFFFFFFFFFFCD
:10440000FFFFFFF7FFFFFC7FC7FFFFFFFFFFFFFF7F
:10441000FFFFFFFFFFFFFFFFFFFFFFFFFFFFFFFFAC
:10442000FFFFFFFFFFFFFFFFFFFFFFFFFFFFFFFF9C
:10443000FFFFFFFFFFFBFFFFF9FFE7FFFFFFFFFFAE
:10444000FFFFFFFFFFFFFFFFFFFFFFFFFFFFFFFF7C
:10445000FFFFFFFFFFFFFFFFFFFFFFFFFFFFFFFF6C
:10446000FFFFFFFFFFFFFFF9FFFFE3FFE3FFFFFF9A
:10447000FFFFFFFFFFFFFFFFFFFFFFFFFFFFFFFF4C
:10448000FFFFFFFFFFFFFFFFFFFFFFFFFFFFFFFF3C
:10449000FFFFFFFFFFFFFFFFFFFE7FFFCFFFE3FFF9
:1044A000FFFFFFFFFFFFFFFFFFFFFFFFFFFFFFFF1C
:1044B000FFFFFFFFFFFFFFFFFFFFFFFFFFFFFFFF0C
:1044C000FFFFFFFFFFFFFFFFFFFFFFFF1FFF1FFFBC
:1044D000F3FFFFFFFFFFFFFFFFFFFFFFFFFFFFFFF8
:1044E000FFFFFFFFFFFFFFFFFFFFFFFFFFFFFFFFDC
:1044F000FFFFFFFFFFFFFFFFFFFFFFFFFFFFC7FC07
:104500007FFFF3FFFFFFFFFFFFFFFFFFFFFFFFFF47
:10451000FFFFFFFFFFFFFFFFFFFFFFFFFFFFFFFFAB
:10452000FFFFFFFFFFFFFFFFFFFFFFFFFFFFFFFF9B
:10453000F021FFFFF3FFFFFFFFFFFFFFFFFFFFFF84
:10454000FFFFFFFFFFFFFFFFFFFFFFFFFFFFFFFF7B
:10455000FFFFFFFFFFFFFFFFFFFFFFFFFFFFFFFF6B
:10456000FFFFFFFFFFFFF9FFFFFFFFFFFFFFFFFF61
:10457000FFFFFFFFFFFFFFFFFFFFFFFFFFFFFFFF4B
:10458000FFFFFFFFFFFFFFFFFFFFFFFFFFFFFFFF3B
:10459000FFFFFFFFFFFFFFFFFDFFFFFFFFFFFFFF2D
:1045A000FFFFFFFFFFFFFFFFFFFFFFFFFFFFFFFF1B
:1045B000FFFFFFFFFFFFFFFFFFFFFFFFFFFFFFFF0B
:1045C000FFFFFFFFFFFFFFFFFFFFFEFFFFFFFFFFFC
:1045D000FFFFFFFFFFFFFFFFFFFFFFFFFFFFFFFFEB
:1045E000FFFFFFFFFFFFFFFFFFFFFFFFFFFFFFFFDB
:1045F000FFFFFFFFFFFFFFFFFFFFFFFFFE3FFFFF8C
:10460000FFFFFFFFFFFFFFFFFFFFFFFFFFFFFFFFBA
:10461000FFFFFFFFFFFFFFFFFFFFFFFFFFFFFFFFAA
:10462000FFFFFFFFFFFFFFFFFFFFFFFFFFFFFF8712
:10463000FFFFFFFFFFFFFFFFFFFFFFFFFFFFFFFF8A
:10464000FFFFFFFFFFFFFFFFFFFFFFFFFFFFFFFF7A
:10465000FFFFFFFFFFFFFFFFFFFFFFFFFFFFFFFF6A
:10466000FFF9E1FFFFFFFFFFFFFFFFFFFFFFFFFF7E
:10467000FFFFFFFFFFFFFFFFFFFFFFFFFFFFFFFF4A
:10468000FFFFFFFFFFFFFFFFFFFFFFFFFFFFFFFF3A
:10469000FFFFFFFFE1FFFFFFFFFFFFFFFFFFFFFF48
:1046A000FFFFFFFFFFFFFFFFFFFFFFFFFFFFFFFF1A
:1046B000FFFFFFFFFFFFFFFFFFFFFFFFFFFFFFFF0A
:1046C000FFFFFFFFFFFFFFFFFFFFFFFFFFFFFFFFFA
:1046D000FFFFFFFFFFFFFFFFFFFFFFFFFFFFFFFFEA
:1046E000FFFFFFFFFFFFFFFFFFFFFFFFFFFFFFFFDA
:1046F000FFFFFFFFFFFFFFFFFFFFFFFFFFFFFFFFCA
:10470000FFFFFFFFFFFFFFFFFFFFFFFFFFFFFFFFB9
:10471000FFFFFFFFFFFFFFFFFFFFFFFFFFFFFFFFA9
:10472000FFFFFFFFFFFFFFFFFFFFFFFFFFFFFFFF99
:10473000FFFFFFFFFFFFFFFFFFFFFFFFFFFFFFFF89
:10474000FFFFFFFFFFFFFFFFFFFFFFFFFFFFFFFF79
:10475000FFFFFFFFFFFFFFFFFFFFFFFFFFFFFFFF69
:10476000FFFFFFFFFFFFFFFFFFFFFFFFFFFFFFFF59
:10477000FFFFFFFFFFFFFFFFFFFFFFFFFFFFFFFF49
:10478000FFFFFFFFFFFFFFFFFFFFFFFFFFFFFFFF39
:10479000FFFFFFFFFFFFFFFFFFFFFFFFFFFFFFFF29
:1047A000FFFFFFFFFFFFFFFFFFFFFFFFFFFFFFFF19
:1047B000FFFFFFFFFFFFFFFFFFFFFFFFFFFFFFFF09
:1047C000FFFFFFFFFFFFFFFFFFFFFFFFFFFFFFFFF9
:1047D000FFFFFFFFFFFFFFFFFFFFFFFFFFFFFFFFE9
:1047E000FFFFFFFFFFFFFFFFFFFFFFFFFFFFFFFFD9
:1047F000FFFFFFFFFFFFFFFFFFFFFFFFFFFFFFFFC9
:10480000FFFFFFFFFFFFFFFFFFFFFFFFFFFFFFFFB8
:10481000FFFFFFFFFFFFFFFFFFFFFFFFFFFFFFFFA8
:10482000FFFFFFFFFFFFFFFFFFFFFFFFFFFFFFFF98
:10483000FFFFFFFFFFFFFFFFFFFFFFFFFFFFFFFF88
:10484000FFFFFFFFFFFFFFFFFFFFFFFFFFFFFFFF78
:10485000FFFFFFFFFFFFFFFFFFFFFFFFFFFFFFFF68
:10486000FFFFFFFFFFFFFFFFFFFFFFFFFFFFFFFF58
:10487000FFFFFFFFFFFFFFFF000000000000000040
:104880000000000000000000000000000000000028
:104890000000000000000000000000000000000018
:1048A0000000000000000000000000000000000008
:1048B00000000000000000000000000000000000F8
:104B000000000003FFFFFFFF0000000000000000A6
:104B10000000000000000000000000000000000095
:104B20000000000000000000000000000000000085
:104B3000000000000007FFFFFFFFF800000000007A
:104B40000000000000000000000000000000000065
:104B50000000000000000000000000000000000055
:104B60000000000000000007FFFFFFFFFF00000043
:104B70000000000000000000000000000000000035
:104B80000000000000000000000000000000000025
:104B900000000000000000000007FFFFFFFFFFE033
:104BA0000000000000000000000000000000000005
:104BB00000000000000000000000000000000000F5
:104BC000000000000000000000000007FFFFFFFFE2
:104BD000FFF00000000000000000000000000000E6
:104BE00000000000000000000000000000000000C5
:104BF0000000000000000000000000000007FFFFB0
:104C0000FFFFFFFC000000000000000000000000AB
:104C10000000000000000000000000000000000094
:104C2000000000000000000000000000000000077D
:104C3000FFFFFFFFFFFF00000F0001E00078007F93
:104C4000FE007C000007CFFFFFFF807FFFFE1E00FD
:104C5000001E003FFF000FFFFFE01FFFFFFF0000EF
:104C60000007FFFFFFFFFFFF80000F0001E000785B
:104C700003FFFF803E00000F8FFFFFFF81FFFFFE5D
:104C80001E00001E00FFFFC00FFFFFF81FFFFFFF09
:104C900000000007FFFFFFFFFFFFC0000F0001E063
:104CA000007807FFFFE03E00000F8FFFFFFF83FF4C
:104CB000FFFE1E00001E03FFFFF00FFFFFFC1FFFA3
:104CC000FFFF00000007FFFFFFFFF9FFE0000F00FC
:104CD00001E000780FFFFFF01F00001F0FFFFFFF34
:104CE00087FFFFFE1E00001E07FFFFF80FFFFFFEFD
:104CF0001FFFFFFF00000007FFFFFFFFF1FFF000B5
:104D00000F0001E000781FFFFFF81F00001F0FFFDA
:104D1000FFFF87FFFFFE1E00001E0FFFFFFC0FFFBF
:104D2000FFFF1FFFFFFF00000007FFFFFFFFE1FF86
:104D3000F8000F0001E000781FF00FF80F80003E30
:104D40000F80000007F000001E00001E0FF807FC97
:104D50000F0001FF1F00000000000007FFFFFFFF22
:104D6000C1FFFC000F0001E000783F8001FC0F80D4
:104D7000003E0F000000078000001E00001E1FC044
:104D800000FE0F00001F1E00000000000007FFFFD4
:104D9000FFFF81FFFC000F0001E000783F00007C76
:104DA00007C0007C0F000000078000001E00001EEE
:104DB0001F80003E0F00000F1E00000000000007D3
:104DC000FFFFFFFF01FFFE000F0001E000783E0043
:104DD000007C03C0007C0F000000078000001E0064
:104DE000001E1F00003E0F00000F1E00000000000C
:104DF0000007FFFFFFFE01FFFF000F0001E000784A
:104E00003C00003C03E000F80F80000007C00000F9
:104E10001F00001E1E00001E0F00000F1F000000DC
:104E200000000007FFFFFFFC01FFFF000F0001E093
:104E300000783C00003C01F000F80FFFFFF007FF96
:104E4000FFF01FFFFFFE1E00001E0F00000F1FFFE0
:104E5000FFE000000007FFFFFFFC01FFFF800F00E5
:104E600001E000783C00003C01F001F00FFFFFF092
:104E700007FFFFFC1FFFFFFE1E00001E0F00000FBC
:104E80001FFFFFE000000007FFFFFFF801FFFF80AA
:104E90000F0001E000783C00003C00F801F00FFF3B
:104EA000FFF007FFFFFE1FFFFFFE1E00001E0F00AA
:104EB000000F1FFFFFE000000007FFFFFFF801FFEA
:104EC000FFC00F0001E000783C00003C00F803E068
:104ED0000FFFFFF001FFFFFE1FFFFFFE1E00001E81
:104EE0000F00001F1FFFFFE000000007C01F01FCB4
:104EF00001E0FFC00F0001E000783C00003C007CB6
:104F000003C00FFFFFF0007FFFFF1FFFFFFE1E002B
:104F1000001E0FFFFFFF1FFFFFE000000007C01F84
:104F200001F801C07FC00F0001E000783FFFFFFCE7
:104F3000007C07C00F0000000000003F1E00001EA4
:104F40001FFFFFFE0FFFFFFF1F0000000000000714
:104F5000C01F01F801C07FE00F0001E000783FFFB3
:104F6000FFFC003E07800F0000000000001F1E0035
:104F7000001E1FFFFFFE0FFFFFFE1E0000000000CF
:104F80000007C01E00F807C03FE00F0001E00078F6
:104F90003FFFFFFC003E0F800F0000000000000FED
:104FA0001E00001E1FFFFFFE0FFFFFFC1E00000083
:104FB00000000007C00E00F00F803FE00F0001E08E
:104FC00000783FFFFFFC001F0F000F0000000000F3
:104FD000000F1E00001E1FFFFFFE0FFFFFF81E0048
:104FE000000000000007E00E00F00F801FF00F002F
:104FF00001E000783FFFFFFC001F1F000F000000D2
:105000000000000F1E00001E1FFFFFFE0FFFF7C075
:105010001E00000000000007E00400600F001FF009
:105020000F0001E000783C00007C000FBE000F0084
:1050300000000000000F1E00001E1F00001E0F0FCA
:10504000F0001E00000000000007E00400601F00E8
:105050000FF00F0001E000783C00003C000FBE00A4
:105060000F0000000000000F1E00001E1E00001EAA
:105070000F07F8001E00000000000007F0040040C9
:105080001E000FF00F0001E000783C00003C00071C
:10509000FC000F0000000000000F1E00001E1E009C
:1050A000001E0F01FE001E00000000000007F000BF
:1050B00000000E0007F00F8001E000F83C00003C0B
:1050C0000007FC000F0000000000001F1E00001E73
:1050D0001E00001E0F00FF001E0000000000000761
:1050E000F00000000C0007F00FF003E00FF83C00A8
:1050F000003C0003F8000F800000000001FF1E00CC
:10510000001E1E00001E0F003FC01F000000000018
:105110000007F8000000040003F00FFFFFFFFFF896
:105120003C00003C0003F8000FFFFFFF8FFFFFFF74
:105130001E00001E1E00001E0F001FE01FFFFFFFCD
:1051400000000007F8000000040003F00FFFFFFF5D
:10515000FFF83C00003C0001F0000FFFFFFF87FF5D
:10516000FFFE1E00001E1E00001E0F0007F01FFFA6
:10517000FFFF00000007F8000000000001F007FF3B
:10518000FFFFFFF03C00003C0001F0000FFFFFFFBD
:1051900087FFFFFC1E00001E1E00001E0F0003FC08
:1051A0001FFFFFFF00000003FC000000000401F0EF
:1051B00001FFFFFFFFE03C00003C0000E0000FFFAC
:1051C000FFFF87FFFFF81E00001E1E00001E0F00DD
:1051D00001FE1FFFFFFF00000003FC00200000068F
:1051E00000F0003FFFFFFF003C00003C0000C0005B
:1051F0000FFFFFFF87FFFFC01E00001E1E00001EE6
:105200000F00007F9FFFFFFF00000003FC00300045
:10521000000E00F000000000000000000000000090
:10522000000000000000000000000000000000007E
:105230000000000000000000000000000003FE006D
:105240003000000F00F0000000000000000000002F
:10525000000000000000000000000000000000004E
:10526000000000000000000000000000000000033B
:10527000FE007001000F00F00000000000000000C0
:10528000000000000000000000000000000000001E
:10529000000000000000000000000000000000000E
:1052A0000003FE007803001E00F000000000000074
:1052B00000000000000000000000000000000000EE
:1052C00000000000000000000000000000000000DE
:1052D00000000001FF007803801E01F000000000C4
:1052E00000000000000000000000000000000000BE
:1052F00000000000000000000000000000000000AE
:10530000000000000001FF00F803803E01F00000F3
:10531000000000000000000000000000000000008D
:10532000000000000000000000000000000000007D
:105330000000000000000001FF00FC07803C03F0BB
:10534000000000000000000000000000000000005D
:10535000000000000000000000000000000000004D
:1053600000000000000000000000FF80FC07C07C7F
:1053700003F0000400000000000000000000000036
:1053800000000000000000000000200000000000FD
:10539000100000000000000000000000FF81FC0F72
:1053A000C07807F0000400000000000000000000CA
:1053B00000000000000000000000000020000000CD
:1053C00000001000000000000000000000007F81CD
:1053D000FE0FFFE007F000040000000000000000E6
:1053E000000000000000000000000000000020009D
:1053F000000000001000000000000000000000009D
:105400007FFFFFFFFFE00FF000040000000000003E
:10541000000000000000000000000000000000008C
:10542000200000000000100000000000000000004C
:1054300000003FFFFFFFFFE01FF00F047801E213C1
:1054400003E0000F88800040F807807C0478380172
:10545000F00023C00F10981F10000081F10183E0BD
:10546000000000003FFFFFFFFFE00FF019858C06F2
:105470001A140C300018C88080438E0CC1C6048CEE
:10548000C60618002C6030D0A07191010087191E4B
:105490000618000000001FFFFFFFFFE00FF01006DE
:1054A000060C0618180800203880C0820208030184
:1054B0000707020C040030306070C0C07101810425
:1054C000071C080C000000000FFFFFFFFFE01FF0AB
:1054D000100602180618100400401841C084010884
:1054E00002008603020802003010C0308080308342
:1054F000810803181804000000000FFFFFFFFFE001
:105500003FF0100402100210300400C01841618402
:105510000188060086020318020020108010818096
:105520003082C218031810020000000007FFFFFFBE
:10553000FFE07FF00C04021002103FFE0080082103
:10554000210FFF860400C402031FFE0020108010FC
:10555000810010C6421001181FFE0000000003FF6A
:10556000FFFFFFE0FFF00604021002103000008091
:105570000822330C00030400C402031800002010AA
:105580008010810010444610011810000000000037
:1055900001FFFFFFFFE1FFF0018402100210200075
:1055A0000080083212080000C400C402031000008A
:1055B00020108010810010442410011810000000F9
:1055C000000000FFFFFFFFE3FFF000840210021065
:1055D000300000C0181412040000440084020310BC
:1055E000000020108010818030282418031810003B
:1055F00000000000007FFFFFFFFFFFF000840218A3
:10560000061010040040181C0C0401004200840223
:10561000030802002010C0308080303818080318BA
:10562000180400000000001FFFFFFFFFFFF00084D0
:10563000020C061018080020380C0C02030043016D
:105640000402030C04002010603080C07010180C9D
:105650000718080C00000000000FFFFFFFFFFFF01D
:10566000318402061A100C300038C8080C038E185A
:10567000C186040203061800201030D080719010FB
:10568000100719180618000000000003FFFFFFFFB5
:10569000FFF00E040201E21003E0000F880000009A
:1056A000F807007C04020001F00020100F10801F9A
:1056B00010000001F10003E0000000000000FFFF07
:1056C000FFFFFFF0000000000000000000000000ED
:1056D00000000000000000000000000000000000CA
:1056E00000000000000000000000000000000000BA
:1056F0003FFFFFFFFFF0000000000000000000007F
:105700000000000000000000000000000000000099
:105710000000000000000000000000000000000089
:10572000000003FFFFFFFFF000000000000000008A
:105730000000000000000000000000000000000069
:105740000000000000000000000000000000000059
:105750000000000000000000000000000000000049
:105760000000000000000000000000000000000039
:105A50000000000000000000000003800003800040
:105A600003800003800003800003800003800003A4
:105A70008000038000010000010000000000000021
:105A80000003800003800000000000000000000010
:105A90000000000000000000000000000000000006
:105AA00000000000000E70000E70000E7000042058
:105AB000000420000420000420000000000000007A
:105AC00000000000000000000000000000000000D6
:105AD00000000000000000000000000000000000C6
:105AE00000000000000000000000066000066000EA
:105AF0000660000660000660003FF8003FF8000600
:105B000060000CC0003FF8003FF8000CC0000CC063
:105B1000000CC0000CC0000CC00000000000000021
:105B20000000000000000000000000000000000174
:105B3000800001800007B0000FF00018700018709E
:105B4000001C00000F800007E00000F0001830008B
:105B50001C30001C70001FE0001BC0000180000111
:105B600080000180000180000000000000000000B3
:105B7000000000000000000000000780000FC000CF
:105B80001CE0001860001860001CE0000FF800071F
:105B9000E0001FF00007380006180006180007385C
:105BA0000003F00001E00000000000000000000021
:105BB00000000000000000000000000000000000E5
:105BC000000000000000000003F00007F0000C607F
:105BD000000C00000C00000600000700000F9C00F5
:105BE0001DFC0018F0001870000FFC0007DC00001E
:105BF00000000000000000000000000000000000A5
:105C00000000000000000000000000000003800011
:105C1000038000038000010000010000010000017A
:105C20000000000000000000000000000000000074
:105C30000000000000000000000000000000000064
:105C40000000000000000000000000000000000054
:105C5000000000180000380000700000F00000E0B4
:105C60000000E00001C00001C00001C00001C00050
:105C700001C00001C00000E00000E0000070000072
:105C80007000003800001800000000000000000054
:105C9000000000000000000000001800001C0000D0
:105CA0000E00000E00000700000700000380000344
:105CB0008000038000038000038000038000070051
:105CC000000700000F00000E00001C00001800007C
:105CD00000000000000000000000000000000000C4
:105CE00000000180000180000180001DB8001FF845
:105CF0000007E00003C00003C0000660000660006B
:105D00000000000000000000000000000000000093
:105D10000000000000000000000000000000000083
:105D20000000000000000000000000000000000073
:105D30000180000180000180000180000180003F9F
:105D4000FC003FFC00018000018000018000018018
:105D500000018000000000000000000000000000C2
:105D60000000000000000000000000000000000033
:105D70000000000000000000000000000000000023
:105D80000000000000000000000000000000000013
:105D900000000000000000E00000C00001C00001A1
:105DA00080000180000300000300000000000000EC
:105DB00000000000000000000000000000000000E3
:105DC0000000000000000000000000000000001FB4
:105DD000F8001FF8000000000000000000000000B4
:105DE00000000000000000000000000000000000B3
:105DF00000000000000000000000000000000000A3
:105E00000000000000000000000000000000000092
:105E10000000000000000000000000000000000082
:105E200000000000000003C00003C00003C0000029
:105E30000000000000000000000000000000000062
:105E400000000000001800001800003800003000BA
:105E500000700000600000600000C00000C0000191
:105E6000800001800003000003000006000006001F
:105E7000000E00000C00001C0000180000180000BC
:105E80000000000000000000000000000000000012
:105E9000000003C00007E0000C30000C30001818B0
:105EA0000018180018180018180018180018180002
:105EB0001818000C30000C300007E00003C0000090
:105EC00000000000000000000000000000000000D2
:105ED00000000000000000000000008000078000BB
:105EE0001F80001D800001800001800001800001F2
:105EF000800001800001800001800001800001809D
:105F0000001FF8001FF80000000000000000000063
:105F10000000000000000000000000000000000081
:105F2000000007C0001FF0003830003018003018A3
:105F30000000180000300000600001C00003800075
:105F40000600000C00001800003FF8003FF80000B9
:105F50000000000000000000000000000000000041
:105F60000000000000000000000003C0000FE0007F
:105F70000C700000300000300000600003C000031F
:105F8000E000007000001800001800001800183829
:105F9000001FF0000FC00000000000000000000023
:105FA00000000000000000000000000000000000F1
:105FB000000000E00001E00001E000036000066076
:105FC000000660000C60000C60001860003060008B
:105FD0003FF8003FF80000600003F80003F80000FD
:105FE00000000000000000000000000000000000B1
:105FF000000000000000000000001FF0001FF00083
:106000001800001800001800001BC0001FF0001C42
:106010003000001800001800001800001800303090
:10602000003FF0000FC00000000000000000000072
:106030000000000000000000000000000000000060
:10604000000000F80003F8000700000E00000C003C
:10605000001800001BC0001FF0001C3000181800C2
:106060001818001818000C38000FF00003E00000AA
:106070000000000000000000000000000000000020
:10608000000000000000000000001FF8001FF800E2
:1060900018180018380000300000300000700000B0
:1060A000600000600000E00000C00000C00001C00F
:1060B00000018000018000000000000000000000DE
:1060C00000000000000000000000000000000000D0
:1060D000000007E0000FF0001C3800181800181826
:1060E000000C300007E00007E0000C30001818003A
:1060F0001818001818001C38000FF00007E0000006
:10610000000000000000000000000000000000008F
:106110000000000000000000000007C0000FF000B9
:106120001C30001818001818001818000C38000F40
:10613000F80003D80000180000300000700000E0F4
:10614000001FC0001F000000000000000000000051
:10615000000000000000000000000000000000003F
:10616000000000000000000000000000000003C06C
:106170000003C00003C00000000000000000000099
:1061800000000000000003C00003C00003C00000C6
:1061900000000000000000000000000000000000FF
:1061A00000000000000000000000000000000000EF
:1061B00000000000000000F00000F00000F000000F
:1061C000000000000000000000000000E00001C02E
