:020000040800F2
:10000000F8F4002045010008CB1300088113000814
:10001000C91300088D010008131C0008000000002F
:100020000000000000000000000000004F19000860
:100030008F01000800000000AF18000851190008E7
:100040005F0100085F0100085F0100085F01000810
:100050005F0100085F0100085F0100085F01000800
:100060005F0100085F0100085F0100085F010008F0
:100070005F0100085F0100085F0100085F010008E0
:100080005F0100085F0100085F0100085F010008D0
:100090005F0100085F0100085F0100085F010008C0
:1000A0005F0100085F0100085F0100085F010008B0
:1000B0005F0100085F0100085F0100085F010008A0
:1000C0005F0100085F0100085F0100085F01000890
:1000D0005F0100085F0100085F0100085F01000880
:1000E0005F0100085F0100085F0100085F01000870
:1000F0005F0100085F0100085F0100085F01000860
:100100005F0100085F0100085F0100085F0100084F
:100110005F0100085F0100085F0100085F0100083F
:100120005F0100085F0100085F0100085F0100082F
:10013000DFF80CD000F018F8004800477D1C0008DC
:10014000F8F400200648804706480047FEE7FEE72F
:10015000FEE7FEE7FEE7FEE7FEE7FEE7FEE7FEE777
:10016000C919000831010008064C074D06E0E06897
:1001700040F0010394E8070098471034AC42F6D3EE
:10018000FFF7DAFF6C2901088C290108FEE77047A8
:100190002DE9F04789460746102100F0DFF80025D9
:1001A0004FF0030825E000BF19F805405FF000009C
:1001B000B8EB941F01D1032102E0A10900D0042172
:1001C000A206401C0901120EC6B2B8EB921F02D162
:1001D00041F0030103E0900901D041F004019006D1
:1001E000040E384600F0C5F8761CF0B20428DFD3C0
:1001F0006D1C3869C11700EB917079698010484314
:10020000A842D1DC1221384600F0A8F8642000F0A2
:10021000C7F83846BDE8F04700F0B6B810B5044658
:1002200001202060022060600020A0600320E060C8
:100230004FF4207020614FF4C070606100F0D2F87C
:1002400010B14FF0FF3010BD204600F075F80121CD
:10025000204600F083F83721204600F08AF800217C
:10026000204600F086F80021204600F077F8CF21E4
:10027000204600F07EF80821204600F07AF806219A
:10028000204600F06BF8C721204600F072F8CC2120
:10029000204600F06EF82821204600F06AF804217C
:1002A000204600F05BF8204600F06EF83021204632
:1002B00000F054F83C21204600F05BF84121204634
:1002C00000F04CF80021204600F053F85021204661
:1002D00000F044F87721204600F04BF860212046DA
:1002E00000F03CF82221204600F043F8612120462E
:1002F00000F034F80221204600F03BF8802120462F
:1003000000F037F80121204600F033F88021204624
:1003100000F02FF88221204600F020F81E21204610
:1003200000F027F8E521204600F018F803212046C8
:1003300000F01FF8002010BD10B504460068002131
:1003400000F040F8C82000F02BF80121206800F0F0
:1003500039F8BDE81040C82000F022B810B50C46AE
:100360004068002100F02EF82046BDE8104000F063
:1003700051B810B50C464068012100F023F8204622
:10038000BDE8104000F046B810B5044602E0642015
:1003900000F006F8E06800F005F80028F7D010BD7E
:1003A00000F052B8064A10B502EBC00152F8300016
:1003B000898889B200F048F9012800D0002010BDDA
:1003C00040000020064B012903EBC00253F8300027
:1003D000526891B202D0002200F03BB90122FBE743
:1003E000400000200A480949D0E90023C1E9002360
:1003F000D0E90223C1E90223D0E90423C1E904239F
:10040000D0E90620C1E90620002070474000002006
:100410000400002031B50A4C0022A08881B2206877
:1004200000F017F94FF47A7301226946054800F08D
:100430001DFEA088012281B2206800F00AF938BDB3
:10044000400000206000002031B500F007F90446AC
:1004500000F004F90099001B8842F9D338BD000070
:100460002DE9F84FDFF8B8A100220AF1040B144679
:1004700001274FF00F090BF1040E00BF0B6807FABC
:1004800004F52B40AB4274D1DFF898C14E68A6EB5F
:100490000C0866452BD00DDC032E34D005DC36B3BA
:1004A000012E19D0022E2FD11BE0112E16D0122EA4
:1004B0002AD119E0B8F5881F19D006DCB8F5803FBD
:1004C00015D0B8F5801F1FD111E0B8F5001F0ED070
:1004D000B8F5041F18D10AE0CA6815E0CA68121DF1
:1004E00012E0CA6808320FE0CA680C320CE08A6871
:1004F0002AB1012A4FF0080203D0456104E004222A
:1005000002E0056100E00022FF2B01D8064601E071
:1005100000F104064FEA840501D9A5F12005D6F8BB
:1005200000C009FA05F82CEA080C02FA05F54CEAB5
:10053000050CC6F800C04D68ED006AD53A4DAE69AD
:1005400046F00106AE61AD6924F0030605F0010531
:100550000095364D06EB050CDCF80850A6074FEA6F
:10056000167809FA08F6B543314EB04202D100269A
:100570001AE04EE02F4EB04201D1012614E02E4E7B
:10058000B04201D102260FE02C4EB04201D1032629
:100590000AE02B4EB04201D1042605E0294EB042BC
:1005A00001D1052600E0062606FA08F62E43CCF80F
:1005B00008604D68DAF80060ED03554601D51E432A
:1005C00000E09E432E604D68AD0305D5DBF800606A
:1005D0001E43CBF8006004E0DBF800509D43CBF8ED
:1005E00000504D68DEF80060ED02754601D51E43EF
:1005F00000E09E432E604D68AD0205D5084D0C35D8
:100600002E681E432E6004E0054E0C3635689D436F
:100610003560641C102CFFF431AFBDE8F88F00008A
:1006200000040140000011100010024000000140D1
:1006300000080140000C014000100140001401407E
:1006400000180140001C01408068084000D00120D3
:1006500070470AB1016170470904FBE7014800686F
:10066000704700002C00002002480168491C01600E
:10067000704700002C000020074810B5016841F0C9
:1006800010010160032000F07BF8002000F006F864
:1006900000F016F8002010BD0020024010B50446FE
:1006A00000F044F94FF47A71B0FBF1F000F08EFDE8
:1006B00000222146501E00F043F8002010BD00002B
:1006C0001D4808B5816941F001018161806900F030
:1006D00001000090032000F053F8002211466FF053
:1006E0000B0000F02DF8002211466FF00A0000F018
:1006F00027F8002211466FF0090000F021F80022CF
:100700001146501F00F01CF800221146101F00F087
:1007100017F800221146901E00F012F80022114630
:10072000501E00F00DF80548416821F0E06141F0ED
:100730008061416008BD00000010024000000140DF
:10074000F0B40E4B1B680C46C3F30223C3F107053C
:10075000042D00D90425191D072901D2002300E02A
:10076000DB1E012606FA05F1491E214099409E40F4
:10077000761E16403143F0BC00F028BE0CED00E0C0
:10078000064900F0070208684FF6FF03184040EAE8
:100790000220034A10430860704700000CED00E09F
:1007A0000000FA052DE9F047DFF8708105460E4696
:1007B000D8F8000000F00700B0420CD2D8F80010C2
:1007C00021F007013143C8F80010D8F8000000F00C
:1007D0000700B04277D12878514C800705D5606872
:1007E000A96820F0F000084360602878C00759D05D
:1007F0006968012001290DD0022929D05FF0020388
:1008000093FAA3F2B2FA82F242F02002520904D023
:10081000226803E04FF40033F2E7626A93FAA3F32D
:10082000B3FA83F303F01F03984002424BD0606891
:1008300020F0030008436060FFF710FF6968074677
:1008400041F2883001290DD00229814617D025E0D8
:100850004FF00073D4E700BFFFF700FFC11B49450D
:1008600001D918E081466068C0F381000128F3D106
:1008700018E000BFFFF7F2FEC11B49450BD86068C6
:10088000C0F381000228F5D10CE000BFFFF7E6FEBF
:10089000C11B494502D90320BDE8F087606810F00C
:1008A0000C0FF3D1D8F80010404601F00701B14217
:1008B0000BD9016821F0070131430160006800F0A5
:1008C0000700B04201D00120E6E72878400705D5AF
:1008D0006068E96820F4E0600843606028780007F9
:1008E00006D56068296920F4605040EAC100606064
:1008F00000F052F86168F02292FAA2F201F0F001E1
:10090000B2FA82F2D140074A515CC84006490860F9
:100910000020FFF7C3FE0020BEE7000000200240D9
:10092000001002409C1E00080000002001480068E2
:100930007047000000000020084809490068496825
:100940004FF4E06292FAA2F201F4E061B2FA82F2AC
:10095000D140044A515CC8407047000000000020AC
:1009600000100240AC1E00080848094900684968A8
:100970004FF4605292FAA2F201F46051B2FA82F29C
:10098000D140044A515CC84070470000000000207C
:1009900000100240AC1E000810B519A385B00FCBA3
:1009A0008DE80F001AA01B4B006804905A681A4883
:1009B00002F00C0104291DD008291BD14FF470143A
:1009C00094FAA4F402F47011B4FA84F4E140D2036E
:1009D0001DF8011010D55A684FF4003393FAA3F3B1
:1009E00002F40032B3FA83F3DA4004AB9A5CB0FB52
:1009F000F2F0484305B010BD08484843FAE700004C
:100A000002030405060708090A0B0C0D0E0F10104F
:100A1000010200000010024000127A0000093D00AF
:100A20002DE9F84F04460078F74DC0074FF0010656
:100A300025D068687704C0F38100012807D0686872
:100A4000C0F3810002281BD16868C00318D597FA4B
:100A5000A7F0B0FA80F040F02000400901D02868EB
:100A600000E0686A97FAA7F1B1FA81F101F01F017D
:100A700006FA01F108425ED0606800287CD05AE096
:100A80006068B0F5803F0BD010B1B0F5A02F11D049
:100A9000286820F480302860286820F4802002E054
:100AA000286840F480302860606828B3FFF7D6FDDE
:100AB00080460BE0286840F480202860F0E700BF03
:100AC000FFF7CCFDA0EB0800642871D897FAA7F0D7
:100AD000B0FA80F040F02000400901D0286800E022
:100AE000686A97FAA7F1B1FA81F101F01F0106FADD
:100AF00001F10842E4D01EE0FFF7B0FD804605E0BA
:100B0000FFF7ACFDA0EB08006428DED897FAA7F049
:100B1000B0FA80F040F02000400901D0286800E0E1
:100B2000686A97FAA7F1B1FA81F101F01F0106FA9C
:100B300001F10842E4D12078DFF8D08280074FF03D
:100B400000094FF002075BD568684FF0F80B10F012
:100B50000C0F07D06868C0F3810002281CD16868B8
:100B6000C00319D497FAA7F0B0FA80F040F0200043
:100B7000400902D0286801E08BE0686A97FAA7F183
:100B8000B1FA81F101F01F0106FA01F108422CD0FF
:100B9000206901287DD128E0206990B396FAA6F05B
:100BA000B0FA80F048F82060FFF758FD824607E071
:100BB00011E100BFFFF752FDA0EB0A00022884D824
:100BC00097FAA7F0B0FA80F040F02000400901D079
:100BD000286800E0686A97FAA7F1B1FA81F101F09C
:100BE0001F0106FA01F10842E4D028689BFAABF233
:100BF0006169B2FA82F220F0F8009140084328605F
:100C000025E0FFE796FAA6F1B1FA81F148F82190C4
:100C1000FFF724FD824605E0FFF720FDA0EB0A0068
:100C20000228CCD897FAA7F0B0FA80F040F0200064
:100C3000400901D0286800E0686A97FAA7F1B1FA84
:100C400081F101F01F0106FA01F10842E4D1207898
:100C500000076ED5A069B8B396FAA6F0B0FA80F096
:100C600008EB8000C0F88064FFF7F8FC824605E0DE
:100C7000FFF7F4FCA0EB0A000228A0D897FAA7F02F
:100C8000B0FA80F040F06000B6EB501F02D1286847
:100C90000CE062E197FAA7F0B0FA80F040F0600053
:100CA000B7EB501F01D1286A00E0686A97FAA7F1F4
:100CB000B1FA81F101F01F0106FA01F21042D7D01A
:100CC0000120FFF7C1FB34E0FFE796FAA6F1B1FA85
:100CD00081F108EB8101C1F88094FFF7BFFC8246E7
:100CE00006E000BFFFF7BAFCA0EB0A00022872D8AA
:100CF00097FAA7F0B0FA80F040F06000B6EB501F12
:100D000001D128680BE097FAA7F0B0FA80F040F024
:100D10006000B7EB501F01D1286A00E0686A97FABB
:100D2000A7F1B1FA81F101F01F0106FA01F21042B8
:100D3000D8D12078400765D5E86940F08050E86157
:100D4000E869DFF8CCB000F080500090DBF80010CC
:100D500041F48071CBF80010FFF780FC824605E07B
:100D6000FFF77CFCA0EB0A00642834D8DBF8000015
:100D7000C005F5D5E06801280AD008B1052813D0D0
:100D8000286A20F001002862286A20F0040002E0AE
:100D9000286A40F001002862E06841F2883B90B385
:100DA000FFF75CFC82460BE0286A40F004002862F2
:100DB000EEE700BFFFF752FCA0EB0A0159450AD845
:100DC00097FAA7F0B0FA80F040F04000B6EB501F61
:100DD00002D128680CE0A3E097FAA7F0B0FA80F0FF
:100DE00040F04000B7EB501F01D1286A00E0686A6C
:100DF00097FAA7F1B1FA81F101F01F0206FA02F1A8
:100E00000842D7D031E005E0001002400000424225
:100E100000700040FFF722FC824605E0FFF71EFC51
:100E2000A0EB0A0159457BD897FAA7F0B0FA80F0F9
:100E300040F04000B6EB501F01D128680BE097FA54
:100E4000A7F0B0FA80F040F04000B7EB501F01D19E
:100E5000286A00E0686A97FAA7F1B1FA81F101F017
:100E60001F0206FA02F10842D8D1E06980B369682E
:100E7000C1F38101022970D04FF080714F00022828
:100E8000484609D091FAA1F1B1FA81F148F8210060
:100E9000FFF7E4FB044669E08A4691FAA1F1B1FA52
:100EA00081F1C14648F82100FFF7D8FB804605E0F4
:100EB000FFF7D4FBA0EB0800022854D897FAA7F05C
:100EC000B0FA80F040F02000400902D0286801E02C
:100ED00061E0686A97FAA7F1B1FA81F101F01F01A8
:100EE00006FA01F10842E3D1206AB0F5803F05D14E
:100EF0006868A16820F4003008436860D4E90801FC
:100F00000843696821F47411084368609AFAAAF0EA
:100F1000B0FA80F049F82060FFF7A0FB044606E035
:100F200021E000BFFFF79AFB001B02281BD897FAAD
:100F3000A7F0B0FA80F040F02000400901D0286806
:100F400000E0686A97FAA7F1B1FA81F101F01F0198
:100F500006FA01F10842E5D01DE01EE0FFF77EFB36
:100F6000001B022802D90320BDE8F88F97FAA7F0EA
:100F7000B0FA80F040F02000400901D0286800E07D
:100F8000686A97FAA7F1B1FA81F101F01F0106FA38
:100F900001F10842E2D10020E6E70120E4E7000089
:100FA00010B5040003D094F8510010B104E0012002
:100FB00010BD204600F038F8022084F85100206867
:100FC000016821F040010160D4E901010843D4E93E
:100FD00003121143084361690843218B01F4007136
:100FE0000843E1690843216A0843A16A084321686C
:100FF0000860A069042101EA1040616A0843216881
:1010000048602168E06A08612068C16921F40061D4
:10101000C1610449002008706065012084F8510016
:10102000002010BD3000002000B500680C4985B0DC
:10103000884212D10B48816941F4805181618069F5
:10104000694600F480500490A02000900220019096
:10105000032003900448FFF703FA05B000BD000029
:101060000030014000100240000801402DE9F84323
:10107000044690F851009846012870D139B332B334
:1010800094F8500001286AD0012684F8506012209C
:1010900084F85100002565652163A286E286E56437
:1010A000A564A563A587E587A06A7703B84209D13F
:1010B0002068016821F4005101602068016841F452
:1010C00000510160A068B0F5004F03D007E0012097
:1010D000BDE8F8832068016841F480410160206820
:1010E0000168490603D4016841F040010160E068ED
:1010F0000028606804D0D8B1E08E012818D021E023
:1011000010B1E08E012808D1206B411C21632168B9
:101110000078C860E08E401EE0860004000C1FD0FE
:10112000434600220221204600F0C2FBA8B9EBE7AB
:10113000206B21680088C860206B801C2063E08ED3
:10114000401EE0860004000C0AD043460022022123
:10115000204600F0ADFB0028EAD00320B8E726E0E7
:10116000A06AB84204D12068016841F4805101604E
:10117000434600220221204600F09AFB30B9434644
:1011800001228021204600F093FB20B1606D40F0E9
:1011900010006065E1E7A06818B92068C168806840
:1011A000009084F8516084F85050002090E70220AD
:1011B0008EE74FF0E0210428086903D020F00400F6
:1011C0000861704740F00400FAE7704710B5401E10
:1011D000B0F1807F01D3012010BD4FF0E0246061A9
:1011E0000F21601700F0F2F80020A06107202061B5
:1011F000002010BD10B5FFF7E8FF10BD70B504006A
:1012000004D094F83900002510B106E0012070BD2B
:1012100084F83850204600F021F8022084F8390084
:101220002068C16821F40051C160204600F0F0FB45
:101230002068016921F4904101612068416921F031
:101240002A0141612068C16841F40051C160E56331
:10125000012084F83900002070BD000010B500683E
:10126000114986B088421DD11048816941F48041FE
:10127000816180690E4C00F4804004904FF400704E
:101280000090022001900320039069462046FFF75A
:10129000E7F800212015CDE90001029169462046BA
:1012A000FFF7DEF806B010BD003801400010024024
:1012B000000801402DE9F047044690F839009946AE
:1012C0000D46012801D0222858D12DB322B394F81D
:1012D0003800012852D0012684F838600027E763DF
:1012E00094F8390022281AD05FF0120084F83900EF
:1012F000A284E2844FF48058E08C4B46401EE08488
:10130000A0684FF0000240454FF08001204613D105
:1013100000F036FC08BB04E00120BDE8F087322075
:10132000E4E728882168C0F308004860206908B114
:101330006D1C08E0AD1C06E000F022FC68B92168D5
:1013400015F8010B4860E08C0028D5D14B460022EF
:101350004021204600F014FC08B10320DDE794F89A
:101360003900322806D084F8396000BF84F838701C
:101370000020D2E7222084F83900F7E70220CCE7EA
:10138000FEE700000F4810B50D4901604FF482716F
:1013900041604FF4004181600021C1604FF4007250
:1013A0000161C0E905123022C0E907214162816272
:1013B0000A21C162FFF7F4FD002800D0FEE710BD4E
:1013C0000030014060000020FEE770470907090E69
:1013D000002806DA00F00F0000F1E02080F8141D6C
:1013E000704700F1E02080F800147047F0B50F4618
:1013F000064600250CE0002406E03B46224629462E
:10140000304600F009F8641CB068A042F5DC6D1CA1
:101410007068A842EFDCF0BDF0B500292DDB45680F
:101420008D422ADD002A28DB8468944225DDCE1710
:1014300001EB967626F003068E1BC0247600F4405E
:10144000E3B1032B25D0042B17D102FB0513DF17C3
:10145000056803EB977305EBA3052B78A3432B706B
:101460004468006802FB0411CA1701EB927100EB9B
:10147000A1004021F1400B430370F0BD02FB0511B8
:101480000068CA1701EB927100EBA1000178A1433B
:1014900009E002FB05110068CA1701EB927100EB2D
:1014A000A100017821430170F0BD00002DE9FF4F3C
:1014B00093460D9DA888410700D0012101EBD00083
:1014C000203BE9885843484329680E18002727E045
:1014D00000244FF0800A0BEB0708DFF8509017E06C
:1014E000E01704EB507020F007003178221A2AFA36
:1014F00002F0014206D00198424601190E9B009865
:1015000000F01AF904EA0900072800D1761C641CCF
:10151000A888A042E4DC2879400700D0761C7F1C14
:10152000E888B842D4DCBDE8FF8F000007000080E7
:101530002DE9FF4F5D420026022092468B4600EBCC
:10154000450400BF0AEB0607ABEB050189463A46A6
:101550000D9B009800F0F0F80BEB05013A46884629
:101560000D9B009800F0E8F8AAEB060741463A46C2
:101570000D9B009800F0E0F83A4649460D9B009814
:1015800000F0DAF82046B44208DC761C00EB460492
:10159000641CF54202D1A84200DC0020A84203DD11
:1015A0006D1C04EB4504641C002DCBDDBDE8FF8FF2
:1015B0002DE9FF4F81B05D4200270220DDF838B0F1
:1015C00000EB450403985B46C21902989146411B03
:1015D0008A46019800F0B0F802984A4646195B46E0
:1015E0003146019800F0A8F803983146C21B904696
:1015F0005B46019800F0A0F8424651465B460198D0
:1016000000F09AF80120A0EB45039A464A4631467D
:10161000CDF800B0019800F045F8534642463146F7
:10162000CDF800B0019800F03DF82046BC4208DC3F
:101630007F1C00EB4704641CFD4202D1A84200DC81
:101640000020A84203DD6D1C04EB4504641C002D42
:10165000B8DD05B0BDE8F08F2DE9F8438146DDE93E
:1016600008088B4201DD0C4600E01C4600DD1946EF
:101670000D46904201DD164600E0064600DD0246BA
:10168000A2EB06070AE000BF07F10103324621463C
:101690004846CDF8008000F0E4F8641CAC42F3DD6D
:1016A000BDE8F8832DE9F041164680460C46CF1878
:1016B000069D06E02B4632462146404600F03CF8A7
:1016C000641CA742F6DCBDE8F0812DE9FF4F81B034
:1016D0000C460E9F1E461546181B00D5A01B8146C2
:1016E0004FF0FF31B44201DA012000E008460090DB
:1016F000781B002800DDE81B8246BD4200DA01218C
:101700008B4609EB0A0810E02A4621460F9B0198F8
:1017100000F012F8BAEB480F02DC0098D044044401
:10172000B9EB480F01DBC8445D44B44201D0BD426F
:10173000EAD105B0BDE8F08F30B4C468ACB1012C7B
:101740001ED0022C2AD0032C35D1002933DB85682A
:101750008D4230DD002A2EDB446894422BDD144696
:101760006A1A214630BCFFF757BE002923DB4468C4
:101770008C4220DD002A1EDB846894421BDDF1E7E9
:10178000002918DB84688C4215DD002A13DB4568CC
:10179000954210DD0C46A91A2246E3E700290ADB30
:1017A00045688D4207DD002A05DB8468944202DD2E
:1017B000691AA21AD6E730BC70472DE9F84782466D
:1017C000DDE909058B4201DD0F4600E01F4601DD22
:1017D0001C4600E00C46904201DD164600E006463D
:1017E00000DD02469146A4EB070808F101033246EA
:1017F000394650460095FFF755FF08F101034A4668
:10180000394650460095FFF74DFFA9EB060808F151
:101810000103324639465046009500F022F808F19F
:101820000103324621465046009500F01AF8BDE803
:10183000F8872DE9FC439046DDE9096781461C469F
:101840000D4609E0424629464846CDE90067FFF7C4
:101850002DFEB088641C05442378002BF2D1BDE82E
:10186000FC832DE9F0410E4680461446D718069DAC
:1018700006E02B46224631464046FFF75DFF641CDA
:10188000A742F6DCBDE8F08110B50024C460016019
:10189000510707D0D11702EB517121F00701511AFE
:1018A000521A0832C0E9012310BDC1607047704769
:1018B0002DE9F0471D4690460E460446FEF7CEFE43
:1018C00007465FEA08004FF000084FF4005A4FF057
:1018D000010926D034E0681C23D025B1FEF7BEFEF6
:1018E000C01BA8421DD92068416821F0E001416079
:1018F0002068016821F040010160A06A504509D1CB
:101900002068016821F4005101602068016841F4F9
:101910000051016084F8519084F850800320BDE8A4
:10192000F0872068806836EA0000D4D10DE0681C9A
:1019300006D0002DD7D0FEF791FEC01BA842D2D80A
:101940002068806836EA0000F1D00020E7E77047A1
:1019500010B5FEF789FEBDE81040FFF74BBC30B56F
:101960008FB001210804CDE9001000240294022563
:101970000491CDE907504FF4E01009906846FFF755
:101980004FF800B1FEE70F20CDE90A054FF4806063
:10199000CDE90C4002210AA80E94FEF703FF00B126
:1019A000FEE7FEF7C3FF4FF47A71B0FBF1F0FFF7EB
:1019B0000DFC0420FFF7FDFB00221146501EFEF730
:1019C000BFFE0FB030BD00000D48016841F00101BD
:1019D000016041680B4A1140416001680A4A1140A8
:1019E0000160016821F480210160416821F4FE0159
:1019F00041604FF41F0181600449C00308607047D3
:101A0000001002400000FFF8FFFFF6FE08ED00E0C6
:101A10002DE9F041044600680169E26821F4405173
:101A2000114301612169A068084361690843216885
:101A3000CA6841F20C639A430243CA602068416954
:101A4000A26921F44071114341614C492068642529
:101A5000322688423CD1FEF787FF00EBC00101EB44
:101A6000001061688900B0FBF1F7FEF77DFF00EB25
:101A7000C00101EB00106168B0468900B0FBF1F0D5
:101A8000B0FBF5F06FF01801484307EB800106EB5F
:101A90000110B0FBF5F000F0F006FEF765FF00EB7B
:101AA000C00101EB001061688900B0FBF1F0B0FBF0
:101AB000F5F006EB0016FEF757FF00EBC00101EB57
:101AC000001061688900B0FBF1F7FEF74DFF3BE0C5
:101AD000FEF732FF00EBC00101EB001061688900E6
:101AE000B0FBF1F7FEF728FF00EBC00101EB00109F
:101AF0006168B0468900B0FBF1F0B0FBF5F06FF023
:101B00001801484307EB800106EB0110B0FBF5F02C
:101B100000F0F006FEF710FF00EBC00101EB001033
:101B200061688900B0FBF1F0B0FBF5F006EB001640
:101B3000FEF702FF00EBC00101EB001061688900B5
:101B4000B0FBF1F7FEF7F8FE00EBC00101EB00106F
:101B500061688900B0FBF1F0B0FBF5F06FF018019F
:101B6000484307EB800108EB0110B0FBF5F021685A
:101B700000F00F0030448860BDE8F081003801407B
:101B80002DE9F0471D4690460E460446FEF766FDD9
:101B900007465FEA08004FF000094FF0010808D03F
:101BA00030E0681C05D095B1FEF758FDC01BA84277
:101BB0000DD82068006836EA0000F2D127E0681CE2
:101BC00020D025B1FEF74AFDC01BA8421AD92068D3
:101BD000C16821F08001C1602068C16821F0200146
:101BE000C1602068C16821F48071C16020684169CA
:101BF00021F00101416184F8398084F83890032094
:101C0000BDE8F0872068006836EA0000D7D00020E1
:101C1000F6E7FEE7014A024900F013B8651C000828
:101C20003400002002E008C8121F08C1002AFAD1BF
:101C300070477047002001E001C1121F002AFBD14C
:101C400070472DE9F04116460F460446002503E093
:101C50003946B047641C6D1C20780028F8D128460E
:101C6000BDE8F08113B54FF6FF73012269460248C3
:101C7000FFF720FB00981CBDB8000020F0B591B024
:101C80004FF4704000F0D4F80546FEF7F5FCFFF77E
:101C900066FE5348816941F0040181618069514EBB
:101CA00000F004000090002216213046FEF7D1FC1F
:101CB00016200C9001200D9002200F900CA93046A8
:101CC000FEF7CEFB00240820CDE90C040CA9304619
:101CD0000E94FEF7C5FB454A434810604FF4E130CF
:101CE000C2E901040C20D460C2E9044094611046AA
:101CF000D461FFF783FA00B1FEE7FFF743FB02A8C8
:101D0000FEF78CFA30B13AA0FFF784FF11B04FF024
:101D1000FF30F0BDDDE90623294608A8FFF7B4FD32
:101D2000032108A8FFF762FB012108A8FFF7BDFD0A
:101D30004FF48C76CDE90064B4235022142108A816
:101D4000FFF73BFDCDE90064B4235022142108A81D
:101D5000FFF7BBFCCDE9006414235022B42108A88E
:101D6000FFF7B3FC04274FF4B4735022C82108A82E
:101D7000CDE90067FFF770FC03263C23A0224FF457
:101D8000967108A80096FFF7D3FB1E23D2225A2192
:101D900008A80097FFF70CFC1E20CDE90007F3010F
:101DA0000622002108A8FFF757FC174FCDE900765F
:101DB00016A30A22642108A8FFF73BFDCDE90074B1
:101DC00016A32822642108A8FFF733FD294602A89C
:101DD000FEF7DEF9154902A8FEF7DAF9FEE7000082
:101DE000001002400008014000380140B800002007
:101DF000652D506170657220696E69742066616935
:101E00006C65640A000000002400002048656C6CCA
:101E10006F20776F726C642100000000652D5061A7
:101E20007065722044656D6F00000000B41E0008EC
:101E3000F0B50B30154D20F007010024144A0FE0D7
:101E400003688B420BD38B4205D95E1A431847684F
:101E5000C3E9006700E04368136002C004E0021DAC
:101E600010680028ECD12046002802D1286808B16B
:101E70000020F0BD064A07481060074A121A22F0F7
:101E80000702C0E9002401202860D7E73C000020B9
:101E900038000020FC000020F8F2002000000000C4
:101EA000000000000102030406070809000000000A
:101EB00001020304FFFFFFFFFFFFFFFFFFFFFFFF24
:101EC000FFFFFFFFFFFFFFFFFFFFFFFFFFFFFFFF22
:101ED000FFFFFFFFFFFFFFFFFFFFFFFFFFFFFFFF12
:101EE000FFFFFFFFFFFFFFFFFFFFFFFD5FFFFFFFA4
:101EF000FFFFFFFFFFFFFFFFFFFFFFFFFFFFFFFFF2
:101F0000FFFFFFFFFFFFFFFFFFFFFFFFFFFFFFFFE1
:101F1000FFFFFFFFFFFFFFFFFFFFFFFFFFFFFFFFD1
:101F2000FFFFFFFFFFFFFFFFFFFFFFFF5FFFFFFF61
:101F3000FFFFFFFFFFFFFFFFFFFFFFFFFFFFFFFFB1
:101F4000FFFFFFFFFFFFFFFFFFFFFFFFFFFFFFFFA1
:101F5000FFFFFFFFFFFFFFFFFFFFFFFFFFFFFFFF91
:101F6000FFFFFFFFFFFFFFFFFFFFFFFFFFFFFFFF81
:101F7000FFFFFFFFFFFFFFFFFFFFFFFFFFFFFFFF71
:101F8000FFFFFFFFFFFFFFFFFFFFFFFD5FFFFFFF03
:101F9000FFFFFFFFFFFFFFFFFFFFFFFFFFFFFFFF51
:101FA000FFFFFFFFFFFFFFFFFFFFFFFFFFFFFFFF41
:101FB000FFFFFFFFFFFFFFFFFFFFFFFFFFFFFFFF31
:101FC000FFFFFFFFFFFFFFFFFFFFFFFD5FFFFFFFC3
:101FD000FFFFFFFFFFFFFFFFFFFFFFFFFFFFFFFF11
:101FE000FFFFFFFFFFFFFFFFFFFFFFFFFFFFFFFF01
:101FF000FFFFFFFFFFFFFFFFFFFFFFFFFFFFFFFFF1
:10200000FFFFFFFFFFFFFFFFFFFFFFFFFFFFFFFFE0
:10201000FFFFFFFFFFFFFFFFFFFFFFFFFFFFFFFFD0
:10202000FFFFFFFFFFFFFFFFFFFFFFFD5FFFFFFF62
:10203000FFFFFFFFFFFFFFFFFFFFFFFFFFFFFFFFB0
:10204000FFFFFFFFFFFFFFFFFFFFFFFFFFFFFFFFA0
:10205000FFFFFFFFFFFFFFFFFFFFFFFFFFFFFFFF90
:10206000FFFFFFFFFFFFFFFFFFFFFFFD5FFFFFFF22
:10207000FFFFFFFFFFFFFFFFFFFFFFFFFFFFFFFF70
:10208000FFFFFFFFFFFFFFFFFFFFFFFFFFFFFFFF60
:10209000FFFFFFFFFFFFFFFFFFFFFFFFFFFFFFFF50
:1020A000FFFFFFFFFFFFFFFFFFFFFFFFFFFFFFFF40
:1020B000FFFFFFFFFFFFFFFFFFFFFFFFFFFFFFFF30
:1020C000FFFFFFFFFFFFFFFFFFFFFFFD5FFFFFFFC2
:1020D000FFFFFFFFFFFFFFFFFFFFFFFFFFFFFFFF10
:1020E000FFFFFFFFFFFFFFFFFFFFFFFFFFFFFFFF00
:1020F000FFFFFFFFFFFFFFFFFFFFFFFFFFFFFFFFF0
:10210000FFFFFFFFFFFFFFFFFFFFFFFD5FFFFFFF81
:10211000FFFFFFFFFFFFFFFFFFFFFFFFFFFFFFFFCF
:10212000FFFFFFFFFFFFFFFFFFFFFFFFFFFFFFFFBF
:10213000FFFFFFFFFFFFFFFFFFFFFFFFFFFFFFFFAF
:10214000FFFFFFFFFFFFFFFFFFFFFFFFFFFFFFFF9F
:10215000FFFFFFFFFFFFFFFFFFFFFFFFFFFFFFFF8F
:10216000FFFFFFFFFFFFFFFFFFFFFFFD5FFFFFFF21
:10217000FFFFFFFFFFFFFFFFFFFFFFFFFFFFFFFF6F
:10218000FFFFFFFFFFFFFFFFFFFFFFFFFFFFFFFF5F
:10219000FFFFFFFFFFFFFFFFFFFFFFFFFFFFFFFF4F
:1021A000FFFFFFFFFFFFFFFFFFFFFFFD5FFFFFFFE1
:1021B000FFFFFFFFFFFFFFFFFFFFFFFFFFFFFFFF2F
:1021C000FFFFFFFFFFFFFFFFFFFFFFFFFFFFFFFF1F
:1021D000FFFFFFFFFFFFFFFFFFFFFFFFFFFFFFFF0F
:1021E000FFFFFFFFFFFFFFFFFFFFFFFFFFFFFFFFFF
:1021F000FFFFFFFFFFFFFFFFFFFFFFFFFFFFFFFFEF
:10220000FFFFFFFFFFFFFFFFFFFFFFFD5FFFFFFF80
:10221000FFFFFFFFFFFFFFFFFFFFFFFFFFFFFFFFCE
:10222000FFFFFFFFFFFFFFFFFFFFFFFFFFFFFFFFBE
:10223000FFFFFFFFFFFFFFFFFFFFFFFFFFFFFFFFAE
:10224000FFFFFFFFFFFFFFFFFFFFFFFD5FFFFFFF40
:10225000FFFFFFFFFFFFFFFFFFFFFFFFFFFFFFFF8E
:10226000FFFFFFFFFFFFFFFFFFFFFFFFFFFFFFFF7E
:10227000FFFFFFFFFFFFFFFFFFFFFFFFFFFFFFFF6E
:10228000FFFFFFFFFFFFFFFFFFFFFFFFFFFFFFFF5E
:10229000FFFFFFFFFFFFFFFFFFFFFFFFFFFFFFFF4E
:1022A000FFFFFFFFFFFFFFFFFFFFFFFD5FFFFFFFE0
:1022B000FFFFFFFFFFFFFFFFFFFFFFFFFFFFFFFF2E
:1022C000FFFFFFFFFFFFFFFFFFFFFFFFFFFFFFFF1E
:1022D000FFFFFFFFFFFFFFFFFFFFFFFFFFFFFFFF0E
:1022E000FFFFFFFFFFFFFFFFFFFFFFFD5FFFFFFFA0
:1022F000FFFFFFFFFFFFFFFFFFFFFFFFFFFFFFFFEE
:10230000FFFFFFFFFFFFFFFFFFFFFFFFFFFFFFFFDD
:10231000FFFFFFFFFFFFFFFFFFFFFFFFFFFFFFFFCD
:10232000FFFFFFFFFFFFFFFFFFFFFFFFFFFFFFFFBD
:10233000FFFFFFFFFFFFFFFFFFFFFFFFFFFFFFFFAD
:10234000FFFFFFFFFFFFFFFFFFFFFFFD5FFFFFFF3F
:10235000FFFFFFFFFFFFFFFFFFFFFFFFFFFFFFFF8D
:10236000FFFFFFFFFFFFFFFFFFFFFFFFFFFFFFFF7D
:10237000FFFFFFFFFFFFFFFFFFFFFFFFFFFFFFFF6D
:10238000FFFFFFFFFFFFFFFFFFFFFFFD5FFFFFFFFF
:10239000FFFFFFFFFFFFFFFFFFFFFFFFFFFFFFFF4D
:1023A000FFFFFFFFFFFFFFFFFFFFFFFFFFFFFFFF3D
:1023B000FFFFFFFFFFFFFFFFFFFFFFFFFFFFFFFF2D
:1023C000FFFFFFFFFFFFFFFFFFFFFFFFFFFFFFFF1D
:1023D000FFFFFFFFFFFFFFFFFFFFFFFFFFFFFFFF0D
:1023E000FFFFFFFFFFFFFFFFFFFFFFFD5FFFFFFF9F
:1023F000FFFFFFFFFFFFFFFFFFFFFFFFFFFFFFFFED
:10240000FFFFFFFFFFFFFFFFFFFFFFFFFFFFFFFFDC
:10241000FFFFFFFFFFFFFFFFFFFFFFFFFFFFFFFFCC
:10242000FFFFFFFFFFFFFFFFFFFFFFFD5FFFFFFF5E
:10243000FFFFFFFFFFFFFFFFFFFFFFFFFFFFFFFFAC
:10244000FFFFFFFFFFFFFFFFFFFFFFFFFFFFFFFF9C
:10245000FFFFFFFFFFFFFFFFFFFFFFFFFFFFFFFF8C
:10246000FFFFFFFFFFFFFFFFFFFFFFFFFFFFFFFF7C
:10247000FFFFFFFFFFFFFFFFFFFFFFFFFFFFFFFF6C
:10248000FFFFFFFFFFFFFFFFFFFFFFFD5FFFFFFFFE
:10249000FFFFFFFFFFFFFFFFFFFFFFFFFFFFFFFF4C
:1024A000FFFFFFFFFFFFFFFFFFFFFFFFFFFFFFFF3C
:1024B000FFFFFFFFFFFFFFFFFFFFFFFFFFFFFFFF2C
:1024C000FFFFFFFFFFFFFFFFFFFFFFFD5FFFFFFFBE
:1024D000FFFFFFFFFFFFFFFFFFFFFFFFFFFFFFFF0C
:1024E000FFFFFFFFFFFFFFFFFFFFFFFFFFFFFFFFFC
:1024F000FFFFFFFFFFFFFFFFFFFFFFFFFFFFFFFFEC
:10250000FFFFFFFFFFFFFFFFFFFFFFFFFFFFFFFFDB
:10251000FFFFFFFFFFFFFFFFFFFFFFFFFFFFFFFFCB
:10252000FFFFFFFFFFFFFFFFFFFFFFFD5FFFFFFF5D
:10253000FFFFFFFFFFFFFFFFFFFFFFFFFFFFFFFFAB
:10254000FFFFFFFFFFFFFFFFFFFFFFFFFFFFFFFF9B
:10255000FFFFFFFFFFFFFFFFFFFFFFFFFFFFFFFF8B
:10256000FFFFFFFFFFFFFFFFFFFFFFFD5FFFFFFF1D
:10257000FFFFC0000000000000000000000000009D
:102580000000000000000000000000000000003F0C
:10259000FFFFFFFFFFFFFFFFFFFFFFFFFFFFFFFF4B
:1025A000FFFF57FFFFFFFFFFFFFFFFFFFFFFFFFFE3
:1025B000FFFFFFFFFFFFFFFFFFFFFFFFFFFFFFFF2B
:1025C000FFFFFFFFFFFFFFFFFFFFFFFD5FFFFFFFBD
:1025D000FFFFFFFFFFFFFFFFFFFFFFFFFFFFFFFF0B
:1025E000FFFFFFFFFFFFFFFFFFFFFFFFFFFFFFFFFB
:1025F000FFFFFFFFFFFFFFFFFFFFFFFFFFFFFFFFEB
:10260000FFFFFFFFFFFFFFFFFFFFFFFD5FFFFFFF7C
:10261000FFFC0000000000000000000000000000BF
:102620000000000000000000000000000000000F9B
:10263000FFFFFFFFFFFFFFFFFFFFFFFFFFFFFFFFAA
:10264000FFFD55FFFFFFFFFFFFFFFFFFFFFFFFFF46
:10265000FFFFFFFFFFFFFFFFFFFFFFFFFFFFFFFF8A
:10266000FFFFFFFFFFFFFFFFFFFFFFFD5FFFFFFF1C
:10267000FFFFFFFFFFFFFFFFFFFFFFFFFFFFFFFF6A
:10268000FFFFFFFFFFFFFFFFFFFFFFFFFFFFFFFF5A
:10269000FFFFFFFFFFFFFFFFFFFFFFFFFFFFFFFF4A
:1026A000FFFFFFFFFFFFFFFFFFFFFFFD5FFFFFFFDC
:1026B000FFFC00000000000000000000000000001F
:1026C0000000000000000000000000000000000307
:1026D000FFFFFFFFFFFFFFFFFFFFFFFFFFFFFFFF0A
:1026E000FFFD55FFFFFFFFFFFFFFFFFFFFFFFFFFA6
:1026F000FFFFFFFFFFFFFFFFFFFFFFFFFFFFFFFFEA
:10270000FFFFFFFFFFFFFFFFFFFFFFFD5FFFFFFF7B
:10271000FFFFFFFFFFFFFFFFFFFFFFFFFFFFFFFFC9
:10272000FFFFFFFFFFFFFFFFFFFFFFFFFFFFFFFFB9
:10273000FFFFFFFFFFFFFFFFFFFFFFFFFFFFFFFFA9
:10274000FFFFFFFFFFFFFFFFFFFFFFFD5FFFFFFF3B
:10275000FFF000000000000000000000000000008A
:102760000000000000000000000000000000000069
:10277000FFFFFFFFFFFFFFFFFFFFFFFFFFFFFFFF69
:10278000FFFD55FFFFFFFFFFFFFFFFFFFFFFFFFF05
:10279000FFFFFFFFFFFFFFFFFFFFFFFFFFFFFFFF49
:1027A000FFFFFFFFFFFFFFFFFFFFFFFD5FFFFFFFDB
:1027B000FFFFFFFFFFFFFFFFFFFFFFFFFFFFFFFF29
:1027C000FFFFFFFFFFFFFFFFFFFFFFFFFFFFFFFF19
:1027D000FFFFFFFFFFFFFFFFFFFFFFFFFFFFFFFF09
:1027E000FFFFFFFFFFFFFFFFFFFFFFFD5FFFFFFF9B
:1027F000FFF00000000000000000000000000000EA
:1028000000000000000000000000000000000000C8
:10281000FFFFFFFFFFFFFFFFFFFFFFFFFFFFFFFFC8
:10282000FFFD55FFFFFFFFFFFFFFFFFFFFFFFFFF64
:10283000FFFFFFFFFFFFFFFFFFFFFFFFFFFFFFFFA8
:10284000FFFFFFFFFFFFFFFFFFFFFFFD5FFFFFFF3A
:10285000FFFFFFFFFFFFFFFFFFFFFFFFFFFFFFFF88
:10286000FFFFFFFFFFFFFFFFFFFFFFFFFFFFFFFF78
:10287000FFFFFFFFFFFFFFFFFFFFFFFFFFFFFFFF68
:10288000FFFFFFFFFFFFFFFFFFFFFFFD5FFFFFFFFA
:10289000FFF0000000000000000000000000000049
:1028A0000000000000000000000000000000000028
:1028B000FFFFFFFFFFFFFFFFFFFFFFFFFFFFFFFF28
:1028C000FFFD55FFFFFFFFFFFFFFFFFFFFFFFFFFC4
:1028D000FFFFFFFFFFFFFFFFFFFFFFFFFFFFFFFF08
:1028E000FFFFFFFFFFFFFFFFFFFFFFFD5FFFFFFF9A
:1028F000FFFFFFFFFFFFFFFFFFFFFFFFFFFFFFFFE8
:10290000FFFFFFFFFFFFFFFFFFFFFFFFFFFFFFFFD7
:10291000FFFFFFFFFFFFFFFFFFFFFFFFFFFFFFFFC7
:10292000FFFFFFFFFFFFFFFFFFFFFFFD5FFFFFFF59
:10293000FFF00000000000000000000000000000A8
:102940000000000000000000000000000000000087
:10295000FFFFFFFFFFFFFFFFFFFFFFFFFFFFFFFF87
:10296000FFFD55FFFFFFFFFFFFFFFFFFFFFFFFFF23
:10297000FFFFFFFFFFFFFFFFFFFFFFFFFFFFFFFF67
:10298000FFFFFFFFFFFFFFFFFFFFFFFD5FFFFFFFF9
:10299000FFFFFFFFFFFFFFFFFFFFFFFFFFFFFFFF47
:1029A000FFFFFFFFFFFFFFFFFFFFFFFFFFFFFFFF37
:1029B000FFFFFFFFFFFFFFFFFFFFFFFFFFFFFFFF27
:1029C000FFFFFFFFFFFFFFFFFFFFFFFD5FFFFFFFB9
:1029D000FFF0000000000000000000000000000008
:1029E00000000000000000000000000000000000E7
:1029F000FFFFFFFFFFFFFFFFFFFFFFFFFFFFFFFFE7
:102A0000FFFD55FFFFFFFFFFFFFFFFFFFFFFFFFF82
:102A1000FFFFFFFFFFFFFFFFFFFFFFFFFFFFFFFFC6
:102A2000FFFFFFFFFFFFFFFFFFFFFFFD5FFFFFFF58
:102A3000FFFFF000000FFFFFFFFFFFFFFFFFFFFFA3
:102A4000FFFFFFFFFFFFFFFFFFFFFFFFFFFFFFFF96
:102A5000FFFFFFFFFFFFFFFFFFFFFFC0003FFFFF84
:102A6000FFFFFFFFFFFFF00000FFFFFD5FFFFFFF25
:102A7000FFF0000000000000000000000000000067
:102A80000000000000000000000000000000000046
:102A9000FFFFFFFFFFFFFFFFFFFFFFFFFFFFFFFF46
:102AA000FFFD55FFFFFFFFFFFFFFFFFFFFFFFFFFE2
:102AB000FFFFFFFFFFFFFFFFFFFFFFFFFFFFFFFF26
:102AC000FFFFFFFFFFFFFFFFFFFFFFFD5FFFFFFFB8
:102AD000FFFFC000000FFFFFFFFFFFFFFFFFFFFF33
:102AE000FFFFFFFFFFFFFFFFFFFFFFFFFFFFFFFFF6
:102AF000FFFFFFFFFFFFFFFFFFFFFC00003FFFFFA7
:102B0000FFFFFFFFFFC0000000FFFFFD5FFFFFFFB3
:102B1000FFF00000000FFFFFFFFFFFFFFFFFFFFFC1
:102B2000FFFFFFFFFFFFFFFFFFFFFFFF00000000B1
:102B3000FFFFFFFFFFFFFFFFFFFFFFFFFFFFFFFFA5
:102B4000FFFD55FFFFFFFFFFFFFFFFFFFFFFFFFF41
:102B5000FFFFFFFFFFFFFFFFFFFFFFFFFFFFFFFF85
:102B6000FFFFFFFFFFFFFFFFFFFFFFFD5FFFFFFF17
:102B7000FFFFC000000FFFFFFFFFFFFFFFFFFFFF92
:102B8000FFFFFFFFFFFFFFFFFFFFFFFFFFFFFFFF55
:102B9000FFFFFFFFFFFFFFFFFFFFC000003FFFFF42
:102BA000FFFFFFFFF000000000FFFFFD5FFFFFFFE2
:102BB000FFF000000003FFFFFFFFFFFFFF557FFF57
:102BC000FF557FFFFFFFFFFFFFFFFFFC000000003E
:102BD000FFFFFFFFFFFFFFFFFFFFFFFFD7FFFFFF2D
:102BE000FFFD55FFFFFFFFFD5FFFFFFFFFFFFFFF43
:102BF000FFFFFFFFFFFFFFFFFFFFFFFFFFFFFFFFE5
:102C0000FFFFFFFFFFFFFFFFFFFFFFFD5FFFFFFF76
:102C1000FFFFC0000003FFFFFFFFFFFFFFFFFFFFFD
:102C2000FFFFFFFFFFFFFFFFFFFFFFFFFFFFFFFFB4
:102C3000FFFFFFFFFFFFFFFFFFFC0000003FFFFF64
:102C4000FFFFFFFF0000000000FFFFFD5FFFFFFF31
:102C5000FFF000000000FFFFFFFFFFFFD55557FF0B
:102C6000F55557FFFFFFFFFFFFFFFFF000000000DB
:102C7000FFFFFFFFFFFFFFFFFFFFFFFF557FFFFF8E
:102C8000FFFD55FFFFFFFFF557FFFFFFFFFFFFFFB2
:102C9000FFFFFFFFFFFFFFFFFFFFFFFFFFFFFFFF44
:102CA000FFFFFFFFFFFFFFFFFFFFFFFD5FFFFFFFD6
:102CB000FFFFC0000003FFFFFFFFFFFFFFFFFFFF5D
:102CC000FFFFFFFFFFFFFFFFFFFFFFFFFFFFFFFF14
:102CD000FFFFFFFFFFFFFFFFFFF00000003FFFFFD0
:102CE000FFFFFFF00000000000FFFFFD5FFFFFFFA0
:102CF000FFF0000000003FFFFFFFFFFF555557FFAB
:102D0000D55555FFFFFFFFFFFFFFFFC0000000008C
:102D1000FFFFFFFFFFFFFFFFFFFFFFFF555FFFFF0D
:102D2000FFFD55FFFFFFFFD557FFFFFFFFFFFFFF31
:102D3000FFFFFFFFFFFFFFFFFFFFFFFFFFFFFFFFA3
:102D4000FFFFFFFFFFFFFFFFFFFFFFFD5FFFFFFF35
:102D5000FFFF00000003FFFFFFFFFFFFFFFFFFFF7C
:102D6000FFFFFFFFFFFFFFFFFFFFFFFFFFFFFFFF73
:102D7000FFFFFFFFFFFFFFFFFF000000003FFFFF1F
:102D8000FFFFFFC00000000000FFFFFD5FFFFFFF2F
:102D9000FFF00003C0000FFFFFFFFFFF55FF55FFCF
:102DA000557F55FFFFF57FFFFFFFFF00003C000050
:102DB000FFFFFFFFFFFFFFFFFFFFFFFF5557FFFF75
:102DC000FFFD57FFFFFFFF5557FFFFFFFFFFFFFF0F
:102DD000FFFFFFFFFFFFFFFFFFFFFFFFFFFFFFFF03
:102DE000FFFFFFFFFFFFFFFFFFFFFFFD5FFFFFFF95
:102DF000FFFF00000000FFFFFFFFFFFFFFFFFFFFDF
:102E0000FFFFFFFFFFFFFFFFFFFFFFFFFFFFFFFFD2
:102E1000FFFFFFFFFFFFFFFFF0000000003FFFFF8D
:102E2000FFFFFF000000000000FFFFFD5FFFFFFF4E
:102E3000FFF00003F00000FFFFFFFFFD57FFD5FF8D
:102E400055FFD57FFFF57FFFFFFFF00000FC00007E
:102E5000FFFFFFFFFFFFFFFFFFFFFFFFD555FFFF56
:102E6000FFFF5FFFFFFFFD555FFFFFFFFFFFFFFF5E
:102E7000FFFFFFFFFFFFFFFFFFFFFFFFFFFFFFFF62
:102E8000FFFFFFFFFFFFFFFFFFFFFFFD5FFFFFFFF4
:102E9000FFFF00000000FFFFFFFFFFFFFFFFFFFF3E
:102EA000FFFFFFFFFFFFFFFFFFFFFFFFFFFFFFFF32
:102EB000FFFFFFFFFFFFFFFF00000000003FFFFFDD
:102EC000FFFFFC000000FFFFFFFFFFFD5FFFFFFFB4
:102ED000FFF00003FC00003FFFFFFFFD57FFD57F21
:102EE00057FFF57FFFF57FFFFFFFC00003FC0000E9
:102EF000FFFFFFFFFFFFFFFFFFFFFFFFF5557FFF16
:102F0000FFFFFFFFFFFFF5557FFFFFFFFFFFFFFF05
:102F1000FFFFFFFFFFFFFFFFFFFFFFFFFFFFFFFFC1
:102F2000FFFFFFFFFFFFFFFFFFFFFFFD5FFFFFFF53
:102F3000FFFC00030000FFFFFFFFFFFFFFFFFFFF9D
:102F4000FFFFFFFFFFFFFFFFFFFFFFFFFFFFFFFF91
:102F5000FFFFFFFFFFFFFFFC00000000003FFFFF3F
:102F6000FFFFFC00003FFFFFFFFFFFFD5FFFFFFFD4
:102F7000FFF00003FF00000FFFFFFFFD57FFD57FAD
:102F800057FFF57FFFF57FFFFFFF00003FFC0000CC
:102F9000FFFFFFFFFFFFFFFFFFFFFFFFFD555FFF8D
:102FA000FFFFFFFFFFFFD555FFFFFFFFFFFFFFFF05
:102FB000FFFFFFFFFFFFFFFFFFFFFFFFFFFFFFFF21
:102FC000FFFFFFFFFFFFFFFFFFFFFFFD5FFFFFFFB3
:102FD000FFFC000300003FFFFFFFFFFFFFFFFFFFBD
:102FE000FFFFFFFFFFFFFF0003FFFFFFFFFFFFFFEC
:102FF000FFFFFFFFFFFFFFFF00000300003FFFFF99
:10300000FFFFF00000FFFFFFFFFFFFFD5FFFFFFF7F
:10301000FFF00003FFC00003FFFFFFFD57FFD57F58
:1030200057FFF57FFFF57FFFFFFC0000FFFC00006E
:10303000FFFFFFFFFFFFFFFFFFFFFFFFFF5557FFF2
:10304000FFFFFFFFFFFF5557FFFFFFFFFFFFFFFFE2
:10305000FFFFFFFFFFFFFFFFFFFFFFFFFFFFFFFF80
:10306000FFFFFFFFFFFFFFFFFFFFFFFD5FFFFFFF12
:10307000FFFC000300003FFFFFFFC0003FFFFFF029
:103080000003FFFFFFFF0000000000003FFFFFFF05
:10309000FFFFFFFFFFFFFFFF00000F00003FFFFFEC
:1030A000FFFFC00003FFFFFFFFFFFFFD5FFFFFFF0C
:1030B000FFF00003FFFC00003FFFFFFD55FFD57F41
:1030C00055FFD57FFFF57FFFFFC00003FFFC000029
:1030D000FFFFFFFFFFFFFFFFFFFFFFFFFFD557FFD2
:1030E000FFF5557FFFFD555FFFFFFFFFFFFFFFFF70
:1030F000FFFFFFFFFFFFFFFFFFFFFFFFFFFFFFFFE0
:10310000FFFFFFFFFFFFFFFFFFFFFFFD5FFFFFFF71
:10311000FFF0000FC0003FFFFFFFC0003FFFFFF0C8
:103120000003FFFFFFF00000000000003FFFFFFF73
:10313000FFFFFFFFFFFFFFFFC000FF00003FFFFF9B
:10314000FFFFC0000FFFFFFFFFFFFFFD5FFFFFFF5F
:10315000FFF00003FFFF00000FFFFFFF5555557FF5
:103160005555557F5555555FFF00000FFFFC00007A
:10317000FFFFFFFFFFFFFFFFFFFFFFFFFFF555FF13
:10318000F5555555FFFD557FFFFFFFFFFFFFFFFF83
:10319000FFFFFFFFFF0000FFFFFFFFFC000000003C
:1031A0003FFFFFFFFFFFFFFFFFFFFFFD5FFFFFFF91
:1031B000FFF0000FC0003FFFFFFFC0003FFFFFF028
:1031C0000003FFFFFFC00000000000003FFFFFFF03
:1031D000FFFFFFFFFFFFFFFFC00FFF00003FFFFFEC
:1031E000FFFFC0003FFFFFFFFFFFFFFD5FFFFFFF8F
:1031F000FFF00003FFFFC00003FFFFFFD555557F21
:10320000D555557F5555555FFC00003FFFFC00002C
:10321000FFFFFFFFFFFFFFFFFFFFFFFFFFFD57FF68
:10322000555555555FFD55FFFFFFFFFFFFFFFFFFA2
:10323000FFFFFFFFF000000FFFFFFFFC000000009A
:103240003FFFFFFFFFFFFFFFFFFFFFFD5FFFFFFFF0
:10325000FFF0000FC0000FFFFFFFC0003FFFFFF0B7
:103260000003FFFFFF000000000000003FFFFFFF22
:10327000FFFFFFFFFFFFFFFFC0FFFF00003FFFFF5B
:10328000FFFF00003FFFFFFFFFFFFFFD5FFFFFFFAE
:10329000FFF00003FFFFF00000FFFFFFFD55D57FAB
:1032A000FD55F57F5555555FF00000FFFFFC000010
:1032B000FFFFFFFFFFFFFFFFFFFFFFFFFFFF5FFDC0
:1032C0005555555555FF57FFFFFFFFFFFFFFFFFF08
:1032D000FFFFFFFF00000003FFFFFFFC00000000F6
:1032E0003FFFFFFFFFFFFFFFFFFFFFFD5FFFFFFF50
:1032F000FFF0003FC0000FFFFFFFC0003FFFFFF0E7
:103300000003FFFFFC000000000000003FFFFFFF84
:10331000FFFFFFFFFFFFFFFFF3FFFF00003FFFFF87
:10332000FFFF0000FFFFFFFFFFFFFFFD5FFFFFFF4D
:10333000FFF00003FFFFFF00003FFFFFFFFFD5FF8F
:10334000FFFFF57FFFF57FFFC0000FFFFFFC0000D0
:10335000FFFFFFFFFFFFFFFFFFFFFFFFFFFFFFF587
:1033600055555555557FFFFFFFFFFFFFFFFFFFFF3F
:10337000FFFFFFFC00000000FFFFFFFC000000005B
:103380003FFFFFFFFFFFFFFFFFFFFFFD5FFFFFFFAF
:10339000FFC0003FF0000FFFFFFFC0003FFFFFF046
:1033A0000003FFFFFC0000FFF00000003FFFFFFFF5
:1033B000FFFFFFFFFFFFFFFFFFFFFF00003FFFFFDB
:1033C000FFFF0000FFFFFFFFFFFFFFFD5FFFFFFFAD
:1033D000FFF00003FFFFFFC00003FFFFFFFFD5FF6B
:1033E000FFFFD57FFFF57FFC00003FFFFFFC0000E3
:1033F000FFFFFFFFFFFFFFFFFFFFFFFFFFFFFFD507
:1034000055555555555FFFFFFFFFFFFFFFFFFFFFBE
:10341000FFFFFFF0000000003FFFFFFC0000000086
:103420003FFFFFFFFFFFFFFFFFFFFFFD5FFFFFFF0E
:10343000FFC0003FF00003FFFFFFC0003FFFFFF0B1
:103440000003FFFFF00003FFFF0000FFFFFFFFFF8F
:10345000FFFFFFFFFFFFFFFFFFFFFF00003FFFFF3A
:10346000FFFC0000FFFFFFFFFFFFFFFD5FFFFFFF0F
:10347000FFF00003FFFFFFF00000FFFFFFFF55FF1D
:10348000FFFF55FFFFF57FF00000FFFFFFFC00008E
:10349000FFFFFFFFFFFFFFFFFFFFFFFFFFFFFF55E6
:1034A000555555555557FFFFFFFFFFFFFFFFFFFF26
:1034B000FFFFFFF000FFFC003FFFFFFC0FFFFFFFDF
:1034C000FFFFFFFFFFFFFFFFFFFFFFFD5FFFFFFFAE
:1034D000FFC0003FF00003FFFFFFC0003FFFFFF011
:1034E0000003FFFFF0000FFFFFC0003FFFFFFFFFE3
:1034F000FFFFFFFFFFFFFFFFFFFFFF00003FFFFF9A
:10350000FFFC0000FFC0003FFFFFFFFD5FFFFFFF6C
:10351000FFF00003FFFFFFFC00003FFFFFFD57FF30
:10352000FFFD55FFFFF57FC00003FFFFFFFC00001C
:10353000FFFFFFFFFFFFFFFFFFFFFFFFFFFFFD5547
:10354000555555555555FFFFFFFFFFFFFFFFFFFF87
:10355000FFFFFFF00FFFFF000FFFFFFC0FFFFFFF5C
:10356000FFFFFFFFFFFFFFFFFFFFFFFD5FFFFFFF0D
:10357000FF0000FFF00003FFFFFFC0003FFFFFF070
:103580000003FFFFC0003FFFFFC0003FFFFFFFFF42
:10359000FFFFFFFFFFFFFFFFFFFFFF00003FFFFFF9
:1035A000FFFC0000C0000000FFFFFFFD5FFFFFFF0A
:1035B000FFF00003FFFFFFFFC0000FFF55555FFF47
:1035C000D55557FFFFF57F00003FFFFFFFFC0000D0
:1035D000FFFFFFFFFFFFFFFFFFFFFFFFFFFFF555AF
:1035E000555555555555FFFFFFFFFFFFFFFFFFFFE7
:1035F000FFFFFFFC3FFFFFC00FFFFFFC0FFFFFFFC0
:10360000FFFFFFFFFFFFFFFFFFFFFFFD5FFFFFFF6C
:10361000FF0000FFFC0003FFFFFFC0003FFFFFF0C3
:103620000003FFFFC0003FFFFFC0003FFFFFFFFFA1
:10363000FFFFFFFFFFFFFFFFFFFFFF00003FFFFF58
:10364000FFFC0000000000000FFFFFFD5FFFFFFF19
:10365000FFF00003FFFFFFFFF00000FF55557FFF65
:10366000D5555FFFFFF5700000FFFFFFFFFC000076
:10367000FFFFFFFFFFFFFFFFFFFFFFFFFFFFF5550E
:103680005555555555557FFFFFFFFFFFFFFFFFFFC6
:10369000FFFFFFFFFFFFFFC00FFFFFFC0FFFFFFF5C
:1036A000FFFFFFFFFFFFFFFFFFFFFFFD5FFFFFFFCC
:1036B000FF0000FFFC0000FFFFFFC0003FFFFFF026
:1036C0000003FFFFC0003FFFFFF0003FFFFFFFFFD1
:1036D000FFFFFFFFFFFFFFFFFFFFFF00003FFFFFB8
:1036E000FFFC00000000000000FFFFFD5FFFFFFF88
:1036F000FFF00003FFFFFFFFFC00003F555FFFFFEF
:10370000D557FFFFFFFFC00003FFFFFFFFFC0000D6
:10371000FFFFFFFFFFFFFFFFFFFFFFFFFFFFD5558D
:103720005555555555557FFFFFFFFFFFFFFFFFFF25
:10373000FFFFFFFFFFFFFFC00FFFFFFC0FFFFFFFBB
:10374000FFFFFFFFFFFFFFFFFFFFFFFD5FFFFFFF2B
:10375000FF0000FFFC0000FFFFFFC0003FFFFFF085
:103760000003FFFFC0003FFFFFF0003FFFFFFFFF30
:10377000FFFFFFFFFFFFFFFFFFFFFF00003FFFFF17
:10378000FFFC000000000000003FFFFD5FFFFFFFA7
:10379000FFF00003FFFFFFFFFF00000FFFFFFFFF31
:1037A000FFFFFFFFFFFF00000FFFFFFFFFFC000018
:1037B000FFFFFFFFFFFFFFFFFFFFFFFFFFFFD555ED
:1037C0005555555555555FFFFFFFFFFFFFFFFFFFA5
:1037D000FFFFFFFFFFFFFFF003FFFFFC0FFFFFFFF7
:1037E000FFFFFFFFFFFFFFFFFFFFFFFD5FFFFFFF8B
:1037F000FC0003FFFF0000FFFFFFC0003FFFFFF0E2
:103800000003FFFFC0003FFFFFF0003FFFFFFFFF8F
:10381000FFFFFFFFFFFFFFFFFFFFFF00003FFFFF76
:10382000FFFC000000000000003FFFFD5FFFFFFF06
:10383000FFF00003FFFFFFFFFFF00003FFFFFFFFAC
:10384000FFFFFFFFFFFC0000FFFFFFFFFFFC00008A
:10385000FFFFFFFFFFFFFFFFFFFFFFFFFFFF5555CC
:103860005555555555555FFFFFFFFFFFFFFFFFFF04
:10387000FFFFFFFFFFFFFFF003FFFFFC0FFFFFFF56
:10388000FFFFFFFFFFFFFFFFFFFFFFFD5FFFFFFFEA
:10389000FC0003FFFF00003FFFFFC0003FFFFFF001
:1038A0000003FFFFC0003FFFFFC0003FFFFFFFFF1F
:1038B000FFFFFFFFFFFFFFFFFFFFFF00003FFFFFD6
:1038C000FFFC000000000000000FFFFD5FFFFFFF96
:1038D000FFF00003FFFFFFFFFFFC00003FFFFFFFC3
:1038E000FFFFFFFFFFC00003FFFFFFFFFFFC000023
:1038F000FFFFFFFFFFFFFFFFFFFFFFFFFFFF55552C
:103900005555555555555FFFFFFFFFFFFFFFFFFF63
:10391000FFFFFFFFFFFFFFF003FFFFFC0FFFFFFFB5
:10392000FFFFC0FFFFFF0003FFFFFFFD5FFFFFFF83
:10393000FC0003FFFF00003FFFFFC0003FFFFFF060
:103940000003FFFFC0003FFFFFC0003FFFFFFFFF7E
:10395000FFFFFFFFFFFFFFFFFFFFFF00003FFFFF35
:10396000FFFC000003FFFC000003FFFD5FFFFFFF03
:10397000FFF00003FFFFFFFFFFFF00000FFFFFFF4F
:10398000FFFFFFFFFF00000FFFFFFFFFFFFC000036
:10399000FFFFFFFFFFFFFFFFFFFFFFFFFFFF55558B
:1039A00055555555555557FFFFFFFFFFFFFFFFFFCB
:1039B000FFFFFFFFFFFFFFF003FFFFFC0FFFFFFF15
:1039C000FFFC003FFFFC00003FFFFFFD5FFFFFFF2C
:1039D000F0000FFFFF00003FFFFFC0003FFFFFF0C0
:1039E0000003FFFFF0000FFFFF00003FFFFFFFFF9E
:1039F000FFFFFFFFFFFFFFFFFFFFFF00003FFFFF95
:103A0000FFFC0000FFFFFFC00003FFFD5FFFFFFFA3
:103A1000FFF00003FFFFFFFFFFFFC00003FFFFFFFA
:103A2000FFFFFFFFFC00003FFFFFFFFFFFFC000068
:103A3000FFFFFFFFFFFFFFFFFFFD555557FF5555E8
:103A400055555555555557FF555555FFFFFFFFFF28
:103A5000FFFFFFFFFFFFFFF00FFFFFFC0FFFFFFF68
:103A6000FFF0000FFFF000000FFFFFFD5FFFFFFF03
:103A7000F0000FFFFFC0000FFFFFC0003FFFFFF08F
:103A80000003FFFFF00003FFFF00003FFFFFFFFF09
:103A9000FFFFFFFFFFFFFFFFFFFFFF00003FFFFFF4
:103AA000FFFC0000FFFFFFF00003FFFD5FFFFFFFD3
:103AB000FFF00003FFFFFFFFFFFFFC0000FFFFFF21
:103AC000FFFFFFFFF00003FFFFFFFFFFFFFC000011
:103AD000FFFFFFFFFFFFFFFFFFF5555555FF555552
:103AE00055555555555557FD5555557FFFFFFFFF0A
:103AF000FFFFFFFFFFFFFFC00FFFFFFC0FFFFFFFF8
:103B0000FFF03C03FFC03FFC03FFFFFD5FFFFFFF33
:103B1000F0000FFFFFC0000FFFFFC0003FFFFFF0EE
:103B20000003FFFFF00000FFF00000FFFFFFFFFFBA
:103B3000FFFFFFFFFFFFFFFFFFFFFF00003FFFFF53
:103B4000FFFC0000FFFFFFF00003FFFD5FFFFFFF32
:103B5000FFF00003FFFFFFFFFFFFFF00003FFFFF3D
:103B6000FFFFFFFF00000FFFFFFFFFFFFFFC000054
:103B7000FFFFFFFFFFFFFFFFFFF5555555FF5555B1
:103B800055555555555557F55555557FFFFFFFFF71
:103B9000FFFFFFFFFFFFFFC00FFFFFFC0FFFFFFF57
:103BA000FFC0FF03FF00FFFFC3FFFFFD5FFFFFFF3D
:103BB000C0000FFFFFC0000FFFFFC0003FFFFFF07E
:103BC0000003FFFFFC000000000003FFFFFFFFFFFA
:103BD000FFFFFFFFFFFFFFFFFFFFFF00003FFFFFB3
:103BE000FFFC0000FFFFFFFC0000FFFD5FFFFFFF89
:103BF000FFF00003FFFFFFFFFFFFFFC00003FFFF19
:103C0000FFFFFFFC00003FFFFFFFFFFFFFFC000086
:103C1000FFFFFFFFFFFFFFFFFFF5555555FF555510
:103C200055555555555557F55555557FFFFFFFFFD0
:103C3000FFFFFFFFFFFFFFC00FFFFFFC000003FFC0
:103C4000FFC3FFC0FF03FFFFC0FFFFFD5FFFFFFFDC
:103C5000C0003FFFFFC0000FFFFFC0003FFFFFF0AD
:103C60000003FFFFFF000000000003FFFFFFFFFF56
:103C7000FFFFFFFFFFFFFFFFFFFFFF00003FFFFF12
:103C8000FFFC0000FFFFFFFC0000FFFD5FFFFFFFE8
:103C9000FFF00003FFFFFFFFFFFFFFF00000FFFF4B
:103CA000FFFFFFF00000FFFFFFFFFFFFFFFC000032
:103CB000FFFFFFFFFFFFFFFFFFFD555555FF555568
:103CC00055555555555557FD555555FFFFFFFFFFA8
:103CD000FFFFFFFFFFFFFF003FFFFFFC0000003F73
:103CE000FFC3FFC0FF0FFFFFF0FFFFFD5FFFFFFF00
:103CF000C000000000000003FFFFC0003FFFFFF016
:103D00000003FFFFFC00000000000FFFFFFFFFFFAC
:103D1000FFFFFFFFFFFFFFFFFFFFFF00003FFFFF71
:103D2000FFFC0000FFFFFFFC0000FFFD5FFFFFFF47
:103D3000FFF00003FFFFFFFFFFFFFFF000003FFF6A
:103D4000FFFFFFC00000FFFFFFFFFFFFFFFC0000C1
:103D5000FFFFFFFFFFFFFFFFFFFFFFFFFFFF5555C7
:103D600055555555555557FFFFFFFFFFFFFFFFFF07
:103D7000FFFFFFFFFFFFFF003FFFFFFC000000030E
:103D8000FFC3FF00FF0FFFFFF0FFFFFD5FFFFFFF1F
:103D9000C000000000000003FFFFC0003FFFFFF075
:103DA0000003FFFFFC00000000003FFFFFFFFFFFDC
:103DB000FFFFFFFFFFFFFFFFFFFFFF00003FFFFFD1
:103DC000FFFC0000FFFFFFFC0000FFFD5FFFFFFFA7
:103DD000FFF00003FFFFFFFFFFFFFFC000000FFF2A
:103DE000FFFFFF0000003FFFFFFFFFFFFFFC0000A1
:103DF000FFFFFFFFFFFFFFFFFFFFFFFFFFFF555527
:103E000055555555555557FFFFFFFFFFFFFFFFFF66
:103E1000FFFFFFFFFFFFFC00FFFFFFFC00000000B3
:103E2000FFF0FC03FF0FFFFFF0FFFFFD5FFFFFFF51
:103E30000000000000000003FFFFC0003FFFFFF094
:103E40000003FFFFF00000000003FFFFFFFFFFFF84
:103E5000FFFFFFFFFFFFFFFFFFFFFF00003FFFFF30
:103E6000FFFC0000FFFFFFFC0000FFFD5FFFFFFF06
:103E7000FFF00003FFFFFFFFFFFFFF00000000FF58
:103E8000FFFFF00000000FFFFFFFFFFFFFFC00003F
:103E9000FFFFFFFFFFFFFFFFFFFFFFFFFFFF555586
:103EA0005555555555555FFFFFFFFFFFFFFFFFFFBE
:103EB000FFFFFFFFFFFFF000FFFFFFFFFFFF00001E
:103EC0003FF00003FF0FFFFFFFFFFFFD5FFFFFFF5E
:103ED0000000000000000000FFFFC0003FFFFFF0F7
:103EE0000003FFFFC0003F0003FFFFFFFFFFFFFFD6
:103EF000FFFFFFFFFFFFFFFFFFFFFF00003FFFFF90
:103F0000FFFC0000FFFFFFFC0000FFFD5FFFFFFF65
:103F1000FFF00003FFFFFFFFFFFFFC000000003F7A
:103F2000FFFFC000000003FFFFFFFFFFFFFC0000DA
:103F3000FFFFFFFFFFFFFFFFFFFFFFFFFFFFD55565
:103F40005555555555555FFFFFFFFFFFFFFFFFFF1D
:103F5000FFFFFFFFFFFFF003FFFFFFFFFFFFFC007E
:103F60003FFC000FFF0FFFFFFFFFFFFD5FFFFFFFA5
:103F70000000000000000000FFFFC0003FFFFFC086
:103F80000003FFFFC000FFFFFFFFFFFFFFFFFFFF7A
:103F9000FFFFFFFFFFFFFFFFFFFFFF00003FFFFFEF
:103FA000FFFC0000FFFFFFFC0003FFFD5FFFFFFFC2
:103FB000FFF00003FFFFFFFFFFFFC0000300000F43
:103FC000FFFF00000C0000FFFFFFFFFFFFFC0000F1
:103FD000FFFFFFFFFFFFFFFFFFFFFFFFFFFFD555C5
:103FE0005555555555555FFFFFFFFFFFFFFFFFFF7D
:103FF000FFFFFFFFFFFFC00FFFFFFFFFFFFFFFC03F
:104000000FFFC0FFFF0FFFFFFFFFFFFD5FFFFFFC84
:104010000000000000000000FFFFC0003FFFFFC0E5
:104020000003FFFFC000FFFFFFFFFFFFFFFFFFFFD9
:10403000FFFFFFFFFFFFFFFFFFFFFF00003FFFFF4E
:10404000FFFF00003FFFFFF00003FFFD5FFFFFFFEA
:10405000FFF00003FFFFFFFFFFFF00000FF0000372
:10406000FFFC0000FF00000FFFFFFFFFFFFC000050
:10407000FFFFFFFFFFFFFFFFFFFFFFFFFFFFF55504
:104080005555555555557FFFFFFFFFFFFFFFFFFFBC
:10409000FFFFFFFFFFFF000FFFFFFFFFFFFFFFF02E
:1040A0000FFFFFFFFF0FFFFFFFFFFFFD5FFFFFFCA5
:1040B0000000000000000000FFFFC0000FFFFF0035
:1040C0000003FFFF0000FFFFFFFFFFFFFFFFFFFFF9
:1040D000FFFFFFFFFFFFFFFFFFFFFF00003FFFFFAE
:1040E000FFFF00003FFFFFF00003FFFD5FFFFFFF4A
:1040F000FFF00003FFFFFFFFFFFC00003FFC00009C
:104100003FC00003FFC00003FFFFFFFFFFFC0000F4
:10411000FFFFFFFFFFFFFFFFFFFFFFFFFFFFF55563
:104120005555555555557FFFFFFFFFFFFFFFFFFF1B
:10413000FFFFFFFFFFFC003FFFFFFFFFFFFFFFF060
:1041400003FFFFFFFF0FFFFFFFFFFFFD5FFFFFFC10
:104150000003FFFFFFFF00003FFFC0000FFFFC0058
:104160000003FFFF0000FFFFFFFFFFFFFFFFFFFF58
:10417000FFFFFFFFFFFFFFFFFFFFFF00003FFFFF0D
:10418000FFFF00000FFFFFC00003FFFD5FFFFFFF09
:10419000FFF00003FFFFFFFFFFF00000FFFF000044
:1041A0000F00000FFFF00000FFFFFFFFFFFC00000B
:1041B000FFFFFFFFFFFFFFFFFFFFFFFFFFFFFD55BB
:1041C000555555555555FFFFFFFFFFFFFFFFFFFFFB
:1041D000FFFFFFFFFFF000FFFFFFFFFFFFFFFFFC00
:1041E00003FFFFFFFF0FFFFFFFFFFFFD5FFFFFFC70
:1041F0000003FFFFFFFF00003FFFC0000FFFF000C4
:104200000003FFFF00003FFFFFFFFFFFFFFFFFFF77
:10421000FFFFFFFFFFFFFFFF0000000000000003A3
:10422000FFFFC00003FFFF00000FFFFD5FFFFFFF68
:10423000FFF00003FFFFFFFFFF00000FFFFFC000C4
:104240000000003FFFFF00003FFFFFFFFFFC0000FA
:10425000FFFFFFFFFFFFFFFFFFFFFFFFFFFFFD551A
:10426000555555555557FFFFFFFFFFFFFFFFFFFF58
:10427000FFFFFFFFFFC003FFFFFFFFFFFFFFFFFC8C
:1042800003FFFFFFFF0FFFFFFFFFFFFD5FFFFFF0DB
:10429000000FFFFFFFFF00003FFFF00000FF0000E6
:1042A0000003FFFFC00003FFFFFFFFFFFFFFFFFF53
:1042B000FFFFFFFFFFFFFFFF000000000000000303
:1042C000FFFFC00000FFFC00000FFFFD5FFFFFFFCE
:1042D000FFF00003FFFFFFFFFC00003FFFFFF000C7
:1042E000000003FFFFFFC00003FFFFFFFFFC000013
:1042F000FFFFFFFFFFFFFFFFFFFFFFFFFFFFFF5578
:1043000055555555555FFFFFFFFFFFFFFFFFFFFFAF
:10431000FFFFFFFFFFC00FFFFFFFFFFFFFFFFFFCDF
:1043200003FFFFFFFF0FFFFFFFFFFFFD5FFFFFF03A
:10433000000FFFFFFFFF00000FFFF0000000000074
:104340000003FFFFC00000000000FFFFFFFFFFFFB2
:10435000FFFFFFFFFFFFFFFF000000000000000362
:10436000FFFFF00000000000003FFFFD5FFFFFFFC8
:10437000FFF00003FFFFFFFFF00000FFFFFFFF0063
:1043800000000FFFFFFFF00000FFFFFFFFFC000039
:10439000FFFFFFFFFFFFFFFFFFFFFFFFFFFFFFD557
:1043A00055555555557FFFFFFFFFFFFFFFFFFFFFEF
:1043B000FFFFFFFFFF003FFFFFFFFFFFFFFFFFFCCF
:1043C00003FFFFFFFF0FFFFFFFFFFFFD5FFFFFF09A
:1043D000000FFFFFFFFFC0000FFFF0000000000F05
:1043E0000003FFFFF0000000000000FFFFFFFFFFE1
:1043F000FFFFFFFFFFFFFFFF0000000000000003C2
:10440000FFFFFC000000000000FFFFFD5FFFFFFF5B
:10441000FFF00003FFFFFFFFC00003FFFFFFFFC02F
:1044200000003FFFFFFFFC00003FFFFFFFFC00001C
:10443000FFFFFFFFFFFFFFFFFFFFFFFFFFFFFFF596
:104440005555555555FFFFFFFFFFFFFFFFFFFFFFCE
:10445000FFFFFFFFFC003FFFFFFFFFFFFFFFFFFC31
:1044600003FFFFFFFF0FFFFFFFFFFFFD5FFFFFC029
:10447000000FFFFFFFFFC0000FFFFC000000003C2B
:104480000003FFFFF00000000000000FFFFFFFFF30
:10449000FFFFFFFFFFFFFFFF000000000000000321
:1044A000FFFFFC000000000003FFFFFD5FFFFFFFB8
:1044B000FFF00003FFFFFFFF00003FFFFFFFFFF0E3
:1044C0000000FFFFFFFFFFC0000FFFFFFFFC000029
:1044D000FFFFFFFFFFFFFFFFFFFFFFFFFFFD57FF96
:1044E0005555555557FF55FFFFFFFFFFFFFFFFFFD6
:1044F000FFFFFFFFF000FFFFFFFFFFFFFFFFFFFCDD
:1045000003FFFFFFFF0FFFFFFFFFFFFD5FFFFFC088
:10451000003FFFFFFFFFC00003FFFF00000000FCA3
:104520000003FFFFFF00000000000003FFFFFFFF8C
:10453000FFFFFFFFFFFFFFFF000000000000000380
:10454000FFFFFF00000000000FFFFFFD5FFFFFFF08
:10455000FFF00003FFFFFFF00000FFFFFFFFFFFC85
:104560000003FFFFFFFFFFF00000FFFFFFFC000064
:10457000FFFFFFFFFFFFFFFFFFFFFFFFFFF557FFFD
:10458000F55555557FFD557FFFFFFFFFFFFFFFFFEF
:10459000FFFFFFFFC003FFFFFFFFFFFFFFFFFFF075
:1045A0000FFFFFFFFF0FFFFFF0FFFFFD5FFFFFC0EB
:1045B000003FFFFFFFFFF00003FFFFC0000003FC10
:1045C0000003FFFFFC00000000000000FFFFFFFFF2
:1045D000FFFFFFFFFFFFFFFF0000000000000003E0
:1045E000FFFFFFF0000000003FFFFFFD5FFFFFFF48
:1045F000FFF00003FFFFFFC00003FFFFFFFFFFFF0F
:10460000C03FFFFFFFFFFFFC00003FFFFFFC00007B
:10461000FFFFFFFFFFFFFFFFFFFFFFFFFFD557FF7C
:10462000FF555557FFFD555FFFFFFFFFFFFFFFFFE2
:10463000FFFFFFFF000FFFFFFFFFFFFFFFFFFFF088
:104640000FFFFFFFFF0FFFFFF0FFFFFD5FFFFF000A
:10465000003FFFFFFFFFF00003FFFFF000000FFC33
:104660000003FFFFF000000000000000FFFFFFFF5D
:10467000FFFFFFFFFFFFFFFF00000000000000033F
:10468000FFFFFFFF0000000FFFFFFFFD5FFFFFFFC9
:10469000FFF00003FFFFFF00000FFFFFFFFFFFFF22
:1046A000F3FFFFFFFFFFFFFF00000FFFFFFC000015
:1046B000FFFFFFFFFFFFFFFFFFFFFFFFFF5557FF5C
:1046C000FFFFFFFFFFFF5557FFFFFFFFFFFFFFFF4C
:1046D000FFFFFFFC003FFFFFFFFFFFFFFFFFFFC0EB
:1046E0003FFFFFFFFF0FFFFFF0FFFFFD5FFFFFFF3B
:1046F000FFFFFFFFFFFFFFFFFFFFFFFFC003FFFF05
:10470000FFFFFFFFC0000FFFFFF000003FFFFFFFB4
:10471000FFFFFFFFFFFFFFFFFFFFFFFFFFFFFFFFA9
:10472000FFFFFFFFFC0003FFFFFFFFFD5FFFFFFF39
:10473000FFF00003FFFFFC0000FFFFFFFFFFFFFF94
:10474000FFFFFFFFFFFFFFFFF00003FFFFFC000084
:10475000FFFFFFFFFFFFFFFFFFFFFFFFFD555FFFB5
:10476000FFFFFFFFFFFFD555FFFFFFFFFFFFFFFF2D
:10477000FFFFFFFC00FFFFFFFFFFFFFFFFFFFF004A
:104780003FFFFFFFFF0FFFFFC0FFFFFD5FFFFFFFCA
:10479000FFFFFFFFFFFFFFFFFFFFFFFFFFFFFFFF29
:1047A000FFFFFFFF00003FFFFFFC00003FFFFFFF98
:1047B000FFFFFFFFFFFFFFFFFFFFFFFFFFFFFFFF09
:1047C000FFFFFFFFFFFFFFFFFFFFFFFD5FFFFFFF9B
:1047D000FFF00003FFFFC00003FFFFFFFFFFFFFF2D
:1047E000FFFFFFFFFFFFFFFFFC00003FFFFC00009B
:1047F000FFFFFFFFFFFFFFFFFFFFFFFFF5557FFFFD
:10480000FFFFFFFFFFFFF5557FFFFFFFFFFFFFFFEC
:10481000FFFFFFF000FFFFFFFFFFFFFFFFFFFC00B8
:10482000FFFFFFFFFF03FFFFC0FFFFFD5FFFFFFF75
:10483000FFFFFFFFFFFFFFFFFFFFFFFFFFFFFFFF88
:10484000FFFFFFFC0000FFFFFFFF00003FFFFFFF37
:10485000FFFFFFFFFFFFFFFFFFFFFFFFFFFFFFFF68
:10486000FFFFFFFFFFFFFFFFFFFFFFFD5FFFFFFFFA
:10487000FFF00003FFFF00000FFFFFFFFFFFFFFF40
:10488000FFFFFFFFFFFFFFFFFF00000FFFFC000027
:10489000FFFFFFFFFFFFFFFFFFFFFFFFD555FFFFFC
:1048A000FFFFFFFFFFFFFD555FFFFFFFFFFFFFFF64
:1048B000FFFFFFC000000000003FFFC3FFFFC00379
:1048C000FFFFFFFFFFC0FFFF03FFFFFD5FFFFFFFD5
:1048D000FFFFFFFFFFFFFFFFFFFFFFFFFFFFFFFFE8
:1048E000FFFFFFFC0000FFFFFFFF00003FFFFFFF97
:1048F000FFFFFFFFFFFFFFFFFFFFFFFFFFFFFFFFC8
:10490000FFFFFFFFFFFFFFFFFFFFFFFD5FFFFFFF59
:10491000FFF00003FFFC00003FFFFFFFFFFFFFFF72
:10492000FFFFFFFFFFFFFFFFFFC00003FFFC0000D2
:10493000FFFFFFFFFFFFFFFFFFFFFFFF5557FFFFD9
:10494000FFFD57FFFFFFFF555FFFFFFFFFFFFFFF6B
:10495000FFFFFFC000000000003FFFC00000000F8D
:10496000FFFFFFFFFFC000000FFFFFFD5FFFFFFF26
:10497000FFFFFFFFFFFFFFFFFFFFFFFFFFFFFFFF47
:10498000FFFFFFFC0003FFFFFFFF00003FFFFFFFF3
:10499000FFFFFFFFFFFFFFFFFFFFFFFFFFFFFFFF27
:1049A000FFFFFFFFFFFFFFFFFFFFFFFD5FFFFFFFB9
:1049B000FFF00003FFF00003FFFFFFFFFFFFFFFF1B
:1049C000FFFFFFFFFFFFFFFFFFFC0000FFFC0000F9
:1049D000FFFFFFFFFFFFFFFFFFFFFFFF555FFFFF31
:1049E000FFFD55FFFFFFFFD557FFFFFFFFFFFFFF55
:1049F000FFFFFFC000000000003FFFC00000003FBD
:104A0000FFFFFFFFFFF000003FFFFFFD5FFFFFFF25
:104A1000FFFFFFFFFFFFFFFFFFFFFFFFFFFFFFFFA6
:104A2000FFFFFFFC0003FFFFFFFF00003FFFFFFF52
:104A3000FFFFFFFFFFFFFFFFFFFFFFFFFFFFFFFF86
:104A4000FFFFFFFFFFFFFFFFFFFFFFFD5FFFFFFF18
:104A5000FFF00003FF00000FFFFFFFFFFFFFFFFF5E
:104A6000FFFFFFFFFFFFFFFFFFFF00000FFC000045
:104A7000FFFFFFFFFFFFFFFFFFFFFFFF557FFFFF70
:104A8000FFFD55FFFFFFFFF557FFFFFFFFFFFFFF94
:104A9000FFFFFFC000000000003FFFC0000000FF5C
:104AA000FFFFFFFFFFFF0000FFFFFFFD5FFFFFFFB6
:104AB000FFFFFFFFFFFFFFFFFFFFFFFFFFFFFFFF06
:104AC000FFFFFFFC0000FFFFFFFC0000FFFFFFFFF8
:104AD000FFFFFFFFFFFFFFFFFFFFFFFFFFFFFFFFE6
:104AE000FFFFFFFFFFFFFFFFFFFFFFFD5FFFFFFF78
:104AF000FFF00003FC00003FFFFFFFFFFFFFFFFF91
:104B0000FFFFFFFFFFFFFFFFFFFFC00003FC0000F0
:104B1000FFFFFFFFFFFFFFFFFFFFFFFF55FFFFFF4F
:104B2000FFFD55FFFFFFFFFD5FFFFFFFFFFFFFFFE3
:104B3000FFFFFFC000000000003FFFC000003FFF7C
:104B4000FFFFFFFFFFFFFFFFFFFFFFFD5FFFFFFF17
:104B5000FFFFFFFFFFFFFFFFFFFFFFFFFFFFFFFF65
:104B6000FFFFFFFC00003FFFFFF00000FFFFFFFF23
:104B7000FFFFFFFFFFFFFFFFFFFFFFFFFFFFFFFF45
:104B8000FFFFFFFFFFFFFFFFFFFFFFFD5FFFFFFFD7
:104B9000FFF00003F00000FFFFFFFFFFFFFFFFFF3C
:104BA000FFFFFFFFFFFFFFFFFFFFF00000FC000023
:104BB000FFFFFFFFFFFFFFFFFFFFFFFFFFFFFFFF05
:104BC000FFFD55FFFFFFFFFFFFFFFFFFFFFFFFFFA1
:104BD000FFFFFFFFFFFFFFFFFFFFFFFFFFFFFFFFE5
:104BE000FFFFFFFFFFFFFFFFFFFFFFFD5FFFFFFF77
:104BF000FFFFFFFFFFFFFFFFFFFFFFFFFFFFFFFFC5
:104C0000FFFFFFFC00000FFFFF000003FFFFFFFF9F
:104C1000FFFFFFFFFFFFFFFFFFFFFFFFFFFFFFFFA4
:104C2000FFFFFFFFFFFFFFFFFFFFFFFD5FFFFFFF36
:104C3000FFF00003C00003FFFFFFFFFFFFFFFFFFC8
:104C4000FFFFFFFFFFFFFFFFFFFFFC00003C000036
:104C5000FFFFFFFFFFFFFFFFFFFFFFFFFFFFFFFF64
:104C6000FFFD55FFFFFFFFFFFFFFFFFFFFFFFFFF00
:104C7000FFFFFFFFFFFFFFFFFFFFFFFFFFFFFFFF44
:104C8000FFFFFFFFFFFFFFFFFFFFFFFD5FFFFFFFD6
:104C9000FFFFFFFFFFFFFFFFFFFFFFFFFFFFFFFF24
:104CA000FFFFFFFF0000000000000003FFFFFFFF09
:104CB000FFFFFFFFFFFFFFFFFFFFFFFFFFFFFFFF04
:104CC000FFFFFFFFFFFFFFFFFFFFFFFD5FFFFFFF96
:104CD000FFF0000000003FFFFFFFFFFFFFFFFFFFAF
:104CE000FFFFFFFFFFFFFFFFFFFFFFC0000000000F
:104CF000FFFFFFFFFFFFFFFFFFFFFFFFFFFFFFFFC4
:104D0000FFFD55FFFFFFFFFFFFFFFFFFFFFFFFFF5F
:104D1000FFFFFFFFFFFFFFFFFFFFFFFFFFFFFFFFA3
:104D2000FFFFFFFFFFFFFFFFFFFFFFFD5FFFFFFF35
:104D3000FFFFFFFFFFFFFFFFFFFFFFFFFFFFFFFF83
:104D4000FFFFFFFF000000000000000FFFFFFFFF5C
:104D5000FFFFFFFFFFFFFFFFFFFFFFFFFFFFFFFF63
:104D6000FFFFFFFFFFFFFFFFFFFFFFFD5FFFFFFFF5
:104D7000FFF000000000FFFFFFFFFFFFFFFFFFFF4E
:104D8000FFFFFFFFFFFFFFFFFFFFFFF0000000003E
:104D9000FFFFFFFFFFFFFFFFFFFFFFFFFFFFFFFF23
:104DA000FFFD55FFFFFFFFFFFFFFFFFFFFFFFFFFBF
:104DB000FFFFFFFFFFFFFFFFFFFFFFFFFFFFFFFF03
:104DC000FFFFFFFFFFFFFFFFFFFFFFFD5FFFFFFF95
:104DD000FFFFFFFFFFFFFFFFFFFFFFFFFFFFFFFFE3
:104DE000FFFFFFFFC0000000000000FFFFFFFFFF0C
:104DF000FFFFFFFFFFFFFFFFFFFFFFFFFFFFFFFFC3
:104E0000FFFFFFFFFFFFFFFFFFFFFFFD5FFFFFFF54
:104E1000FFF000000003FFFFFFFFFFFFFFFFFFFFAA
:104E2000FFFFFFFFFFFFFFFFFFFFFFFC0000000091
:104E3000FFFFFFFFFFFFFFFFFFFFFFFFFFFFFFFF82
:104E4000FFFD55FFFFFFFFFFFFFFFFFFFFFFFFFF1E
:104E5000FFFFFFFFFFFFFFFFFFFFFFFFFFFFFFFF62
:104E6000FFFFFFFFFFFFFFFFFFFFFFFD5FFFFFFFF4
:104E7000FFFFFFFFFFFFFFFFFFFFFFFFFFFFFFFF42
:104E8000FFFFFFFFFC000000000003FFFFFFFFFF2C
:104E9000FFFFFFFFFFFFFFFFFFFFFFFFFFFFFFFF22
:104EA000FFFFFFFFFFFFFFFFFFFFFFFD5FFFFFFFB4
:104EB000FFF00000000FFFFFFFFFFFFFFFFFFFFFFE
:104EC000FFFFFFFFFFFFFFFFFFFFFFFF00000000EE
:104ED000FFFFFFFFFFFFFFFFFFFFFFFFFFFFFFFFE2
:104EE000FFFD55FFFFFFFFFFFFFFFFFFFFFFFFFF7E
:104EF000FFFFFFFFFFFFFFFFFFFFFFFFFFFFFFFFC2
:104F0000FFFFFFFFFFFFFFFFFFFFFFFD5FFFFFFF53
:104F1000FFFFFFFFFFFFFFFFFFFFFFFFFFFFFFFFA1
:104F2000FFFFFFFFFFC000000000FFFFFFFFFFFFCC
:104F3000FFFFFFFFFFFFFFFFFFFFFFFFFFFFFFFF81
:104F4000FFFFFFFFFFFFFFFFFFFFFFFD5FFFFFFF13
:104F5000FFF0000000000000000000000000000062
:104F60000000000000000000000000000000000041
:104F7000FFFFFFFFFFFFFFFFFFFFFFFFFFFFFFFF41
:104F8000FFFD55FFFFFFFFFFFFFFFFFFFFFFFFFFDD
:104F9000FFFFFFFFFFFFFFFFFFFFFFFFFFFFFFFF21
:104FA000FFFFFFFFFFFFFFFFFFFFFFFD5FFFFFFFB3
:104FB000FFFFFFFFFFFFFFFFFFFFFFFFFFFFFFFF01
:104FC000FFFFFFFFFFFFF00000FFFFFFFFFFFFFFFE
:104FD000FFFFFFFFFFFFFFFFFFFFFFFFFFFFFFFFE1
:104FE000FFFFFFFFFFFFFFFFFFFFFFFD5FFFFFFF73
:104FF000FFF00000000000000000000000000000C2
:1050000000000000000000000000000000000000A0
:10501000FFFFFFFFFFFFFFFFFFFFFFFFFFFFFFFFA0
:10502000FFFD55FFFFFFFFFFFFFFFFFFFFFFFFFF3C
:10503000FFFFFFFFFFFFFFFFFFFFFFFFFFFFFFFF80
:10504000FFFFFFFFFFFFFFFFFFFFFFFD5FFFFFFF12
:10505000FFFFFFFFFFFFFFFFFFFFFFFFFFFFFFFF60
:10506000FFFFFFFFFFFFFFFFFFFFFFFFFFFFFFFF50
:10507000FFFFFFFFFFFFFFFFFFFFFFFFFFFFFFFF40
:10508000FFFFFFFFFFFFFFFFFFFFFFFD5FFFFFFFD2
:10509000FFF0000000000000000000000000000021
:1050A0000000000000000000000000000000000000
:1050B000FFFFFFFFFFFFFFFFFFFFFFFFFFFFFFFF00
:1050C000FFFD55FFFFFFFFFFFFFFFFFFFFFFFFFF9C
:1050D000FFFFFFFFFFFFFFFFFFFFFFFFFFFFFFFFE0
:1050E000FFFFFFFFFFFFFFFFFFFFFFFD5FFFFFFF72
:1050F000FFFFFFFFFFFFFFFFFFFFFFFFFFFFFFFFC0
:10510000FFFFFFFFFFFFFFFFFFFFFFFFFFFFFFFFAF
:10511000FFFFFFFFFFFFFFFFFFFFFFFFFFFFFFFF9F
:10512000FFFFFFFFFFFFFFFFFFFFFFFD5FFFFFFF31
:10513000FFF0000000000000000000000000000080
:10514000000000000000000000000000000000005F
:10515000FFFFFFFFFFFFFFFFFFFFFFFFFFFFFFFF5F
:10516000FFFD57FFFFFFFFFFFFFFFFFFFFFFFFFFF9
:10517000FFFFFFFFFFFFFFFFFFFFFFFFFFFFFFFF3F
:10518000FFFFFFFFFFFFFFFFFFFFFFFD5FFFFFFFD1
:10519000FFFFFFFFFFFFFFFFFFFFFFFFFFFFFFFF1F
:1051A000FFFFFFFFFFFFFFFFFFFFFFFFFFFFFFFF0F
:1051B000FFFFFFFFFFFFFFFFFFFFFFFFFFFFFFFFFF
:1051C000FFFFFFFFFFFFFFFFFFFFFFFD5FFFFFFF91
:1051D000FFF00000000000000000000000000000E0
:1051E00000000000000000000000000000000000BF
:1051F000FFFFFFFFFFFFFFFFFFFFFFFFFFFFFFFFBF
:10520000FFFFFFFFFFFFFFFFFFFFFFFFFFFFFFFFAE
:10521000FFFFFFFFFFFFFFFFFFFFFFFFFFFFFFFF9E
:10522000FFFFFFFFFFFFFFFFFFFFFFFD5FFFFFFF30
:10523000FFFFFFFFFFFFFFFFFFFFFFFFFFFFFFFF7E
:10524000FFFFFFFFFFFFFFFFFFFFFFFFFFFFFFFF6E
:10525000FFFFFFFFFFFFFFFFFFFFFFFFFFFFFFFF5E
:10526000FFFFFFFFFFFFFFFFFFFFFFFD5FFFFFFFF0
:10527000FFF000000000000000000000000000003F
:10528000000000000000000000000000000000001E
:10529000FFFFFFFFFFFFFFFFFFFFFFFFFFFFFFFF1E
:1052A000FFFFFFFFFFFFFFFFFFFFFFFFFFFFFFFF0E
:1052B000FFFFFFFFFFFFFFFFFFFFFFFFFFFFFFFFFE
:1052C000FFFFFFFFFFFFFFFFFFFFFFFD5FFFFFFF90
:1052D000FFFFFFFFFFFFFFFFFFFFFFFFFFFFFFFFDE
:1052E000FFFFFFFFFFFFFFFFFFFFFFFFFFFFFFFFCE
:1052F000FFFFFFFFFFFFFFFFFFFFFFFFFFFFFFFFBE
:10530000FFFFFFFFFFFFFFFFFFFFFFFD5FFFFFFF4F
:10531000FFFC000000000000000000000000000092
:10532000000000000000000000000000000000037A
:10533000FFFFFFFFFFFFFFFFFFFFFFFFFFFFFFFF7D
:10534000FFFFFFFFFFFFFFFFFFFFFFFFFFFFFFFF6D
:10535000FFFFFFFFFFFFFFFFFFFFFFFFFFFFFFFF5D
:10536000FFFFFFFFFFFFFFFFFFFFFFFD5FFFFFFFEF
:10537000FFFFFFFFFFFFFFFFFFFFFFFFFFFFFFFF3D
:10538000FFFFFFFFFFFFFFFFFFFFFFFFFFFFFFFF2D
:10539000FFFFFFFFFFFFFFFFFFFFFFFFFFFFFFFF1D
:1053A000FFFFFFFFFFFFFFFFFFFFFFFD5FFFFFFFAF
:1053B000FFFC0000000000000000000000000000F2
:1053C00000000000000000000000000000000003DA
:1053D000FFFFFFFFFFFFFFFFFFFFFFFFFFFFFFFFDD
:1053E000FFFFFFFFFFFFFFFFFFFFFFFFFFFFFFFFCD
:1053F000FFFFFFFFFFFFFFFFFFFFFFFFFFFFFFFFBD
:10540000FFFFFFFFFFFFFFFFFFFFFFFD5FFFFFFF4E
:10541000FFFFFFFFFFFFFFFFFFFFFFFFFFFFFFFF9C
:10542000FFFFFFFFFFFFFFFFFFFFFFFFFFFFFFFF8C
:10543000FFFFFFFFFFFFFFFFFFFFFFFFFFFFFFFF7C
:10544000FFFFFFFFFFFFFFFFFFFFFFFD5FFFFFFF0E
:10545000FFFFC0000000000000000000000000008E
:105460000000000000000000000000000000003FFD
:10547000FFFFFFFFFFFFFFFFFFFFFFFFFFFFFFFF3C
:10548000FFFFFFFFFFFFFFFFFFFFFFFFFFFFFFFF2C
:10549000FFFFFFFFFFFFFFFFFFFFFFFFFFFFFFFF1C
:1054A000FFFFFFFFFFFFFFFFFFFFFFFD5FFFFFFFAE
:1054B000FFFFFFFFFFFFFFFFFFFFFFFFFFFFFFFFFC
:1054C000FFFFFFFFFFFFFFFFFFFFFFFFFFFFFFFFEC
:1054D000FFFFFFFFFFFFFFFFFFFFFFFFFFFFFFFFDC
:1054E000FFFFFFFFFFFFFFFFFFFFFFFD5FFFFFFF6E
:1054F000FFFFFFFFFFFFFFFFFFFFFFFFFFFFFFFFBC
:10550000FFFFFFFFFFFFFFFFFFFFFFFFFFFFFFFFAB
:10551000FFFFFFFFFFFFFFFFFFFFFFFFFFFFFFFF9B
:10552000FFFFFFFFFFFFFFFFFFFFFFFFFFFFFFFF8B
:10553000FFFFFFFFFFFFFFFFFFFFFFFFFFFFFFFF7B
:10554000FFFFFFFFFFFFFFFFFFFFFFFD5FFFFFFF0D
:10555000FFFFFFFFFFFFFFFFFFFFFFFFFFFFFFFF5B
:10556000FFFFFFFFFFFFFFFFFFFFFFFFFFFFFFFF4B
:10557000FFFFFFFFFFFFFFFFFFFFFFFFFFFFFFFF3B
:10558000FFFFFFFFFFFFFFFFFFFFFFFD5FFFFFFFCD
:10559000FFFFFFFFFFFFFFFFFFFFFFFFFFFFFFFF1B
:1055A000FFFFFFFFFFFFFFFFFFFFFFFFFFFFFFFF0B
:1055B000FFFFFFFFFFFFFFFFFFFFFFFFFFFFFFFFFB
:1055C000FFFFFFFFFFFFFFFFFFFFFFFFFFFFFFFFEB
:1055D000FFFFFFFFFFFFFFFFFFFFFFFFFFFFFFFFDB
:1055E000FFFFFFFFFFFFFFFFFFFFFFFD5FFFFFFF6D
:1055F000FFFFFFFFFFFFFFFFFFFFFFFFFFFFFFFFBB
:10560000FFFFFFFFFFFFFFFFFFFFFFFFFFFFFFFFAA
:10561000FFFFFFFFFFFFFFFFFFFFFFFFFFFFFFFF9A
:10562000FFFFFFFFFFFFFFFFFFFFFFFD5FFFFFFF2C
:10563000FFFFFFFFFFFFFFFFFFFFFFFFFFFFFFFF7A
:10564000FFFFFFFFFFFFFFFFFFFFFFFFFFFFFFFF6A
:10565000FFFFFFFFFFFFFFFFFFFFFFFFFFFFFFFF5A
:10566000FFFFFFFFFFFFFFFFFFFFFFFFFFFFFFFF4A
:10567000FFFFFFFFFFFFFFFFFFFFFFFFFFFFFFFF3A
:10568000FFFFFFFFFFFFFFFFFFFFFFFD5FFFFFFFCC
:10569000FFFFFFFFFFFFFFFFFFFFFFFFFFFFFFFF1A
:1056A000FFFFFFFFFFFFFFFFFFFFFFFFFFFFFFFF0A
:1056B000FFFFFFFFFFFFFFFFFFFFFFFFFFFFFFFFFA
:1056C000FFFFFFFFFFFFFFFFFFFFFFFD5FFFFFFF8C
:1056D000FFFFFFFFFFFFFFFFFFFFFFFFFFFFFFFFDA
:1056E000FFFFFFFFFFFFFFFFFFFFFFFFFFFFFFFFCA
:1056F000FFFFFFFFFFFFFFFFFFFFFFFFFFFFFFFFBA
:10570000FFFFFFFFFFFFFFFFFFFFFFFFFFFFFFFFA9
:10571000FFFFFFFFFFFFFFFFFFFFFFFFFFFFFFFF99
:10572000FFFFFFFFFFFFFFFFFFFFFFFD5FFFFFFF2B
:10573000FFFFFFFFFFFFFFFFFFFFFFFFFFFFFFFF79
:10574000FFFFFFFFFFFFFFFFFFFFFFFFFFFFFFFF69
:10575000FFFFFFFFFFFFFFFFFFFFFFFFFFFFFFFF59
:10576000FFFFFFFFFFFFFFFFFFFFFFFD5FFFFFFFEB
:10577000FFFFFFFFFFFFFFFFFFFFFFFFFFFFFFFF39
:10578000FFFFFFFFFFFFFFFFFFFFFFFFFFFFFFFF29
:10579000FFFFFFFFFFFFFFFFFFFFFFFFFFFFFFFF19
:1057A000FFFFFFFFFFFFFFFFFFFFFFFFFFFFFFFF09
:1057B000FFFFFFFFFFFFFFFFFFFFFFFFFFFFFFFFF9
:1057C000FFFFFFFFFFFFFFFFFFFFFFFD5FFFFFFF8B
:1057D000FFFFFFFFFFFFFFFFFFFFFFFFFFFFFFFFD9
:1057E000FFFFFFFFFFFFFFFFFFFFFFFFFFFFFFFFC9
:1057F000FFFFFFFFFFFFFFFFFFFFFFFFFFFFFFFFB9
:10580000FFFFFFFFFFFFFFFFFFFFFFFD5FFFFFFF4A
:10581000FFFFFFFFFFFFFFFFFFFFFFFFFFFFFFFF98
:10582000FFFFFFFFFFFFFFFFFFFFFFFFFFFFFFFF88
:10583000FFFFFFFFFFFFFFFFFFFFFFFFFFFFFFFF78
:10584000FFFFFFFFFFFFFFFFFFFFFFFFFFFFFFFF68
:10585000FFFFFFFFFFFFFFFFFFFFFFFFFFFFFFFF58
:10586000FFFFFFFFFFFFFFFFFFFFFFFD5FFFFFFFEA
:10587000FFFFFFFFFFFFFFFFFFFFFFFFFFFFFFFF38
:10588000FFFFFFFFFFFFFFFFFFFFFFFFFFFFFFFF28
:10589000FFFFFFFFFFFFFFFFFFFFFFFFFFFFFFFF18
:1058A000FFFFFFFFFFFFFFFFFFFFFFFD5FFFFFFFAA
:1058B000FFFFFFFFFFFFFFFFFFFFFFFFFFFFFFFFF8
:1058C000FFFFFFFFFFFFFFFFFFFFFFFFFFFFFFFFE8
:1058D000FFFFFFFFFFFFFFFFFFFFFFFFFFFFFFFFD8
:1058E000FFFFFFFFFFFFFFFFFFFFFFFFFFFFFFFFC8
:1058F000FFFFFFFFFFFFFFFFFFFFFFFFFFFFFFFFB8
:10590000FFFFFFFFFFFFFFFFFFFFFFFD5FFFFFFF49
:10591000FFFFFFFFFFFFFFFFFFFFFFFFFFFFFFFF97
:10592000FFFFFFFFFFFFFFFFFFFFFFFFFFFFFFFF87
:10593000FFFFFFFFFFFFFFFFFFFFFFFFFFFFFFFF77
:10594000FFFFFFFFFFFFFFFFFFFFFFFD5FFFFFFF09
:10595000FFFFFFFFFFFFFFFFFFFFFFFFFFFFFFFF57
:10596000FFFFFFFFFFFFFFFFFFFFFFFFFFFFFFFF47
:10597000FFFFFFFFFFFFFFFFFFFFFFFFFFFFFFFF37
:10598000FFFFFFFFFFFFFFFFFFFFFFFFFFFFFFFF27
:10599000FFFFFFFFFFFFFFFFFFFFFFFFFFFFFFFF17
:1059A000FFFFFFFFFFFFFFFFFFFFFFFD5FFFFFFFA9
:1059B000FFFFFFFFFFFFFFFFFFFFFFFFFFFFFFFFF7
:1059C000FFFFFFFFFFFFFFFFFFFFFFFFFFFFFFFFE7
:1059D000FFFFFFFFFFFFFFFFFFFFFFFFFFFFFFFFD7
:1059E000FFFFFFFFFFFFFFFFFFFFFFFD5FFFFFFF69
:1059F000FFFFFFFFFFFFFFFFFFFFFFFFFFFFFFFFB7
:105A0000FFFFFFFFFFFFFFFFFFFFFFFFFFFFFFFFA6
:105A1000FFFFFFFFFFFFFFFFFFFFFFFFFFFFFFFF96
:105A2000FFFFFFFFFFFFFFFFFFFFFFFFFFFFFFFF86
:105A3000FFFFFFFFFFFFFFFFFFFFFFFFFFFFFFFF76
:105A4000FFFFFFFFFFFFFFFFFFFFFFFD5FFFFFFF08
:105A5000FFFFFFFFFFFFFFFFFFFFFFFFFFFFFFFF56
:105A6000FFFFFFFFFFFFFFFFFFFFFFFFFFFFFFFF46
:105A7000FFFFFFFFFFFFFFFFFFFFFFFFFFFFFFFF36
:105A8000FFFFFFFFFFFFFFFFFFFFFFFD5FFFFFFFC8
:105A9000FFFFFFFFFFFFFFFFFFFFFFFFFFFFFFFF16
:105AA000FFFFFFFFFFFFFFFFFFFFFFFFFFFFFFFF06
:105AB000FFFFFFFF555555555555555555555555EE
:105AC0005555555555555555555555555555555586
:105AD0005555555555555555555555555555555576
