:020000040800F2
:10000000F840002045010008E71400089D1400088E
:10001000E51400088D010008DF1C00080000000046
:100020000000000000000000000000001B1A000893
:100030008F010008000000007B1900081D1A00084D
:100040005F0100085F0100085F0100085F01000810
:100050005F0100085F0100085F0100085F01000800
:100060005F0100085F0100085F0100085F010008F0
:100070005F0100085F0100085F0100085F010008E0
:100080005F0100085F0100085F0100085F010008D0
:100090005F0100085F0100085F0100085F010008C0
:1000A0005F0100085F0100085F0100085F010008B0
:1000B0005F0100085F0100085F0100085F010008A0
:1000C0005F0100085F0100085F0100085F01000890
:1000D0005F0100085F0100085F0100085F01000880
:1000E0005F0100085F0100085F0100085F01000870
:1000F0005F0100085F0100085F0100085F01000860
:100100005F0100085F0100085F0100085F0100084F
:100110005F0100085F0100085F0100085F0100083F
:100120005F0100085F0100085F0100085F0100082F
:10013000DFF80CD000F018F800480047491D00080F
:10014000F84000200648804706480047FEE7FEE7E3
:10015000FEE7FEE7FEE7FEE7FEE7FEE7FEE7FEE777
:10016000951A000831010008064C074D06E0E068CA
:1001700040F0010394E8070098471034AC42F6D3EE
:10018000FFF7DAFF0053000820530008FEE770472E
:100190002DE9F04791460F00064643D0102100F0AC
:1001A000F3F8022000F08AF900254FF080084FF0A4
:1001B000C00A2BE000217B5D0846444624FA00F289
:1001C000134204D04FEA400C2AFA0CF21143401CAF
:1001D0000428F3DB304600F0E2F800217B5D0420C8
:1001E0004FEA0A0224FA00FC13EA0C0F07D04FEA88
:1001F000400CACF1080C22FA0CFC4CEA0101401C4A
:100200000828EFDB304600F0CAF86D1CD6E904017F
:100210004843C11700EB5170B5EBE00FCADB022079
:1002200000F04CF9B9F1000F1AD01321304600F05C
:10023000ABF8022000F042F9002405E019F80410A0
:10024000304600F0ACF8641CD6E904014843C117FD
:1002500000EB5170B4EBE00FF0DB022000F02EF960
:100260001221304600F090F83046BDE8F04700F02B
:1002700019B910B5044601202060022060600020FA
:10028000A0600320E060C8202061606100F038F9C0
:1002900010B14FF0FF3010BD204600F063F801218F
:1002A000204600F071F80721204600F078F8002180
:1002B000204600F074F80821204600F070F8002174
:1002C000204600F06CF80621204600F05DF807217A
:1002D000204600F064F80721204600F060F807216E
:1002E000204600F05CF80421204600F04DF820463E
:1002F00000F0D8F80021204600F046F8CF21204633
:1003000000F04DF85021204600F03EF8172120461D
:1003100000F045F83021204600F036F8392120461B
:1003200000F03DF86121204600F02EF8C82120465B
:1003300000F035F80021204600F031F8C8212046B1
:1003400000F02DF88221204600F01EF80E212046F4
:1003500000F025F8204600F02DF8204600F074F853
:10036000002010BD10B504460068002100F0B8F868
:10037000C82000F0A3F80121206800F0B1F8BDE822
:100380001040C82000F09AB810B50C464068002113
:1003900000F0A6F82046BDE8104000F0C9B810B53E
:1003A0000C464068012100F09BF82046BDE8104053
:1003B00000F0BEB870B505462021FFF7E5FF214EDD
:1003C00000242846315DFFF7EAFF641C0F2CF8D3A8
:1003D00021212846FFF7D8FF1A4E00240F36284661
:1003E000315DFFF7DCFF641C0F2CF8D32221284677
:1003F000FFF7CAFF134E00241E362846315DFFF773
:10040000CEFF641C0F2CF8D323212846FFF7BCFF36
:100410000C4E00242D362846315DFFF7C0FF641CCA
:100420000F2CF8D324212846FFF7AEFF054E0024F9
:100430003C362846315DFFF7B2FF641C0F2CF8D321
:1004400070BD0000A846000870B505462521FFF7DD
:100450009BFF134E00242846315DFFF7A0FF641C6C
:100460000F2CF8D326212846FFF78EFF0C4E0024D0
:100470000F362846315DFFF792FF641C0F2CF8D32E
:1004800027212846FFF780FF054E00241E36284608
:10049000315DFFF784FF641C0F2CF8D370BD0000A2
:1004A000F346000810B5044602E0642000F006F8A8
:1004B000E06800F005F80028F7D010BD00F052B851
:1004C000064A10B502EBC00152F83000898889B2A3
:1004D00000F048F9012800D0002010BDD80000200D
:1004E000064B012903EBC00253F83000526891B269
:1004F00002D0002200F03BB90122FBE7D800002027
:100500000A480949D0E90023C1E90023D0E90223C0
:10051000C1E90223D0E90423C1E90423D0E906207C
:10052000C1E9062000207047D80000200C00002000
:1005300031B50A4C0022A08881B2206800F017F97A
:100540004FF47A7301226946054800F01DFEA08829
:10055000012281B2206800F00AF938BDD8000020DD
:100560004000002031B500F007F9044600F004F91E
:100570000099001B8842F9D338BD00002DE9F84FDF
:10058000DFF8B8A100220AF1040B144601274FF04E
:100590000F090BF1040E00BF0B6807FA04F52B409E
:1005A000AB4274D1DFF898C14E68A6EB0C086645E3
:1005B0002BD00DDC032E34D005DC36B3012E19D040
:1005C000022E2FD11BE0112E16D0122E2AD119E0A7
:1005D000B8F5881F19D006DCB8F5803F15D0B8F5FE
:1005E000801F1FD111E0B8F5001F0ED0B8F5041F11
:1005F00018D10AE0CA6815E0CA68121D12E0CA687C
:1006000008320FE0CA680C320CE08A682AB1012A6D
:100610004FF0080203D0456104E0042202E00561C6
:1006200000E00022FF2B01D8064601E000F104069D
:100630004FEA840501D9A5F12005D6F800C009FAD2
:1006400005F82CEA080C02FA05F54CEA050CC6F888
:1006500000C04D68ED006AD53A4DAE6946F001061E
:10066000AE61AD6924F0030605F001050095364D35
:1006700006EB050CDCF80850A6074FEA167809FAD5
:1006800008F6B543314EB04202D100261AE04EE0E2
:100690002F4EB04201D1012614E02E4EB04201D1BE
:1006A00002260FE02C4EB04201D103260AE02B4E69
:1006B000B04201D1042605E0294EB04201D1052601
:1006C00000E0062606FA08F62E43CCF808604D68CE
:1006D000DAF80060ED03554601D51E4300E09E4365
:1006E0002E604D68AD0305D5DBF800601E43CBF8E6
:1006F000006004E0DBF800509D43CBF800504D68EB
:10070000DEF80060ED02754601D51E4300E09E4311
:100710002E604D68AD0205D5084D0C352E681E4380
:100720002E6004E0054E0C3635689D433560641C30
:10073000102CFFF431AFBDE8F88F00000004014039
:1007400000001110001002400000014000080140AC
:10075000000C01400010014000140140001801404D
:10076000001C01408068084000D0012070470AB199
:10077000016170470904FBE7014800687047000009
:100780000400002002480168491C01607047000015
:1007900004000020074810B5016841F01001016015
:1007A000032000F07BF8002000F006F800F016F8B7
:1007B000002010BD0020024010B5044600F044F9AE
:1007C0004FF47A71B0FBF1F000F08EFD002221466B
:1007D000501E00F043F8002010BD00001D4808B571
:1007E000816941F001018161806900F001000090A0
:1007F000032000F053F8002211466FF00B0000F0C8
:100800002DF8002211466FF00A0000F027F80022B0
:1008100011466FF0090000F021F800221146501F28
:1008200000F01CF800221146101F00F017F80022FB
:100830001146901E00F012F800221146501E00F0E2
:100840000DF80548416821F0E06141F080614160A8
:1008500008BD00000010024000000140F0B40E4B43
:100860001B680C46C3F30223C3F10705042D00D90E
:100870000425191D072901D2002300E0DB1E0126F3
:1008800006FA05F1491E214099409E40761E164009
:100890003143F0BC00F028BE0CED00E0064900F04A
:1008A000070208684FF6FF03184040EA0220034A97
:1008B00010430860704700000CED00E00000FA05EE
:1008C0002DE9F047DFF8708105460E46D8F80000A4
:1008D00000F00700B0420CD2D8F8001021F0070158
:1008E0003143C8F80010D8F8000000F00700B0420B
:1008F00077D12878514C800705D56068A96820F029
:10090000F000084360602878C00759D0696801206A
:1009100001290DD0022929D05FF0020393FAA3F236
:10092000B2FA82F242F02002520904D0226803E0B7
:100930004FF40033F2E7626A93FAA3F3B3FA83F356
:1009400003F01F03984002424BD0606820F0030080
:1009500008436060FFF710FF6968074641F288307E
:1009600001290DD00229814617D025E04FF00073F0
:10097000D4E700BFFFF700FFC11B494501D918E0CC
:1009800081466068C0F381000128F3D118E000BF00
:10099000FFF7F2FEC11B49450BD86068C0F3810028
:1009A0000228F5D10CE000BFFFF7E6FEC11B494568
:1009B00002D90320BDE8F087606810F00C0FF3D176
:1009C000D8F80010404601F00701B1420BD9016888
:1009D00021F0070131430160006800F00700B042D8
:1009E00001D00120E6E72878400705D56068E9686E
:1009F00020F4E060084360602878000706D560684E
:100A0000296920F4605040EAC100606000F052F8AB
:100A10006168F02292FAA2F201F0F001B2FA82F2D9
:100A2000D140074A515CC840064908600020FFF7E2
:100A3000C3FE0020BEE7000000200240001002407C
:100A4000801F00080800002001480068704700006F
:100A50000800002008480949006849684FF4E0622E
:100A600092FAA2F201F4E061B2FA82F2D140044AB1
:100A7000515CC84070470000080000200010024090
:100A8000901F000808480949006849684FF46052FF
:100A900092FAA2F201F46051B2FA82F2D140044A11
:100AA000515CC84070470000080000200010024060
:100AB000901F000810B519A385B00FCB8DE80F006B
:100AC0001AA01B4B006804905A681A4802F00C01E7
:100AD00004291DD008291BD14FF4701494FAA4F4F2
:100AE00002F47011B4FA84F4E140D2031DF801104D
:100AF00010D55A684FF4003393FAA3F302F400328E
:100B0000B3FA83F3DA4004AB9A5CB0FBF2F04843EB
:100B100005B010BD08484843FAE700000203040589
:100B2000060708090A0B0C0D0E0F10100102000039
:100B30000010024000127A0000093D002DE9F84F34
:100B400004460078F74DC0074FF0010625D06868CD
:100B50007704C0F38100012807D06868C0F38100E2
:100B600002281BD16868C00318D597FAA7F0B0FA1D
:100B700080F040F02000400901D0286800E0686A59
:100B800097FAA7F1B1FA81F101F01F0106FA01F11C
:100B900008425ED0606800287CD05AE06068B0F5FA
:100BA000803F0BD010B1B0F5A02F11D0286820F4F1
:100BB00080302860286820F4802002E0286840F413
:100BC00080302860606828B3FFF7D6FD80460BE0D0
:100BD000286840F480202860F0E700BFFFF7CCFDD4
:100BE000A0EB0800642871D897FAA7F0B0FA80F05B
:100BF00040F02000400901D0286800E0686A97FAB8
:100C0000A7F1B1FA81F101F01F0106FA01F10842E2
:100C1000E4D01EE0FFF7B0FD804605E0FFF7ACFD35
:100C2000A0EB08006428DED897FAA7F0B0FA80F0AD
:100C300040F02000400901D0286800E0686A97FA77
:100C4000A7F1B1FA81F101F01F0106FA01F10842A2
:100C5000E4D12078DFF8D08280074FF000094FF010
:100C600002075BD568684FF0F80B10F00C0F07D047
:100C70006868C0F3810002281CD16868C00319D4D9
:100C800097FAA7F0B0FA80F040F02000400902D0B7
:100C9000286801E08BE0686A97FAA7F1B1FA81F160
:100CA00001F01F0106FA01F108422CD02069012849
:100CB0007DD128E0206990B396FAA6F0B0FA80F0D2
:100CC00048F82060FFF758FD824607E011E100BFB9
:100CD000FFF752FDA0EB0A00022884D897FAA7F08C
:100CE000B0FA80F040F02000400901D0286800E010
:100CF000686A97FAA7F1B1FA81F101F01F0106FACB
:100D000001F10842E4D028689BFAABF26169B2FABB
:100D100082F220F0F80091400843286025E0FFE7C8
:100D200096FAA6F1B1FA81F148F82190FFF724FD77
:100D3000824605E0FFF720FDA0EB0A000228CCD890
:100D400097FAA7F0B0FA80F040F02000400901D0F7
:100D5000286800E0686A97FAA7F1B1FA81F101F01A
:100D60001F0106FA01F10842E4D1207800076ED590
:100D7000A069B8B396FAA6F0B0FA80F008EB80004C
:100D8000C0F88064FFF7F8FC824605E0FFF7F4FC4A
:100D9000A0EB0A000228A0D897FAA7F0B0FA80F0DA
:100DA00040F06000B6EB501F02D128680CE062E111
:100DB00097FAA7F0B0FA80F040F06000B7EB501F50
:100DC00001D1286A00E0686A97FAA7F1B1FA81F1C7
:100DD00001F01F0106FA01F21042D7D00120FFF7FF
:100DE000C1FB34E0FFE796FAA6F1B1FA81F108EB16
:100DF0008101C1F88094FFF7BFFC824606E000BF86
:100E0000FFF7BAFCA0EB0A00022872D897FAA7F005
:100E1000B0FA80F040F06000B6EB501F01D12868B6
:100E20000BE097FAA7F0B0FA80F040F06000B7EB63
:100E3000501F01D1286A00E0686A97FAA7F1B1FA59
:100E400081F101F01F0106FA01F21042D8D1207899
:100E5000400765D5E86940F08050E861E869DFF84F
:100E6000CCB000F080500090DBF8001041F48071AD
:100E7000CBF80010FFF780FC824605E0FFF77CFC12
:100E8000A0EB0A00642834D8DBF80000C005F5D5D3
:100E9000E06801280AD008B1052813D0286A20F09C
:100EA00001002862286A20F0040002E0286A40F06D
:100EB00001002862E06841F2883B90B3FFF75CFCD8
:100EC00082460BE0286A40F004002862EEE700BF8B
:100ED000FFF752FCA0EB0A0159450AD897FAA7F090
:100EE000B0FA80F040F04000B6EB501F02D1286805
:100EF0000CE0A3E097FAA7F0B0FA80F040F04000D1
:100F0000B7EB501F01D1286A00E0686A97FAA7F191
:100F1000B1FA81F101F01F0206FA02F10842D7D0BE
:100F200031E005E000100240000042420070004045
:100F3000FFF722FC824605E0FFF71EFCA0EB0A014A
:100F400059457BD897FAA7F0B0FA80F040F04000FE
:100F5000B6EB501F01D128680BE097FAA7F0B0FA62
:100F600080F040F04000B7EB501F01D1286A00E04C
:100F7000686A97FAA7F1B1FA81F101F01F0206FA47
:100F800002F10842D8D1E06980B36968C1F38101F8
:100F9000022970D04FF080714F000228484609D0D6
:100FA00091FAA1F1B1FA81F148F82100FFF7E4FBD1
:100FB000044669E08A4691FAA1F1B1FA81F1C1468D
:100FC00048F82100FFF7D8FB804605E0FFF7D4FB87
:100FD000A0EB0800022854D897FAA7F0B0FA80F0E6
:100FE00040F02000400902D0286801E061E0686A12
:100FF00097FAA7F1B1FA81F101F01F0106FA01F1A8
:101000000842E3D1206AB0F5803F05D16868A16845
:1010100020F4003008436860D4E908010843696897
:1010200021F47411084368609AFAAAF0B0FA80F0CB
:1010300049F82060FFF7A0FB044606E021E000BF6E
:10104000FFF79AFB001B02281BD897FAA7F0B0FA0B
:1010500080F040F02000400901D0286800E0686A74
:1010600097FAA7F1B1FA81F101F01F0106FA01F137
:101070000842E5D01DE01EE0FFF77EFB001B0228C2
:1010800002D90320BDE8F88F97FAA7F0B0FA80F0F4
:1010900040F02000400901D0286800E0686A97FA13
:1010A000A7F1B1FA81F101F01F0106FA01F108423E
:1010B000E2D10020E6E70120E4E7000010B50400DB
:1010C00003D094F8510010B104E0012010BD204677
:1010D00000F038F8022084F851002068016821F0FF
:1010E00040010160D4E901010843D4E9031211432E
:1010F000084361690843218B01F400710843E169E9
:101100000843216A0843A16A084321680860A0696E
:10111000042101EA1040616A08432168486021689F
:10112000E06A08612068C16921F40061C161044975
:10113000002008706065012084F85100002010BD77
:101140000000002000B500680C4985B0884212D12B
:101150000B48816941F4805181618069694600F4DE
:1011600080500490A0200090022001900320039062
:101170000448FFF703FA05B000BD0000003001404D
:1011800000100240000801402DE9F843044690F8A1
:1011900051009846012870D139B332B394F8500009
:1011A00001286AD0012684F85060122084F851008A
:1011B000002565652163A286E286E564A564A563D2
:1011C000A587E587A06A7703B84209D1206801683E
:1011D00021F4005101602068016841F40051016070
:1011E000A068B0F5004F03D007E00120BDE8F88308
:1011F0002068016841F48041016020680168490667
:1012000003D4016841F040010160E0680028606893
:1012100004D0D8B1E08E012818D021E010B1E08EC2
:10122000012808D1206B411C216321680078C86027
:10123000E08E401EE0860004000C1FD043460022D2
:101240000221204600F09AFBA8B9EBE7206B216849
:101250000088C860206B801C2063E08E401EE08602
:101260000004000C0AD0434600220221204600F070
:1012700085FB0028EAD00320B8E726E0A06AB84240
:1012800004D12068016841F4805101604346002286
:101290000221204600F072FB30B943460122802132
:1012A000204600F06BFB20B1606D40F010006065DF
:1012B000E1E7A06818B92068C1688068009084F8E8
:1012C000516084F85050002090E702208EE74FF0E4
:1012D000E0210428086903D020F004000861704769
:1012E00040F00400FAE7704710B5401EB0F1807F6F
:1012F00001D3012010BD4FF0E02460610F21601781
:1013000000F0F2F80020A06107202061002010BD4D
:1013100010B5FFF7E8FF10BD70B5040004D094F8D5
:101320003900002510B106E0012070BD84F8385066
:10133000204600F021F8022084F839002068C168B6
:1013400021F40051C160204600F0C8FB206801690B
:1013500021F4904101612068416921F02A01416135
:101360002068C16841F40051C160E563012084F840
:101370003900002070BD000010B50068114986B02A
:1013800088421DD11048816941F4804181618069A2
:101390000E4C00F4804004904FF400700090022046
:1013A00001900320039069462046FFF7E7F80021EB
:1013B0002015CDE90001029169462046FFF7DEF8CD
:1013C00006B010BD00380140001002400008014086
:1013D0002DE9F047044690F8390099460D4601285A
:1013E00001D0222858D12DB322B394F83800012817
:1013F00052D0012684F838600027E76394F839005A
:1014000022281AD05FF0120084F83900A284E28406
:101410004FF48058E08C4B46401EE084A0684FF0AB
:10142000000240454FF08001204613D100F00EFC31
:1014300008BB04E00120BDE8F0873220E4E72888FB
:101440002168C0F308004860206908B16D1C08E0FD
:10145000AD1C06E000F0FAFB68B9216815F8010B35
:101460004860E08C0028D5D14B4600224021204620
:1014700000F0ECFB08B10320DDE794F839003228D6
:1014800006D084F8396000BF84F838700020D2E7B5
:10149000222084F83900F7E70220CCE7FEE70000BD
:1014A0000F4810B50D4901604FF4827141604FF44F
:1014B000004181600021C1604FF400720161C0E908
:1014C00005123022C0E90721416281620A21C1620E
:1014D000FFF7F4FD002800D0FEE710BD003001400A
:1014E00040000020FEE770470907090E002806DAD1
:1014F00000F00F0000F1E02080F8141D704700F1AB
:10150000E02080F800147047F0B50F46064600252D
:101510000CE0002406E03B4622462946304600F017
:1015200009F8641CB068A042F5DC6D1C7068A84224
:10153000EFDCF0BD70B500291EDB45688D421BDD78
:10154000002A19DB8468944216DDCC1701EB547431
:1015500024F007040E1B02FB051100684FEAE1723C
:1015600001EB527100EBE10080240178F4400BB1F3
:10157000A14300E02143017070BD00002DE9FF4F41
:1015800093460D9DA888410700D0012101EBD000B2
:10159000203BE9885843484329680E18002727E074
:1015A00000244FF0800A0BEB0708DFF8509017E09B
:1015B000E01704EB507020F007003178221A2AFA65
:1015C00002F0014206D00198424601190E9B009894
:1015D00000F01AF904EA0900072800D1761C641CFF
:1015E000A888A042E4DC2879400700D0761C7F1C44
:1015F000E888B842D4DCBDE8FF8F00000700008017
:101600002DE9FF4F5D420026022092468B4600EBFB
:10161000450400BF0AEB0607ABEB050189463A46D5
:101620000D9B009800F0F0F80BEB05013A46884658
:101630000D9B009800F0E8F8AAEB060741463A46F1
:101640000D9B009800F0E0F83A4649460D9B009843
:1016500000F0DAF82046B44208DC761C00EB4604C1
:10166000641CF54202D1A84200DC0020A84203DD40
:101670006D1C04EB4504641C002DCBDDBDE8FF8F21
:101680002DE9FF4F81B05D4200270220DDF838B020
:1016900000EB450403985B46C21902989146411B32
:1016A0008A46019800F0B0F802984A4646195B460F
:1016B0003146019800F0A8F803983146C21B9046C5
:1016C0005B46019800F0A0F8424651465B460198FF
:1016D00000F09AF80120A0EB45039A464A463146AD
:1016E000CDF800B0019800F045F853464246314627
:1016F000CDF800B0019800F03DF82046BC4208DC6F
:101700007F1C00EB4704641CFD4202D1A84200DCB0
:101710000020A84203DD6D1C04EB4504641C002D71
:10172000B8DD05B0BDE8F08F2DE9F8438146DDE96D
:1017300008088B4201DD0C4600E01C4600DD19461E
:101740000D46904201DD164600E0064600DD0246E9
:10175000A2EB06070AE000BF07F10103324621466B
:101760004846CDF8008000F0E4F8641CAC42F3DD9C
:10177000BDE8F8832DE9F041164680460C46CF18A7
:10178000069D06E02B4632462146404600F03CF8D6
:10179000641CA742F6DCBDE8F0812DE9FF4F81B063
:1017A0000C460E9F1E461546181B00D5A01B8146F1
:1017B0004FF0FF31B44201DA012000E0084600900A
:1017C000781B002800DDE81B8246BD4200DA0121BB
:1017D0008B4609EB0A0810E02A4621460F9B019828
:1017E00000F012F8BAEB480F02DC0098D044044431
:1017F000B9EB480F01DBC8445D44B44201D0BD429F
:10180000EAD105B0BDE8F08F30B4C468ACB1012CAA
:101810001ED0022C2AD0032C35D1002933DB856859
:101820008D4230DD002A2EDB446894422BDD1446C5
:101830006A1A214630BCFFF77DBE002923DB4468CD
:101840008C4220DD002A1EDB846894421BDDF1E718
:10185000002918DB84688C4215DD002A13DB4568FB
:10186000954210DD0C46A91A2246E3E700290ADB5F
:1018700045688D4207DD002A05DB8468944202DD5D
:10188000691AA21AD6E730BC70472DE9F84782469C
:10189000DDE909058B4201DD0F4600E01F4601DD51
:1018A0001C4600E00C46904201DD164600E006466C
:1018B00000DD02469146A4EB070808F10103324619
:1018C000394650460095FFF755FF08F101034A4697
:1018D000394650460095FFF74DFFA9EB060808F181
:1018E0000103324639465046009500F022F808F1CF
:1018F0000103324621465046009500F01AF8BDE833
:10190000F8872DE9FC439046DDE9096781461C46CE
:101910000D4609E0424629464846CDE90067FFF7F3
:101920002DFEB088641C05442378002BF2D1BDE85D
:10193000FC832DE9F0410E4680461446D718069DDB
:1019400006E02B46224631464046FFF75DFF641C09
:10195000A742F6DCBDE8F08110B50024C460016048
:10196000510707D0D11702EB517121F00701511A2D
:10197000521A0832C0E9012310BD70472DE9F04723
:101980001D4690460E460446FEF7F6FE07465FEA01
:1019900008004FF000084FF4005A4FF0010926D01C
:1019A00034E0681C23D025B1FEF7E6FEC01BA84238
:1019B0001DD92068416821F0E0014160206801687C
:1019C00021F040010160A06A504509D120680168FA
:1019D00021F4005101602068016841F40051016068
:1019E00084F8519084F850800320BDE8F087206887
:1019F000806836EA0000D4D10DE0681C06D0002DC6
:101A0000D7D0FEF7B9FEC01BA842D2D820688068A4
:101A100036EA0000F1D00020E7E7704710B5FEF786
:101A2000B1FEBDE81040FFF773BC30B58FB00121A7
:101A30000804CDE900100024029402250491CDE9A8
:101A400007504FF4E01009906846FFF777F800B1AF
:101A5000FEE70F20CDE90A054FF48060CDE90C4088
:101A600002210AA80E94FEF72BFF00B1FEE7FEF755
:101A7000EBFF4FF47A71B0FBF1F0FFF735FC042077
:101A8000FFF725FC00221146501EFEF7E7FE0FB0BF
:101A900030BD00000D48016841F00101016041685E
:101AA0000B4A1140416001680A4A11400160016817
:101AB00021F480210160416821F4FE0141604FF46E
:101AC0001F0181600449C003086070470010024094
:101AD0000000FFF8FFFFF6FE08ED00E02DE9F04101
:101AE000044600680169E26821F440511143016134
:101AF0002169A0680843616908432168CA6841F206
:101B00000C639A430243CA6020684169A26921F4C8
:101B10004071114341614C49206864253226884256
:101B20003CD1FEF7AFFF00EBC00101EB0010616894
:101B30008900B0FBF1F7FEF7A5FF00EBC00101EB58
:101B400000106168B0468900B0FBF1F0B0FBF5F021
:101B50006FF01801484307EB800106EB0110B0FB62
:101B6000F5F000F0F006FEF78DFF00EBC00101EB91
:101B7000001061688900B0FBF1F0B0FBF5F006EBF6
:101B80000016FEF77FFF00EBC00101EB001061685B
:101B90008900B0FBF1F7FEF775FF3BE0FEF75AFF57
:101BA00000EBC00101EB001061688900B0FBF1F7A8
:101BB000FEF750FF00EBC00101EB00106168B0467A
:101BC0008900B0FBF1F0B0FBF5F06FF0180148436D
:101BD00007EB800106EB0110B0FBF5F000F0F0061A
:101BE000FEF738FF00EBC00101EB001061688900CF
:101BF000B0FBF1F0B0FBF5F006EB0016FEF72AFFA4
:101C000000EBC00101EB001061688900B0FBF1F747
:101C1000FEF720FF00EBC00101EB001061688900B6
:101C2000B0FBF1F0B0FBF5F06FF01801484307EBA3
:101C3000800108EB0110B0FBF5F0216800F00F0007
:101C400030448860BDE8F081003801402DE9F0475C
:101C50001D4690460E460446FEF78EFD07465FEA97
:101C600008004FF000094FF0010808D030E0681C70
:101C700005D095B1FEF780FDC01BA8420DD82068A5
:101C8000006836EA0000F2D127E0681C20D025B1B8
:101C9000FEF772FDC01BA8421AD92068C16821F066
:101CA0008001C1602068C16821F02001C160206806
:101CB000C16821F48071C1602068416921F001018F
:101CC000416184F8398084F838900320BDE8F087BA
:101CD0002068006836EA0000D7D00020F6E7FEE76B
:101CE000014A024900F013B8311D000834000020F9
:101CF00002E008C8121F08C1002AFAD170477047D5
:101D0000002001E001C1121F002AFBD170472DE91C
:101D1000F04116460F460446002503E03946B04719
:101D2000641C6D1C20780028F8D12846BDE8F0819D
:101D300013B54FF6FF73012269460248FFF748FBCF
:101D400000981CBD980000202DE9F04141F2883434
:101D500096B0204600F0DEF88046204600F0DAF823
:101D60000646FEF717FDFFF760FE5548816941F012
:101D7000040181618069534F00F00400009000224B
:101D800016213846FEF7F3FC16200125CDE9120591
:101D90000220159012A93846FEF7F0FB0024082017
:101DA000CDE9120412A938461494FEF7E7FB474820
:101DB000454901604FF4E131C0E901140C21C460D0
:101DC000C0E904418461C461FFF7A6FA00B1FEE7EF
:101DD000FFF766FB02A8FEF74CFA38B13CA0FFF70C
:101DE0007FFF16B04FF0FF30BDE8F081DDE906233C
:101DF000414608A8FFF7B0FDDDE9062331460CA8EF
:101E0000FFF7AAFD002108A8FFF77EFB00210CA820
:101E1000FFF77AFB6E27CDE9007532233C220A21B9
:101E200008A8FFF732FDCDE9007532233C220A21D4
:101E300008A8FFF7B2FCCDE900750A233C22322145
:101E400008A8FFF7AAFC1E235022782108A80095B5
:101E5000FFF7D6FBB420CDE90005322382220A2108
:101E60000CA8FFF761FC1A20CDE90005C823062263
:101E700000210CA8FFF758FC1E23962278210CA8FD
:101E80000095FFF7FDFB184FCDE900751E2217A343
:101E9000114608A8FFF735FDCDE9007417A30A2203
:101EA0001C210CA8FFF72DFD3246414602A8FEF783
:101EB0006FF9164A164902A8FEF76AF9FEE7000014
:101EC0000010024000080140003801409800002046
:101ED000652D506170657220696E69742066616954
:101EE0006C65640A000000002C000020652D506124
:101EF0007065722044656D6F0000000048656C6C71
:101F00006F20776F726C642100000000203300089E
:101F1000981F0008F0B50B30154D20F00701002484
:101F2000144A0FE003688B420BD38B4205D95E1A2B
:101F300043184768C3E9006700E04368136002C0C4
:101F400004E0021D10680028ECD12046002802D1D0
:101F5000286808B10020F0BD064A07481060074A0B
:101F6000121A22F00702C0E9002401202860D7E7F6
:101F70003C00002038000020FC000020F830002049
:101F80000000000000000000010203040607080929
:101F90000000000001020304FFFFFFFFFFFFFFFF3F
:101FA000FFFFFFFFFFFFFFFFFFFFFFFFFFFFFFFF41
:101FB000FFFFFFFFFFFFFFFFFFFFFFFFFFFFFFFF31
:101FC000FFFFFFFFFFFFFFFFFFFFFFFFFFFFFFFF21
:101FD000FFFFFFFFFFFFFFFFFFFFFFFFFFFFFFFF11
:101FE000FFFFFFFFFFFFFFFFFFFFFFFFFFFFFFFF01
:101FF000FFFFFFFFFFFFFFFFFFFFFFFFFFFFFFFFF1
:10200000FFFFFFFFFFFFFFFFFFFFFFFFFFFFFFFFE0
:10201000FFFFFFFFFFFFF7FF3FFFFFFFFFFFFFFF98
:10202000FFFFFFFFFFFFFFFFFFFFFFFFFFFFFFE1DE
:10203000FE1FFFFFFFFFFFFFFFFFFFFFFFFFFFFF91
:10204000FFFFFFFFFFFFFFFFE3FF1FFFFFFFFFFF9C
:10205000FFFFFFFFFFFFFFFFFFFFFFFFFFFFFFFF90
:10206000FFE3FF9FFFFFFFFFFFFFFFFFFFFFFFFFFC
:10207000FFFFFFE000000001FFFFE7FF8FFFFFFF12
:10208000FFFFFFFFFFFFFFFFFFFFFFFFFFFFFFFF60
:10209000FCFFFFE3FF8FFFFFFFFFFFFFFFFFFFFFDF
:1020A000FFFFFFFFFFFFFFFFFFFEFFFFE3FF1FFF3D
:1020B000FFFFFFFFFFFFFFFFFFFFFFFFFFFFFFFF30
:1020C000FFFFFEFFFFE1FE1FFFFFFFFFFFFFFFFF20
:1020D000FFFFFFFFFFFFFFFFFFFFFFFEFFFFF0FC23
:1020E0001FFFFFFFFFFFFFFFFFFFFFFFFFFFFFFFE0
:1020F000FFFFFFFFFEFFFFF0003FFFFFFFFFFFFFBF
:10210000FFFFFFFFFFFFFFFFFFFFFFFFFFFEFFFFE0
:10211000F8007FFFFFFFFFFFFFFFFFFFFFFFFFFF55
:10212000FFFFFFFFFFFFFEFFFFFE01FFFFFFFFFFBF
:10213000FFFFFFFFFFFFFFFFFFFFFFFFFFFFFFFEB0
:10214000FFFFFFFFFFFFFFFFFFFFFFFFFFFFFFFF9F
:10215000FFFFFFFFFFFFFFFF7EFFFFFBFFFFFFFF14
:10216000FFFFFFFFFFFFFFFFFFFFFFFFFFFFFFFF7F
:10217000FC3EFFFFE0FFFFFFFFFFFFFFFFFFFFFF52
:10218000FFFFFFFFFEFFFFFFFFF03EFFFFC67FFFE9
:10219000FFFFFFFFFFFFFFFFFFFFFFFFFFFEFFFF50
:1021A000FFFFE0CEFFFFCE7FFFFFFFFFFFFFFFFF40
:1021B000FFFFFFFFFFFFFEFFFFFFFF8186FFFFCE58
:1021C0007FFFFFFFFFFFFFFFFFFFFFFFFFFFFFFEA0
:1021D000FFFFFFFF0206FFFFC67FFFFFFFFFFFFFBE
:1021E000FFFFFFFFFFFFFFFFFEFFFFFFFE0C02FFF1
:1021F000FFE0FFFFFFFFFFFFFFFFFFFFFFFFFFFF0E
:10220000FFFEFFFFFFFE1802FFFFFBFFFFFFFFFFC8
:10221000FFFFFFFFFFFFFFFFFFFFFEFFFFFFFE20AF
:1022200000FFFFFFFFFFFFFFFFFFFFFFFFFFFFFFBD
:10223000FFFFFFFEFFFFFFFEC002FFFFFF03FFFFE8
:10224000FFFFFFFFFFFFFFFFFFFFFFFFFEFFFFFF9F
:10225000FF0002FFFFF8007FFFFFFFFFFFFFFFFF10
:10226000FFFFFFFFFFFEFFFFFFFF0002FFFFF00089
:102270003FFFFFFFFFFFFFFFFFFFFFFFFFFFFEFF2F
:10228000FFFFFF8006FFFFE0CC1FFFFFFFFFFFFF08
:10229000FFFFFFFFFFFFFFFEFFFFFFFFC00EFFFF7F
:1022A000E3C71FFFFFFFFFFFFFFFFFFFFFFFFFFF72
:1022B000FEFFFFFFFFC00EFFFFE7E78FFFFFFFFFFF
:1022C000FFFFFFFFFFFFFFFFFFFEFFFFFFFF001EFF
:1022D000FFFFE7E78FFFFFFFFFFFFFFFFFFFFFFFAE
:1022E000FFFFFEFFFFFFFC003EFFFFE3C78FFFFF86
:1022F000FFFFFFFFFFFFFFFFFFFFFFFEFF83FFF07A
:10230000007EFFFFE0071FFFFFFFFFFFFFFFFFFF54
:10231000FFFFFFFFFEFC01FFE000FEFFFFF00F1FCD
:10232000FFFFFFFFFFFFFFFFFFFFFFFFFFFEF007C5
:10233000FF8001FEFFFFF81FBFFFFFFFFFFFFFFF52
:10234000FFFFFFFFFFFFFEC018FE0003FEFFFFFFC1
:10235000FFFFFFFFFFFFFFFFFFFFFFFFFFFFFFFE8E
:10236000C0E0F8000FFEFFFFFFFFFFFFFFFFFFFFD2
:10237000FFFFFFFFFFFFFFFFFEC700E0001FFEFFA4
:10238000FFFFFF9FFFFFFFFFFFFFFFFFFFFFFFFFBD
:10239000FFFEDC00C0003FFEFFFFF83F1FFFFFFF16
:1023A000FFFFFFFFFFFFFFFFFFFFFEE0000000FF5A
:1023B000FEFFFFF00F1FFFFFFFFFFFFFFFFFFFFF0D
:1023C000FFFFFFFEC0000003FFFEFFFFE0031FFF53
:1023D000FFFFFFFFFFFFFFFFFFFFFFFFFEE000002B
:1023E00007FFFEFFFFE3C19FFFFFFFFFFFFFFFFFB0
:1023F000FFFFFFFFFFFEE000001FFFFEFFFFE7E023
:102400009FFFFFFFFFFFFFFFFFFFFFFFFFFFFEF04C
:102410000000FFFFFEFFFFE7F81FFFFFFFFFFFFFCA
:10242000FFFFFFFFFFFFFFFEF80003FFFFFEFFFFC0
:10243000E7FC1FFFFFFFFFFFFFFFFFFFFFFFFFFFA7
:10244000FEFC003FFFFFFEFFFFE3FE1FFFFFFFFF5D
:10245000FFFFFFFFFFFFFFFFFFFEFFB7FFFFFFFED6
:10246000FFFFF1FF1FFFFFFFFFFFFFFFFFFFFFFF6A
:10247000FFFFFEFFFFFFFFFFFEFFFFF3FF9FFFFFDA
:10248000FFFFFFFFFFFFFFFFFFFFFFFEFFFFFFFF5D
:10249000FFFEFFFFFFFFFFFFFFFFFFFFFFFFFFFF4D
:1024A000FFFFFFFFFEFFFFFFFFFFFEFFFFFFFFFF3E
:1024B000FFFFFFFFFFFFFFFFFFFFFFFFFFFEFFFF2D
:1024C000FFFFFFFEFFFFFFDFFFFFFFFFFFFFFFFF3D
:1024D000FFFFFFFFFFFFFEFFFFFFFFFFFEFFFFFF0E
:1024E0008FFFFFFFFFFFFFFFFFFFFFFFFFFFFFFE6D
:1024F000FFFFFFFFFFFEFFFFFF87FFFFFFFFFFFF65
:10250000FFFFFFFFFFFFFFFFFEFFFFFFFFFFFEFFDD
:10251000FFFFC3FFFFFFFFFFFFFFFFFFFFFFFFFF07
:10252000FFFEFFFFFFFFFFFEFFFFFFE3FFFFFFFFD9
:10253000FFFFFFFFFFFFFFFFFFFFFE7FFFFFFFFF2C
:10254000FCFFFFFFF3FFFFFFFFFFFFFFFFFFFFFFAA
:10255000FFFFFFFF000000000001FFFFFFE3FFFFA0
:10256000FFFFFFFFFFFFFFFFFFFFFFFFFFFFFFFF7B
:10257000FFFFFFFFFFFFE3FFFFFFFFFFFFFFFFFF87
:10258000FFFFFFFFFFFFFFFFFFFFFFFFFFFFFFC397
:10259000FFFFFFFFFFFFFFFFFFFFFFFFFFFFFFFF4B
:1025A000FFFFFFFFFFFFFFFF87FFFFFFFFFFFFFFB3
:1025B000FFFFFFFFFFFFFFFFFFFFFFFFFFFFFFFF2B
:1025C000FF8FFFFFFFFFFFFFFFFFFFFFFFFFFFFF8B
:1025D000FFFFFFFFFFFFFFFFFFFF1FFFFFFFFFFFEB
:1025E000FFFFFFFFFFFFFFFFFFFFFFFFFFFFFFFFFB
:1025F000FFFFFF1FFFFFFFFFFFFFFFFFFFFFFFFFCB
:10260000FFFFFFFFFFFFFFFFFFFFFFFF3FFFFFFF9A
:10261000FFFFFFFFFFFFFFFFFFFFFFFFFFFFFFFFCA
:10262000FFFFFFFFFE3FFFFFFFFFFFFFFFFFFFFF7B
:10263000FFFFFFFFFFFFFFFFFFFFFFFFFFFF1FFF8A
:10264000FFFFFFFFFFFFFFFFFFFFFFFFFFFFFFFF9A
:10265000FFFFFFFFFFFFFF1FFFFFFFFFFFFFFFFF6A
:10266000FFFFFFFFFFFFFFFFFFFFFFFFFFFFFFFF7A
:102670000FFFFFFFFFFFFFFFFFFFFFFFFFFFFFFF5A
:10268000FFFFFFFFFFFFFFFFFF87FFFFFFFFFFFFD2
:10269000FFFFFFFFFFFFFFFFFFFFFFFFFFFFFFFF4A
:1026A000FFFFCFFFFFFFFFFFFFFFFFFFFFFFFFFF6A
:1026B000FFFFFFFFFFFFFFFFFFFFFFFFFFFFFFFF2A
:1026C000FFFFFFFFFFFFFFFFFFFFFFFFFFFFFFFF1A
:1026D000FFFFFFFFFFFFFFFFFFFFFFFFFFFFFFFF0A
:1026E000FFFFFFFFFFFFFFFFFFFFFFFFFFF8FFFF01
:1026F000FFFFFFFFFFFFFFFFFFFFFFFFFFFFFFFFEA
:10270000FFFFFFFFFFF8703FFFFFFFFFFFFFFFFF2F
:10271000FFFFFFFFFFFFFFFFFFFAFFFFFFFFF020BC
:102720001FFFFFFFFFFFFFFFE000FFFFFFFFFFFFB7
:10273000FFFFC01FFFFFFFE0021FFFFFFFFFFFFFC4
:10274000FF00000FFFFFFFFFFFFFFF000FFFFFFF76
:10275000E3871FFFFFFFFFFFFFFC000003FFFFFFFA
:10276000FFFFFFFE0007FFFFFFE78F8FFFFFFFFF69
:10277000FFFFF0000001FFFFFFFFFFFFFE00027FF1
:10278000FFFFE7CF8FFFFFFFFFFFFFE0000000FF2D
:10279000FFFFFFFFFFFC00007FFFFFE7CF9FFFFF72
:1027A000FFFFFFFFC00000007FFFFFFFFFFFF800FB
:1027B00000FFFFFFE3FF1FFFFFFFFFFFFFC00FFE54
:1027C000003FFFFFFFFFFFF83000FFFFFFF3FE1F9A
:1027D000FFFFFFFFFFFF80FFFFE03FFFFFFFFFFF67
:1027E000F83000FFFFFFF7FF3FFFFFFFFFFFFF8114
:1027F000FFFFF81FFFFFFFFFFFF00000FFFFFFFFDD
:10280000FFFFFFFFFFFFFFFF83FFFFF81FFFFFFF3B
:10281000FFFFF00000FFFFFFFFFFFFFFFFFFFFFFD5
:10282000FF83FFFFFC1FFFFFFFFFFF900000FFFF84
:10283000FFFFFF1FFFFFFFFFFFFF83FFFFFC1FFFE7
:10284000FFFFFFFF100000FFFFFFF81F1FFFFFFF4C
:10285000FFFFFF83FFFFFC1FFFFFFFFFFC100000D7
:10286000FFFFFFF00F1FFFFFFFFFFFFF81FFFFF8DC
:102870001FFFFFFFFFF8183000FFFFFFE0031FFFFF
:10288000FFFFFFFFFF80FFFFF03FFFFFFFFFF808A4
:102890003800FFFFFFE3C19FFFFFFFFFFFFFC01FE7
:1028A000FF803FFFFFFFFFF0083001FFFFFFE7F071
:1028B0009FFFFFFFFFFFFFC00000007FFFFFFFFF44
:1028C000E0080001FFFFFFE7F81FFFFFFFFFFFFF2A
:1028D000E00000007FFFFFFFFFE0E40001FFFFFFDB
:1028E000E7FC1FFFFFFFFFFFFFF0000000FFFFFFFF
:1028F000FFFFE0E20003FFFFFFE3FE1FFFFFFFFF1C
:10290000FFFFF8000003FFFFFFFFFFC0E20007FF2B
:10291000FFFFF1FF1FFFFFFFFFFFFFFE00000FFFA4
:10292000FFFFFFFFC041000FFFFFFFF3FF9FFFFF0F
:10293000FFFFFFFFFFC0007FFFFFFFFFFFC000C0E2
:102940001FFFFFFFFFFFFFFFFFFFFFFFFFFFFFFF77
:10295000FFFFFFFFFFFFC00030FFFFFFFFFFFFFF94
:10296000FFFFFFFFFFFFFFFFFFFFFFFFFFFFFFC0B6
:1029700000077FFFFFFFFFFFFFFFFFFFFFFFFFFFDE
:10298000FFFFFFFFFFFFFFFFC000003FFFFFFFFF54
:10299000FFFFFFFFFFFFFFFFFFFFFFFFFFFFFFFF47
:1029A000FFC000007FFFFFFFFFFFFFFFFFFFFFFFF4
:1029B000FFFFF803FFFFFFFFFFFFC040007FFFFFA7
:1029C000FFFFFFFFFFFFFFFFFFFFFF80001FFFFF75
:1029D000FFFFFFC0E0007FFFFFFFFFFFFFFFFFFFE4
:1029E000FFFFFFFC000007FFFFFFFFFFE0E0007FAD
:1029F000FFFFFFFFFFFFFFFFFFFFFFFFF8000001EA
:102A0000FFFFFFFFFFE0E0007FFFFFFFFFFFFFFF93
:102A1000FFFFFFFFFFE0000000FFFFFFFFFFE00000
:102A2000003FFFFFFFFFFFFFFFFFFFFFFFFFE00093
:102A300000007FFFFFFFFFF000003FFFFFFFFFFFF1
:102A4000FFFFFFFFFFFFFFC00060003FFFFFFFFF32
:102A5000F800011FFFFFFFFFFFFFFFFFFFFFFFFF6A
:102A6000807FFFC03FFFFFFFFFF80003FFFFFFFF76
:102A7000FFFFFFFFFFFFFFFFFF81FFFFF01FFFFFD3
:102A8000FFFFFC0007FFFFFFFFFFFFFFFFFFFFFF50
:102A9000FFFF83FFFFF81FFFFFFFFFFF000FFFFF98
:102AA000FFFFFFFFFFFFFFFFFFFFFF83FFFFFC1F95
:102AB000FFFFFFFFFF803FFFFFFFFFFFFFFFFFFF65
:102AC000FFFFFFFF83FFFFFC1FFFFFFFFFFFFFFF75
:102AD000FFFFFFFFFFFFFFFFFFFFFFFFFF83FFFF82
:102AE000FC1FFFFFFFFFFFFFFFFFFFFFFFFFFFFFD9
:102AF000FFFFFFFFFFFF83FFFFF81FFFFFFFFFFF49
:102B0000FFFFFFFFFFFFFFFFFFFFFFFFFFFFFF8153
:102B1000FFFFF03FFFFFFFFFFFFFFFFFFFFFFFFF94
:102B2000FFFFFFFFFFFFFFFF807FFFC03FFFFFFFB3
:102B3000FFFFFFFFFFFFFFFFFFFFFFFFFFFFFFFFA5
:102B4000FFC00000003FFFFFFFFFFFFFFFFFFFFF91
:102B5000FFFFFFFFFFFFFFFFFFFFE00000007FFF21
:102B6000FFFFFFFFFFFFFFFFFFFFFFFFFFFFFFFF75
:102B7000FFFFFFF0000000FFFFFFFFFFFFFFFFFF71
:102B8000FFFFFFFFFFFFFFFFFFFFFFFFF800000158
:102B9000FFFFFFFFFFFFFFFFFFFFFFFFFFFFFFFF45
:102BA000FFFFFFFFFFFC000007FFFFFFFFFFFFFF2E
:102BB000FFFFFFFFFFFFFFFFFFFFFFFFFFFFFF80A4
:102BC000003FFFFFFFFFFFFFFFFFFFFFFFFFFFFFD4
:102BD000FFFFFFFFFFFFFFFFFC07FFFFFFFFFFFF00
:102BE000FFFFFFFFFFFFFFFFFFFFFFFFFFFFFFFFF5
:102BF000FFFFFFFFFFFFFFFFFFFFFFFFFFFFFFFFE5
:102C0000FFFFFFFFFFFFFFFFFFFFFFFFFFFFFFFFD4
:102C1000FFFFFFFFFFFFFFFFFFFFFFFFFFFFFFFFC4
:102C2000FFFFFFFFFFFFFFFFFFFFFFFFFFFFFFFFB4
:102C3000FFFFFFFFFFFFFFFFFFFFFFFFFFFFFFFFA4
:102C4000FFFFFFFFFFFFFFFFFFFFFFFFFFFFFFFF94
:102C5000FFFFFFFFFFFFFFFFFFFFFFFFFFFFFFFF84
:102C6000FFFFFFFFFFFFFFFFFFFFFFFFFFFFE0FF93
:102C7000F07FFFFFFFFF000000017FFFFFFFFFFF6E
:102C8000FFFFFFFFFFFFFFC07FE03FFFFFFFFD8073
:102C90000000031FFFFFFFFFFFFFFFFFFFFFFFFF1E
:102CA000C03FE01FFFFFFFF8800000020FFFFFFFA3
:102CB000FFFFFFFFFFFFFFFFFF803FC01FFFFFFF82
:102CC000F0400000040FFFFFFFFFFFFFFFFFFFFFCB
:102CD000FFFF803FC01FFFFFFFF06000000C07FFF9
:102CE000FFFFFFFFFFFFFFFFFFFFFFC03FE01FFFF2
:102CF000FFFFF02000000807FFFFFFFFFFFFFFFFBF
:102D0000FFFFFFFFC07FE03FFFFFFFF0300000103C
:102D100007FFFFFFFFFFFFFFFFFFFFFFFFF0FFF8D1
:102D20007FFFFFFFF01000003007FFFFFFFFFFFFF6
:102D3000FFFFFFFFFFFFFFFFFFFFFFFFFFF0180098
:102D4000002007FFFFFFFFFFFFFFFFFFFFFFFFFF69
:102D5000FFFFFFFFFFFFF00800006007FFFFFFFF1E
:102D6000FFFFFFFFFFFFFFFFFFFFFFFFFFFFFFF082
:102D70000400004007FFFFFFFFFFFFFFFFFFFFFF13
:102D8000FFFFFFFFFFFFFFFFF00600008007FFFFD0
:102D9000FFFFFFFFFFFFFFFFFFFFFFFFFFFFFFFF43
:102DA000FFF00200018007FFFFFFFFFFFFFFFFFFB3
:102DB000FFFFFFFFFE0FFFFFFFFFF0030001000713
:102DC000FFFFFFFFE0000000FFFFFFFF3FF803FFF2
:102DD000FFFFFFF00100020007FFFFFFFF00000000
:102DE00000FFFFFFF807F000FFFFFFFFF001800684
:102DF0000007FFFFFFFC00000000FFFFFFF001E005
:102E0000007FFFFFFFF00080040007FFFFFFF000DE
:102E1000380000FFFFFFE000C0007FFFFFFFF00071
:102E200040080007FFFFFFE000FE0000FFFFFFC0BB
:102E30000000003FFFFFFFF00040080007FFFFFF1A
:102E4000C003FF8000FFFFFFC00000E03FFFFFFF67
:102E5000F00020100007FFFFFF800FFFF800FFFFCA
:102E6000FF81F801F83FFFFFFFF00030300007FF5F
:102E7000FFFF003FFFFC00FFFFFF83FE03FC1FFF7F
:102E8000FFFFF00010200007FFFFFE00FFE7FE003D
:102E9000FFFFFF83FE07FC1FFFFFFFF0001840004D
:102EA00007FFFFFC01FF81FF00FFFFFF87FE07FC1C
:102EB0001FFFFFFFF00008C00007FFFFFC01FF003D
:102EC0007F00FFFFFF87FC0FFC1FFFFFFFF00004E8
:102ED000800007FFFFF801FFC07F80FFFFFF87FC36
:102EE0000FFC1FFFFFFFF00005000007FFFFF800C9
:102EF000FFF80000FFFFFF83F81FFC1FFFFFFFF03C
:102F00000003000007FFFFF0001FFE0000FFFFFFAF
:102F100081F00FF81FFFFFFFF00003000007FFFF25
:102F2000F00007FF8000FFFFFF800007F03FFFFF7A
:102F3000FFF00001000007FFFFF1FF81FF8000FFAD
:102F4000FFFFC00000E03FFFFFFFF000018000072F
:102F5000FFFFE0FF007F8000FFFFFFC00040003F59
:102F6000FFFFFFF04780800007FFFFE07FC13F8049
:102F700000FFFFFFE000E0007FFFFFFFF04FC040D9
:102F80000007FFFFE03FF94F0000FFFFFFF003E005
:102F900000FFFFFFFFF04C40400007FFFFE01FFE77
:102FA000780000FFFFFFFC07F801FFFFFFFFF06460
:102FB000C0400007FFFFE00FFF800000FFFFFFFFA2
:102FC000FFFC03FFFFFFFFF07FC0400007FFFFE0B3
:102FD00005FFF00000FFFFFFFFFFFFFFFFFFFFFF08
:102FE000F01F00C00007FFFFE0003FFC0000FFFFF4
:102FF000FFFFFFFFFFFFFFFFFFF00000800007FF64
:10300000FFE0000FFF0000FFFFFFFFFFFFFFFFFFDC
:10301000FFFFF00001000007FFFFE00003FF80005A
:10302000FFFFFFFFFFFFFFFFFFFFFFF000010000BA
:1030300007FFFFE00007FF8001FFFFFFFFFFFFFF2B
:10304000FFFFFFFFF00002000007FFFFE0003FFF6F
:103050000001FFFFFFFFFFFFF83FFFFFFFF000064B
:10306000000007FFFFE000FFFC0001FFFFFFFFFF84
:10307000FFF83FFFFFFFF00005000007FFFFE00142
:10308000FFE00001FFFFFFFFFFFFF83FFFFFFFF042
:10309000000D800007FFFFE001FF000003FFFFFFBE
:1030A000FFFFFFF83FFFFFFFF00008800007FFFF72
:1030B000E001FF800003FFFFFFFFFFFFF83FFFFF7E
:1030C000FFF00010400007FFFFE000FFF00003FFEB
:1030D000FFFFFFFFFFF83FFFFFFFF000104000077A
:1030E000FFFFE0001FFE0007FFFFFFC00000003FE2
:1030F000FFFFFFF00020200007FFFFE00003FF803C
:1031000007FFFFFF800000003FFFFFFFF00060307F
:103110000007FFFFE00007FF800FFFFFFF800000B8
:10312000003FFFFFFFF00040100007FFFFE0003FFF
:10313000FF801FFFFFFF800000003FFFFFFFF00048
:10314000C0080007FFFFE001FFFF001FFFFFFF8037
:103150000000003FFFFFFFF000800C0007FFFFE0D2
:1031600001FFF8003FFFFFFF800000003FFFFFFF6F
:10317000F00180040007FFFFE001FFE0007FFFFF98
:10318000FFC00000003FFFFFFFF00100020007FF4B
:10319000FFE001FE0000FFFFFFFFC0FFFFF83FFF61
:1031A000FFFFF00200030007FFFFE001F00003FF54
:1031B000FFFFFFE0FFFFF83FFFFFFFF00600010009
:1031C00007FFFFE001800007FFFFFFFFE0FFFFF8C0
:1031D0003FFFFFFFF00400018007FFFFE000000059
:1031E0001FFFFFFFFFE0FFFFF83FFFFFFFF00C00B6
:1031F000008007FFFFE0000000FFFFFFFFFFF0FF80
:10320000FFF83FFFFFFFF00800004007FFFFE0006E
:10321000000FFFFFFFFFFFF0FFFFF83FFFFFFFF092
:103220001800006007FFFFFFFFFFFFFFFFFFFFFF2A
:10323000FFFFFFF83FFFFFFFF01000002007FFFF38
:10324000FFFFFFFFFFFFFFFFFFFFFFFFFFFFFFFF8E
:10325000FFF02000001007FFFFFFFFFFFFFFFFFF51
:10326000FFFFFFFFFFFFFFFFFFFFF06000001807F9
:10327000FFFFFFFFFFFFFFFFFFFFFFFFFFFFFFFF5E
:10328000FFFFFFF04000000807FFFFFFFFFFFFFF09
:10329000FFFFFFFFFFFFFFFFFFFFFFFFF8C0000082
:1032A000040FFFFFFFFFFFFFFFFFFFFFFFFFFFFF19
:1032B000FFFFFFFFFFF8800000041FFFFFFFFFFF7D
:1032C000FFFFFFFFFFFFFFFFFFFFFFFFFFFFFF000D
:1032D0000000023FFFFFFFFFFFFFFFFFFFFFFFFFB9
:1032E000FFFFFFFFFFFFFFFFFFFFFFFFFFFFFFFFEE
:1032F000FFFFFFFFFFFFFFFFFFFFFFFFFFFFFFFFDE
:10330000FFFFFFFFFFFFFFFFFFFFFFFFFFFFFFFFCD
:10331000FFFFFFFFFFFFFFFFFFFFFFFFFFFFFFFFBD
:10332000FFFFFFFFFFFFFFFF8FFFFFFFFFFFFFFF1D
:10333000F1FFFFFFFFFFFFFFFFFFFFFFFFFFFFFFAB
:10334000FF8FFFFFFFFFFFFFFFF1FFFFFFFFFFFF0B
:10335000FFFFFFFFFFFFFFFFFFFF8FFFFFFFFFFFED
:10336000FFFFF1FFFFFFFFFFFFFFFFFFFFFFFFFF7B
:10337000FFFFFF8FFFFFFFFFFFFFFFF1FE01FFFFDA
:10338000FFFFFFFFFFFFFFFFFFFFFFFF8FFFFFFFBD
:10339000FFFFFFFFF1F8007FFFFFFFFFFFFFFFFFD1
:1033A000FFFFFFFFFF8FFFFFFFFFFFFFFFF1F000B9
:1033B0003FFFFFFFFFFFFFFFFFFFFFFFFFFF8FFF4D
:1033C000FFFFFFFFFFFFF1F0001FFFFFFFFFFFFF09
:1033D000FFFFFFFFFFFFFF8FFFFFFFFFFFFFFFF17B
:1033E000E0001FFFFFFFFFFFFFFFFFFFFFFFFFFFEB
:1033F0008FFFFFFFFFFFFFFFF1E1E31FFFFFFFFF75
:10340000FFFFFFFFFFFFFFFFFF8FFFFFFFFFFFFF3C
:10341000FFF1C3F30FFFFFFFFFFFFFFFFFFFFFFF02
:10342000FFFF8FFFFFFFFFFFFFFFF1C33B0FFFFF1A
:10343000FFFFFFFFFFFFFFFFFFFFFF8FFFFFFFFF0C
:10344000FFFFFFF1C30F0FFFFFFFFFFFFFFFFFFFB6
:10345000FFFFFFFF8FFFFFFFFFFFFFFFF1C30F0F16
:10346000FFFFFFFFFFFFFFFFFFFFFFFFFF8FFFE3F8
:10347000FFFFFFFFFFF1C3870FFFFFFFFFFFFFFF0E
:10348000FFFFFFFFFFFF8FFFE07FFFFFFFFFF1C1A7
:10349000030FFFFFFFFFFFFFFFFFFFFFFFFFFF8F98
:1034A000FFE00FFFFFFFFFF1E0001FFFFFFFFFFF47
:1034B000FFFFFFFFFFFFFFFF8FFFFC03FFFFFFFF8B
:1034C000F1E0001FFFFFFFFFFFFFFFFFFFFFFFFF18
:1034D000FF8FFFFF807FFFFFFFF1F0003FFFFFFF47
:1034E000FFFFFFFFFFFFFFFFFFFF8FFFFFF01FFF4B
:1034F000FFFFF1F8007FFFFFFFFFFFFFFFFFFFFF70
:10350000FFFFFF8FFFFF001FFFFFFFF1FE00FFFF28
:10351000FFFFFFFFFFFFFFFFFFFFFFFF8FFFF8072A
:103520008FFFFFFFF1FF87FFFFFFFFFFFFFFFFFFA1
:10353000FFFFFFFFFF8FFFE01F8FC007FFF1FFFFBF
:10354000FFFFFFFFFFFFFFFFFFFFFFFFFFFF8FFFFB
:10355000E0FFCF8007FFF1FFFFFFFFFFFFFFFFFF4F
:10356000FFFFFFFFFFFFFF8FFFE3FFEF0007FFF10C
:10357000FFFFFFFFFFFFFFFFFFFFFFFFFFFFFFFF5B
:103580008FFFFFFFFF1FFFFFF1FFFFFFFFFFFFFFA9
:10359000FFFFFFFFFFFFFFFFFF8FFFFFFFFF1FFF8B
:1035A000FFF1FFFFFFFFFFFFFFFFFFFFFFFFFFFF39
:1035B000FFFF8FFFFE01FF1FFFFFF1FFFFFFFFFF78
:1035C000FFFFFFFFFFFFFFFFFFFFFF8FFFF001FF88
:1035D0009FFFFFF1FFFFFFFFFFFFFFFFFFFFFFFF69
:1035E000FFFFFFFF8FFFE001E0800FFFF1FFFFFF14
:1035F000FFFFFFFFFFFFFFFFFFFFE7FFFF8FFFE082
:1036000003E00007FFF1FFFFFFFFFFFFFFFFFFFFEA
:10361000FFFFFFE0FFFF8FFFE271E00007FFF1FF18
:10362000FFFFFFFFFFFFFFFFFFFFFFFFE03FFF8FF9
:10363000FFE739E0000FFFF1FFFFFFFFFFFFFFFF94
:10364000FFFFFFFFFFF007FF8FFFE738FFFFFFFFE0
:10365000F1FFFFFFFFFFFFFFFFFFFFFFFFFFFE0187
:10366000FF8FFFE310FFFFFFFFF1FFFFFFFFFFFFF3
:10367000FFFFFFFFFFFFFFFFC07F8FFFE301FF1F83
:10368000C7FFF1FFFFFFFFFFFFFFFFFFFFFFFFFF90
:10369000FFF83F8FFFF381FF1FC7FFF1FFFFFFFF21
:1036A000FFFFFFFFFFFFFFFFFFFFC01F8FFFFFC7F1
:1036B000FF1FC7FFF1FFFFFFFFFFFFFFFFFFFFFF40
:1036C000FFFFFE000F8FFFFFFFF80007FFF1FFFF76
:1036D000FFFFFFFFFFFFFFFFFFFFFFF007878FFFE9
:1036E000FFFFF8000FFFF1FFFFFFFFFFFFFFFFFFEE
:1036F000FFFFFFFFE01FC78FFFFFFFF8000FFFF185
:10370000FFFFFFFFFFFFFFFFFFFFFFFFFFE0FFC720
:103710008FFE0001FF1EFFFFF1FFFFFFFFFFFFFF16
:10372000FFFFFFFFFFFFE3FFC78FFE0001FF1FFF4B
:10373000FFF1FFFFFFFFFFFFFFFFFFFFFFFFFFFFA7
:10374000FFC78FFE0001FFFFFFFFF1FFFFFFFFFF3D
:10375000FFFFFFFFFFFFFFFFFFFFFF8FFE03FFF8ED
:103760007FFFFFF1FFFFFFFFFFFFFFFFFFFFFFFFF7
:10377000FFFFFFFF8FFFC07FF81FFFFFF1FFFFFF7D
:10378000FFFFFFFFFFFFFFFFFFFFF800FF8FFFF8C6
:103790001FF807FFFFF1FFFFFFFFFFFFFFFFFFFF26
:1037A000FFFFFFF000FF8FFFFE03F801FFFFF1FFB7
:1037B000FFFFFFFFFFFFFFFFFFFFFFFFE000FF8FA7
:1037C000FFFF83F8C07FFFF1FFFFFFFFFFFFFFFF59
:1037D000FFFFFFFFFFE000FF8FFFFC07F8F01FFF78
:1037E000F1FFFFFFFFFFFFFFFFFFFFFFFFFFE331E1
:1037F000FF8FFFE03FF8FC07FFF1FFFFFFFFFFFF38
:10380000FFFFFFFFFFFFFFE338FF8FFF00FFF8FF21
:1038100003FFF1FFFFFFFFFFFFFFFFFFFFFFFFFFC2
:10382000E338FF8FFE07FFF8FFC3FFF1FFFFFFFF45
:10383000FFFFFFFFFFFFFFFFFFE318FF8FFE000109
:10384000F8FFF3FFF1FFFFFFFFFFFFFFFFFFFFFFA9
:10385000FFFFE300FF8FFE0001F8FFFFFFF1FFFF16
:10386000FFFFFFFFFFFFFFFFFFFFFFE380FF8FFE74
:103870000001F8FFFFFFF1FFFFFFFFFFFFFFFFFF6A
:10388000FFFFFFFFF181FF8FFFFFFFFFFFFFFFF152
:10389000FFFFFFFFFFFFFFFFFFFFFFFFFFFFC3FF74
:1038A0008FFFFFFFFFFFFFFFF1FFFFFFFFFFFFFFA6
:1038B000FFFFFFFFFFFFFFFFFF8FFFFFFFFFFFFF88
:1038C000FFF1FFFFFFFFFFFFFFFFFFFFFFFFFFFF16
:1038D000FFFF8FFFFFFFFFFFFFFFF1FFFFFFFFFF76
:1038E000FFFFFFFFFFFFFFFC0000FF8FFFFFFFFF59
:1038F000FFFFFFF1FFFFFFFFFFFFFFFFFFFFFFFFE6
:10390000FC0000FF8FFFFFFFFFFFFFFFF1FFFFFF46
:10391000FFFFFFFFFFFFFFFFFFFC0000FF8FFFFF28
:10392000FFFFFFFFFFF1FFFFFFFFFFFFFFFFFFFFB5
:10393000FFFFFC0000FF8FFFFFFFFFFFFFFFF1FF16
:10394000FFFFFFFFFFFFFFFFFFFFFFFFE3F1FF8F21
:10395000FFFFFFFFFFFFFFF1FFFFFFFFFFFFFFFF85
:10396000FFFFFFFFFFE3F9FF8FFFFFFFFFFFFFFFF9
:10397000F1FFFFFFFFFFFFFFFFFFFFFFFFFFE3F888
:10398000FF8FFFFFFFFFFFFFFFF1FFFFFFFFFFFFC5
:10399000FFFFFFFFFFFFFFE3F8FF800000000000D4
:1039A000000001FFFFFFFFFFFFFFFFFFFFFFFFFF23
:1039B000E1F0FF800000000000000001FFFFFFFFBA
:1039C000FFFFFFFFFFFFFFFFFFF000FF8FFFFFFF85
:1039D000FFFFFFFFF1FFFFFFFFFFFFFFFFFFFFFF05
:1039E000FFFFF001FF8FFFFFFFFFFFFFFFF1FFFF72
:1039F000FFFFFFFFFFFFFFFFFFFFFFF801FF8FFF4C
:103A0000FFFFFFFFFFFFF1FFFFFFFFFFFFFFFFFFD4
:103A1000FFFFFFFFFE07FF8FFFFFFFFFFFFFFFF12D
:103A2000FFFFFFFFFFFFFFFFFFFFFFFFFFFFFFFFA6
:103A30008FFFFFFFFFFFFFFFF1FFFFFFFFFFFFFF14
:103A4000FFFFFFFFFFFFFFFFFF8FFFFFFFFFFFFFF6
:103A5000FFF1FFFFFFFFFFFFFFFFFFFFFFFFFFF88B
:103A600000FF8FFFFFFFFFFFFFFFF1FFFFFFFFFFE3
:103A7000FFFFFFFFFFFFFFFFF000FF8FFFFFFFFFD4
:103A8000FFFFFFF1FFFFFFFFFFFFFFFFFFFFFFFF54
:103A9000FFE000FF8FFFFFFFFFFFFFFFF1FFFFFFD2
:103AA000FFFFFFFFFFFFFFFFFFFFE000FF8FFFFFB4
:103AB000FFFFFFFFFFF1FFFFFFFFFFFFFFFFFFFF24
:103AC000FFFFFFE3FFFF8FFFFFFFFFFFFFFFF1FFA0
:103AD000FFFFFFFFFFFFFFFFFFFFFFFFE3FFFF8F82
:103AE000FFFFFFFFFFFFFFF1FFFFFFFFFFFFFFFFF4
:103AF000FFFFFFFFFFE3FFFF8FFFFFFFFFFFFFFF62
:103B0000F1FFFFFFFFFFFFFFFFFFFFFFFFFFF0FFE2
:103B1000FF8FFFFFFFFFFFFFFFF1FFFFFFFFFFFF33
:103B2000FFFFFFFFFFFFFFE000FF8FFFFFFFFFFF33
:103B3000FFFFF1FFFFFFFFFFFFFFFFFFFFFFFFFFA3
:103B4000E000FF8FFFFFFFFFFFFFFFF1FFFFFFFF21
:103B5000FFFFFFFFFFFFFFFFFFE000FF8FFFFFFF03
:103B6000FFFFFFFFF1FFFFFFFFFFFFFFFFFFFFFF73
:103B7000FFFFE000FF8FFFFFFFFFFFFFFFF1FFFFF1
:103B8000FFFFFFFFFFFFFFFFFFFFFFFFFFFF8FFFB5
:103B9000FFFFFFFFFFFFF1FFFFFFFFFFFFFFFFFF43
:103BA000FFFFFFFFFFFFFF8FFFFFFFFFFFFFFFF1A3
:103BB000FFFFFFFFFFFFFFFFFFFFFFFFFFFFFFFF15
:103BC0008FFFFFFFFFFFFFFFF1FFFFFFFFFFFFFF83
:103BD000FFFFFFFFFFFFE000FF8FFFFFFFFFFFFF83
:103BE000FFF1FFFFFFFFFFFFFFFFFFFFFFFFFFE012
:103BF00000FF8FFFFFFFFFFFFFFFF1FFFFFFFFFF52
:103C0000FFFFFFFFFFFFFFFFE000FF8FFFFFFFFF52
:103C1000FFFFFFF1FFFFFFFFFFFFFFFFFFFFFFFFC2
:103C2000FFE000FF8FFFFFFFFFFFFFFFF1FFFFFF40
:103C3000FFFFFFFFFFFFFFFFFFFFFFE1FF8FFFFF22
:103C4000FFFFFFFFFFF1FFFFFFFFFFFFFFFFFFFF92
:103C5000FFFFFFFFF9FF8FFFFFFFFFFFFFFFF1FFF8
:103C6000FFFFFFFFFFFFFFFFFFFFFFFFFFF8FF8FDB
:103C7000FFFFFFFFFFFFFFF1FFFFFFFFFFFFFFFF62
:103C8000FFFFFFFFFFFFF8FF8FFFFFFFFFFFFFFFBB
:103C9000F1FFFFFFFFFFFFFFFFFFFFFFFFFFE00060
:103CA000FF8FFFFFFFFFFFFFFFF1FFFFFFFFFFFFA2
:103CB000FFFFFFFFFFFFFFE000FF8FFFFFFFFFFFA2
:103CC000FFFFF1FFFFFFFFFFFFFFFFFFFFFFFFFF12
:103CD000E001FF8FFFFFFFFFFFFFFFF1FFFFFFFF8F
:103CE000FFFFFFFFFFFFFFFFFFE003FF8FFFFFFF6F
:103CF000FFFFFFFFF1FFFFFFFFFFFFFFFFFFFFFFE2
:103D0000FFFFFFFFFF8FFFFFFFFFFFFFFFF1FFFF41
:103D1000FFFFFFFFFFFFFFFFFFFFFFFFFFFF8FFF23
:103D2000FFFFFFFFFFFFF1FFFFFFFFFFFFFFFFFFB1
:103D3000FFFFFFFFFFFFFF8FFFFFFFFFFFFFFFF111
:103D4000FFFFFFFFFFFFFFFFFFFFBFFFFFFFFFFFC3
:103D50008FFFFFFFFFFFFFFFF1FFFFFFFFFFFFFFF1
:103D6000FFFFFF3FFFFFFF87FF8FFFFFFFFFFFFF0B
:103D7000FFF1FFFFFFFFFFFFFFFFFFFF3FFFFF1E02
:103D800003FF8FFFFFFFFFFFFFFFF1FFFFFFFFFFBD
:103D9000FFFFFFFEFFBFCFFE3E01FF8FFFFFFFFFD4
:103DA000FFFFFFF1FFFFFFFFFFFFFFFFFE3FFF8F62
:103DB000FE3C01FF8FFFFFFFFFFFFFFFF1FFFFFF53
:103DC000FFFFFFFFFFFF3C0F9FFE3C30FF8FFFFF19
:103DD000FFFFFFFFFFF1FFFFFFFFFFFFFFFFFFF010
:103DE00003FFFE3C78FF8FFFFFFFFFFFFFFFF1FFA8
:103DF000FFFFFFFFFFFFFFFFE000FFFE3878FF8FB0
:103E0000FFFFFFFFFFFFFFF1FFFFFFFFFFFFFFFFD0
:103E1000FFC000FFFE1878FF8FFFFFFFFFFFFFFFCF
:103E2000F1FFFFFFFFFFFFFFFFFFC0007FFE00F875
:103E3000FF8FFFFFFFFFFFFFFFF1FFFFFFFFFFFF10
:103E4000FFFFFF80003FFF00F8FF8FFFFFFFFFFF36
:103E5000FFFFF1FFFFFFFFFFFFFFFFFF80003FFFBE
:103E600001F0FF8FFFFFFFFFFFFFFFF1FFFFFFFFED
:103E7000FFFFFFFFFF80003FFFC3F1FF8FFFFFFF4A
:103E8000FFFFFFFFF1FFFFFFFFFFFFFFFFF100005C
:103E900031FFFFFFFF8FFFFFFFFFFFFFFFF1FFFF7E
:103EA000FFFFFFFFFFFFF1000031FFFFFFFF8FFF6C
:103EB000FFFFFFFFFFFFF1FFFFFFFFFFFFFFFFFF20
:103EC00080003FFFFFFFFF8FFFFFFFFFFFFFFFF1BE
:103ED000FFFFFFFFFFFFFFFFFF80003FFFFFFFFF30
:103EE0008FFFFFFFFFFFFFFFF1FFFFFFFFFFFFFF60
:103EF000FFFF80007FFFFFFFFF8FFFFFFFFFFFFF40
:103F0000FFF1FFFFFFFFFFFFFFFFFFC0007FFFFF8D
:103F1000FFFF8FFFFFFFFFFFFFFFF1FFFFFFFFFF2F
:103F2000FFFFFFFFE000FFFFFFFFFF8FFFFFFFFF2F
:103F3000FFFFFFF1FFFFFFFFFFFFFFFFFFF001FFAC
:103F4000FFFFFFFF8FFFFFFFFFFFFFFFF1FFFFFFFF
:103F5000FFFFFFFFFFFF7803DFFFFFFFFF8FFFFF84
:103F6000FFFFFFFFFFF1FFFFFFFFFFFFFFFFFE3F30
:103F70001F8FFFFFFFFF8FFFFFFFFFFFFFFFF1FF1F
:103F8000FFFFFFFFFFFFFFFE7FFFCFFFFFFFFF8F62
:103F9000FFFFFFFFFFFFFFF1FFFFFFFFFFFFFFFF3F
:103FA000FEFF3FFFFFFFFFFF8FFFFFFFFFFFFFFF52
:103FB000F1FFFFFFFFFFFFFFFFFFFF3FFFFFFFFFDF
:103FC000FF8FFFFFFFFFFFFFFFF1FFFFFFFFFFFF7F
:103FD000FFFFFFFF3FFFFFFFFFFF8FFFFFFFFFFF21
:103FE000FFFFF1FFFFFFFFFFFFFFFFFFFFFFFFFFEF
:103FF000FFFFFF8FFFFFFFFFFFFFFFF1FFFFFFFF4F
:10400000FFFFFFFF00000000000000000FFFFFFFA8
:10401000FFFFFFFFF1FFFFFFFFFFFFFFFF000000BB
:1040200000000000000FFFFFFFFFFFFFFFF1FFFF99
:10403000FFFFFFFFFFFFFFFFFFFFFFFFFFFF8FFF00
:10404000FFFFFFFFFFFFF1FFFFFFFFFFFFFFFFFF8E
:10405000FFFFFFFFFFFFFF8FFFFFFFFFFFFFFFF1EE
:10406000FFFFFFFFFFFFFFFFFFFFFFFFFFFFFFFF60
:104070008FFFFFFFFFFFFFFFF1FFFFFFFFFFFFFFCE
:10408000FFFFFFFFFFFFFFFFFF8FFFFFFFFFFFFFB0
:10409000FFF1FFFFFFFFFFFFFFFFFFFFFFFFFFFF3E
:1040A000FFFF8FFFFFFFFFFFFFFFF1FFFFFFFFFF9E
:1040B000FFFFFFFFFFFFFFFFFFFFFF8FFFFFFFFF80
:1040C000FFFFFFF1FFFFFFFFFFFFFFFFFFFFFFFF0E
:1040D000FFFFFFFF8FFFFFFFFFFFFFFFF1FFFFFF6E
:1040E000FFFFFFFFFFFFFFFFFFFFFFFFFF8FFFFF50
:1040F000FFFFFFFFFFF1FFFFFFFFFFFFFFFFFFFFDE
:10410000FFFFFFFFFFFF8FFFFFFFFFFFFFFFF1FF3D
:10411000FFFFFFFFFFFFFFFFFFFFFFFFFFFFFF8F1F
:10412000FFFFFFFFFFFFFFF1FFFFFFFFFFFFFFFFAD
:10413000FFFFFFFFFFFFFFFF8FFFFFFFFFFFFFFFFF
:10414000F1FFFFFFFFFFFFFFFFFFFFFFFFFFFFFF8D
:10415000FF8FFFFFFFFFFFFFFFF1FFFFFFFFFFFFED
:10416000FFFFFFFFFFFFFFFFFFFF8FFFFFFFFFFFCF
:10417000FFFFF1FFFFFFFFFFFFFFFFFFFFFFFFFF5D
:10418000FFFFFF8FFFFFFFFFFFFFFFF1FFFFFFFFBD
:10419000FFFFFFFFFFFFFFFFFFFFFFFF8FFFFFFF9F
:1041A000FFFFFFFFF1FFFFFFFFFFFFFFFFFFFFFF2D
:1041B000FFFFFFFFFF8FFFFFFFFFFFFFFFF1FFFF8D
:1041C000FFFFFFFFFFFFFFFFFFFFFFFFFFFF8FFF6F
:1041D000FFFFFFFFFFFFF1FFFFFFFFFFFFFFFFFFFD
:1041E000FFFFFFFFFFFFFF8FFFFFFFFFFFFFFFF15D
:1041F000FFFFFFFFFFFFFFFFFFFFFFFFFFFFFFFFCF
:104200008FFFFFFFFFFFFFFFF1FFFFFFFFFFFFFF3C
:10421000FFFFFFFFFFFFFFFFFF8FFFFFFFFFFFFF1E
:10422000FFF1FFFFFFFFFFFFFFFFFFFFFFFFFFFFAC
:10423000FFFF8FFFFFFFFFFFFFFFF1FFFFFFFFFF0C
:10424000FFFFFFFFFFFFFFFFFFFFFF8FFFFFFFFFEE
:10425000FFFFFFF1FFFFFFFFFFFFFFFFFFFFFFFF7C
:10426000FFFFFFFF8FFFFFFFFFFFFFFFF1FFFFFFDC
:10427000FFFFFFFFFFFFFFFFFFFFFFFFFF8FFFFFBE
:10428000FFFFFFFFFFF1FFFFFFFFFFFFFFFFFFFF4C
:10429000FFFFFFFFFFFF8FFFFFFFFFFFFFFFF1FFAC
:1042A000FFFFFFFFFFFFFFFFFFFFFFFFFFFFFF8F8E
:1042B000FFFFFFFFFFFFFFF1FFFFFFFFFFFFFFFF1C
:1042C000FFFFFFFFFFFFFFFF8FFFFFFFFFFFFFFF6E
:1042D000F1FFFFFFFFFFFFFFFFFFFFFFFFFFFFFFFC
:1042E000FF8FFFFFFFFFFFFFFFF1FFFFFFFFFFFF5C
:1042F000FFFFFFFFFFFFFFFFFFFF8FFFFFFFFFFF3E
:10430000FFFFF1FFFFFFFFFFFFFFFFFFFFFFFFFFCB
:10431000FFFFFF8FFFFFFFFFFFFFFFF1FFFFFFFF2B
:10432000FFFFFFFFFFFFFFFFFFFFFFFF8FFFFFFF0D
:10433000FFFFFFFFF1FFFFFFFFFFFFFFFFFFFFFF9B
:10434000FFFFFFFFFF8FFFFFFFFFFFFFFFF1FFFFFB
:10435000FFFFFFFFFFFFFFFFFFFFFFFFFFFF8FFFDD
:10436000FFFFFFFFFFFFF1FFFFFFFFFFFFFFFFFF6B
:10437000FFFFFFFFFFFFFF8FFFFFFFFFFFFFFFF1CB
:10438000FFFFFFFFFFFFFFFFFFFFFFFFFFFFFFFF3D
:104390008FFFFFFFFFFFFFFFF1FFFFFFFFFFFFFFAB
:1043A000FFFFFFFFFFFFFFFFFF8FFFFFFFFFFFFF8D
:1043B000FFF1FFFFFFFFFFFFFFFFFFFFFFFFFFFF1B
:1043C000FFFF8FFFFFFFFFFFFFFFF1FFFFFFFFFF7B
:1043D000FFFFFFFFFFFFFFFFFFFFFF8FFFFFFFFF5D
:1043E000FFFFFFF1FFFFFFFFFFFFFFFFFFFFFFFFEB
:1043F000FFFFFFFF8FFFFFFFFFFFFFFFF1FFFFFF4B
:10440000FFFFFFFFFFFFFFFFFFFFFFFFFF8FFFFF2C
:10441000FFFFFFFFFFF1FFFFFFFFFFFFFFFFFFFFBA
:10442000FFFFFFFFFFFF8FFFFFFFFFFFFFFFF1FF1A
:10443000FFFFFFFFFFFFFFFFFFFFFFFFFFFFFF8FFC
:10444000FFFFFFFFFFFFFFF1FFFFFFFFFFFFFFFF8A
:10445000FFFFFFFFFFFFFFFF8FFFFFFFFFFFFFFFDC
:10446000F1FFFFFFFFFFFFFFFFFFFFFFFFFFFFFF6A
:10447000FF8FFFFFFFFFFFFFFFF1FFFFFFFFFFFFCA
:10448000FFFFFFFFFFFFFFFFFFFF8FFFFFFFFFFFAC
:10449000FFFFF1FFFFFFFFFFFFFFFFFFFFFFFFFF3A
:1044A000FFFFFF8FFFFFFFFFFFFFFFF1FFFFFFFF9A
:1044B000FFFFFFFFFFFFFFFFFFFFFFFF8FFFFFFF7C
:1044C000FFFFFFFFF1FFFFFFFFFFFFFFFFFFFFFF0A
:1044D000FFFFFFFFFF8FFFFFFFFFFFFFFFF1FFFF6A
:1044E000FFFFFFFFFFFFFFFFFFFFFFFFFFFF8FFF4C
:1044F000FFFFFFFFFFFFF1FFFFFFFFFFFFFFFFFFDA
:10450000FFFFFFFFFFFFFF8FFFFFFFFFFFFFFFF139
:10451000FFFFFFFFFFFFFFFFFFFFFFFFFFFFFFFFAB
:104520008FFFFFFFFFFFFFFFF1FFFFFFFFFFFFFF19
:10453000FFFFFFFFFFFFFFFFFF8FFFFFFFFFFFFFFB
:10454000FFF1FFFFFFFFFFFFFFFFFFFFFFFFFFFF89
:10455000FFFF8FFFFFFFFFFFFFFFF1FFFFFFFFFFE9
:10456000FFFFFFFFFFFFFFFFFFFFFF8FFFFFFFFFCB
:10457000FFFFFFF1FFFFFFFFFFFFFFFFFFFFFFFF59
:10458000FFFFFFFF8FFFFFFFFFFFFFFFF1FFFFFFB9
:10459000FFFFFFFFFFFFFFFFFFFFFFFFFF8FFFFF9B
:1045A000FFFFFFFFFFF1FFFFFFFFFFFFFFFFFFFF29
:1045B000FFFFFFFFFFFF8FFFFFFFFFFFFFFFF1FF89
:1045C000FFFFFFFFFFFFFFFFFFFFFFFFFFFFFF8F6B
:1045D000FFFFFFFFFFFFFFF1FFFFFFFFFFFFFFFFF9
:1045E000FFFFFFFFFFFFFFFF8FFFFFFFFFFFFFFF4B
:1045F000F1FFFFFFFFFFFFFFFFFFFFFFFFFFFFFFD9
:10460000FF8FFFFFFFFFFFFFFFF1FFFFFFFFFFFF38
:10461000FFFFFFFFFFFFFFFFFFFF8FFFFFFFFFFF1A
:10462000FFFFF1FFFFFFFFFFFFFFFFFFFFFFFFFFA8
:10463000FFFFFF8FFFFFFFFFFFFFFFF1FFFFFFFF08
:10464000FFFFFFFFFFFFFFFFFFFFFFFF8FFFFFFFEA
:10465000FFFFFFFFF1FFFFFFFFFFFFFFFFFFFFFF78
:10466000FFFFFFFFFF8FFFFFFFFFFFFFFFF1FFFFD8
:10467000FFFFFFFFFFFFFFFFFFFFFFFFFFFF8FFFBA
:10468000FFFFFFFFFFFFF1FFFFFFFFFFFFFFFFFF48
:10469000FFFFFFFFFFFFFF8FFFFFFFFFFFFFFFF1A8
:1046A000FFFFFFFFFFFFFFFF0E14010A06040A0AC7
:1046B0000F03030C060A000E14010A46048A4A0F6F
:1046C00083430C860A040E14018A06048A4A0F8367
:1046D000430C064A048E94018A06048A4A0F8343D7
:1046E0000C060A048E94018A06048A4A0F83430C3E
:1046F000060A04031D0101082337370100000000EA
:104700000000835D018148237777010000000000ED
:1047100000031D01010823373701000000000000DD
:104720000000000000000000000000000000000089
:104730000000000000000000000000000000000079
:1047400000000C000C000C000C000C000C000C0015
:104750000C0000000C000000000000000000000041
:10476000000000001DC01DC00880088008800000F7
:104770000000000000000000000000000000000039
:1047800000000D800D800D800D803FC01B003FC0DC
:104790001B001B001B001B000000000000000000AD
:1047A00004001F803180318038001E000F0003801C
:1047B000318031803F000400040000000000000050
:1047C000000018002400240018C007801E0031805B
:1047D00002400240018000000000000000000000D4
:1047E000000000000F001800180018000C001D80C9
:1047F000370033001D8000000000000000000000B2
:104800000000000007000700020002000200000094
:104810000000000000000000000000000000000098
:1048200000000300030006000E000C000C000C004A
:104830000C000E0006000300030000000000000052
:104840000000180018000C00060006000600060014
:10485000060006000C001C0018000000000000000C
:104860000000060006003FC03FC00F001F801980F7
:104870000000000000000000000000000000000038
:104880000000000000000400040004003F80040059
:104890000400040000000000000000000000000010
:1048A0000000000000000000000000000000000008
:1048B0000000060004000C000800080000000000D2
:1048C0000000000000000000000000003F80000029
:1048D00000000000000000000000000000000000D8
:1048E00000000000000000000000000000000000C8
:1048F00000000C000C0000000000000000000000A0
:1049000000C000C0018001800300030006000C000D
:104910000C001800180030003000000000000000FB
:1049200000000E001B0031803180318031803180E9
:1049300031801B000E00000000000000000000009D
:10494000000006003E000600060006000600060005
:10495000060006003FC0000000000000000000004C
:1049600000000F00198031803180030006000C0028
:10497000180030003F800000000000000000000030
:1049800000003F006180018003001F000380018060
:10499000018061803F000000000000000000000076
:1049A0000000070007000F000B001B00130033007E
:1049B0003F8003000F8000000000000000000000A6
:1049C00000001F801800180018001F0011800180CF
:1049D000018021801F000000000000000000000096
:1049E000000007801C00180030003700398031803B
:1049F000318019800F00000000000000000000005E
:104A000000007F00430003000600060006000600C9
:104A10000C000C000C000000000000000000000072
:104A200000001F003180318031801F0031803180D3
:104A3000318031801F0000000000000000000000F5
:104A400000001E0033003180318033801D800180E2
:104A5000030007003C000000000000000000000010
:104A600000000000000000000C000C00000000002E
:104A700000000C000C00000000000000000000001E
:104A80000000000000000000030003000000000020
:104A900000000600040008000800000000000000FC
:104AA0000000000000C003000400180060001800AF
:104AB0000400030000C0000000000000000000002F
:104AC000000000000000000000007FC000007FC068
:104AD00000000000000000000000000000000000D6
:104AE00000000000600018000400030000C0030084
:104AF000040018006000000000000000000000003A
:104B0000000000001F0031803180018007000C0090
:104B10000C0000000C00000000000000000000007D
:104B200000000E00110021002100270029002900AB
:104B30002700200011000E0000000000000000000F
:104B4000000000003F000F000900198019801F803D
:104B500030C030C079E0000000000000000000001C
:104B6000000000007F003180318031803F003180C3
:104B7000318031807F000000000000000000000054
:104B8000000000001F4030C0604060006000600016
:104B9000604030801F0000000000000000000000A6
:104BA000000000007F00318030C030C030C030C015
:104BB00030C031807F0000000000000000000000D5
:104BC000000000007F803080308032003E003200E4
:104BD000308030807F800000000000000000000076
:104BE000000000007FC03040304032003E00320004
:104BF000300030007C0000000000000000000000D9
:104C0000000000001E80318060806000600067C08E
:104C1000618031801F0000000000000000000000E3
:104C2000000000007BC03180318031803F803180C6
:104C3000318031807BC000000000000000000000D7
:104C4000000000003FC00600060006000600060047
:104C5000060006003FC00000000000000000000049
:104C6000000000001FC003000300030003006300F6
:104C7000630063003E000000000000000000000030
:104C8000000000007BC03180330036003C003E0055
:104C90003300318079C000000000000000000000F7
:104CA000000000007E0018001800180018001840CE
:104CB000184018407FC00000000000000000000005
:104CC00000000000E0E060C071C07BC06AC06EC040
:104CD00064C060C0FBE000000000000000000000B5
:104CE0000000000073C0318039803D8035803780FE
:104CF0003380318079800000000000000000000057
:104D0000000000001F00318060C060C060C060C053
:104D100060C031801F0000000000000000000000A3
:104D2000000000007F0031803180318031803F0001
:104D3000300030007E000000000000000000000095
:104D4000000000001F00318060C060C060C060C013
:104D500060C031801F000CC01F80000000000000F8
:104D6000000000007F003180318031803E00330040
:104D7000318031807CE00000000000000000000075
:104D8000000000001F803180318038001F00038048
:104D9000318031803F000000000000000000000072
:104DA000000000007F804C804C804C800C000C0088
:104DB0000C000C003F00000000000000000000009C
:104DC000000000007BC03180318031803180318033
:104DD000318031801F000000000000000000000052
:104DE000000000007BC0318031801B001B001B00D5
:104DF0000A000E000E00000000000000000000008D
:104E000000000000FBE060C064C06EC06EC02A807D
:104E10003B803B803180000000000000000000006B
:104E2000000000007BC031801B000E000E000E0051
:104E30001B0031807BC0000000000000000000006B
:104E40000000000079E030C019800F000600060065
:104E5000060006001F8000000000000000000000A7
:104E6000000000003F8021802300060004000C00A9
:104E7000188030803F80000000000000000000002B
:104E80000000078006000600060006000600060077
:104E90000600060006000600078000000000000073
:104EA00030003000180018000C000C000600030051
:104EB00003000180018000C000C00000000000006D
:104EC00000001E00060006000600060006000600A0
:104ED00006000600060006001E000000000000009C
:104EE00004000A000A001100208020800000000059
:104EF00000000000000000000000000000000000B2
:104F000000000000000000000000000000000000A1
:104F10000000000000000000000000000000FFE0B2
:104F20000800040002000000000000000000000073
:104F30000000000000000000000000000000000071
:104F400000000000000000001F00018001801F80A1
:104F5000318033801DC00000000000000000000010
:104F600000007000300030003700398030C030C0A1
:104F700030C0398077000000000000000000000011
:104F800000000000000000001E8031806080600092
:104F9000608031801F000000000000000000000061
:104FA00000000380018001801D803380618061806A
:104FB000618033801DC00000000000000000000080
:104FC00000000000000000001F00318060C07FC0B2
:104FD000600030C01F8000000000000000000000E2
:104FE000000007E00C000C003F800C000C000C00DF
:104FF0000C000C003F8000000000000000000000DA
:1050000000000000000000001DC03380618061804E
:10501000618033801D80018001801F00000000003E
:10502000000070003000300037003980318031805E
:10503000318031807BC000000000000000000000D3
:1050400000000600060000001E0006000600060024
:10505000060006003FC00000000000000000000045
:1050600000000600060000003F00030003000300EC
:10507000030003000300030003003E0000000000E3
:105080000000700030003000378036003C003C00EB
:105090003600330077C00000000000000000000070
:1050A00000001E00060006000600060006000600BE
:1050B000060006003FC000000000000000000000E5
:1050C00000000000000000007F8036C036C036C0FF
:1050D00036C036C076E0000000000000000000008E
:1050E000000000000000000077003980318031802E
:1050F000318031807BC00000000000000000000013
:1051000000000000000000001F00318060C060C08F
:1051100060C031801F00000000000000000000009F
:1051200000000000000000007700398030C030C06F
:1051300030C039803700300030007C0000000000B3
:1051400000000000000000001DC03380618061800D
:10515000618033801D800180018007C00000000055
:1051600000000000000000007B801CC01800180038
:10517000180018007F000000000000000000000080
:1051800000000000000000001F8031803C001F0074
:10519000038031803F00000000000000000000009C
:1051A00000001800180018007F00180018001800F0
:1051B000180018800F000000000000000000000030
:1051C00000000000000000007380318031803180D9
:1051D000318033801DC0000000000000000000008E
:1051E00000000000000000007BC0318031801B0007
:1051F0001B000E000E000000000000000000000078
:105200000000000000000000F1E060C064C06EC05B
:105210003B803B8031800000000000000000000067
:1052200000000000000000007BC01B000E000E000C
:105230000E001B007BC0000000000000000000000A
:10524000000000000000000079E030C019801980E3
:105250000B000F00060006000C003E0000000000DE
:1052600000000000000000003F80218003000E00CD
:10527000180030803F8000000000000000000000A7
:10528000000006000C000C000C000C000C001800C4
:105290000C000C000C000C000600000000000000D8
:1052A00000000600060006000600060006000600D4
:1052B00006000600060006000600000000000000D0
:1052C00000000C00060006000600060006000300B1
:1052D00006000600060006000C00000000000000AA
:1052E00000000000000000000000180024800300FF
:1052F00000000000000000000000000000000000AE
:10530000205300080000002040000000F01C0008AE
:105310006053000840000020B8400000001D000855
:10532000000000000000000000A24A040008014044
:1053300010000000000801400200000000080140C9
:105340000400000000080140080000002047000899
:105350000B00100000000000000000000000000032
:0400000508000131BD
:00000001FF
