:020000040800F2
:100000000041002045010008C71400087D140008C5
:10001000C51400088D010008871C000800000000BE
:10002000000000000000000000000000C5190008EA
:100030008F0100080000000025190008C7190008FA
:100040005F0100085F0100085F0100085F01000810
:100050005F0100085F0100085F0100085F01000800
:100060005F0100085F0100085F0100085F010008F0
:100070005F0100085F0100085F0100085F010008E0
:100080005F0100085F0100085F0100085F010008D0
:100090005F0100085F0100085F0100085F010008C0
:1000A0005F0100085F0100085F0100085F010008B0
:1000B0005F0100085F0100085F0100085F010008A0
:1000C0005F0100085F0100085F0100085F01000890
:1000D0005F0100085F0100085F0100085F01000880
:1000E0005F0100085F0100085F0100085F01000870
:1000F0005F0100085F0100085F0100085F01000860
:100100005F0100085F0100085F0100085F0100084F
:100110005F0100085F0100085F0100085F0100083F
:100120005F0100085F0100085F0100085F0100082F
:10013000DFF80CD000F018F800480047F11C000868
:10014000004100200648804706480047FEE7FEE7DA
:10015000FEE7FEE7FEE7FEE7FEE7FEE7FEE7FEE777
:100160003D1A000831010008064C074D06E0E06822
:1001700040F0010394E8070098471034AC42F6D3EE
:10018000FFF7DAFF3068000850680008FEE77047A4
:100190002DE9F0410F4616460446042100F011F9FE
:1001A000204600F06FF90021204600F00AF9AF2147
:1001B000204600F011F93021204600F002F93A21E2
:1001C000204600F009F96121204600F0FAF80021EC
:1001D000204600F001F9B021204600F0FDF8012191
:1001E000204600F0F9F80821204600F0F5F8CFB1DC
:1001F0001021204600F0E5F8022000F04FF900251C
:1002000004E0795D204600F0E7F86D1CD4E90401B4
:100210004843C11700EB5170B5EBE00FF1DB022052
:1002200000F03CF9CEB11321204600F0CAF80220BC
:1002300000F034F9002504E0715D204600F0CCF8B0
:100240006D1CD4E904014843C11700EB5170B5EBB4
:10025000E00FF1DB022000F021F91221204600F02E
:10026000B0F82046BDE8F04100F00CB910B50446E6
:1002700001202060022060600020A0600320E06078
:10028000B02020614FF48470606100F029F910B152
:100290004FF0FF3010BD204600F081F801212046CC
:1002A00000F08FF80321204600F096F80021204648
:1002B00000F092F82B21204600F08EF82B212046EA
:1002C00000F08AF80921204600F086F80621204631
:1002D00000F077F80721204600F07EF8072120463D
:1002E00000F07AF81721204600F076F8F821204631
:1002F00000F067F86021204600F06EF8A521204646
:1003000000F06AF8F821204600F05BF889212046C9
:1003100000F062F8A521204600F05EF8F8212046A2
:1003200000F04FF89021204600F056F800212046BA
:1003300000F052F8F821204600F043F893212046BF
:1003400000F04AF82A21204600F046F8F82120461D
:1003500000F037F87321204600F03EF84121204696
:1003600000F03AF88221204600F02BF812212046B6
:1003700000F032F85021204600F023F88721204673
:1003800000F02AF8204600F033F81621204600F04D
:1003900018F80021204600F01FF8002010BD10B50D
:1003A00004460068002100F08BF8C82000F076F8C1
:1003B0000121206800F084F8BDE81040C82000F05A
:1003C0006DB810B50C464068002100F079F8204661
:1003D000BDE8104000F09CB810B50C464068012103
:1003E00000F06EF82046BDE8104000F091B8000023
:1003F00070B505462021FFF7E4FF214E0024284672
:10040000315DFFF7E9FF641C2C2CF8D3212128462D
:10041000FFF7D7FF1A4E00242C362846315DFFF730
:10042000DBFF641C2A2CF8D322212846FFF7C9FFE2
:10043000134E002456362846315DFFF7CDFF641C6D
:100440002A2CF8D323212846FFF7BBFF0C4E0024AB
:1004500080362846315DFFF7BFFF641C2A2CF8D395
:1004600024212846FFF7ADFF054E0024AA36284672
:10047000315DFFF7B1FF641C2A2CF8D370BD00007A
:10048000441F000810B5044602E0642000F006F89E
:10049000E06800F005F80028F7D010BD00F052B871
:1004A000064A10B502EBC00152F83000898889B2C3
:1004B00000F048F9012800D0002010BDE000002025
:1004C000064B012903EBC00253F83000526891B289
:1004D00002D0002200F03BB90122FBE7E00000203F
:1004E0000A480949D0E90023C1E90023D0E90223E1
:1004F000C1E90223D0E90423C1E90423D0E906209D
:10050000C1E9062000207047E00000200C00002018
:1005100031B50A4C0022A08881B2206800F017F99A
:100520004FF47A7301226946054800F01DFEA08849
:10053000012281B2206800F00AF938BDE0000020F5
:100540004800002031B500F007F9044600F004F936
:100550000099001B8842F9D338BD00002DE9F84FFF
:10056000DFF8B8A100220AF1040B144601274FF06E
:100570000F090BF1040E00BF0B6807FA04F52B40BE
:10058000AB4274D1DFF898C14E68A6EB0C08664503
:100590002BD00DDC032E34D005DC36B3012E19D060
:1005A000022E2FD11BE0112E16D0122E2AD119E0C7
:1005B000B8F5881F19D006DCB8F5803F15D0B8F51E
:1005C000801F1FD111E0B8F5001F0ED0B8F5041F31
:1005D00018D10AE0CA6815E0CA68121D12E0CA689C
:1005E00008320FE0CA680C320CE08A682AB1012A8E
:1005F0004FF0080203D0456104E0042202E00561E7
:1006000000E00022FF2B01D8064601E000F10406BD
:100610004FEA840501D9A5F12005D6F800C009FAF2
:1006200005F82CEA080C02FA05F54CEA050CC6F8A8
:1006300000C04D68ED006AD53A4DAE6946F001063E
:10064000AE61AD6924F0030605F001050095364D55
:1006500006EB050CDCF80850A6074FEA167809FAF5
:1006600008F6B543314EB04202D100261AE04EE002
:100670002F4EB04201D1012614E02E4EB04201D1DE
:1006800002260FE02C4EB04201D103260AE02B4E89
:10069000B04201D1042605E0294EB04201D1052621
:1006A00000E0062606FA08F62E43CCF808604D68EE
:1006B000DAF80060ED03554601D51E4300E09E4385
:1006C0002E604D68AD0305D5DBF800601E43CBF806
:1006D000006004E0DBF800509D43CBF800504D680B
:1006E000DEF80060ED02754601D51E4300E09E4332
:1006F0002E604D68AD0205D5084D0C352E681E43A1
:100700002E6004E0054E0C3635689D433560641C50
:10071000102CFFF431AFBDE8F88F00000004014059
:1007200000001110001002400000014000080140CC
:10073000000C01400010014000140140001801406D
:10074000001C01408068084000D0012070470AB1B9
:10075000016170470904FBE7014800687047000029
:100760000400002002480168491C01607047000035
:1007700004000020074810B5016841F01001016035
:10078000032000F07BF8002000F006F800F016F8D7
:10079000002010BD0020024010B5044600F044F9CE
:1007A0004FF47A71B0FBF1F000F08EFD002221468B
:1007B000501E00F043F8002010BD00001D4808B591
:1007C000816941F001018161806900F001000090C0
:1007D000032000F053F8002211466FF00B0000F0E8
:1007E0002DF8002211466FF00A0000F027F80022D1
:1007F00011466FF0090000F021F800221146501F49
:1008000000F01CF800221146101F00F017F800221B
:100810001146901E00F012F800221146501E00F002
:100820000DF80548416821F0E06141F080614160C8
:1008300008BD00000010024000000140F0B40E4B63
:100840001B680C46C3F30223C3F10705042D00D92E
:100850000425191D072901D2002300E0DB1E012613
:1008600006FA05F1491E214099409E40761E164029
:100870003143F0BC00F028BE0CED00E0064900F06A
:10088000070208684FF6FF03184040EA0220034AB7
:1008900010430860704700000CED00E00000FA050E
:1008A0002DE9F047DFF8708105460E46D8F80000C4
:1008B00000F00700B0420CD2D8F8001021F0070178
:1008C0003143C8F80010D8F8000000F00700B0422B
:1008D00077D12878514C800705D56068A96820F049
:1008E000F000084360602878C00759D0696801208B
:1008F00001290DD0022929D05FF0020393FAA3F257
:10090000B2FA82F242F02002520904D0226803E0D7
:100910004FF40033F2E7626A93FAA3F3B3FA83F376
:1009200003F01F03984002424BD0606820F00300A0
:1009300008436060FFF710FF6968074641F288309E
:1009400001290DD00229814617D025E04FF0007310
:10095000D4E700BFFFF700FFC11B494501D918E0EC
:1009600081466068C0F381000128F3D118E000BF20
:10097000FFF7F2FEC11B49450BD86068C0F3810048
:100980000228F5D10CE000BFFFF7E6FEC11B494588
:1009900002D90320BDE8F087606810F00C0FF3D196
:1009A000D8F80010404601F00701B1420BD90168A8
:1009B00021F0070131430160006800F00700B042F8
:1009C00001D00120E6E72878400705D56068E9688E
:1009D00020F4E060084360602878000706D560686E
:1009E000296920F4605040EAC100606000F052F8CC
:1009F0006168F02292FAA2F201F0F001B2FA82F2FA
:100A0000D140074A515CC840064908600020FFF702
:100A1000C3FE0020BEE7000000200240001002409C
:100A20002C1F0008000000200148006870470000EB
:100A30000000002008480949006849684FF4E06256
:100A400092FAA2F201F4E061B2FA82F2D140044AD1
:100A5000515CC840704700000000002000100240B8
:100A60003C1F000808480949006849684FF4605273
:100A700092FAA2F201F46051B2FA82F2D140044A31
:100A8000515CC84070470000000000200010024088
:100A90003C1F000810B519A385B00FCB8DE80F00DF
:100AA0001AA01B4B006804905A681A4802F00C0107
:100AB00004291DD008291BD14FF4701494FAA4F412
:100AC00002F47011B4FA84F4E140D2031DF801106D
:100AD00010D55A684FF4003393FAA3F302F40032AE
:100AE000B3FA83F3DA4004AB9A5CB0FBF2F048430C
:100AF00005B010BD08484843FAE7000002030405AA
:100B0000060708090A0B0C0D0E0F10100102000059
:100B10000010024000127A0000093D002DE9F84F54
:100B200004460078F74DC0074FF0010625D06868ED
:100B30007704C0F38100012807D06868C0F3810002
:100B400002281BD16868C00318D597FAA7F0B0FA3D
:100B500080F040F02000400901D0286800E0686A79
:100B600097FAA7F1B1FA81F101F01F0106FA01F13C
:100B700008425ED0606800287CD05AE06068B0F51A
:100B8000803F0BD010B1B0F5A02F11D0286820F411
:100B900080302860286820F4802002E0286840F433
:100BA00080302860606828B3FFF7D6FD80460BE0F0
:100BB000286840F480202860F0E700BFFFF7CCFDF4
:100BC000A0EB0800642871D897FAA7F0B0FA80F07B
:100BD00040F02000400901D0286800E0686A97FAD8
:100BE000A7F1B1FA81F101F01F0106FA01F1084203
:100BF000E4D01EE0FFF7B0FD804605E0FFF7ACFD56
:100C0000A0EB08006428DED897FAA7F0B0FA80F0CD
:100C100040F02000400901D0286800E0686A97FA97
:100C2000A7F1B1FA81F101F01F0106FA01F10842C2
:100C3000E4D12078DFF8D08280074FF000094FF030
:100C400002075BD568684FF0F80B10F00C0F07D067
:100C50006868C0F3810002281CD16868C00319D4F9
:100C600097FAA7F0B0FA80F040F02000400902D0D7
:100C7000286801E08BE0686A97FAA7F1B1FA81F180
:100C800001F01F0106FA01F108422CD02069012869
:100C90007DD128E0206990B396FAA6F0B0FA80F0F2
:100CA00048F82060FFF758FD824607E011E100BFD9
:100CB000FFF752FDA0EB0A00022884D897FAA7F0AC
:100CC000B0FA80F040F02000400901D0286800E030
:100CD000686A97FAA7F1B1FA81F101F01F0106FAEB
:100CE00001F10842E4D028689BFAABF26169B2FADC
:100CF00082F220F0F80091400843286025E0FFE7E9
:100D000096FAA6F1B1FA81F148F82190FFF724FD97
:100D1000824605E0FFF720FDA0EB0A000228CCD8B0
:100D200097FAA7F0B0FA80F040F02000400901D017
:100D3000286800E0686A97FAA7F1B1FA81F101F03A
:100D40001F0106FA01F10842E4D1207800076ED5B0
:100D5000A069B8B396FAA6F0B0FA80F008EB80006C
:100D6000C0F88064FFF7F8FC824605E0FFF7F4FC6A
:100D7000A0EB0A000228A0D897FAA7F0B0FA80F0FA
:100D800040F06000B6EB501F02D128680CE062E131
:100D900097FAA7F0B0FA80F040F06000B7EB501F70
:100DA00001D1286A00E0686A97FAA7F1B1FA81F1E7
:100DB00001F01F0106FA01F21042D7D00120FFF71F
:100DC000C1FB34E0FFE796FAA6F1B1FA81F108EB36
:100DD0008101C1F88094FFF7BFFC824606E000BFA6
:100DE000FFF7BAFCA0EB0A00022872D897FAA7F026
:100DF000B0FA80F040F06000B6EB501F01D12868D7
:100E00000BE097FAA7F0B0FA80F040F06000B7EB83
:100E1000501F01D1286A00E0686A97FAA7F1B1FA79
:100E200081F101F01F0106FA01F21042D8D12078B9
:100E3000400765D5E86940F08050E861E869DFF86F
:100E4000CCB000F080500090DBF8001041F48071CD
:100E5000CBF80010FFF780FC824605E0FFF77CFC32
:100E6000A0EB0A00642834D8DBF80000C005F5D5F3
:100E7000E06801280AD008B1052813D0286A20F0BC
:100E800001002862286A20F0040002E0286A40F08D
:100E900001002862E06841F2883B90B3FFF75CFCF8
:100EA00082460BE0286A40F004002862EEE700BFAB
:100EB000FFF752FCA0EB0A0159450AD897FAA7F0B0
:100EC000B0FA80F040F04000B6EB501F02D1286825
:100ED0000CE0A3E097FAA7F0B0FA80F040F04000F1
:100EE000B7EB501F01D1286A00E0686A97FAA7F1B2
:100EF000B1FA81F101F01F0206FA02F10842D7D0DF
:100F000031E005E000100240000042420070004065
:100F1000FFF722FC824605E0FFF71EFCA0EB0A016A
:100F200059457BD897FAA7F0B0FA80F040F040001E
:100F3000B6EB501F01D128680BE097FAA7F0B0FA82
:100F400080F040F04000B7EB501F01D1286A00E06C
:100F5000686A97FAA7F1B1FA81F101F01F0206FA67
:100F600002F10842D8D1E06980B36968C1F3810118
:100F7000022970D04FF080714F000228484609D0F6
:100F800091FAA1F1B1FA81F148F82100FFF7E4FBF1
:100F9000044669E08A4691FAA1F1B1FA81F1C146AD
:100FA00048F82100FFF7D8FB804605E0FFF7D4FBA7
:100FB000A0EB0800022854D897FAA7F0B0FA80F006
:100FC00040F02000400902D0286801E061E0686A32
:100FD00097FAA7F1B1FA81F101F01F0106FA01F1C8
:100FE0000842E3D1206AB0F5803F05D16868A16866
:100FF00020F4003008436860D4E9080108436968B8
:1010000021F47411084368609AFAAAF0B0FA80F0EB
:1010100049F82060FFF7A0FB044606E021E000BF8E
:10102000FFF79AFB001B02281BD897FAA7F0B0FA2B
:1010300080F040F02000400901D0286800E0686A94
:1010400097FAA7F1B1FA81F101F01F0106FA01F157
:101050000842E5D01DE01EE0FFF77EFB001B0228E2
:1010600002D90320BDE8F88F97FAA7F0B0FA80F014
:1010700040F02000400901D0286800E0686A97FA33
:10108000A7F1B1FA81F101F01F0106FA01F108425E
:10109000E2D10020E6E70120E4E7000010B50400FB
:1010A00003D094F8510010B104E0012010BD204697
:1010B00000F038F8022084F851002068016821F01F
:1010C00040010160D4E901010843D4E9031211434E
:1010D000084361690843218B01F400710843E16909
:1010E0000843216A0843A16A084321680860A0698F
:1010F000042101EA1040616A0843216848602168C0
:10110000E06A08612068C16921F40061C161044995
:10111000002008706065012084F85100002010BD97
:101120000800002000B500680C4985B0884212D143
:101130000B48816941F4805181618069694600F4FE
:1011400080500490A0200090022001900320039082
:101150000448FFF703FA05B000BD0000003001406D
:1011600000100240000801402DE9F843044690F8C1
:1011700051009846012870D139B332B394F8500029
:1011800001286AD0012684F85060122084F85100AA
:10119000002565652163A286E286E564A564A563F2
:1011A000A587E587A06A7703B84209D1206801685E
:1011B00021F4005101602068016841F40051016090
:1011C000A068B0F5004F03D007E00120BDE8F88328
:1011D0002068016841F48041016020680168490687
:1011E00003D4016841F040010160E06800286068B4
:1011F00004D0D8B1E08E012818D021E010B1E08EE3
:10120000012808D1206B411C216321680078C86047
:10121000E08E401EE0860004000C1FD043460022F2
:101220000221204600F07FFBA8B9EBE7206B216884
:101230000088C860206B801C2063E08E401EE08622
:101240000004000C0AD0434600220221204600F090
:101250006AFB0028EAD00320B8E726E0A06AB8427B
:1012600004D12068016841F48051016043460022A6
:101270000221204600F057FB30B94346012280216D
:10128000204600F050FB20B1606D40F0100060651A
:10129000E1E7A06818B92068C1688068009084F808
:1012A000516084F85050002090E702208EE74FF004
:1012B000E0210428086903D020F004000861704789
:1012C00040F00400FAE7704710B5401EB0F1807F8F
:1012D00001D3012010BD4FF0E02460610F216017A1
:1012E00000F0F2F80020A06107202061002010BD6E
:1012F00010B5FFF7E8FF10BD70B5040004D094F8F6
:101300003900002510B106E0012070BD84F8385086
:10131000204600F021F8022084F839002068C168D6
:1013200021F40051C160204600F0ACFB2068016947
:1013300021F4904101612068416921F02A01416155
:101340002068C16841F40051C160E563012084F860
:101350003900002070BD000010B50068114986B04A
:1013600088421DD11048816941F4804181618069C2
:101370000E4C00F4804004904FF400700090022066
:1013800001900320039069462046FFF7E7F800210B
:101390002015CDE90001029169462046FFF7DEF8ED
:1013A00006B010BD003801400010024000080140A6
:1013B0002DE9F047044690F8390099460D4601287A
:1013C00001D0222858D12DB322B394F83800012837
:1013D00052D0012684F838600027E76394F839007A
:1013E00022281AD05FF0120084F83900A284E28427
:1013F0004FF48058E08C4B46401EE084A0684FF0CC
:10140000000240454FF08001204613D100F0F2FB6E
:1014100008BB04E00120BDE8F0873220E4E728881B
:101420002168C0F308004860206908B16D1C08E01D
:10143000AD1C06E000F0DEFB68B9216815F8010B71
:101440004860E08C0028D5D14B4600224021204640
:1014500000F0D0FB08B10320DDE794F83900322812
:1014600006D084F8396000BF84F838700020D2E7D5
:10147000222084F83900F7E70220CCE7FEE70000DD
:101480000F4810B50D4901604FF4827141604FF46F
:10149000004181600021C1604FF400720161C0E928
:1014A00005123022C0E90721416281620A21C1622E
:1014B000FFF7F4FD002800D0FEE710BD003001402A
:1014C00048000020FEE770470907090E002806DAE9
:1014D00000F00F0000F1E02080F8141D704700F1CB
:1014E000E02080F80014704770B500291EDB4568C5
:1014F0008D421BDD002A19DB8468944216DDCC176F
:1015000001EB547424F007040E1B02FB0511006864
:101510004FEAE17201EB527100EBE10080240178A7
:10152000F4400BB1214300E0A143017070BD000005
:101530002DE9FF4F93460D9DA888410700D001215A
:1015400001EBD000203BE9885843484329680E1836
:10155000002727E000244FF0800A0BEB0708DFF894
:10156000509017E0E01704EB507020F0070031783E
:10157000221A2AFA02F0014206D0019842460119C5
:101580000E9B009800F028F904EA0900072800D112
:10159000761C641CA888A042E4DC2879400700D0AF
:1015A000761C7F1CE888B842D4DCBDE8FF8F0000C1
:1015B000070000802DE9FF4F5D42022000EB45044B
:1015C00000988846002641681746414535DD009859
:1015D0008068B84231DDBA19A8EB050191468B4607
:1015E0000D9B009800F0F8F808EB05014A468A4682
:1015F0000D9B009800F0F0F8BA1B914651460D9BE8
:10160000009800F0E9F84A4659460D9B009800F012
:10161000E3F82046B44208DC761C00EB4604641C68
:10162000F54202D1A84200DC0020A84203DD6D1C77
:1016300004EB4504641C002DCDDDBDE8FF8F2DE9D2
:10164000FF4F82B05D42022000EB450402988B46BA
:1016500000274168924659454ADD02988168514504
:1016600046DDABEB05010AEB0702009191460F9BAB
:10167000029800F0B1F80BEB05064A4631460F9B85
:10168000029800F0A9F8AAEB0702904631460F9B9A
:10169000029800F0A1F842460F9B0099029800F0D2
:1016A0009BF80F9800900120A0EB45034A46314675
:1016B0000193029800F046F80F980090DDE90130A0
:1016C0004246314600F03EF82046BC4208DC7F1C12
:1016D00000EB4704641CFD4202D1A84200DC00205C
:1016E000A84203DD6D1C04EB4504641C002DB8DD2D
:1016F00006B0BDE8F08F00002DE9F8438146DDE932
:1017000008088B4201DD0C4600E01C4600DD19464E
:101710000D46904201DD164600E0064600DD024619
:10172000A2EB06070AE000BF07F10103324621469B
:101730004846CDF8008000F0CFF8641CAC42F3DDE1
:10174000BDE8F8832DE9F041164680460C46CF18D7
:10175000069D06E02B4632462146404600F03CF806
:10176000641CA742F6DCBDE8F0812DE9FF4F81B093
:101770000C460E9F1E461546181B00D5A01B814621
:101780004FF0FF31B44201DA012000E0084600903A
:10179000781B002800DDE81B8246BD4200DA0121EB
:1017A0008B4609EB0A0810E02A4621460F9B019858
:1017B00000F012F8BAEB480F02DC0098D044044461
:1017C000B9EB480F01DBC8445D44B44201D0BD42CF
:1017D000EAD105B0BDE8F08F70B400291CDB466883
:1017E0008E4219DD002A17DB8568954214DDC46836
:1017F00044B1012C09D0022C0BD0032C0CD114467F
:101800006A1A214670BCFFF76FBE0C46B11A224619
:10181000F8E7711AAA1AF5E770BC70472DE9F84786
:101820008246DDE909058B4201DD0F4600E01F46D7
:1018300001DD1C4600E00C46904201DD164600E04A
:10184000064600DD02469146A4EB070808F10103B5
:101850003246394650460095FFF774FF08F1010300
:101860004A46394650460095FFF76CFFA9EB06083B
:1018700008F10103324639465046009500F02CF835
:1018800008F10103324621465046009500F024F845
:10189000BDE8F8872DE9FC479246DDE90A798046E4
:1018A0001C4600260D460AE0CDE90079524629463D
:1018B0004046FFF73DFEB888641C0544761C23783B
:1018C000002B07D0B888D8F8041006FB101189B295
:1018D0008142E9D2BDE8FC872DE9F0410E46804601
:1018E0001446D718069D06E02B4622463146404650
:1018F000FFF772FF641CA742F6DCBDE8F08110B56B
:101900000024C4600160510707D0D11702EB517168
:1019100021F00701511A521A0832C0E9012310BD03
:10192000C160704770472DE9F0471D4690460E464E
:101930000446FEF711FF07465FEA08004FF0000873
:101940004FF4005A4FF0010926D034E0681C23D030
:1019500025B1FEF701FFC01BA8421DD920684168D0
:1019600021F0E00141602068016821F04001016040
:10197000A06A504509D12068016821F40051016036
:101980002068016841F40051016084F8519084F8A6
:1019900050800320BDE8F0872068806836EA0000A8
:1019A000D4D10DE0681C06D0002DD7D0FEF7D4FEB0
:1019B000C01BA842D2D82068806836EA0000F1D067
:1019C0000020E7E7704710B5FEF7CCFEBDE81040F9
:1019D000FFF78EBC30B58FB001210804CDE90010AF
:1019E0000024029402250491CDE907504FF4E01041
:1019F00009906846FFF792F800B1FEE70F20CDE9A5
:101A00000A054FF48060CDE90C4002210AA80E942B
:101A1000FEF746FF00B1FEE7FFF706F84FF47A71D4
:101A2000B0FBF1F0FFF750FC0420FFF740FC002270
:101A30001146501EFEF702FF0FB030BD0D48016881
:101A400041F00101016041680B4A114041600168A9
:101A50000A4A11400160016821F480210160416857
:101A600021F4FE0141604FF41F0181600449C0036D
:101A700008607047001002400000FFF8FFFFF6FE0C
:101A800008ED00E02DE9F041044600680169E268D4
:101A900021F44051114301612169A0680843616943
:101AA00008432168CA6841F20C639A430243CA6042
:101AB00020684169A26921F44071114341614C4998
:101AC00020686425322688423CD1FEF7CBFF00EB2C
:101AD000C00101EB001061688900B0FBF1F7FEF76F
:101AE000C1FF00EBC00101EB00106168B046890046
:101AF000B0FBF1F0B0FBF5F06FF01801484307EBD5
:101B0000800106EB0110B0FBF5F000F0F006FEF7E7
:101B1000A9FF00EBC00101EB001061688900B0FB78
:101B2000F1F0B0FBF5F006EB0016FEF79BFF00EBC3
:101B3000C00101EB001061688900B0FBF1F7FEF70E
:101B400091FF3BE0FEF776FF00EBC00101EB0010D8
:101B500061688900B0FBF1F7FEF76CFF00EBC00194
:101B600001EB00106168B0468900B0FBF1F0B0FBFA
:101B7000F5F06FF01801484307EB800106EB011008
:101B8000B0FBF5F000F0F006FEF754FF00EBC001EB
:101B900001EB001061688900B0FBF1F0B0FBF5F0DB
:101BA00006EB0016FEF746FF00EBC00101EB00104C
:101BB00061688900B0FBF1F7FEF73CFF00EBC00164
:101BC00001EB001061688900B0FBF1F0B0FBF5F0AB
:101BD0006FF01801484307EB800108EB0110B0FBE0
:101BE000F5F0216800F00F0030448860BDE8F08116
:101BF000003801402DE9F0471D4690460E46044648
:101C0000FEF7AAFD07465FEA08004FF000094FF013
:101C1000010808D030E0681C05D095B1FEF79CFDA6
:101C2000C01BA8420DD82068006836EA0000F2D137
:101C300027E0681C20D025B1FEF78EFDC01BA8420E
:101C40001AD92068C16821F08001C1602068C1688C
:101C500021F02001C1602068C16821F48071C16059
:101C60002068416921F00101416184F8398084F8DC
:101C700038900320BDE8F0872068006836EA00004D
:101C8000D7D00020F6E7FEE7014A024900F013B87A
:101C9000D91C00083C00002002E008C8121F08C13F
:101CA000002AFAD170477047002001E001C1121FDD
:101CB000002AFBD170472DE9F04116460F46044635
:101CC000002503E03946B047641C6D1C20780028CD
:101CD000F8D12846BDE8F08113B54FF6FF73012215
:101CE00069460248FFF764FB00981CBDA000002075
:101CF0002DE9F04141F2B06496B0204600F0E0F8E2
:101D00008046204600F0DCF80646FEF733FDFFF77C
:101D100061FE5548816941F0040181618069534F3A
:101D200000F004000090002216213846FEF70FFD57
:101D300016200125CDE912050220159012A938467A
:101D4000FEF70CFC00240820CDE9120412A9384645
:101D50001494FEF703FC4748454901604FF4E13114
:101D6000C0E901140C21C460C0E904418461C4616C
:101D7000FFF7C2FA00B1FEE7FFF782FB02A8FEF709
:101D800075FA38B13CA0FFF77FFF16B04FF0FF3077
:101D9000BDE8F081DDE90623414608A8FFF7AFFD65
:101DA000DDE9062331460CA8FFF7A9FD002108A8AC
:101DB000FFF7B6FD00210CA8FFF7B2FD3448CDE9CE
:101DC000000534A33222042108A8FFF763FDB427DD
:101DD000CDE90075322382220A2108A8FFF71EFDF3
:101DE000CDE90075322382220A2108A8FFF7BDFC45
:101DF000CDE900750A238222322108A8FFF7B5FC3D
:101E00001E239622782108A80095FFF7D3FBFA201D
:101E1000CDE900053223C8220A210CA8FFF76CFC8B
:101E20006020CDE90005B0234C2200210CA8FFF76B
:101E300063FC1E23DC2278210CA80095FFF7FFFB32
:101E40001848CDE9000418A3502212210CA8FFF76E
:101E500021FD3246414602A8FEF79AF9164A174973
:101E600002A8FEF795F9FEE70010024000080140C5
:101E700000380140A0000020652D5061706572207F
:101E8000696E6974206661696C65640A000000000F
:101E900034000020652D50617065722044656D6FBF
:101EA000000000002C00002048656C6C6F20776FEC
:101EB000726C642100000000C83600081820000879
:101EC000F0B50B30154D20F007010024144A0FE047
:101ED00003688B420BD38B4205D95E1A43184768BF
:101EE000C3E9006700E04368136002C004E0021D1C
:101EF00010680028ECD12046002802D1286808B1DB
:101F00000020F0BD064A07481060074A121A22F066
:101F10000702C0E9002401202860D7E74400002020
:101F200040000020040100200031002000000000DB
:101F30000000000001020304060708090000000079
:101F4000010203040000001A1A000001000A0A003E
:101F50000008000E010E0110000A0A00000800042B
:101F60001000000500030E00000A0023000000011D
:101F7000901A1A000001400A0A000008840E010E9F
:101F80000110800A0A000008000410000005000388
:101F90000E00000A002300000001A01A1A00000130
:101FA000000A0A000008840E010E0110900A0A00BF
:101FB0000008B00410000005B0030E00000AC023A2
:101FC00000000001901A1A000001400A0A000008EF
:101FD000840E010E0110800A0A000008000410009F
:101FE000000500030E00000A002300000001901A03
:101FF0001A000001200A0A000008840E010E0110D8
:10200000100A0A00000800041000000500030E007A
:10201000000A002300000001000000000000000092
:1020200000000000000000000000000000000000B0
:1020300000000000000000000000000000000000A0
:102040000000000000000000000000000000000090
:102050000000000000000000000000000000000080
:102060000000000000000000000000000000000070
:102070000000000000000000000000000000000060
:102080000000000000000000000000000000000050
:102090000000000000000000000000000000000040
:1020A0000000000000000000000000000000000030
:1020B0000000000000000000000000000000000020
:1020C0000000000000000000000000000000000010
:1020D0000000000000000000000000000000000000
:1020E00000000000000000000000000000000000F0
:1020F00000000000000000000000000000000000E0
:1021000000000000000000000000000000000000CF
:1021100000000000000000000000000000000000BF
:1021200000000000000000000000000000000000AF
:10213000000000000000000000000000000000009F
:10214000000000000000000000000000000000008F
:10215000000000000000000000000000000000007F
:10216000000000000000000000000000000000006F
:10217000000000000000000000000000000000005F
:10218000000000000000000000000000000000004F
:10219000000000000000000000000000000000003F
:1021A000000000000000000000000000000000002F
:1021B000000000000000000000000000000000001F
:1021C000000000000000000000000000000000000F
:1021D00000000000000000000000000000000000FF
:1021E00000000000000000000000000000000001EE
:1021F00000000000000000000000000000000000DF
:10220000000000000001C00000000000000000000D
:10221000000000000000000000000000600000005E
:1022200000000000000000000000000000000000AE
:10223000000030000000000000000000000000006E
:102240000000000000000000180000000000000076
:1022500000000000000000000000000000000C0072
:10226000000000000000000000000000000000006E
:102270000000000006000000000000000000000058
:102280000000000000000000000007000000000047
:10229000000000000000000000000000000000003E
:1022A00003800000000000000000000000000000AB
:1022B00000000000000001C000000000000000005D
:1022C00000000000000000000000000000E000002E
:1022D00000000000000000000000000000000000FE
:1022E000000000F0000000000000000000000000FE
:1022F0000000000000000000007800000000000066
:102300000000000000000000000000000000003C91
:1023100000000000000000000800000000000000B5
:1023200000000000001C0000000000000000080089
:1023300000000000000000000000001E000000007F
:10234000000000000C000000000000000000000081
:10235000000F00000000000000000C000000000062
:1023600000000000000000078000000000000000E6
:102370000C00000000000000000000000000000051
:102380000000000000000E0000000000000000003F
:102390000000000000000000000000001E0000001F
:1023A000000000000000000000000000000000002D
:1023B00000001E00000000000000000000000000FF
:1023C00000000000000000001E00000000000000EF
:1023D00000000000000000000000000000001F00DE
:1023E00000000000000000000000000000000000ED
:1023F000000000001F0000000000000000000000BE
:10240000000000000000000000001F0000000000AD
:1024100000000000000000000000000000000000BC
:102420003F800000000000000000000000000000ED
:102430000000000000003F800000000000000000DD
:102440000000000000000000000000003F800000CD
:10245000000000000000000000000000000000007C
:1024600000003FC00000000000000000000000006D
:1024700000000000000000003FC00000000000005D
:1024800000000000000000000000000000003FE02D
:10249000000000000000000000000000000000003C
:1024A000000000003FE0000000000000000000000D
:1024B000000000000000000000007FF000000000AD
:1024C000000000000000000000000000000000000C
:1024D0007FF000000000000000000000000000008D
:1024E0000000000000007FF000000000000000007D
:1024F0000000000000000000000000007FF000006D
:1025000000000000000000000000000000000000CB
:1025100000007FE00000000000000000000000005C
:1025200000000000000000007FE00000000000004C
:1025300000000000000000000000000000007FC05C
:10254000000000000000000000000000000000008B
:10255000000004007FC00000000000000000000038
:10256000000000000000002002007F80000000004A
:102570000000000000000000000000000030030028
:10258000FF800000000000000000000000000000CC
:10259000000000380380FF00000000000000000081
:1025A0000000000000000000003C01E0FF0000000F
:1025B0000000000000000000000000000000001EFD
:1025C00001F0FE000000000000000000000000001C
:1025D00000000000001F01F8FE00000000000000E5
:1025E00000000000000000000000001F80FFFE004F
:1025F00000000000000000000000000000000000DB
:10260000000FC0FFFC000000000000000000000000
:10261000000000000000000FE0FFFC0000000000D0
:10262000000000000000000000000000000FF0FFAC
:10263000F8000000000000000000000000000000A2
:1026400000000007F0FFF80000000000000000009C
:1026500000000000006000000007FFFFF80000001D
:10266000000000000000000000000038C00000036F
:10267000FFFFF0000000000000000000000000006C
:10268000003FC0000003FFFFF0000000000000005A
:10269000000000000000001FC0000003FFFFF0006A
:1026A000000000000000000000000000001FE0002B
:1026B0000001FFFFF000000000000000000000002B
:1026C0000000000FE0000001FFFFF000000000002C
:1026D00000000000000000000007E0000001FFFF14
:1026E000E000000000000000000000000000000703
:1026F000E0000000FFFFE00000000000000000001C
:10270000000000000003F0000000FFFFE0000000F8
:10271000000000000000000000000003F0000000C6
:10272000FFFFE000000000000000000000000000CB
:102730000001F0000000FFFFE000000000000000CA
:102740000000000000000000F800001FFFFFE00094
:102750000000000000000000000000000000F80081
:10276000001FFFFFE000000000000000000000006C
:10277000000000007C00000FFFFFF00000000000E0
:10278000000000000000000000007C00000FFFFFC0
:10279000F000000000000000000000000000000049
:1027A0003C000007FFFFF0000000000000000000F8
:1027B0000000000000003E000007FFFFF8000000DE
:1027C0000000000000000000000000001E000003E8
:1027D000FFFFF80000000000000000000000000003
:1027E00000000F000000FFFFFC00000000000000E0
:1027F00000000000000000000F0000007FFFFC0050
:102800000000000000000000000000000000078041
:1028100000007FFFFE00000000000000000000003C
:1028200000000000078000007FFFFE0000000000A5
:102830000000000000000000000003C00001FFFFD6
:10284000FF00000000000000000000000000000089
:1028500003E00007FFFFFF80000000000000000011
:1028600000000000000001F00007FFFFFFC00000B3
:1028700000000000000000000000000001F0000F58
:10288000FFFFFFC00000000000000000000000008B
:10289000000000F8000FFFFFFFE000000000000054
:1028A000000000000000000000FC000FFFFFFFF030
:1028B000000000000000000000000000000000FE1A
:1028C000000FFFFFFFF0000000000000000000000C
:1028D0000000000000FF001FFFFFFFF800000000E5
:1028E0000000000000000000000020FFC03FFFFFCC
:1028F000FFF00000000000000000000000000000E9
:1029000030FFE0FFFFFFFE000000000000000000BD
:102910000000000000003FFFFFFFFFFFF00000008D
:102920000000000000000000000000007FFFFFFF2B
:10293000FFFFC000000000000000000000000000D9
:102940000003FFFFFFFFFFFF00000000000000008A
:102950000000000000000001FFFFFFFFFFFE00007D
:102960000000000000000000000000000000FFFF69
:10297000FFFFFFFC0000000000000000000000005E
:10298000000000007FFFFFFFFFF8000000000000D4
:10299000000000000000000000001FFFFFFFFFF824
:1029A0000000000000000000000000000000000027
:1029B00007FFFFFFFFF00000000000000000000024
:1029C00000000000000000FFFFFFFFE0000000002B
:1029D000000000000000000000000000003FFFFFBA
:1029E000FFE0000000000000000000000000000008
:1029F0000000001FFFFFFFC00000000000000000FB
:102A00000000000000000000000FFFFFFFC00000FA
:102A10000000000000000000000000000000000FA7
:102A2000FFFFFFC0000000000000000000000000E9
:102A300000000000000FFFFFFFC0000000000000CA
:102A400000000000000000000000000FFFFFFFC0BA
:102A50000000000000000000000000000000000076
:102A600000FFFFFFFFE0000000000000000000008A
:102A700000000000000803FFFFFFFFE0000000006F
:102A800000000000000000000000000FFFFFFFFF3B
:102A9000FFF0000000000000000000000000000047
:102AA000000FFFFFFFFFFFF8000000000000000024
:102AB000000000000000000FFFFFFFFFFFFC000010
:102AC000000000000000000000000000000FFFFFF9
:102AD000FFFFFFFE000000000000000000000000FB
:102AE00000000003FFFFFFFFFFFF000000000000E9
:102AF00000000000000000000000FFFFFFFFFFFFDC
:102B000000000000000000000000000000000000C5
:102B10003FFFFFFFFFFC000000000000000000007E
:102B20000000000000001FFFFFFFFFF80000000092
:102B30000000000000000000000000001FFFFFFF79
:102B4000FF00000000000000000000000000000086
:102B500000001FFFFFFFFF0000000000000000005A
:102B600000000000000000001FFFFFFFFF0000004A
:102B700000000000000000000000000000001FFF37
:102B8000FFFFFF0000000000000000000000000048
:102B9000000000001FFFFFFFFF000000000000001A
:102BA000000000000000000000003FFFFFFFFF00EA
:102BB0000000000000000000000000000000000015
:102BC0003FFFFFFFFF0000000000000000000000CA
:102BD0000000000000007FFFFFFFFF00000000007A
:102BE0000000000000000000000000007FFFFFFF69
:102BF000FE000000000000000000000000000000D7
:102C00000000FFFFFFFFFE000000000000000000CA
:102C10000000000000000001FFFFFFFFFE000000B9
:102C20000000000000000000000000000003FFFFA3
:102C3000FFFFFC000000000000000000000000009A
:102C400000000007FFFFFFC3F800000000000000C5
:102C50000000000000000000001FFFFFFF007000E8
:102C6000000000000000000000000000000000FF65
:102C7000FFFFFE0000000000000000000000000058
:102C80000000000000FFFFFFF8000000000000004F
:102C900000000000000000000000007FFFFFF000C7
:102CA0000000000000000000000000000000000024
:102CB0000003FFFFC0000000000000000000000053
:102CC0000000000000000003FFFF00000000000003
:102CD0000000000000000000000000000003FFFEF4
:102CE00000000000000000000000000000000000E4
:102CF00000000003FFFC00000000000000000000D6
:102D00000000000000000000000FFFF800000000BD
:102D10000000000000000000000000000000001F94
:102D2000FFF00000000000000000000000000000B4
:102D300000000000000FFFF0000000000000000095
:102D4000000000000000000000000007FFF000008D
:102D50000000000000000000000000000000000073
:102D60000003FFF000000000000000000000000071
:102D70000000000000000001FFF000000000000063
:102D80000000000000000000000000000001FFF053
:102D90000000000000000000000000000000000033
:102DA00000000000FFF00000000000000000000034
:102DB00000000000000000000000FFF00000000024
:102DC0000000000000000000000000000000000003
:102DD000FFF0000000000000000000000000000004
:102DE000000000000000FFF80000000000000000EC
:102DF0000000000000000000000000007FF800005C
:102E000000000000000000000000000000000000C2
:102E100000007FF80000000000000000000000003B
:102E20000000000FFFFFC0007FF80000000000005E
:102E300000000000000000007FFFFFFFFFC07FF8E0
:102E40000000000000000000000000000000000082
:102E5000000001FFFFF8000000000000000000007B
:102E600000000000000000000003FFFC0000000064
:102E70000000000000000000000000000000000052
:102E80003FFC000000000000000000000000000007
:102E90000000000000003FFC0000000000000000F7
:102EA0000000000000000000000000003FFC0000E7
:102EB0000000000000000000000000000000000012
:102EC00000007FFE00000000000000000000000085
:102ED0000000000000000000FFFE000000000000F5
:102EE0000000000000000000000000000000FF8063
:102EF00000000000000000000000000000000000D2
:102F000000000001FF0000000000000000000000C1
:102F100000000000000000000001FE0000000000B2
:102F200000000000000000000000000000000001A0
:102F3000FC00000000000000000000000000000095
:102F4000000000000003F800000000000000000086
:102F5000000000000000000000000003F800000076
:102F60000000000000000000000000000000000061
:102F70000003F0000000000000000000000000005E
:102F80000000000000000007E0000000000000005A
:102F90000000000000000000000000000007C0006A
:102FA0000000000000000000000000000000000021
:102FB00000000007C000000000000000000000004A
:102FC0000000000000000000000F80000000000072
:102FD0000000000000000000000000000000000FE2
:102FE00000000000000000000000000000000000E1
:102FF00000000000001F00000000000000000000B2
:1030000000000000000000000000001E00000000A2
:1030100000000000000000000000000000000000B0
:10302000003E000000000000000000000000000062
:10303000000000000000007C000000000000000014
:103040000000000000000000000000001FF8000069
:103050000000000000000000000000000000000070
:10306000001FFFF80000000000000000000000004A
:10307000000000000000001FF1F000000000000050
:10308000000000000000000000000000008E01F0C1
:103090000000000000000000000000000000000030
:1030A0000000000001E0000000000000000000003F
:1030B0000000000000000000000001E0000000002F
:1030C0000000000000000000000000000000000000
:1030D00003C000000000000000000000000000002D
:1030E0000000000000000780000000000000000059
:1030F0000000000000000000000000000780000049
:1031000000000000000000000000000000000000BF
:1031100000000F00000000000000000000000000A0
:1031200000000000000000001F0000000000000080
:1031300000000000000000000000000000003E0051
:10314000000000000000000000000000000000007F
:10315000000000003C000000000000000000000033
:10316000000000000000000000007C0000000000E3
:10317000000000000000000000000000000000004F
:10318000F800000000000000000000000000000047
:10319000000000000001F00000000000000000003E
:1031A000000000000000000000000001F00000002E
:1031B000000000000000000000000000000000000F
:1031C0000003E0000000000000000000000000001C
:1031D0000000000000000007C00000000000000028
:1031E000000000000000000000000000000F800050
:1031F00000000000000000000000000000000000CF
:103200000000000F000000000000000000000000AF
:103210000000000000000000001F0000000000008F
:103220000000000000000000000000000000003F5F
:10323000000000000000000000000000000000008E
:1032400000000000007F00000000000000000000FF
:1032500000000000000000000000007F00000000EF
:10326000000000000000000000000000000000005E
:1032700000FF00000000000000000000000000004F
:1032800000000000000001FF00000000000000003E
:1032900000000000000000000000000001FE00002F
:1032A000000000000000000000000000000000001E
:1032B000000003FE0000000000000000000000000D
:1032C000000000000000000007C600000000000031
:1032D00000000000000000000000000000000F8659
:1032E00000000000000000000000000000000000DE
:1032F000000000000F0400000000000000000000BB
:10330000000000000000000000001E04000000009B
:1033100000000000000000000000000000000000AD
:103320003C00000000000000000000000000000061
:103330000000000000003800000000000000000055
:10334000000000000000000000000000700000000D
:10335000000000000000000000000000000000006D
:103360000000E0000000000000000000000000007D
:103370000000000000000001C0000000000000008C
:1033800000000000000000000000000000018000BC
:10339000000000000000000000000000000000002D
:1033A000000000030000000000000000000000001A
:1033B0000000000000000000000600000000000007
:1033C0000000000000000000000000000000000EEF
:1033D00000000000000000000000000000000000ED
:1033E00000000000000C00000000000000000000D1
:1033F00000000000000000000000001800000000B5
:1034000000000000000000000000000000000000BC
:10341000003000000000000000000000000000007C
:10342000000000000000006000000000000000003C
:10343000000000000000000000000000004000004C
:10344000000000000000000000000000000000007C
:1034500000000080000000000000000000000000EC
:10346000000000000000000001000000000000005B
:10347000000000000000000000000000000002004A
:10348000000000000000000000000000000000003C
:10349000000000000000000000000000000000002C
:1034A0000000000000000000000004000000000018
:1034B000000000000000000000000000000000000C
:1034C00018000000000000000000000000000000E4
:1034D00000000000000010000000000000000000DC
:1034E00000000000000000000000000020000000BC
:1034F00000000000000000000000000000000000CC
:1035000000000000000000000000000000000000BB
:1035100000000000000000000000000000000000AB
:10352000000000000000000000000000000000009B
:10353000000000000000000000000000000000008B
:10354000000000000000000000000000000000007B
:10355000000000000000000000000000000000006B
:10356000000000000000000000000000000000005B
:10357000000000000000000000000000000000004B
:10358000000000000000000000000000000000003B
:10359000000000000000000000000000000000002B
:1035A000000000000000000000000000000000001B
:1035B000000000000000000000000000000000000B
:1035C00000000000000000000000000000000000FB
:1035D00000000000000000000000000000000000EB
:1035E00000000000000000000000000000000000DB
:1035F00000000000000000000000000000000000CB
:1036000000000000000000000000000000000000BA
:1036100000000000000000000000000000000000AA
:10362000000000000000000000000000000000009A
:10363000000000000000000000000000000000008A
:10364000000000000000000000000000000000007A
:10365000000000000000000000000000000000006A
:10366000000000000000000000000000000000005A
:10367000000000000000000000000000000000004A
:10368000000000000000000000000000000000003A
:10369000000000000000000000000000000000002A
:1036A000000000000000000000000000000000001A
:1036B000000000000000000000000000000000000A
:1036C0000000000000000000FFFFFFC0000000003D
:1036D0000400000000000000000000000000FFFFE8
:1036E000FFC0000000000400000000000000000017
:1036F00000000000FFFFFFC0000000000400000009
:1037000000000000000000000000FFFFFFC00000FC
:1037100000000E000000000000000000000000009B
:10372000FFFFFFC0000000000E00000000000000CE
:10373000000000000000FFFFFFC0000000001C00B0
:10374000000000000000000000000000FFFFFFC0BC
:10375000000000001C00000000000000000000004D
:103760000000FFFFFFC00000000008000000000094
:103770000000000000000000FFFFFFC0000000008C
:103780000000000000000000000000000000FFFF3B
:10379000FFC0000000000000000300000000000067
:1037A00000000000FFFFFFC0000000000000000755
:1037B00000000000000000000000FFFFFFC000004C
:1037C00000000000000F800000000000000000006A
:1037D000FFFFFFC0000000000000001F800000008D
:1037E000000000000000FFFFFFC00000000000001C
:1037F000001F81E00000000000000000FFFFFFC08C
:10380000000000000000001F800000000000000019
:103810000000FFF07FC0000000000000001F8000DB
:103820000000000000000000FFEFFFC000000000EB
:103830000000001F80000000000000000000FFEFFB
:10384000FFC0000000000000001F8000000000001A
:1038500000000000FFF07FC0000000000000001F1B
:1038600080000000000000000000FFEFFFC000002B
:1038700000000000001F81C00000000000000000E8
:10388000FFEFFFC0000000000000001F87F00000F5
:10389000000000000000FFF7FFC000000000000073
:1038A000000F07F00000000000000000FFE07FC0F4
:1038B000000000000380000F0FF000000000000077
:1038C0000000FFFFFFC00000000007E0000E1FE047
:1038D0000000000000000000FFFFFFC0000000002B
:1038E00001FC00041FC00000000000000000FFF009
:1038F000FFC000000000007800001F8000000000F2
:1039000000000000FFEF7FC000000000000000008A
:103910001F000000000000000000FFEF7FC000005B
:103920000000000000000003000000000000000094
:10393000FFEF7FC00000000000000000000F00004B
:10394000000000000000FFF0FFC000000000003891
:103950000000001F0000000000000000FFFFFFC08B
:103960000000000000700000003E000000000000A9
:103970000000FFEF7FC00000000000E0000000F842
:103980000000000000000000FFEF7FC0000000000A
:1039900000C0000000000000000000000000FFEF79
:1039A0007FC00000000000000000000000000000D8
:1039B00000000000FFF0FFC0000000000000000059
:1039C00000000000000000000000FFFFFFC000003A
:1039D00000000000000000000000000000000000E7
:1039E000FFFFFFC00000000000000000000000001A
:1039F000000000000000FFFF7FC00000000000008A
:103A0000000000000000000000000000FFFFFFC0F9
:103A100000000000000000000000000000000000A6
:103A20000000FFFFFFC000000000000000000000D9
:103A30000000000000000000FFF37FC00000000055
:103A40000000000000000000000000000000FFEB8C
:103A50007FC0000000000000000000000000000027
:103A600000000000FFEB7FC000000000000000002D
:103A700000000000000000000000FFEB7FC000001D
:103A8000000000000000070000000000000000002F
:103A9000FFF0FFC000000000000000008780000071
:103AA000000000000000FFFFFFC000000000000059
:103AB0000000FF810000000000000000FFEFFFC0D9
:103AC0000000000000000001FF87800000000000EF
:103AD0000000FFEFFFC00000000000000001CCC7A5
:103AE0008000000000000000FFE07FC00000000038
:103AF00000000000CCC78000000000000000FFFFB5
:103B0000FFC00000000000000000CFFC80000000AB
:103B100000000000FFFFFFC00000000000000000E8
:103B20007FF8F000000000000000FFF07FC0000000
:103B30000000000000007F3CF800000000000000D2
:103B4000FFEB7FC0000000000000001E0827F0000F
:103B5000000000000000FFEB7FC00000000000003C
:103B6000003FC00F3000000000000000FFEB7FC0EE
:103B7000000000000000003DF001200000000000F7
:103B80000000FFECFFC000000000000000188003F0
:103B90008000000000000000FFFFFFC000000000E8
:103BA00000000019800B8000000000000000FFFFF3
:103BB000FFC0000000000000001FC00680000000E1
:103BC00000000000FFF07FC0000000000000003D8A
:103BD00080010000000000000000FFEFFFC00000B7
:103BE000000000000038C2090000000000000000D2
:103BF000FFEFFFC00000000000000018CF3FB00042
:103C0000000000000000FFF7FFC0000000000000FF
:103C1000000F3FFE7800000000000000FF807FC022
:103C200000000000000000013FFE700000000000E6
:103C30000000FFFFFFC00000000000000001BFF611
:103C40000000000000000000FFFFFFC000000000B7
:103C500000000001F2638000000000000000FFECA3
:103C6000FFC00000000000000001F27380000000AF
:103C700000000000FFED7FC0000000000000000118
:103C8000FE0F8000000000000000FFEB7FC000007E
:103C9000000000000000FF830000000000000000A2
:103CA000FFF37FC0000000000000000087800000DC
:103CB000000000000000FFFFFFC000000000000047
:103CC000000007000000000000000000FFFFFFC030
:103CD00000000000000000000600000000000000DE
:103CE0000000FFF37FC000000000000000000000A3
:103CF0000000000000000000FFEB7FC0000000009B
:103D00000000000000000000000000000000FFEBC9
:103D10007FC0000000000000000000000000000064
:103D200000000000FFEB7FC000000000000000006A
:103D300000000000000000000000FFF0FFC00000D5
:103D40000000000000000000000000000000000073
:103D5000FFFFFFC0000000000000000000000000A6
:103D6000000000000000FFE7FFC0000000000000AE
:103D7000000000000000000000000000FFF9FFC08C
:103D80000000000000000000000000000000000033
:103D90000000FFFE7FC000000000000000000000E7
:103DA0000000000000000000FFF9FFC0000000005C
:103DB0000000000000000000000000000000FFE71D
:103DC000FFC0000000000020000000000000000014
:103DD00000000000FFFFFFC00000000000FC00002A
:103DE00000000000000000000000FFF07FC00000A5
:103DF000000001FE000000000000000000000000C4
:103E0000FFEB7FC00000000001FF00000000000089
:103E1000000000000000FFEB7FC00000000181FFF8
:103E2000800000000000000000000000FFEB7FC0E9
:103E300000000003E3FF800000000000000000001D
:103E40000000FFECFFC000000007F3FFC00000000F
:103E50000000000000000000FFFFFFC00000000F96
:103E6000FBFFC01F80000000000000000000FFE713
:103E7000FFC00000000FFFFFC07FC0000000000077
:103E800000000000FFF9FFC00000000FFFFFC1FFAE
:103E9000E0000000000000000000FFFE7FC0000006
:103EA000001FFFDFC3FFF000000000000000000063
:103EB000FFF9FFC00000001FFFF3EBFFE000000070
:103EC000000000000000FFE7FFC00000001FF3E15A
:103ED000D0FFE0000000000000000000FFF9FFC07C
:103EE0000000001FE1E1F0FFC00000000000000042
:103EF0000000FFFE7FC00000000FE1E1F0FFC00006
:103F00000000000000000000FFF9FFC00000000FEB
:103F1000E1DFF9FFC0000000000000000000FFE743
:103F2000FFC00000000FFBFFFFF387000000000050
:103F300000000000FFFFFFC00000000FFFFFFFE1D7
:103F40007F800000000000000000FFFF7FC0000035
:103F50000007FFFFFFC1FFC00000000000000000DD
:103F6000FFFFFFC0000003F8FFFFFFE3FFC00000FA
:103F7000000000000000FFE7FFC000000FF87FFF17
:103F8000FFF7FFC00000000000000000FFF9FFC0C5
:103F900000003FF87F9F3FBFFFC00000000000000F
:103FA0000000FFFE7FC000007FF89F863E3FFFC0FD
:103FB0000000000000000000FFF9FFC000007FFFCC
:103FC00080C010FFFF800000000000000000FFE73D
:103FD000FFC00000FFFFE00001BF1F8000000000E5
:103FE00000000000FFF9FFC00000FFFFFC0003FE1F
:103FF0001F000000000000000000FFFE7FC0000165
:10400000FFFFF60000061E00000000000000000098
:10401000FFF9FFC00000FFC7F00000071C00000010
:10402000000000000000FFE7FFC000007F87FE00E7
:10403000007FF8000000000000000000FFE7FFC064
:1040400000003F83C000008FC0000000000000009F
:104050000000FFF9FFC000001FC60000000FC000F5
:104060000000000000000000FFFE7FC000000FFF06
:10407000800003FFC0000000000000000000FFF906
:10408000FFC000001FFFF00001FFC00000000000A3
:1040900000000000FFE7FFC000007FFFC000007FBE
:1040A000F0000000000000000000FFF9FFC0000069
:1040B000FFFF8000001FFC00000000000000000067
:1040C000FFFE7FC00001FFC7FC0000070E000000DC
:1040D000000000000000FFF9FFC00000FFC3F01C5B
:1040E00001C30F000000000000000000FFE7FFC058
:1040F0000000FF83E0FC18FB0F80000000000000C0
:104100000000FFE7FFC000007FC7C7FC3EFF9F80A5
:104110000000000000000000FFF9FFC000003FFDAC
:10412000DFFE7FFFFFC00000000000000000FFFE78
:104130007FC000001FFFFFFFFFFFFFC00000000067
:1041400000000000FFF9FFC000000FFE1FFFFFF896
:104150007FC00000000000000000FFE7FFC000007B
:1041600003FE1FFFFFF87FC00000000000000000FA
:10417000FFF9FFC0000000061FFFFFF87F8000006E
:10418000000000000000FFFE7FC0000000073FFFAE
:10419000FFFCFF800000000000000000FFF9FFC0EE
:1041A00000000007FFFFFE7FBF00000000000000CE
:1041B0000000FFE7FFC00000000FFE3FFC3F800053
:1041C0000000000000000000FFFFFFC00000000F23
:1041D000FE1CFC1FC0000000000000000000FFFFEC
:1041E000FFC00000001FFC187E3FC0000000000060
:1041F00000000000FFFFFFC00000001FFE387F7FAF
:10420000E0000000000000000000FFFFFFC0000011
:10421000001FFF787FFFE0000000000000000000AA
:10422000FFFFFFC00000001FFFFFDBFFF0000000EA
:10423000000000000000FFFFFFC00000000FFFFFB4
:10424000D9FFE0000000000000000000FFFFFFC0F9
:104250000000000FFFFFC07FC00000000000000052
:104260000000FFFFFFC000000007FFFFC01F0000AD
:104270000000000000000000FFFFFFC0000000077A
:10428000FBFFC00000000000000000000000FFFF76
:10429000FFC000000003E1FF8000000000000000FC
:1042A00000000000FFFFFFC000000001C1FF800010
:1042B00000000000000000000000FFFFFFC0000041
:1042C000000001FF000000000000000000000000EE
:1042D000FFEF7FC00000000001FE000000000000B2
:1042E000000000000000FFEF7FC00000000000F8A9
:1042F000000000000000000000000000FFC0FFC040
:1043000000000000000000000000000000000000AD
:104310000000FFEFFFC000000000000000000000F0
:104320000000000000000000FFFFFFC000000000D0
:104330000000000000000000000000000000FFF38B
:104340007FC000000000000000000000000000002E
:1043500000000000FFEB7FC0000000000000000034
:1043600000000000000000000000FFEB7FC0000024
:10437000000000000000000000000000000000003D
:10438000FFEB7FC000003000C00000000000000014
:10439000000000000000FFF0FFC000007803C00034
:1043A000000000000000000000000000FFFFFFC050
:1043B00000007C07C00000000000000000000000BA
:1043C0000000FFFFFFC000007E0FC30000000000E0
:1043D0000000000000000000FFF07FC000003F0769
:1043E000C380000000000000000000000000FFEF9C
:1043F000FFC000001F87C300000000000000000095
:1044000000000000FFEFFFC000001FC78300000096
:1044100000000000000000000000FFF7FFC00000E7
:104420000FC7860000000000000000000000000030
:10443000FFE07FC0000007C3040000000000000090
:10444000000000000000FFFFFFC0000001C00000EE
:10445000000000000000000000000000FFFFFFC09F
:10446000000000C00000000000000000000000008C
:104470000000FFFF7FC000000000000000000000FF
:104480000000001C00000000FFFFFFC00000000053
:104490000000000000000000003F00000000FFFFDF
:1044A000FFC0000000000000000000000000003F0E
:1044B00080000000FFF37FC000000000000000004B
:1044C000000000001C7F80000000FFEB7FC00000A8
:1044D000000000000000000000003E7FC00000005F
:1044E000FFEB7FC0000000000000000000000000A3
:1044F0007F7FC03C0000FFEB7FC000000000000099
:104500000000000000007FFFC0FE0000FFF0FFC0C1
:104510000000000000000000000000007FFFC1FF5D
:104520000000FFFFFFC000000000000000000000CE
:104530000000FFF8C3FF0000FFEFFFC00000000015
:104540000000000000000000FE78F1FE0000FFEF18
:10455000FFC0001C00000180000000000000FC38CB
:10456000F1FE0000FFE07FC0003800000380800003
:1045700000000000FE3DF1FE0000FFFFFFC00078DC
:1045800000000780000000000000FE7FFFCE00005A
:10459000FFFFFFC0006000000E18000000000000D8
:1045A0007FFFFF87F800FFF07FC0000180001E1C26
:1045B0000000000000014FFFFF87F800FFEB7FC005
:1045C000000180001C1C00000000000F87FFFFCFCF
:1045D000F800FFEB7FC000010000100C000000009D
:1045E000003F87E73F7FF800FFEB7FC0000000003F
:1045F000000000000000007FC8F31C7FF800FFEC03
:10460000FFC00000000000000000000000FFF810E4
:1046100011FCF000FFFFFFC00000000000000000E0
:10462000000001FFFE0003F8F000FFFFFFC00000E4
:10463000000000000000000001FFFF800008E00013
:10464000FFF07FC00000000000000000000000FE3E
:104650003F00001CC000FFEFFFC000000000000092
:1046600000000000007E3F8000FF0000FFEFFFC061
:1046700000000000000000000000003E3000003E8E
:104680000000FFF7FFC00000000000000000000075
:10469000003F7000023E0000FF807FC0000000006D
:1046A000000000000000003FFE0001FE0000FFFFD0
:1046B000FFC00000000000000000000000FFF80044
:1046C000007F8000FFFFFFC000000000000000002E
:1046D000000001FF7980001CE000FFECFFC000003B
:1046E00000000001E000000001FE3F06010870002C
:1046F000FFED7FC0000000000007F800000000FE92
:104700003C1E19E87000FFEB7FC000000000000FA6
:10471000F8000000007E38FF3FFCF800FFF37FC088
:1047200000000000003FF8000000003FDFFF7FFFB7
:10473000F800FFFFFFC000000000000FF0000000C5
:10474000001FF3FFFFE3F800FFFFFFC000000000C1
:104750000001C0000000000021FFFFE1F800FFF3AE
:104760007FC000000000000000000000000031FFDA
:10477000FFE3F800FFEB7FC0000000000000000036
:10478000000000003FFFFEFFF000FFEB7FC00000D5
:10479000000000001C00000000003FCFFC7E000075
:1047A000FFEB7FC0000000000000380000000000A8
:1047B0007F867C7E0000FFF0FFC00000000000004C
:1047C0007800000000007F843C7E0000FFFFFFC0F7
:1047D000000000000000F00000000000FFCE2FFFEE
:1047E0000000FFE7FFC0000000000001F000000033
:1047F00000007FFF63FF0000FFF9FFC00000000022
:104800000001C000000000007FFFE1FF0000FFFE8C
:104810007FC00000000000000000000000007FFFDB
:10482000C07C0000FFF9FFC0000000000000000095
:10483000000000003F7FC0000000FFE7FFC0000055
:10484000000000000000000000001C3FC00000004D
:10485000FFFFFFC00000000000000000000000009B
:10486000083F80000000FFF07FC000000000000053
:10487000000000000000003F00000000FFEB7FC0D0
:10488000000000000000000000000000001C00000C
:104890000000FFEB7FC000000000000000000000EF
:1048A0000000000000000000FFEB7FC000000000DF
:1048B0000000000000000000000000000000FFEC0D
:1048C000FFC0000000000000000000000000000029
:1048D00000000000FFFFFFC000000000000000001B
:1048E00000000000000000000000FFE7FFC0000023
:1048F00000000000000000000000000000000000B8
:10490000FFF9FFC0000000000000000000000000F0
:10491000000000000000FFFE7FC00000000000005B
:10492000000000000000000000000000FFF9FFC0D0
:104930000000000000000000000000000000000077
:104940000000FFE7FFC000000000000000000000C2
:104950000000000000000000FFF9FFC000000000A0
:104960000000000000000000000000000000FFFE4A
:104970007FC00000000000000000000000000000F8
:1049800000000000FFF9FFC0000000000000000070
:1049900000000000000000000000FFE7FFC0000072
:1049A0000000000000000000000000000000000007
:1049B000FFFFFFC00000000000000000000000003A
:1049C000000000000000FFFF7FC0000000000000AA
:1049D000000000000000000000000000FFFFFFC01A
:1049E00000000000000000000000000000000000C7
:1049F0000000FFE7FFC00000000000000000000012
:104A00000000000000000000FFF9FFC000000000EF
:104A10000000000000000000000000000000FFFE99
:104A20007FC0000000000000000000000000000047
:104A300000000000FFF9FFC00000000000000000BF
:104A400000000000000000000000FFE7FFC00000C1
:104A50000000000000000000000000000000000056
:104A6000FFF9FFC00000000000000000000000008F
:104A7000000000000000FFFE7FC0000000000000FA
:104A8000000000000000000000000000FFF9FFC06F
:104A90000000000000000000000000000000000016
:104AA0000000FFE7FFC00000000000000000000061
:104AB0000000000000000000FFE7FFC00000000051
:104AC0000000000000000000000000000000FFF9EE
:104AD000FFC0000000780000060000000000000099
:104AE00000000000FFFE7FC00000007E00000E00FE
:104AF00000000000000000000000FFF9FFC00000FF
:104B0000003F00001C00000000000000000000004A
:104B1000FFE7FFC00000001F80003C000000000015
:104B2000000000000000FFF9FFC00000000F80003F
:104B3000380000000000000000000000FFFE7FC001
:104B40000000000300002000000000000000000042
:104B50000000FFF9FFC0000000000000000000009E
:104B60000000000000000000FFE7FFC000000000A0
:104B70000000000000000000000000000000FFE74F
:104B8000FFC0000000000000000000000000000066
:104B900000000000FFF9FFC000000000000000005E
:104BA00000000000000000000000FFFE7FC00000C9
:104BB00000000000000000000000000000000000F5
:104BC000FFF9FFC00000000000000000000000002E
:104BD000000000000000FFE7FFC000000000000030
:104BE000000000000000000000000000FFF9FFC00E
:104BF00000000000000000000000000000000000B5
:104C00000000FFFE7FC00000000000000000000068
:104C10000000000000000000FFF9FFC000000000DD
:104C20000000000000000000000000000000FFE79E
:104C3000FFC00000000000000000000000000000B5
:104C400000000000FFFFFFC00000000000000000A7
:104C500000000000000000000000FFFFFFC0000097
:104C60000000000000000000000000000000000044
:104C7000FFFFFFC000000000000000000000000077
:104C8000000000000000FFFFFFC000000000000067
:104C9000000000000000000000000000FFFFFFC057
:104CA0000000000000000000000000000000000004
:104CB0000000FFFFFFC00000000000000000000037
:104CC0000000000000000000FFFFFFC00000000027
:104CD0000000000000000000000000000000FFFFD6
:104CE000FFC0000000000000000000000000000005
:104CF00000000000FFFFFFC00000000000000000F7
:104D000000000000000000000000FFFFFFC00000E6
:104D10000000000000000000000000000000000093
:104D2000FFFFFFC0000000000000000000000000C6
:104D3000000000000000FFFFFFC0000000000000B6
:104D4000000000000000000000000000FFFFFFC0A6
:104D50000000000000000000000000000000000053
:104D60000000FFFFFFC00000000000000000000086
:104D70000000000000000000000000000000000033
:104D80000000000000000000000000000000000023
:104D9000000000000000000000000C000C000C00EF
:104DA0000C000C000C000C000C0000000C000000BB
:104DB0000000000000000000000000001DC01DC039
:104DC000088008800880000000000000000000004B
:104DD000000000000000000000000D800D800D802C
:104DE0000D803FC01B003FC01B001B001B001B00B1
:104DF000000000000000000004001F8031803180AE
:104E000038001E000F000380318031803F00040015
:104E1000040000000000000000001800240024002E
:104E200018C007801E00318002400240018000004F
:104E30000000000000000000000000000F0018004B
:104E4000180018000C001D80370033001D80000082
:104E50000000000000000000000000000700070044
:104E6000020002000200000000000000000000003C
:104E70000000000000000000000003000300060026
:104E80000E000C000C000C000C000E0006000300CD
:104E900003000000000000000000180018000C00D3
:104EA0000600060006000600060006000C001C00B6
:104EB00018000000000000000000060006003FC0CF
:104EC0003FC00F001F80198000000000000000009C
:104ED00000000000000000000000000000000400CE
:104EE000040004003F8004000400040000000000EF
:104EF00000000000000000000000000000000000B2
:104F000000000000000000000000060004000C008B
:104F10000800080000000000000000000000000081
:104F2000000000003F8000000000000000000000C2
:104F30000000000000000000000000000000000071
:104F4000000000000000000000000C000C00000049
:104F5000000000000000000000C000C001800180CF
:104F60000300030006000C000C00180018003000BD
:104F7000300000000000000000000E001B00318027
:104F8000318031803180318031801B000E00000083
:104F90000000000000000000000006003E000600C7
:104FA0000600060006000600060006003FC00000DE
:104FB000000000000000000000000F001980318098
:104FC0003180030006000C00180030003F80000014
:104FD000000000000000000000003F006180018030
:104FE00003001F0003800180018061803F000000FA
:104FF00000000000000000000000070007000F0094
:105000000B001B00130033003F8003000F800000E3
:10501000000000000000000000001F8018001800C1
:1050200018001F0011800180018021801F000000F6
:105030000000000000000000000007801C001800B5
:105040003000370039803180318019800F00000036
:10505000000000000000000000007F00430003008B
:1050600006000600060006000C000C000C00000004
:10507000000000000000000000001F0031803180AF
:1050800031801F0031803180318031801F0000006D
:10509000000000000000000000001E00330031800E
:1050A000318033801D800180030007003C00000038
:1050B00000000000000000000000000000000000F0
:1050C0000C000C000000000000000C000C000000B0
:1050D00000000000000000000000000000000000D0
:1050E00003000300000000000000060004000800A8
:1050F00008000000000000000000000000C00300E5
:1051000004001800600018000400030000C0000044
:10511000000000000000000000000000000000008F
:1051200000007FC000007FC0000000000000000001
:1051300000000000000000000000000060001800F7
:105140000400030000C00300040018006000000019
:105150000000000000000000000000001F0031807F
:105160003180018007000C000C0000000C000000E2
:10517000000000000000000000000E0011002100EF
:1051800021002700290029002700200011000E001F
:105190000000000000000000000000003F000F00C1
:1051A0000900198019801F8030C030C079E00000EC
:1051B0000000000000000000000000007F003180BF
:1051C000318031803F003180318031807F000000AC
:1051D0000000000000000000000000001F4030C080
:1051E0006040600060006000604030801F00000090
:1051F0000000000000000000000000007F0031807F
:1052000030C030C030C030C030C031807F000000BE
:105210000000000000000000000000007F803080DF
:10522000308032003E003200308030807F800000CD
:105230000000000000000000000000007FC03040BF
:10524000304032003E003200300030007C00000070
:105250000000000000000000000000001E803180FF
:1052600060806000600067C0618031801F000000C6
:105270000000000000000000000000007BC0318042
:10528000318031803F803180318031807BC00000AF
:105290000000000000000000000000003FC0060009
:1052A0000600060006000600060006003FC00000DB
:1052B0000000000000000000000000001FC003000C
:1052C0000300030003006300630063003E0000006E
:1052D0000000000000000000000000007BC03180E2
:1052E000330036003C003E003300318079C00000BE
:1052F0000000000000000000000000007E00180018
:105300001800180018001840184018407FC000000E
:10531000000000000000000000000000E0E060C0AD
:1053200071C07BC06AC06EC064C060C0FBE000009A
:1053300000000000000000000000000073C0318089
:1053400039803D803580378033803180798000001E
:105350000000000000000000000000001F0031807D
:1053600060C060C060C060C060C031801F000000CD
:105370000000000000000000000000007F003180FD
:105380003180318031803F00300030007E000000ED
:105390000000000000000000000000001F0031803D
:1053A00060C060C060C060C060C031801F000CC0C1
:1053B0001F80000000000000000000007F0031801E
:1053C000318031803E003300318031807CE000004C
:1053D0000000000000000000000000001F8031807D
:1053E000318038001F000380318031803F00000091
:1053F0000000000000000000000000007F804C80E2
:105400004C804C800C000C000C000C003F00000095
:105410000000000000000000000000007BC03180A0
:105420003180318031803180318031801F00000037
:105430000000000000000000000000007BC0318080
:1054400031801B001B001B000A000E000E00000034
:10545000000000000000000000000000FBE060C051
:1054600064C06EC06EC02A803B803B8031800000EB
:105470000000000000000000000000007BC0318040
:105480001B000E000E000E001B0031807BC00000D0
:1054900000000000000000000000000079E030C0C3
:1054A00019800F0006000600060006001F8000009D
:1054B0000000000000000000000000003F8021808C
:1054C0002300060004000C00188030803F8000009C
:1054D0000000000000000000000007800600060039
:1054E000060006000600060006000600060006008C
:1054F0000780000000000000300030001800180095
:105500000C000C000600030003000180018000C0B5
:1055100000C000000000000000001E0006000600A1
:10552000060006000600060006000600060006004B
:105530001E0000000000000004000A000A00110024
:10554000208020800000000000000000000000001B
:10555000000000000000000000000000000000004B
:10556000000000000000000000000000000000003B
:10557000000000000000FFE008000400020000003E
:10558000000000000000000000000000000000001B
:10559000000000000000000000000000000000000B
:1055A0001F00018001801F80318033801DC00000FA
:1055B000000000000000000000007000300030001B
:1055C0003700398030C030C030C0398077000000EB
:1055D00000000000000000000000000000000000CB
:1055E0001E80318060806000608031801F0000007C
:1055F0000000000000000000000003800180018026
:105600001D80338061806180618033801DC0000017
:10561000000000000000000000000000000000008A
:105620001F00318060C07FC0600030C01F8000005C
:105630000000000000000000000007E00C000C006B
:105640003F800C000C000C000C000C003F800000A0
:10565000000000000000000000000000000000004A
:105660001DC0338061806180618033801D80018036
:1056700001801F00000000000000700030003000BA
:105680003700398031803180318031807BC000002B
:1056900000000000000000000000060006000000FE
:1056A0001E00060006000600060006003FC00000BF
:1056B00000000000000000000000060006000000DE
:1056C0003F00030003000300030003000300030086
:1056D00003003E00000000000000700030003000B9
:1056E000378036003C003C003600330077C00000B5
:1056F000000000000000000000001E000600060080
:105700000600060006000600060006003FC0000076
:105710000000000000000000000000000000000089
:105720007F8036C036C036C036C036C076E0000056
:105730000000000000000000000000000000000069
:105740007700398031803180318031807BC000002A
:105750000000000000000000000000000000000049
:105760001F00318060C060C060C031801F00000039
:105770000000000000000000000000000000000029
:105780007700398030C030C030C0398037003000F9
:1057900030007C000000000000000000000000005D
:1057A0001DC0338061806180618033801D800180F5
:1057B000018007C0000000000000000000000000A1
:1057C0007B801CC018001800180018007F00000023
:1057D00000000000000000000000000000000000C9
:1057E0001F8031803C001F00038031803F0000009B
:1057F0000000000000000000000018001800180061
:105800007F00180018001800180018800F00000012
:105810000000000000000000000000000000000088
:105820007380318031803180318033801DC0000031
:105830000000000000000000000000000000000068
:105840007BC0318031801B001B000E000E00000069
:105850000000000000000000000000000000000048
:10586000F1E060C064C06EC03B803B8031800000CE
:105870000000000000000000000000000000000028
:105880007BC01B000E000E000E001B007BC0000042
:105890000000000000000000000000000000000008
:1058A00079E030C0198019800B000F000600060057
:1058B0000C003E000000000000000000000000009E
:1058C0003F80218003000E00180030803F800000E0
:1058D0000000000000000000000006000C000C00AA
:1058E0000C000C000C0018000C000C000C000C004C
:1058F0000600000000000000000006000600060090
:105900000600060006000600060006000600060067
:10591000060000000000000000000C000600060069
:10592000060006000600030006000600060006004A
:105930000C0000000000000000000000000000005B
:105940000000180024800300000000000000000098
:105950000000000000000000000000000000000047
:105960000000000000000000000000000000000037
:105970000000000000000000000000000000000027
:1059800000000700070007000700070007000700E6
:1059900002000200000000000700070000000000F5
:1059A0000000000000000000000000001CE01CE0FF
:1059B0001CE0084008400840000000000000000013
:1059C00000000000000000000000000000000000D7
:1059D0000CC00CC00CC00CC00CC03FF03FF00CC0A1
:1059E0000CC03FF03FF00CC00CC00CC00CC00CC091
:1059F00000000000000000000300030007E00FE0CB
:105A0000186018001F000FC000E0186018601FC069
:105A10001F800300030003000000000000000000DE
:105A200000001C002200220022001C6001E00F8008
:105A30003C0031C002200220022001C00000000012
:105A4000000000000000000000000000000003E073
:105A50000FE00C000C0006000F301FF019E018C01A
:105A60001FF007B000000000000000000000000070
:105A7000000000000380038003800100010001009A
:105A80000000000000000000000000000000000016
:105A90000000000000000000000000C000C0018005
:105AA00001800180030003000300030003000300E2
:105AB00001800180018000C000C0000000000000E3
:105AC00000000C000C0006000600060003000300A6
:105AD00003000300030003000600060006000C009C
